{
  "contractName": "AddressWhitelist",
  "abi": [
    {
      "anonymous": false,
      "inputs": [
        {
          "indexed": true,
          "internalType": "address",
          "name": "addedAddress",
          "type": "address"
        }
      ],
      "name": "AddedToWhitelist",
      "type": "event"
    },
    {
      "anonymous": false,
      "inputs": [
        {
          "indexed": true,
          "internalType": "address",
          "name": "previousOwner",
          "type": "address"
        },
        {
          "indexed": true,
          "internalType": "address",
          "name": "newOwner",
          "type": "address"
        }
      ],
      "name": "OwnershipTransferred",
      "type": "event"
    },
    {
      "anonymous": false,
      "inputs": [
        {
          "indexed": true,
          "internalType": "address",
          "name": "removedAddress",
          "type": "address"
        }
      ],
      "name": "RemovedFromWhitelist",
      "type": "event"
    },
    {
      "inputs": [],
      "name": "owner",
      "outputs": [
        {
          "internalType": "address",
          "name": "",
          "type": "address"
        }
      ],
      "stateMutability": "view",
      "type": "function"
    },
    {
      "inputs": [],
      "name": "renounceOwnership",
      "outputs": [],
      "stateMutability": "nonpayable",
      "type": "function"
    },
    {
      "inputs": [
        {
          "internalType": "address",
          "name": "newOwner",
          "type": "address"
        }
      ],
      "name": "transferOwnership",
      "outputs": [],
      "stateMutability": "nonpayable",
      "type": "function"
    },
    {
      "inputs": [
        {
          "internalType": "address",
          "name": "",
          "type": "address"
        }
      ],
      "name": "whitelist",
      "outputs": [
        {
          "internalType": "enum AddressWhitelist.Status",
          "name": "",
          "type": "uint8"
        }
      ],
      "stateMutability": "view",
      "type": "function"
    },
    {
      "inputs": [
        {
          "internalType": "uint256",
          "name": "",
          "type": "uint256"
        }
      ],
      "name": "whitelistIndices",
      "outputs": [
        {
          "internalType": "address",
          "name": "",
          "type": "address"
        }
      ],
      "stateMutability": "view",
      "type": "function"
    },
    {
      "inputs": [
        {
          "internalType": "address",
          "name": "newElement",
          "type": "address"
        }
      ],
      "name": "addToWhitelist",
      "outputs": [],
      "stateMutability": "nonpayable",
      "type": "function"
    },
    {
      "inputs": [
        {
          "internalType": "address",
          "name": "elementToRemove",
          "type": "address"
        }
      ],
      "name": "removeFromWhitelist",
      "outputs": [],
      "stateMutability": "nonpayable",
      "type": "function"
    },
    {
      "inputs": [
        {
          "internalType": "address",
          "name": "elementToCheck",
          "type": "address"
        }
      ],
      "name": "isOnWhitelist",
      "outputs": [
        {
          "internalType": "bool",
          "name": "",
          "type": "bool"
        }
      ],
      "stateMutability": "view",
      "type": "function"
    },
    {
      "inputs": [],
      "name": "getWhitelist",
      "outputs": [
        {
          "internalType": "address[]",
          "name": "activeWhitelist",
          "type": "address[]"
        }
      ],
      "stateMutability": "view",
      "type": "function"
    }
  ],
  "bytecode": "0x608060405234801561001057600080fd5b5060006100216100df60201b60201c565b9050806000806101000a81548173ffffffffffffffffffffffffffffffffffffffff021916908373ffffffffffffffffffffffffffffffffffffffff1602179055508073ffffffffffffffffffffffffffffffffffffffff16600073ffffffffffffffffffffffffffffffffffffffff167f8be0079c531659141344cd1fd0a4f28419497f9722a3daafe3b4186f6b6457e060405160405180910390a3506001600060146101000a81548160ff0219169083151502179055506100e7565b600033905090565b610fb6806100f66000396000f3fe608060405234801561001057600080fd5b50600436106100935760003560e01c80638da5cb5b116100665780638da5cb5b146101985780639b19251a146101cc578063d01f63f51461022f578063e43252d71461028e578063f2fde38b146102d257610093565b806337797c08146100985780633a3ab672146100f0578063715018a61461014a5780638ab1d68114610154575b600080fd5b6100c4600480360360208110156100ae57600080fd5b8101908080359060200190929190505050610316565b604051808273ffffffffffffffffffffffffffffffffffffffff16815260200191505060405180910390f35b6101326004803603602081101561010657600080fd5b81019080803573ffffffffffffffffffffffffffffffffffffffff169060200190929190505050610352565b60405180821515815260200191505060405180910390f35b6101526103c9565b005b6101966004803603602081101561016a57600080fd5b81019080803573ffffffffffffffffffffffffffffffffffffffff16906020019092919050505061054f565b005b6101a0610740565b604051808273ffffffffffffffffffffffffffffffffffffffff16815260200191505060405180910390f35b61020e600480360360208110156101e257600080fd5b81019080803573ffffffffffffffffffffffffffffffffffffffff169060200190929190505050610769565b6040518082600281111561021e57fe5b815260200191505060405180910390f35b610237610789565b6040518080602001828103825283818151815260200191508051906020019060200280838360005b8381101561027a57808201518184015260208101905061025f565b505050509050019250505060405180910390f35b6102d0600480360360208110156102a457600080fd5b81019080803573ffffffffffffffffffffffffffffffffffffffff1690602001909291905050506109c4565b005b610314600480360360208110156102e857600080fd5b81019080803573ffffffffffffffffffffffffffffffffffffffff169060200190929190505050610c8a565b005b6002818154811061032357fe5b906000526020600020016000915054906101000a900473ffffffffffffffffffffffffffffffffffffffff1681565b600061035c610e95565b6001600281111561036957fe5b600160008473ffffffffffffffffffffffffffffffffffffffff1673ffffffffffffffffffffffffffffffffffffffff16815260200190815260200160002060009054906101000a900460ff1660028111156103c157fe5b149050919050565b6103d1610f19565b73ffffffffffffffffffffffffffffffffffffffff1660008054906101000a900473ffffffffffffffffffffffffffffffffffffffff1673ffffffffffffffffffffffffffffffffffffffff1614610491576040517f08c379a00000000000000000000000000000000000000000000000000000000081526004018080602001828103825260208152602001807f4f776e61626c653a2063616c6c6572206973206e6f7420746865206f776e657281525060200191505060405180910390fd5b600073ffffffffffffffffffffffffffffffffffffffff1660008054906101000a900473ffffffffffffffffffffffffffffffffffffffff1673ffffffffffffffffffffffffffffffffffffffff167f8be0079c531659141344cd1fd0a4f28419497f9722a3daafe3b4186f6b6457e060405160405180910390a360008060006101000a81548173ffffffffffffffffffffffffffffffffffffffff021916908373ffffffffffffffffffffffffffffffffffffffff160217905550565b610557610e95565b61055f610f21565b610567610f19565b73ffffffffffffffffffffffffffffffffffffffff1660008054906101000a900473ffffffffffffffffffffffffffffffffffffffff1673ffffffffffffffffffffffffffffffffffffffff1614610627576040517f08c379a00000000000000000000000000000000000000000000000000000000081526004018080602001828103825260208152602001807f4f776e61626c653a2063616c6c6572206973206e6f7420746865206f776e657281525060200191505060405180910390fd5b60028081111561063357fe5b600160008373ffffffffffffffffffffffffffffffffffffffff1673ffffffffffffffffffffffffffffffffffffffff16815260200190815260200160002060009054906101000a900460ff16600281111561068b57fe5b14610735576002600160008373ffffffffffffffffffffffffffffffffffffffff1673ffffffffffffffffffffffffffffffffffffffff16815260200190815260200160002060006101000a81548160ff021916908360028111156106ec57fe5b02179055508073ffffffffffffffffffffffffffffffffffffffff167fcdd2e9b91a56913d370075169cefa1602ba36be5301664f752192bb1709df75760405160405180910390a25b61073d610f3d565b50565b60008060009054906101000a900473ffffffffffffffffffffffffffffffffffffffff16905090565b60016020528060005260406000206000915054906101000a900460ff1681565b6060610793610e95565b6000805b60028054905081101561085c57600160028111156107b157fe5b60016000600284815481106107c257fe5b9060005260206000200160009054906101000a900473ffffffffffffffffffffffffffffffffffffffff1673ffffffffffffffffffffffffffffffffffffffff1673ffffffffffffffffffffffffffffffffffffffff16815260200190815260200160002060009054906101000a900460ff16600281111561084057fe5b141561084f5781806001019250505b8080600101915050610797565b508067ffffffffffffffff8111801561087457600080fd5b506040519080825280602002602001820160405280156108a35781602001602082028036833780820191505090505b5091506000905060005b6002805490508110156109bf576000600282815481106108c957fe5b9060005260206000200160009054906101000a900473ffffffffffffffffffffffffffffffffffffffff1690506001600281111561090357fe5b600160008373ffffffffffffffffffffffffffffffffffffffff1673ffffffffffffffffffffffffffffffffffffffff16815260200190815260200160002060009054906101000a900460ff16600281111561095b57fe5b14156109b1578084848151811061096e57fe5b602002602001019073ffffffffffffffffffffffffffffffffffffffff16908173ffffffffffffffffffffffffffffffffffffffff168152505082806001019350505b5080806001019150506108ad565b505090565b6109cc610e95565b6109d4610f21565b6109dc610f19565b73ffffffffffffffffffffffffffffffffffffffff1660008054906101000a900473ffffffffffffffffffffffffffffffffffffffff1673ffffffffffffffffffffffffffffffffffffffff1614610a9c576040517f08c379a00000000000000000000000000000000000000000000000000000000081526004018080602001828103825260208152602001807f4f776e61626c653a2063616c6c6572206973206e6f7420746865206f776e657281525060200191505060405180910390fd5b60016002811115610aa957fe5b600160008373ffffffffffffffffffffffffffffffffffffffff1673ffffffffffffffffffffffffffffffffffffffff16815260200190815260200160002060009054906101000a900460ff166002811115610b0157fe5b1415610b0c57610c7f565b60006002811115610b1957fe5b600160008373ffffffffffffffffffffffffffffffffffffffff1673ffffffffffffffffffffffffffffffffffffffff16815260200190815260200160002060009054906101000a900460ff166002811115610b7157fe5b1415610bdb576002819080600181540180825580915050600190039060005260206000200160009091909190916101000a81548173ffffffffffffffffffffffffffffffffffffffff021916908373ffffffffffffffffffffffffffffffffffffffff1602179055505b60018060008373ffffffffffffffffffffffffffffffffffffffff1673ffffffffffffffffffffffffffffffffffffffff16815260200190815260200160002060006101000a81548160ff02191690836002811115610c3657fe5b02179055508073ffffffffffffffffffffffffffffffffffffffff167fa850ae9193f515cbae8d35e8925bd2be26627fc91bce650b8652ed254e9cab0360405160405180910390a25b610c87610f3d565b50565b610c92610f19565b73ffffffffffffffffffffffffffffffffffffffff1660008054906101000a900473ffffffffffffffffffffffffffffffffffffffff1673ffffffffffffffffffffffffffffffffffffffff1614610d52576040517f08c379a00000000000000000000000000000000000000000000000000000000081526004018080602001828103825260208152602001807f4f776e61626c653a2063616c6c6572206973206e6f7420746865206f776e657281525060200191505060405180910390fd5b600073ffffffffffffffffffffffffffffffffffffffff168173ffffffffffffffffffffffffffffffffffffffff161415610dd8576040517f08c379a0000000000000000000000000000000000000000000000000000000008152600401808060200182810382526026815260200180610f5b6026913960400191505060405180910390fd5b8073ffffffffffffffffffffffffffffffffffffffff1660008054906101000a900473ffffffffffffffffffffffffffffffffffffffff1673ffffffffffffffffffffffffffffffffffffffff167f8be0079c531659141344cd1fd0a4f28419497f9722a3daafe3b4186f6b6457e060405160405180910390a3806000806101000a81548173ffffffffffffffffffffffffffffffffffffffff021916908373ffffffffffffffffffffffffffffffffffffffff16021790555050565b600060149054906101000a900460ff16610f17576040517f08c379a000000000000000000000000000000000000000000000000000000000815260040180806020018281038252601f8152602001807f5265656e7472616e637947756172643a207265656e7472616e742063616c6c0081525060200191505060405180910390fd5b565b600033905090565b60008060146101000a81548160ff021916908315150217905550565b6001600060146101000a81548160ff02191690831515021790555056fe4f776e61626c653a206e6577206f776e657220697320746865207a65726f2061646472657373a2646970667358221220bb0a84ded5853b32f8ee7e0bef63a025c4e18ad9a4774d2514affe499489523764736f6c634300060c0033",
  "immutableReferences": {},
  "source": "// SPDX-License-Identifier: AGPL-3.0-only\npragma solidity ^0.6.0;\n\nimport \"@openzeppelin/contracts/access/Ownable.sol\";\nimport \"./Lockable.sol\";\n\n/**\n * @title A contract to track a whitelist of addresses.\n */\ncontract AddressWhitelist is Ownable, Lockable {\n    enum Status { None, In, Out }\n    mapping(address => Status) public whitelist;\n\n    address[] public whitelistIndices;\n\n    event AddedToWhitelist(address indexed addedAddress);\n    event RemovedFromWhitelist(address indexed removedAddress);\n\n    /**\n     * @notice Adds an address to the whitelist.\n     * @param newElement the new address to add.\n     */\n    function addToWhitelist(address newElement) external nonReentrant() onlyOwner {\n        // Ignore if address is already included\n        if (whitelist[newElement] == Status.In) {\n            return;\n        }\n\n        // Only append new addresses to the array, never a duplicate\n        if (whitelist[newElement] == Status.None) {\n            whitelistIndices.push(newElement);\n        }\n\n        whitelist[newElement] = Status.In;\n\n        emit AddedToWhitelist(newElement);\n    }\n\n    /**\n     * @notice Removes an address from the whitelist.\n     * @param elementToRemove the existing address to remove.\n     */\n    function removeFromWhitelist(address elementToRemove) external nonReentrant() onlyOwner {\n        if (whitelist[elementToRemove] != Status.Out) {\n            whitelist[elementToRemove] = Status.Out;\n            emit RemovedFromWhitelist(elementToRemove);\n        }\n    }\n\n    /**\n     * @notice Checks whether an address is on the whitelist.\n     * @param elementToCheck the address to check.\n     * @return True if `elementToCheck` is on the whitelist, or False.\n     */\n    function isOnWhitelist(address elementToCheck) external view nonReentrantView() returns (bool) {\n        return whitelist[elementToCheck] == Status.In;\n    }\n\n    /**\n     * @notice Gets all addresses that are currently included in the whitelist.\n     * @dev Note: This method skips over, but still iterates through addresses. It is possible for this call to run out\n     * of gas if a large number of addresses have been removed. To reduce the likelihood of this unlikely scenario, we\n     * can modify the implementation so that when addresses are removed, the last addresses in the array is moved to\n     * the empty index.\n     * @return activeWhitelist the list of addresses on the whitelist.\n     */\n    function getWhitelist() external view nonReentrantView() returns (address[] memory activeWhitelist) {\n        // Determine size of whitelist first\n        uint256 activeCount = 0;\n        for (uint256 i = 0; i < whitelistIndices.length; i++) {\n            if (whitelist[whitelistIndices[i]] == Status.In) {\n                activeCount++;\n            }\n        }\n\n        // Populate whitelist\n        activeWhitelist = new address[](activeCount);\n        activeCount = 0;\n        for (uint256 i = 0; i < whitelistIndices.length; i++) {\n            address addr = whitelistIndices[i];\n            if (whitelist[addr] == Status.In) {\n                activeWhitelist[activeCount] = addr;\n                activeCount++;\n            }\n        }\n    }\n}\n",
  "sourcePath": "@uma/core/contracts/common/implementation/AddressWhitelist.sol",
  "compiler": {
    "name": "solc",
    "version": "0.6.12+commit.27d51765.Emscripten.clang"
  },
  "schemaVersion": "3.4.0",
  "updatedAt": "2021-04-26T02:01:05.105Z",
  "devdoc": {
    "kind": "dev",
    "methods": {
      "addToWhitelist(address)": {
        "params": {
          "newElement": "the new address to add."
        }
      },
      "getWhitelist()": {
        "details": "Note: This method skips over, but still iterates through addresses. It is possible for this call to run out of gas if a large number of addresses have been removed. To reduce the likelihood of this unlikely scenario, we can modify the implementation so that when addresses are removed, the last addresses in the array is moved to the empty index.",
        "returns": {
          "activeWhitelist": "the list of addresses on the whitelist."
        }
      },
      "isOnWhitelist(address)": {
        "params": {
          "elementToCheck": "the address to check."
        },
        "returns": {
          "_0": "True if `elementToCheck` is on the whitelist, or False."
        }
      },
      "owner()": {
        "details": "Returns the address of the current owner."
      },
      "removeFromWhitelist(address)": {
        "params": {
          "elementToRemove": "the existing address to remove."
        }
      },
      "renounceOwnership()": {
        "details": "Leaves the contract without owner. It will not be possible to call `onlyOwner` functions anymore. Can only be called by the current owner. NOTE: Renouncing ownership will leave the contract without an owner, thereby removing any functionality that is only available to the owner."
      },
      "transferOwnership(address)": {
        "details": "Transfers ownership of the contract to a new account (`newOwner`). Can only be called by the current owner."
      }
    },
    "title": "A contract to track a whitelist of addresses.",
    "version": 1
  },
  "userdoc": {
    "kind": "user",
    "methods": {
      "addToWhitelist(address)": {
        "notice": "Adds an address to the whitelist."
      },
      "getWhitelist()": {
        "notice": "Gets all addresses that are currently included in the whitelist."
      },
      "isOnWhitelist(address)": {
        "notice": "Checks whether an address is on the whitelist."
      },
      "removeFromWhitelist(address)": {
        "notice": "Removes an address from the whitelist."
      }
    },
    "version": 1
  }
}