{
  "contractName": "ExpiringMultiPartyCreator",
  "abi": [
    {
      "inputs": [
        {
          "internalType": "address",
          "name": "_finderAddress",
          "type": "address"
        },
        {
          "internalType": "address",
          "name": "_tokenFactoryAddress",
          "type": "address"
        },
        {
          "internalType": "address",
          "name": "_timerAddress",
          "type": "address"
        }
      ],
      "stateMutability": "nonpayable",
      "type": "constructor"
    },
    {
      "anonymous": false,
      "inputs": [
        {
          "indexed": true,
          "internalType": "address",
          "name": "expiringMultiPartyAddress",
          "type": "address"
        },
        {
          "indexed": true,
          "internalType": "address",
          "name": "deployerAddress",
          "type": "address"
        }
      ],
      "name": "CreatedExpiringMultiParty",
      "type": "event"
    },
    {
      "inputs": [],
      "name": "getCurrentTime",
      "outputs": [
        {
          "internalType": "uint256",
          "name": "",
          "type": "uint256"
        }
      ],
      "stateMutability": "view",
      "type": "function"
    },
    {
      "inputs": [
        {
          "internalType": "uint256",
          "name": "time",
          "type": "uint256"
        }
      ],
      "name": "setCurrentTime",
      "outputs": [],
      "stateMutability": "nonpayable",
      "type": "function"
    },
    {
      "inputs": [],
      "name": "timerAddress",
      "outputs": [
        {
          "internalType": "address",
          "name": "",
          "type": "address"
        }
      ],
      "stateMutability": "view",
      "type": "function"
    },
    {
      "inputs": [],
      "name": "tokenFactoryAddress",
      "outputs": [
        {
          "internalType": "address",
          "name": "",
          "type": "address"
        }
      ],
      "stateMutability": "view",
      "type": "function"
    },
    {
      "inputs": [
        {
          "components": [
            {
              "internalType": "uint256",
              "name": "expirationTimestamp",
              "type": "uint256"
            },
            {
              "internalType": "address",
              "name": "collateralAddress",
              "type": "address"
            },
            {
              "internalType": "bytes32",
              "name": "priceFeedIdentifier",
              "type": "bytes32"
            },
            {
              "internalType": "string",
              "name": "syntheticName",
              "type": "string"
            },
            {
              "internalType": "string",
              "name": "syntheticSymbol",
              "type": "string"
            },
            {
              "components": [
                {
                  "internalType": "uint256",
                  "name": "rawValue",
                  "type": "uint256"
                }
              ],
              "internalType": "struct FixedPoint.Unsigned",
              "name": "collateralRequirement",
              "type": "tuple"
            },
            {
              "components": [
                {
                  "internalType": "uint256",
                  "name": "rawValue",
                  "type": "uint256"
                }
              ],
              "internalType": "struct FixedPoint.Unsigned",
              "name": "disputeBondPercentage",
              "type": "tuple"
            },
            {
              "components": [
                {
                  "internalType": "uint256",
                  "name": "rawValue",
                  "type": "uint256"
                }
              ],
              "internalType": "struct FixedPoint.Unsigned",
              "name": "sponsorDisputeRewardPercentage",
              "type": "tuple"
            },
            {
              "components": [
                {
                  "internalType": "uint256",
                  "name": "rawValue",
                  "type": "uint256"
                }
              ],
              "internalType": "struct FixedPoint.Unsigned",
              "name": "disputerDisputeRewardPercentage",
              "type": "tuple"
            },
            {
              "components": [
                {
                  "internalType": "uint256",
                  "name": "rawValue",
                  "type": "uint256"
                }
              ],
              "internalType": "struct FixedPoint.Unsigned",
              "name": "minSponsorTokens",
              "type": "tuple"
            },
            {
              "internalType": "uint256",
              "name": "withdrawalLiveness",
              "type": "uint256"
            },
            {
              "internalType": "uint256",
              "name": "liquidationLiveness",
              "type": "uint256"
            },
            {
              "internalType": "address",
              "name": "financialProductLibraryAddress",
              "type": "address"
            }
          ],
          "internalType": "struct ExpiringMultiPartyCreator.Params",
          "name": "params",
          "type": "tuple"
        }
      ],
      "name": "createExpiringMultiParty",
      "outputs": [
        {
          "internalType": "address",
          "name": "",
          "type": "address"
        }
      ],
      "stateMutability": "nonpayable",
      "type": "function"
    },
    {
      "inputs": [
        {
          "internalType": "address",
          "name": "_collateralAddress",
          "type": "address"
        }
      ],
      "name": "_getSyntheticDecimals",
      "outputs": [
        {
          "internalType": "uint8",
          "name": "decimals",
          "type": "uint8"
        }
      ],
      "stateMutability": "view",
      "type": "function"
    }
  ],
  "bytecode": "0x60806040523480156200001157600080fd5b506040516200203f3803806200203f8339818101604052810190620000379190620001f4565b8083806000806101000a81548173ffffffffffffffffffffffffffffffffffffffff021916908373ffffffffffffffffffffffffffffffffffffffff1602179055505080600160006101000a81548173ffffffffffffffffffffffffffffffffffffffff021916908373ffffffffffffffffffffffffffffffffffffffff1602179055505060018060146101000a81548160ff021916908315150217905550620000e66200015060201b60201c565b620000f6620001a460201b60201c565b81600260006101000a81548173ffffffffffffffffffffffffffffffffffffffff021916908373ffffffffffffffffffffffffffffffffffffffff16021790555062000147620001c160201b60201c565b5050506200030d565b600160149054906101000a900460ff16620001a2576040517f08c379a000000000000000000000000000000000000000000000000000000000815260040162000199906200028c565b60405180910390fd5b565b6000600160146101000a81548160ff021916908315150217905550565b60018060146101000a81548160ff021916908315150217905550565b600081519050620001ee81620002f3565b92915050565b6000806000606084860312156200020a57600080fd5b60006200021a86828701620001dd565b93505060206200022d86828701620001dd565b92505060406200024086828701620001dd565b9150509250925092565b600062000259601f83620002ae565b91507f5265656e7472616e637947756172643a207265656e7472616e742063616c6c006000830152602082019050919050565b60006020820190508181036000830152620002a7816200024a565b9050919050565b600082825260208201905092915050565b6000620002cc82620002d3565b9050919050565b600073ffffffffffffffffffffffffffffffffffffffff82169050919050565b620002fe81620002bf565b81146200030a57600080fd5b50565b611d22806200031d6000396000f3fe608060405234801561001057600080fd5b50600436106100625760003560e01c80631c39c38d1461006757806322f8e5661461008557806329cb924d146100a15780634ead6e51146100bf578063be19f0a7146100ef578063de4672681461010d575b600080fd5b61006f61013d565b60405161007c91906118d3565b60405180910390f35b61009f600480360381019061009a91906113a0565b610163565b005b6100a961024f565b6040516100b69190611aba565b60405180910390f35b6100d960048036038101906100d491906112bb565b610354565b6040516100e69190611ad5565b60405180910390f35b6100f76103e4565b60405161010491906118d3565b60405180910390f35b6101276004803603810190610122919061135f565b61040a565b60405161013491906118d3565b60405180910390f35b600160009054906101000a900473ffffffffffffffffffffffffffffffffffffffff1681565b600073ffffffffffffffffffffffffffffffffffffffff16600160009054906101000a900473ffffffffffffffffffffffffffffffffffffffff1673ffffffffffffffffffffffffffffffffffffffff1614156101bf57600080fd5b600160009054906101000a900473ffffffffffffffffffffffffffffffffffffffff1673ffffffffffffffffffffffffffffffffffffffff166322f8e566826040518263ffffffff1660e01b815260040161021a9190611aba565b600060405180830381600087803b15801561023457600080fd5b505af1158015610248573d6000803e3d6000fd5b5050505050565b60008073ffffffffffffffffffffffffffffffffffffffff16600160009054906101000a900473ffffffffffffffffffffffffffffffffffffffff1673ffffffffffffffffffffffffffffffffffffffff161461034d57600160009054906101000a900473ffffffffffffffffffffffffffffffffffffffff1673ffffffffffffffffffffffffffffffffffffffff166329cb924d6040518163ffffffff1660e01b815260040160206040518083038186803b15801561030e57600080fd5b505afa158015610322573d6000803e3d6000fd5b505050506040513d601f19601f8201168201806040525081019061034691906113c9565b9050610351565b4290505b90565b60008173ffffffffffffffffffffffffffffffffffffffff1663313ce5676040518163ffffffff1660e01b815260040160206040518083038186803b15801561039c57600080fd5b505afa9250505080156103cd57506040513d601f19601f820116820180604052508101906103ca91906113f2565b60015b6103da57601290506103df565b809150505b919050565b600260009054906101000a900473ffffffffffffffffffffffffffffffffffffffff1681565b6000610414610815565b61041c610866565b60008260600151511415610465576040517f08c379a000000000000000000000000000000000000000000000000000000000815260040161045c90611a3e565b60405180910390fd5b600082608001515114156104ae576040517f08c379a00000000000000000000000000000000000000000000000000000000081526004016104a5906119de565b60405180910390fd5b6000600260009054906101000a900473ffffffffffffffffffffffffffffffffffffffff16905060006104e48460200151610354565b905060008273ffffffffffffffffffffffffffffffffffffffff1663e8a0aed386606001518760800151856040518463ffffffff1660e01b815260040161052d93929190611939565b602060405180830381600087803b15801561054757600080fd5b505af115801561055b573d6000803e3d6000fd5b505050506040513d601f19601f8201168201806040525081019061057f9190611336565b9050600073__ExpiringMultiPartyLib_________________63bdc3f2446105a78885610883565b6040518263ffffffff1660e01b81526004016105c39190611a9e565b60206040518083038186803b1580156105db57600080fd5b505af41580156105ef573d6000803e3d6000fd5b505050506040513d601f19601f8201168201806040525081019061061391906112e4565b90508173ffffffffffffffffffffffffffffffffffffffff1663983b2d56826040518263ffffffff1660e01b815260040161064e91906118d3565b600060405180830381600087803b15801561066857600080fd5b505af115801561067c573d6000803e3d6000fd5b505050508173ffffffffffffffffffffffffffffffffffffffff1663f44637ba826040518263ffffffff1660e01b81526004016106b991906118d3565b600060405180830381600087803b1580156106d357600080fd5b505af11580156106e7573d6000803e3d6000fd5b505050508173ffffffffffffffffffffffffffffffffffffffff166373cc802a826040518263ffffffff1660e01b815260040161072491906118d3565b600060405180830381600087803b15801561073e57600080fd5b505af1158015610752573d6000803e3d6000fd5b505050506107a7600067ffffffffffffffff8111801561077157600080fd5b506040519080825280602002602001820160405280156107a05781602001602082028036833780820191505090505b5082610bf3565b3373ffffffffffffffffffffffffffffffffffffffff168173ffffffffffffffffffffffffffffffffffffffff167ff360b00b309dfe6565667df6b06eab15d0e0958d5e82d89a399ae7dd417b4b0960405160405180910390a380945050505050610810610d39565b919050565b600160149054906101000a900460ff16610864576040517f08c379a000000000000000000000000000000000000000000000000000000000815260040161085b90611a7e565b60405180910390fd5b565b6000600160146101000a81548160ff021916908315150217905550565b61088b610ef5565b60008054906101000a900473ffffffffffffffffffffffffffffffffffffffff16816080019073ffffffffffffffffffffffffffffffffffffffff16908173ffffffffffffffffffffffffffffffffffffffff1681525050600160009054906101000a900473ffffffffffffffffffffffffffffffffffffffff168160a0019073ffffffffffffffffffffffffffffffffffffffff16908173ffffffffffffffffffffffffffffffffffffffff168152505060008361014001511415610986576040517f08c379a000000000000000000000000000000000000000000000000000000000815260040161097d90611a1e565b60405180910390fd5b600083610160015114156109cf576040517f08c379a00000000000000000000000000000000000000000000000000000000081526004016109c6906119fe565b60405180910390fd5b42836000015111610a15576040517f08c379a0000000000000000000000000000000000000000000000000000000008152600401610a0c9061199e565b60405180910390fd5b610a228360200151610d55565b63bb74480083610140015110610a6d576040517f08c379a0000000000000000000000000000000000000000000000000000000008152600401610a6490611a5e565b60405180910390fd5b63bb74480083610160015110610ab8576040517f08c379a0000000000000000000000000000000000000000000000000000000008152600401610aaf906119be565b60405180910390fd5b81816060019073ffffffffffffffffffffffffffffffffffffffff16908173ffffffffffffffffffffffffffffffffffffffff168152505082600001518160000181815250508260200151816040019073ffffffffffffffffffffffffffffffffffffffff16908173ffffffffffffffffffffffffffffffffffffffff16815250508260400151816101000181815250508260a001518161016001819052508260c001518161018001819052508260e00151816101a00181905250826101000151816101c00181905250826101200151816101200181905250826101400151816020018181525050826101600151816101400181815250508261018001518160c0019073ffffffffffffffffffffffffffffffffffffffff16908173ffffffffffffffffffffffffffffffffffffffff168152505092915050565b60008060009054906101000a900473ffffffffffffffffffffffffffffffffffffffff16905060008173ffffffffffffffffffffffffffffffffffffffff1663aafd5e407f52656769737472790000000000000000000000000000000000000000000000006040518263ffffffff1660e01b8152600401610c74919061191e565b60206040518083038186803b158015610c8c57600080fd5b505afa158015610ca0573d6000803e3d6000fd5b505050506040513d601f19601f82011682018060405250810190610cc491906112e4565b90508073ffffffffffffffffffffffffffffffffffffffff166366c8c25085856040518363ffffffff1660e01b8152600401610d019291906118ee565b600060405180830381600087803b158015610d1b57600080fd5b505af1158015610d2f573d6000803e3d6000fd5b5050505050505050565b60018060146101000a81548160ff021916908315150217905550565b60008060009054906101000a900473ffffffffffffffffffffffffffffffffffffffff16905060008173ffffffffffffffffffffffffffffffffffffffff1663aafd5e407f436f6c6c61746572616c57686974656c697374000000000000000000000000006040518263ffffffff1660e01b8152600401610dd6919061191e565b60206040518083038186803b158015610dee57600080fd5b505afa158015610e02573d6000803e3d6000fd5b505050506040513d601f19601f82011682018060405250810190610e2691906112e4565b90508073ffffffffffffffffffffffffffffffffffffffff16633a3ab672846040518263ffffffff1660e01b8152600401610e6191906118d3565b60206040518083038186803b158015610e7957600080fd5b505afa158015610e8d573d6000803e3d6000fd5b505050506040513d601f19601f82011682018060405250810190610eb1919061130d565b610ef0576040517f08c379a0000000000000000000000000000000000000000000000000000000008152600401610ee79061197e565b60405180910390fd5b505050565b604051806101e001604052806000815260200160008152602001600073ffffffffffffffffffffffffffffffffffffffff168152602001600073ffffffffffffffffffffffffffffffffffffffff168152602001600073ffffffffffffffffffffffffffffffffffffffff168152602001600073ffffffffffffffffffffffffffffffffffffffff168152602001600073ffffffffffffffffffffffffffffffffffffffff168152602001600073ffffffffffffffffffffffffffffffffffffffff16815260200160008019168152602001610fcf611010565b815260200160008152602001610fe3611010565b8152602001610ff0611010565b8152602001610ffd611010565b815260200161100a611010565b81525090565b6040518060200160405280600081525090565b60008135905061103281611c62565b92915050565b60008151905061104781611c62565b92915050565b60008151905061105c81611c79565b92915050565b60008135905061107181611c90565b92915050565b60008151905061108681611ca7565b92915050565b600082601f83011261109d57600080fd5b81356110b06110ab82611b1d565b611af0565b915080825260208301602083018583830111156110cc57600080fd5b6110d7838284611c0f565b50505092915050565b60006101a082840312156110f357600080fd5b6110fe6101a0611af0565b9050600061110e8482850161127c565b600083015250602061112284828501611023565b602083015250604061113684828501611062565b604083015250606082013567ffffffffffffffff81111561115657600080fd5b6111628482850161108c565b606083015250608082013567ffffffffffffffff81111561118257600080fd5b61118e8482850161108c565b60808301525060a06111a284828501611244565b60a08301525060c06111b684828501611244565b60c08301525060e06111ca84828501611244565b60e0830152506101006111df84828501611244565b610100830152506101206111f584828501611244565b6101208301525061014061120b8482850161127c565b610140830152506101606112218482850161127c565b6101608301525061018061123784828501611023565b6101808301525092915050565b60006020828403121561125657600080fd5b6112606020611af0565b905060006112708482850161127c565b60008301525092915050565b60008135905061128b81611cbe565b92915050565b6000815190506112a081611cbe565b92915050565b6000815190506112b581611cd5565b92915050565b6000602082840312156112cd57600080fd5b60006112db84828501611023565b91505092915050565b6000602082840312156112f657600080fd5b600061130484828501611038565b91505092915050565b60006020828403121561131f57600080fd5b600061132d8482850161104d565b91505092915050565b60006020828403121561134857600080fd5b600061135684828501611077565b91505092915050565b60006020828403121561137157600080fd5b600082013567ffffffffffffffff81111561138b57600080fd5b611397848285016110e0565b91505092915050565b6000602082840312156113b257600080fd5b60006113c08482850161127c565b91505092915050565b6000602082840312156113db57600080fd5b60006113e984828501611291565b91505092915050565b60006020828403121561140457600080fd5b6000611412848285016112a6565b91505092915050565b60006114278383611433565b60208301905092915050565b61143c81611b9e565b82525050565b61144b81611b9e565b82525050565b61145a81611b9e565b82525050565b600061146b82611b59565b6114758185611b7c565b935061148083611b49565b8060005b838110156114b1578151611498888261141b565b97506114a383611b6f565b925050600181019050611484565b5085935050505092915050565b6114c781611bbc565b82525050565b6114d681611bbc565b82525050565b60006114e782611b64565b6114f18185611b8d565b9350611501818560208601611c1e565b61150a81611c51565b840191505092915050565b6000611522601a83611b8d565b91507f436f6c6c61746572616c206e6f742077686974656c69737465640000000000006000830152602082019050919050565b6000611562601783611b8d565b91507f496e76616c69642065787069726174696f6e2074696d650000000000000000006000830152602082019050919050565b60006115a2601e83611b8d565b91507f4c69717569646174696f6e206c6976656e65737320746f6f206c6172676500006000830152602082019050919050565b60006115e2601883611b8d565b91507f4d697373696e672073796e7468657469632073796d626f6c00000000000000006000830152602082019050919050565b6000611622602083611b8d565b91507f4c69717569646174696f6e206c6976656e6573732063616e6e6f7420626520306000830152602082019050919050565b6000611662601f83611b8d565b91507f5769746864726177616c206c6976656e6573732063616e6e6f742062652030006000830152602082019050919050565b60006116a2601683611b8d565b91507f4d697373696e672073796e746865746963206e616d65000000000000000000006000830152602082019050919050565b60006116e2601d83611b8d565b91507f5769746864726177616c206c6976656e65737320746f6f206c617267650000006000830152602082019050919050565b6000611722601f83611b8d565b91507f5265656e7472616e637947756172643a207265656e7472616e742063616c6c006000830152602082019050919050565b6101e08201600082015161176c60008501826118b5565b50602082015161177f60208501826118b5565b5060408201516117926040850182611451565b5060608201516117a56060850182611451565b5060808201516117b86080850182611451565b5060a08201516117cb60a0850182611451565b5060c08201516117de60c0850182611451565b5060e08201516117f160e0850182611451565b506101008201516118066101008501826114cd565b5061012082015161181b61012085018261188a565b506101408201516118306101408501826118b5565b5061016082015161184561016085018261188a565b5061018082015161185a61018085018261188a565b506101a082015161186f6101a085018261188a565b506101c08201516118846101c085018261188a565b50505050565b6020820160008201516118a060008501826118b5565b50505050565b6118af81611bf8565b82525050565b6118be81611bf8565b82525050565b6118cd81611c02565b82525050565b60006020820190506118e86000830184611442565b92915050565b600060408201905081810360008301526119088185611460565b90506119176020830184611442565b9392505050565b600060208201905061193360008301846114be565b92915050565b6000606082019050818103600083015261195381866114dc565b9050818103602083015261196781856114dc565b905061197660408301846118c4565b949350505050565b6000602082019050818103600083015261199781611515565b9050919050565b600060208201905081810360008301526119b781611555565b9050919050565b600060208201905081810360008301526119d781611595565b9050919050565b600060208201905081810360008301526119f7816115d5565b9050919050565b60006020820190508181036000830152611a1781611615565b9050919050565b60006020820190508181036000830152611a3781611655565b9050919050565b60006020820190508181036000830152611a5781611695565b9050919050565b60006020820190508181036000830152611a77816116d5565b9050919050565b60006020820190508181036000830152611a9781611715565b9050919050565b60006101e082019050611ab46000830184611755565b92915050565b6000602082019050611acf60008301846118a6565b92915050565b6000602082019050611aea60008301846118c4565b92915050565b6000604051905081810181811067ffffffffffffffff82111715611b1357600080fd5b8060405250919050565b600067ffffffffffffffff821115611b3457600080fd5b601f19601f8301169050602081019050919050565b6000819050602082019050919050565b600081519050919050565b600081519050919050565b6000602082019050919050565b600082825260208201905092915050565b600082825260208201905092915050565b6000611ba982611bd8565b9050919050565b60008115159050919050565b6000819050919050565b6000611bd182611b9e565b9050919050565b600073ffffffffffffffffffffffffffffffffffffffff82169050919050565b6000819050919050565b600060ff82169050919050565b82818337600083830152505050565b60005b83811015611c3c578082015181840152602081019050611c21565b83811115611c4b576000848401525b50505050565b6000601f19601f8301169050919050565b611c6b81611b9e565b8114611c7657600080fd5b50565b611c8281611bb0565b8114611c8d57600080fd5b50565b611c9981611bbc565b8114611ca457600080fd5b50565b611cb081611bc6565b8114611cbb57600080fd5b50565b611cc781611bf8565b8114611cd257600080fd5b50565b611cde81611c02565b8114611ce957600080fd5b5056fea264697066735822122056237b64183cefa1a8da8d65ad47a43b100353338e5b4a19b5d4fd03165aec8364736f6c634300060c0033",
  "immutableReferences": {},
  "source": "// SPDX-License-Identifier: AGPL-3.0-only\npragma solidity ^0.6.0;\npragma experimental ABIEncoderV2;\n\nimport \"@uma/core/contracts/common/interfaces/ExpandedIERC20.sol\";\nimport \"@uma/core/contracts/common/interfaces/IERC20Standard.sol\";\nimport \"@uma/core/contracts/oracle/implementation/ContractCreator.sol\";\nimport \"@uma/core/contracts/common/implementation/Testable.sol\";\nimport \"@uma/core/contracts/common/implementation/AddressWhitelist.sol\";\nimport \"@uma/core/contracts/common/implementation/Lockable.sol\";\nimport \"@uma/core/contracts/financial-templates/common/TokenFactory.sol\";\nimport \"@uma/core/contracts/financial-templates/common/SyntheticToken.sol\";\nimport \"./ExpiringMultiPartyLib.sol\";\n\n/**\n * @title Expiring Multi Party Contract creator.\n * @notice Factory contract to create and register new instances of expiring multiparty contracts.\n * Responsible for constraining the parameters used to construct a new EMP. This creator contains a number of constraints\n * that are applied to newly created expiring multi party contract. These constraints can evolve over time and are\n * initially constrained to conservative values in this first iteration. Technically there is nothing in the\n * ExpiringMultiParty contract requiring these constraints. However, because `createExpiringMultiParty()` is intended\n * to be the only way to create valid financial contracts that are registered with the DVM (via _registerContract),\n  we can enforce deployment configurations here.\n */\ncontract ExpiringMultiPartyCreator is ContractCreator, Testable, Lockable {\n    using FixedPoint for FixedPoint.Unsigned;\n\n    /****************************************\n     *     EMP CREATOR DATA STRUCTURES      *\n     ****************************************/\n\n    struct Params {\n        uint256 expirationTimestamp;\n        address collateralAddress;\n        bytes32 priceFeedIdentifier;\n        string syntheticName;\n        string syntheticSymbol;\n        FixedPoint.Unsigned collateralRequirement;\n        FixedPoint.Unsigned disputeBondPercentage;\n        FixedPoint.Unsigned sponsorDisputeRewardPercentage;\n        FixedPoint.Unsigned disputerDisputeRewardPercentage;\n        FixedPoint.Unsigned minSponsorTokens;\n        uint256 withdrawalLiveness;\n        uint256 liquidationLiveness;\n        address financialProductLibraryAddress;\n    }\n    // Address of TokenFactory used to create a new synthetic token.\n    address public tokenFactoryAddress;\n\n    event CreatedExpiringMultiParty(address indexed expiringMultiPartyAddress, address indexed deployerAddress);\n\n    /**\n     * @notice Constructs the ExpiringMultiPartyCreator contract.\n     * @param _finderAddress UMA protocol Finder used to discover other protocol contracts.\n     * @param _tokenFactoryAddress ERC20 token factory used to deploy synthetic token instances.\n     * @param _timerAddress Contract that stores the current time in a testing environment.\n     */\n    constructor(\n        address _finderAddress,\n        address _tokenFactoryAddress,\n        address _timerAddress\n    ) public ContractCreator(_finderAddress) Testable(_timerAddress) nonReentrant() {\n        tokenFactoryAddress = _tokenFactoryAddress;\n    }\n\n    /**\n     * @notice Creates an instance of expiring multi party and registers it within the registry.\n     * @param params is a `ConstructorParams` object from ExpiringMultiParty.\n     * @return address of the deployed ExpiringMultiParty contract.\n     */\n    function createExpiringMultiParty(Params memory params) public nonReentrant() returns (address) {\n        // Create a new synthetic token using the params.\n        require(bytes(params.syntheticName).length != 0, \"Missing synthetic name\");\n        require(bytes(params.syntheticSymbol).length != 0, \"Missing synthetic symbol\");\n        TokenFactory tf = TokenFactory(tokenFactoryAddress);\n\n        // If the collateral token does not have a `decimals()` method, then a default precision of 18 will be\n        // applied to the newly created synthetic token.\n        uint8 syntheticDecimals = _getSyntheticDecimals(params.collateralAddress);\n        ExpandedIERC20 tokenCurrency = tf.createToken(params.syntheticName, params.syntheticSymbol, syntheticDecimals);\n        address derivative = ExpiringMultiPartyLib.deploy(_convertParams(params, tokenCurrency));\n\n        // Give permissions to new derivative contract and then hand over ownership.\n        tokenCurrency.addMinter(derivative);\n        tokenCurrency.addBurner(derivative);\n        tokenCurrency.resetOwner(derivative);\n\n        _registerContract(new address[](0), derivative);\n\n        emit CreatedExpiringMultiParty(derivative, msg.sender);\n\n        return derivative;\n    }\n\n    /****************************************\n     *          PRIVATE FUNCTIONS           *\n     ****************************************/\n\n    // Converts createExpiringMultiParty params to ExpiringMultiParty constructor params.\n    function _convertParams(Params memory params, ExpandedIERC20 newTokenCurrency)\n        private\n        view\n        returns (ExpiringMultiParty.ConstructorParams memory constructorParams)\n    {\n        // Known from creator deployment.\n        constructorParams.finderAddress = finderAddress;\n        constructorParams.timerAddress = timerAddress;\n\n        // Enforce configuration constraints.\n        require(params.withdrawalLiveness != 0, \"Withdrawal liveness cannot be 0\");\n        require(params.liquidationLiveness != 0, \"Liquidation liveness cannot be 0\");\n        require(params.expirationTimestamp > now, \"Invalid expiration time\");\n        _requireWhitelistedCollateral(params.collateralAddress);\n\n        // We don't want EMP deployers to be able to intentionally or unintentionally set\n        // liveness periods that could induce arithmetic overflow, but we also don't want\n        // to be opinionated about what livenesses are \"correct\", so we will somewhat\n        // arbitrarily set the liveness upper bound to 100 years (5200 weeks). In practice, liveness\n        // periods even greater than a few days would make the EMP unusable for most users.\n        require(params.withdrawalLiveness < 5200 weeks, \"Withdrawal liveness too large\");\n        require(params.liquidationLiveness < 5200 weeks, \"Liquidation liveness too large\");\n\n        // Input from function call.\n        constructorParams.tokenAddress = address(newTokenCurrency);\n        constructorParams.expirationTimestamp = params.expirationTimestamp;\n        constructorParams.collateralAddress = params.collateralAddress;\n        constructorParams.priceFeedIdentifier = params.priceFeedIdentifier;\n        constructorParams.collateralRequirement = params.collateralRequirement;\n        constructorParams.disputeBondPercentage = params.disputeBondPercentage;\n        constructorParams.sponsorDisputeRewardPercentage = params.sponsorDisputeRewardPercentage;\n        constructorParams.disputerDisputeRewardPercentage = params.disputerDisputeRewardPercentage;\n        constructorParams.minSponsorTokens = params.minSponsorTokens;\n        constructorParams.withdrawalLiveness = params.withdrawalLiveness;\n        constructorParams.liquidationLiveness = params.liquidationLiveness;\n        constructorParams.financialProductLibraryAddress = params.financialProductLibraryAddress;\n    }\n\n    // IERC20Standard.decimals() will revert if the collateral contract has not implemented the decimals() method,\n    // which is possible since the method is only an OPTIONAL method in the ERC20 standard:\n    // https://eips.ethereum.org/EIPS/eip-20#methods.\n    function _getSyntheticDecimals(address _collateralAddress) public view returns (uint8 decimals) {\n        try IERC20Standard(_collateralAddress).decimals() returns (uint8 _decimals) {\n            return _decimals;\n        } catch {\n            return 18;\n        }\n    }\n}\n",
  "sourcePath": "/Users/meir/Desktop/prelaunch/variable-expiring-multiparty/contracts/ExpiringMultiPartyCreator.sol",
  "compiler": {
    "name": "solc",
    "version": "0.6.12+commit.27d51765.Emscripten.clang"
  },
  "schemaVersion": "3.4.0",
  "updatedAt": "2021-04-26T04:04:51.353Z",
  "devdoc": {
    "kind": "dev",
    "methods": {
      "constructor": {
        "params": {
          "_finderAddress": "UMA protocol Finder used to discover other protocol contracts.",
          "_timerAddress": "Contract that stores the current time in a testing environment.",
          "_tokenFactoryAddress": "ERC20 token factory used to deploy synthetic token instances."
        }
      },
      "createExpiringMultiParty((uint256,address,bytes32,string,string,(uint256),(uint256),(uint256),(uint256),(uint256),uint256,uint256,address))": {
        "params": {
          "params": "is a `ConstructorParams` object from ExpiringMultiParty."
        },
        "returns": {
          "_0": "address of the deployed ExpiringMultiParty contract."
        }
      },
      "getCurrentTime()": {
        "returns": {
          "_0": "uint for the current Testable timestamp."
        }
      },
      "setCurrentTime(uint256)": {
        "details": "Will revert if not running in test mode.",
        "params": {
          "time": "timestamp to set current Testable time to."
        }
      }
    },
    "title": "Expiring Multi Party Contract creator.",
    "version": 1
  },
  "userdoc": {
    "kind": "user",
    "methods": {
      "constructor": "Constructs the ExpiringMultiPartyCreator contract.",
      "createExpiringMultiParty((uint256,address,bytes32,string,string,(uint256),(uint256),(uint256),(uint256),(uint256),uint256,uint256,address))": {
        "notice": "Creates an instance of expiring multi party and registers it within the registry."
      },
      "getCurrentTime()": {
        "notice": "Gets the current time. Will return the last time set in `setCurrentTime` if running in test mode. Otherwise, it will return the block timestamp."
      },
      "setCurrentTime(uint256)": {
        "notice": "Sets the current time."
      }
    },
    "notice": "Factory contract to create and register new instances of expiring multiparty contracts. Responsible for constraining the parameters used to construct a new EMP. This creator contains a number of constraints that are applied to newly created expiring multi party contract. These constraints can evolve over time and are initially constrained to conservative values in this first iteration. Technically there is nothing in the ExpiringMultiParty contract requiring these constraints. However, because `createExpiringMultiParty()` is intended to be the only way to create valid financial contracts that are registered with the DVM (via _registerContract), we can enforce deployment configurations here.",
    "version": 1
  }
}