{
  "contractName": "ExpiringMultiParty",
  "abi": [
    {
      "inputs": [
        {
          "components": [
            {
              "internalType": "uint256",
              "name": "expirationTimestamp",
              "type": "uint256"
            },
            {
              "internalType": "uint256",
              "name": "withdrawalLiveness",
              "type": "uint256"
            },
            {
              "internalType": "address",
              "name": "collateralAddress",
              "type": "address"
            },
            {
              "internalType": "address",
              "name": "tokenAddress",
              "type": "address"
            },
            {
              "internalType": "address",
              "name": "finderAddress",
              "type": "address"
            },
            {
              "internalType": "address",
              "name": "timerAddress",
              "type": "address"
            },
            {
              "internalType": "address",
              "name": "financialProductLibraryAddress",
              "type": "address"
            },
            {
              "internalType": "address",
              "name": "externalVariableExpirationDAOAddress",
              "type": "address"
            },
            {
              "internalType": "bytes32",
              "name": "priceFeedIdentifier",
              "type": "bytes32"
            },
            {
              "components": [
                {
                  "internalType": "uint256",
                  "name": "rawValue",
                  "type": "uint256"
                }
              ],
              "internalType": "struct FixedPoint.Unsigned",
              "name": "minSponsorTokens",
              "type": "tuple"
            },
            {
              "internalType": "uint256",
              "name": "liquidationLiveness",
              "type": "uint256"
            },
            {
              "components": [
                {
                  "internalType": "uint256",
                  "name": "rawValue",
                  "type": "uint256"
                }
              ],
              "internalType": "struct FixedPoint.Unsigned",
              "name": "collateralRequirement",
              "type": "tuple"
            },
            {
              "components": [
                {
                  "internalType": "uint256",
                  "name": "rawValue",
                  "type": "uint256"
                }
              ],
              "internalType": "struct FixedPoint.Unsigned",
              "name": "disputeBondPercentage",
              "type": "tuple"
            },
            {
              "components": [
                {
                  "internalType": "uint256",
                  "name": "rawValue",
                  "type": "uint256"
                }
              ],
              "internalType": "struct FixedPoint.Unsigned",
              "name": "sponsorDisputeRewardPercentage",
              "type": "tuple"
            },
            {
              "components": [
                {
                  "internalType": "uint256",
                  "name": "rawValue",
                  "type": "uint256"
                }
              ],
              "internalType": "struct FixedPoint.Unsigned",
              "name": "disputerDisputeRewardPercentage",
              "type": "tuple"
            }
          ],
          "internalType": "struct Liquidatable.ConstructorParams",
          "name": "params",
          "type": "tuple"
        }
      ],
      "stateMutability": "nonpayable",
      "type": "constructor"
    },
    {
      "anonymous": false,
      "inputs": [
        {
          "indexed": true,
          "internalType": "address",
          "name": "caller",
          "type": "address"
        }
      ],
      "name": "ContractExpired",
      "type": "event"
    },
    {
      "anonymous": false,
      "inputs": [
        {
          "indexed": true,
          "internalType": "address",
          "name": "sponsor",
          "type": "address"
        },
        {
          "indexed": true,
          "internalType": "uint256",
          "name": "collateralAmount",
          "type": "uint256"
        }
      ],
      "name": "Deposit",
      "type": "event"
    },
    {
      "anonymous": false,
      "inputs": [
        {
          "indexed": true,
          "internalType": "address",
          "name": "caller",
          "type": "address"
        },
        {
          "indexed": true,
          "internalType": "address",
          "name": "sponsor",
          "type": "address"
        },
        {
          "indexed": true,
          "internalType": "address",
          "name": "liquidator",
          "type": "address"
        },
        {
          "indexed": false,
          "internalType": "address",
          "name": "disputer",
          "type": "address"
        },
        {
          "indexed": false,
          "internalType": "uint256",
          "name": "liquidationId",
          "type": "uint256"
        },
        {
          "indexed": false,
          "internalType": "bool",
          "name": "disputeSucceeded",
          "type": "bool"
        }
      ],
      "name": "DisputeSettled",
      "type": "event"
    },
    {
      "anonymous": false,
      "inputs": [
        {
          "indexed": true,
          "internalType": "address",
          "name": "caller",
          "type": "address"
        },
        {
          "indexed": false,
          "internalType": "uint256",
          "name": "originalExpirationTimestamp",
          "type": "uint256"
        },
        {
          "indexed": false,
          "internalType": "uint256",
          "name": "shutdownTimestamp",
          "type": "uint256"
        }
      ],
      "name": "EmergencyShutdown",
      "type": "event"
    },
    {
      "anonymous": false,
      "inputs": [
        {
          "indexed": true,
          "internalType": "address",
          "name": "previousAddress",
          "type": "address"
        },
        {
          "indexed": true,
          "internalType": "address",
          "name": "newAddress",
          "type": "address"
        },
        {
          "indexed": false,
          "internalType": "uint256",
          "name": "updateTimestamp",
          "type": "uint256"
        }
      ],
      "name": "EmergencyUpdateDAOAddress",
      "type": "event"
    },
    {
      "anonymous": false,
      "inputs": [
        {
          "indexed": true,
          "internalType": "address",
          "name": "sponsor",
          "type": "address"
        }
      ],
      "name": "EndedSponsorPosition",
      "type": "event"
    },
    {
      "anonymous": false,
      "inputs": [
        {
          "indexed": true,
          "internalType": "uint256",
          "name": "amount",
          "type": "uint256"
        }
      ],
      "name": "FinalFeesPaid",
      "type": "event"
    },
    {
      "anonymous": false,
      "inputs": [
        {
          "indexed": true,
          "internalType": "address",
          "name": "sponsor",
          "type": "address"
        },
        {
          "indexed": true,
          "internalType": "address",
          "name": "liquidator",
          "type": "address"
        },
        {
          "indexed": true,
          "internalType": "uint256",
          "name": "liquidationId",
          "type": "uint256"
        },
        {
          "indexed": false,
          "internalType": "uint256",
          "name": "tokensOutstanding",
          "type": "uint256"
        },
        {
          "indexed": false,
          "internalType": "uint256",
          "name": "lockedCollateral",
          "type": "uint256"
        },
        {
          "indexed": false,
          "internalType": "uint256",
          "name": "liquidatedCollateral",
          "type": "uint256"
        },
        {
          "indexed": false,
          "internalType": "uint256",
          "name": "liquidationTime",
          "type": "uint256"
        }
      ],
      "name": "LiquidationCreated",
      "type": "event"
    },
    {
      "anonymous": false,
      "inputs": [
        {
          "indexed": true,
          "internalType": "address",
          "name": "sponsor",
          "type": "address"
        },
        {
          "indexed": true,
          "internalType": "address",
          "name": "liquidator",
          "type": "address"
        },
        {
          "indexed": true,
          "internalType": "address",
          "name": "disputer",
          "type": "address"
        },
        {
          "indexed": false,
          "internalType": "uint256",
          "name": "liquidationId",
          "type": "uint256"
        },
        {
          "indexed": false,
          "internalType": "uint256",
          "name": "disputeBondAmount",
          "type": "uint256"
        }
      ],
      "name": "LiquidationDisputed",
      "type": "event"
    },
    {
      "anonymous": false,
      "inputs": [
        {
          "indexed": true,
          "internalType": "address",
          "name": "caller",
          "type": "address"
        },
        {
          "indexed": false,
          "internalType": "uint256",
          "name": "paidToLiquidator",
          "type": "uint256"
        },
        {
          "indexed": false,
          "internalType": "uint256",
          "name": "paidToDisputer",
          "type": "uint256"
        },
        {
          "indexed": false,
          "internalType": "uint256",
          "name": "paidToSponsor",
          "type": "uint256"
        },
        {
          "indexed": true,
          "internalType": "enum Liquidatable.Status",
          "name": "liquidationStatus",
          "type": "uint8"
        },
        {
          "indexed": false,
          "internalType": "uint256",
          "name": "settlementPrice",
          "type": "uint256"
        }
      ],
      "name": "LiquidationWithdrawn",
      "type": "event"
    },
    {
      "anonymous": false,
      "inputs": [
        {
          "indexed": true,
          "internalType": "address",
          "name": "sponsor",
          "type": "address"
        }
      ],
      "name": "NewSponsor",
      "type": "event"
    },
    {
      "anonymous": false,
      "inputs": [
        {
          "indexed": true,
          "internalType": "address",
          "name": "sponsor",
          "type": "address"
        },
        {
          "indexed": true,
          "internalType": "uint256",
          "name": "collateralAmount",
          "type": "uint256"
        },
        {
          "indexed": true,
          "internalType": "uint256",
          "name": "tokenAmount",
          "type": "uint256"
        }
      ],
      "name": "PositionCreated",
      "type": "event"
    },
    {
      "anonymous": false,
      "inputs": [
        {
          "indexed": true,
          "internalType": "address",
          "name": "sponsor",
          "type": "address"
        },
        {
          "indexed": true,
          "internalType": "uint256",
          "name": "collateralAmount",
          "type": "uint256"
        },
        {
          "indexed": true,
          "internalType": "uint256",
          "name": "tokenAmount",
          "type": "uint256"
        }
      ],
      "name": "Redeem",
      "type": "event"
    },
    {
      "anonymous": false,
      "inputs": [
        {
          "indexed": true,
          "internalType": "uint256",
          "name": "regularFee",
          "type": "uint256"
        },
        {
          "indexed": true,
          "internalType": "uint256",
          "name": "lateFee",
          "type": "uint256"
        }
      ],
      "name": "RegularFeesPaid",
      "type": "event"
    },
    {
      "anonymous": false,
      "inputs": [
        {
          "indexed": true,
          "internalType": "address",
          "name": "sponsor",
          "type": "address"
        },
        {
          "indexed": true,
          "internalType": "uint256",
          "name": "numTokensRepaid",
          "type": "uint256"
        },
        {
          "indexed": true,
          "internalType": "uint256",
          "name": "newTokenCount",
          "type": "uint256"
        }
      ],
      "name": "Repay",
      "type": "event"
    },
    {
      "anonymous": false,
      "inputs": [
        {
          "indexed": true,
          "internalType": "address",
          "name": "oldSponsor",
          "type": "address"
        }
      ],
      "name": "RequestTransferPosition",
      "type": "event"
    },
    {
      "anonymous": false,
      "inputs": [
        {
          "indexed": true,
          "internalType": "address",
          "name": "oldSponsor",
          "type": "address"
        }
      ],
      "name": "RequestTransferPositionCanceled",
      "type": "event"
    },
    {
      "anonymous": false,
      "inputs": [
        {
          "indexed": true,
          "internalType": "address",
          "name": "oldSponsor",
          "type": "address"
        },
        {
          "indexed": true,
          "internalType": "address",
          "name": "newSponsor",
          "type": "address"
        }
      ],
      "name": "RequestTransferPositionExecuted",
      "type": "event"
    },
    {
      "anonymous": false,
      "inputs": [
        {
          "indexed": true,
          "internalType": "address",
          "name": "sponsor",
          "type": "address"
        },
        {
          "indexed": true,
          "internalType": "uint256",
          "name": "collateralAmount",
          "type": "uint256"
        }
      ],
      "name": "RequestWithdrawal",
      "type": "event"
    },
    {
      "anonymous": false,
      "inputs": [
        {
          "indexed": true,
          "internalType": "address",
          "name": "sponsor",
          "type": "address"
        },
        {
          "indexed": true,
          "internalType": "uint256",
          "name": "collateralAmount",
          "type": "uint256"
        }
      ],
      "name": "RequestWithdrawalCanceled",
      "type": "event"
    },
    {
      "anonymous": false,
      "inputs": [
        {
          "indexed": true,
          "internalType": "address",
          "name": "sponsor",
          "type": "address"
        },
        {
          "indexed": true,
          "internalType": "uint256",
          "name": "collateralAmount",
          "type": "uint256"
        }
      ],
      "name": "RequestWithdrawalExecuted",
      "type": "event"
    },
    {
      "anonymous": false,
      "inputs": [
        {
          "indexed": true,
          "internalType": "address",
          "name": "caller",
          "type": "address"
        },
        {
          "indexed": true,
          "internalType": "uint256",
          "name": "collateralReturned",
          "type": "uint256"
        },
        {
          "indexed": true,
          "internalType": "uint256",
          "name": "tokensBurned",
          "type": "uint256"
        }
      ],
      "name": "SettleExpiredPosition",
      "type": "event"
    },
    {
      "anonymous": false,
      "inputs": [
        {
          "indexed": true,
          "internalType": "address",
          "name": "caller",
          "type": "address"
        },
        {
          "indexed": false,
          "internalType": "uint256",
          "name": "originalExpirationTimestamp",
          "type": "uint256"
        },
        {
          "indexed": false,
          "internalType": "uint256",
          "name": "shutdownTimestamp",
          "type": "uint256"
        }
      ],
      "name": "VariableExpiration",
      "type": "event"
    },
    {
      "anonymous": false,
      "inputs": [
        {
          "indexed": true,
          "internalType": "address",
          "name": "sponsor",
          "type": "address"
        },
        {
          "indexed": true,
          "internalType": "uint256",
          "name": "collateralAmount",
          "type": "uint256"
        }
      ],
      "name": "Withdrawal",
      "type": "event"
    },
    {
      "inputs": [
        {
          "internalType": "address",
          "name": "_collateralAddress",
          "type": "address"
        }
      ],
      "name": "_getSyntheticDecimals",
      "outputs": [
        {
          "internalType": "uint8",
          "name": "decimals",
          "type": "uint8"
        }
      ],
      "stateMutability": "view",
      "type": "function"
    },
    {
      "inputs": [],
      "name": "cancelTransferPosition",
      "outputs": [],
      "stateMutability": "nonpayable",
      "type": "function"
    },
    {
      "inputs": [],
      "name": "cancelWithdrawal",
      "outputs": [],
      "stateMutability": "nonpayable",
      "type": "function"
    },
    {
      "inputs": [],
      "name": "collateralCurrency",
      "outputs": [
        {
          "internalType": "contract IERC20",
          "name": "",
          "type": "address"
        }
      ],
      "stateMutability": "view",
      "type": "function"
    },
    {
      "inputs": [],
      "name": "collateralRequirement",
      "outputs": [
        {
          "internalType": "uint256",
          "name": "rawValue",
          "type": "uint256"
        }
      ],
      "stateMutability": "view",
      "type": "function"
    },
    {
      "inputs": [],
      "name": "contractState",
      "outputs": [
        {
          "internalType": "enum PricelessPositionManager.ContractState",
          "name": "",
          "type": "uint8"
        }
      ],
      "stateMutability": "view",
      "type": "function"
    },
    {
      "inputs": [
        {
          "components": [
            {
              "internalType": "uint256",
              "name": "rawValue",
              "type": "uint256"
            }
          ],
          "internalType": "struct FixedPoint.Unsigned",
          "name": "collateralAmount",
          "type": "tuple"
        },
        {
          "components": [
            {
              "internalType": "uint256",
              "name": "rawValue",
              "type": "uint256"
            }
          ],
          "internalType": "struct FixedPoint.Unsigned",
          "name": "numTokens",
          "type": "tuple"
        }
      ],
      "name": "create",
      "outputs": [],
      "stateMutability": "nonpayable",
      "type": "function"
    },
    {
      "inputs": [
        {
          "internalType": "address",
          "name": "sponsor",
          "type": "address"
        },
        {
          "components": [
            {
              "internalType": "uint256",
              "name": "rawValue",
              "type": "uint256"
            }
          ],
          "internalType": "struct FixedPoint.Unsigned",
          "name": "minCollateralPerToken",
          "type": "tuple"
        },
        {
          "components": [
            {
              "internalType": "uint256",
              "name": "rawValue",
              "type": "uint256"
            }
          ],
          "internalType": "struct FixedPoint.Unsigned",
          "name": "maxCollateralPerToken",
          "type": "tuple"
        },
        {
          "components": [
            {
              "internalType": "uint256",
              "name": "rawValue",
              "type": "uint256"
            }
          ],
          "internalType": "struct FixedPoint.Unsigned",
          "name": "maxTokensToLiquidate",
          "type": "tuple"
        },
        {
          "internalType": "uint256",
          "name": "deadline",
          "type": "uint256"
        }
      ],
      "name": "createLiquidation",
      "outputs": [
        {
          "internalType": "uint256",
          "name": "liquidationId",
          "type": "uint256"
        },
        {
          "components": [
            {
              "internalType": "uint256",
              "name": "rawValue",
              "type": "uint256"
            }
          ],
          "internalType": "struct FixedPoint.Unsigned",
          "name": "tokensLiquidated",
          "type": "tuple"
        },
        {
          "components": [
            {
              "internalType": "uint256",
              "name": "rawValue",
              "type": "uint256"
            }
          ],
          "internalType": "struct FixedPoint.Unsigned",
          "name": "finalFeeBond",
          "type": "tuple"
        }
      ],
      "stateMutability": "nonpayable",
      "type": "function"
    },
    {
      "inputs": [],
      "name": "cumulativeFeeMultiplier",
      "outputs": [
        {
          "internalType": "uint256",
          "name": "rawValue",
          "type": "uint256"
        }
      ],
      "stateMutability": "view",
      "type": "function"
    },
    {
      "inputs": [
        {
          "components": [
            {
              "internalType": "uint256",
              "name": "rawValue",
              "type": "uint256"
            }
          ],
          "internalType": "struct FixedPoint.Unsigned",
          "name": "collateralAmount",
          "type": "tuple"
        }
      ],
      "name": "deposit",
      "outputs": [],
      "stateMutability": "nonpayable",
      "type": "function"
    },
    {
      "inputs": [
        {
          "internalType": "address",
          "name": "sponsor",
          "type": "address"
        },
        {
          "components": [
            {
              "internalType": "uint256",
              "name": "rawValue",
              "type": "uint256"
            }
          ],
          "internalType": "struct FixedPoint.Unsigned",
          "name": "collateralAmount",
          "type": "tuple"
        }
      ],
      "name": "depositTo",
      "outputs": [],
      "stateMutability": "nonpayable",
      "type": "function"
    },
    {
      "inputs": [
        {
          "internalType": "uint256",
          "name": "liquidationId",
          "type": "uint256"
        },
        {
          "internalType": "address",
          "name": "sponsor",
          "type": "address"
        }
      ],
      "name": "dispute",
      "outputs": [
        {
          "components": [
            {
              "internalType": "uint256",
              "name": "rawValue",
              "type": "uint256"
            }
          ],
          "internalType": "struct FixedPoint.Unsigned",
          "name": "totalPaid",
          "type": "tuple"
        }
      ],
      "stateMutability": "nonpayable",
      "type": "function"
    },
    {
      "inputs": [],
      "name": "disputeBondPercentage",
      "outputs": [
        {
          "internalType": "uint256",
          "name": "rawValue",
          "type": "uint256"
        }
      ],
      "stateMutability": "view",
      "type": "function"
    },
    {
      "inputs": [],
      "name": "disputerDisputeRewardPercentage",
      "outputs": [
        {
          "internalType": "uint256",
          "name": "rawValue",
          "type": "uint256"
        }
      ],
      "stateMutability": "view",
      "type": "function"
    },
    {
      "inputs": [],
      "name": "emergencyShutdown",
      "outputs": [],
      "stateMutability": "nonpayable",
      "type": "function"
    },
    {
      "inputs": [
        {
          "internalType": "address",
          "name": "DAOAddress",
          "type": "address"
        }
      ],
      "name": "emergencyUpdateDAOAddress",
      "outputs": [],
      "stateMutability": "nonpayable",
      "type": "function"
    },
    {
      "inputs": [],
      "name": "expirationTimestamp",
      "outputs": [
        {
          "internalType": "uint256",
          "name": "",
          "type": "uint256"
        }
      ],
      "stateMutability": "view",
      "type": "function"
    },
    {
      "inputs": [],
      "name": "expire",
      "outputs": [],
      "stateMutability": "nonpayable",
      "type": "function"
    },
    {
      "inputs": [],
      "name": "expiryPrice",
      "outputs": [
        {
          "internalType": "uint256",
          "name": "rawValue",
          "type": "uint256"
        }
      ],
      "stateMutability": "view",
      "type": "function"
    },
    {
      "inputs": [],
      "name": "financialProductLibrary",
      "outputs": [
        {
          "internalType": "contract FinancialProductLibrary",
          "name": "",
          "type": "address"
        }
      ],
      "stateMutability": "view",
      "type": "function"
    },
    {
      "inputs": [],
      "name": "finder",
      "outputs": [
        {
          "internalType": "contract FinderInterface",
          "name": "",
          "type": "address"
        }
      ],
      "stateMutability": "view",
      "type": "function"
    },
    {
      "inputs": [
        {
          "internalType": "address",
          "name": "sponsor",
          "type": "address"
        }
      ],
      "name": "getCollateral",
      "outputs": [
        {
          "components": [
            {
              "internalType": "uint256",
              "name": "rawValue",
              "type": "uint256"
            }
          ],
          "internalType": "struct FixedPoint.Unsigned",
          "name": "",
          "type": "tuple"
        }
      ],
      "stateMutability": "view",
      "type": "function"
    },
    {
      "inputs": [],
      "name": "getCurrentTime",
      "outputs": [
        {
          "internalType": "uint256",
          "name": "",
          "type": "uint256"
        }
      ],
      "stateMutability": "view",
      "type": "function"
    },
    {
      "inputs": [
        {
          "internalType": "address",
          "name": "sponsor",
          "type": "address"
        }
      ],
      "name": "getLiquidations",
      "outputs": [
        {
          "components": [
            {
              "internalType": "address",
              "name": "sponsor",
              "type": "address"
            },
            {
              "internalType": "address",
              "name": "liquidator",
              "type": "address"
            },
            {
              "internalType": "enum Liquidatable.Status",
              "name": "state",
              "type": "uint8"
            },
            {
              "internalType": "uint256",
              "name": "liquidationTime",
              "type": "uint256"
            },
            {
              "components": [
                {
                  "internalType": "uint256",
                  "name": "rawValue",
                  "type": "uint256"
                }
              ],
              "internalType": "struct FixedPoint.Unsigned",
              "name": "tokensOutstanding",
              "type": "tuple"
            },
            {
              "components": [
                {
                  "internalType": "uint256",
                  "name": "rawValue",
                  "type": "uint256"
                }
              ],
              "internalType": "struct FixedPoint.Unsigned",
              "name": "lockedCollateral",
              "type": "tuple"
            },
            {
              "components": [
                {
                  "internalType": "uint256",
                  "name": "rawValue",
                  "type": "uint256"
                }
              ],
              "internalType": "struct FixedPoint.Unsigned",
              "name": "liquidatedCollateral",
              "type": "tuple"
            },
            {
              "components": [
                {
                  "internalType": "uint256",
                  "name": "rawValue",
                  "type": "uint256"
                }
              ],
              "internalType": "struct FixedPoint.Unsigned",
              "name": "rawUnitCollateral",
              "type": "tuple"
            },
            {
              "internalType": "address",
              "name": "disputer",
              "type": "address"
            },
            {
              "components": [
                {
                  "internalType": "uint256",
                  "name": "rawValue",
                  "type": "uint256"
                }
              ],
              "internalType": "struct FixedPoint.Unsigned",
              "name": "settlementPrice",
              "type": "tuple"
            },
            {
              "components": [
                {
                  "internalType": "uint256",
                  "name": "rawValue",
                  "type": "uint256"
                }
              ],
              "internalType": "struct FixedPoint.Unsigned",
              "name": "finalFee",
              "type": "tuple"
            }
          ],
          "internalType": "struct Liquidatable.LiquidationData[]",
          "name": "liquidationData",
          "type": "tuple[]"
        }
      ],
      "stateMutability": "view",
      "type": "function"
    },
    {
      "inputs": [
        {
          "internalType": "uint256",
          "name": "time",
          "type": "uint256"
        }
      ],
      "name": "getOutstandingRegularFees",
      "outputs": [
        {
          "components": [
            {
              "internalType": "uint256",
              "name": "rawValue",
              "type": "uint256"
            }
          ],
          "internalType": "struct FixedPoint.Unsigned",
          "name": "regularFee",
          "type": "tuple"
        },
        {
          "components": [
            {
              "internalType": "uint256",
              "name": "rawValue",
              "type": "uint256"
            }
          ],
          "internalType": "struct FixedPoint.Unsigned",
          "name": "latePenalty",
          "type": "tuple"
        },
        {
          "components": [
            {
              "internalType": "uint256",
              "name": "rawValue",
              "type": "uint256"
            }
          ],
          "internalType": "struct FixedPoint.Unsigned",
          "name": "totalPaid",
          "type": "tuple"
        }
      ],
      "stateMutability": "view",
      "type": "function"
    },
    {
      "inputs": [],
      "name": "gulp",
      "outputs": [],
      "stateMutability": "nonpayable",
      "type": "function"
    },
    {
      "inputs": [],
      "name": "liquidationLiveness",
      "outputs": [
        {
          "internalType": "uint256",
          "name": "",
          "type": "uint256"
        }
      ],
      "stateMutability": "view",
      "type": "function"
    },
    {
      "inputs": [
        {
          "internalType": "address",
          "name": "",
          "type": "address"
        },
        {
          "internalType": "uint256",
          "name": "",
          "type": "uint256"
        }
      ],
      "name": "liquidations",
      "outputs": [
        {
          "internalType": "address",
          "name": "sponsor",
          "type": "address"
        },
        {
          "internalType": "address",
          "name": "liquidator",
          "type": "address"
        },
        {
          "internalType": "enum Liquidatable.Status",
          "name": "state",
          "type": "uint8"
        },
        {
          "internalType": "uint256",
          "name": "liquidationTime",
          "type": "uint256"
        },
        {
          "components": [
            {
              "internalType": "uint256",
              "name": "rawValue",
              "type": "uint256"
            }
          ],
          "internalType": "struct FixedPoint.Unsigned",
          "name": "tokensOutstanding",
          "type": "tuple"
        },
        {
          "components": [
            {
              "internalType": "uint256",
              "name": "rawValue",
              "type": "uint256"
            }
          ],
          "internalType": "struct FixedPoint.Unsigned",
          "name": "lockedCollateral",
          "type": "tuple"
        },
        {
          "components": [
            {
              "internalType": "uint256",
              "name": "rawValue",
              "type": "uint256"
            }
          ],
          "internalType": "struct FixedPoint.Unsigned",
          "name": "liquidatedCollateral",
          "type": "tuple"
        },
        {
          "components": [
            {
              "internalType": "uint256",
              "name": "rawValue",
              "type": "uint256"
            }
          ],
          "internalType": "struct FixedPoint.Unsigned",
          "name": "rawUnitCollateral",
          "type": "tuple"
        },
        {
          "internalType": "address",
          "name": "disputer",
          "type": "address"
        },
        {
          "components": [
            {
              "internalType": "uint256",
              "name": "rawValue",
              "type": "uint256"
            }
          ],
          "internalType": "struct FixedPoint.Unsigned",
          "name": "settlementPrice",
          "type": "tuple"
        },
        {
          "components": [
            {
              "internalType": "uint256",
              "name": "rawValue",
              "type": "uint256"
            }
          ],
          "internalType": "struct FixedPoint.Unsigned",
          "name": "finalFee",
          "type": "tuple"
        }
      ],
      "stateMutability": "view",
      "type": "function"
    },
    {
      "inputs": [],
      "name": "minSponsorTokens",
      "outputs": [
        {
          "internalType": "uint256",
          "name": "rawValue",
          "type": "uint256"
        }
      ],
      "stateMutability": "view",
      "type": "function"
    },
    {
      "inputs": [],
      "name": "payRegularFees",
      "outputs": [
        {
          "components": [
            {
              "internalType": "uint256",
              "name": "rawValue",
              "type": "uint256"
            }
          ],
          "internalType": "struct FixedPoint.Unsigned",
          "name": "",
          "type": "tuple"
        }
      ],
      "stateMutability": "nonpayable",
      "type": "function"
    },
    {
      "inputs": [],
      "name": "pfc",
      "outputs": [
        {
          "components": [
            {
              "internalType": "uint256",
              "name": "rawValue",
              "type": "uint256"
            }
          ],
          "internalType": "struct FixedPoint.Unsigned",
          "name": "",
          "type": "tuple"
        }
      ],
      "stateMutability": "view",
      "type": "function"
    },
    {
      "inputs": [
        {
          "internalType": "address",
          "name": "",
          "type": "address"
        }
      ],
      "name": "positions",
      "outputs": [
        {
          "components": [
            {
              "internalType": "uint256",
              "name": "rawValue",
              "type": "uint256"
            }
          ],
          "internalType": "struct FixedPoint.Unsigned",
          "name": "tokensOutstanding",
          "type": "tuple"
        },
        {
          "internalType": "uint256",
          "name": "withdrawalRequestPassTimestamp",
          "type": "uint256"
        },
        {
          "components": [
            {
              "internalType": "uint256",
              "name": "rawValue",
              "type": "uint256"
            }
          ],
          "internalType": "struct FixedPoint.Unsigned",
          "name": "withdrawalRequestAmount",
          "type": "tuple"
        },
        {
          "components": [
            {
              "internalType": "uint256",
              "name": "rawValue",
              "type": "uint256"
            }
          ],
          "internalType": "struct FixedPoint.Unsigned",
          "name": "rawCollateral",
          "type": "tuple"
        },
        {
          "internalType": "uint256",
          "name": "transferPositionRequestPassTimestamp",
          "type": "uint256"
        }
      ],
      "stateMutability": "view",
      "type": "function"
    },
    {
      "inputs": [],
      "name": "priceIdentifier",
      "outputs": [
        {
          "internalType": "bytes32",
          "name": "",
          "type": "bytes32"
        }
      ],
      "stateMutability": "view",
      "type": "function"
    },
    {
      "inputs": [],
      "name": "rawLiquidationCollateral",
      "outputs": [
        {
          "internalType": "uint256",
          "name": "rawValue",
          "type": "uint256"
        }
      ],
      "stateMutability": "view",
      "type": "function"
    },
    {
      "inputs": [],
      "name": "rawTotalPositionCollateral",
      "outputs": [
        {
          "internalType": "uint256",
          "name": "rawValue",
          "type": "uint256"
        }
      ],
      "stateMutability": "view",
      "type": "function"
    },
    {
      "inputs": [
        {
          "components": [
            {
              "internalType": "uint256",
              "name": "rawValue",
              "type": "uint256"
            }
          ],
          "internalType": "struct FixedPoint.Unsigned",
          "name": "numTokens",
          "type": "tuple"
        }
      ],
      "name": "redeem",
      "outputs": [
        {
          "components": [
            {
              "internalType": "uint256",
              "name": "rawValue",
              "type": "uint256"
            }
          ],
          "internalType": "struct FixedPoint.Unsigned",
          "name": "amountWithdrawn",
          "type": "tuple"
        }
      ],
      "stateMutability": "nonpayable",
      "type": "function"
    },
    {
      "inputs": [],
      "name": "remargin",
      "outputs": [],
      "stateMutability": "nonpayable",
      "type": "function"
    },
    {
      "inputs": [
        {
          "components": [
            {
              "internalType": "uint256",
              "name": "rawValue",
              "type": "uint256"
            }
          ],
          "internalType": "struct FixedPoint.Unsigned",
          "name": "numTokens",
          "type": "tuple"
        }
      ],
      "name": "repay",
      "outputs": [],
      "stateMutability": "nonpayable",
      "type": "function"
    },
    {
      "inputs": [],
      "name": "requestTransferPosition",
      "outputs": [],
      "stateMutability": "nonpayable",
      "type": "function"
    },
    {
      "inputs": [
        {
          "components": [
            {
              "internalType": "uint256",
              "name": "rawValue",
              "type": "uint256"
            }
          ],
          "internalType": "struct FixedPoint.Unsigned",
          "name": "collateralAmount",
          "type": "tuple"
        }
      ],
      "name": "requestWithdrawal",
      "outputs": [],
      "stateMutability": "nonpayable",
      "type": "function"
    },
    {
      "inputs": [
        {
          "internalType": "uint256",
          "name": "time",
          "type": "uint256"
        }
      ],
      "name": "setCurrentTime",
      "outputs": [],
      "stateMutability": "nonpayable",
      "type": "function"
    },
    {
      "inputs": [],
      "name": "settleExpired",
      "outputs": [
        {
          "components": [
            {
              "internalType": "uint256",
              "name": "rawValue",
              "type": "uint256"
            }
          ],
          "internalType": "struct FixedPoint.Unsigned",
          "name": "amountWithdrawn",
          "type": "tuple"
        }
      ],
      "stateMutability": "nonpayable",
      "type": "function"
    },
    {
      "inputs": [],
      "name": "sponsorDisputeRewardPercentage",
      "outputs": [
        {
          "internalType": "uint256",
          "name": "rawValue",
          "type": "uint256"
        }
      ],
      "stateMutability": "view",
      "type": "function"
    },
    {
      "inputs": [],
      "name": "timerAddress",
      "outputs": [
        {
          "internalType": "address",
          "name": "",
          "type": "address"
        }
      ],
      "stateMutability": "view",
      "type": "function"
    },
    {
      "inputs": [],
      "name": "tokenCurrency",
      "outputs": [
        {
          "internalType": "contract ExpandedIERC20",
          "name": "",
          "type": "address"
        }
      ],
      "stateMutability": "view",
      "type": "function"
    },
    {
      "inputs": [],
      "name": "totalPositionCollateral",
      "outputs": [
        {
          "components": [
            {
              "internalType": "uint256",
              "name": "rawValue",
              "type": "uint256"
            }
          ],
          "internalType": "struct FixedPoint.Unsigned",
          "name": "",
          "type": "tuple"
        }
      ],
      "stateMutability": "view",
      "type": "function"
    },
    {
      "inputs": [],
      "name": "totalTokensOutstanding",
      "outputs": [
        {
          "internalType": "uint256",
          "name": "rawValue",
          "type": "uint256"
        }
      ],
      "stateMutability": "view",
      "type": "function"
    },
    {
      "inputs": [
        {
          "internalType": "address",
          "name": "newSponsorAddress",
          "type": "address"
        }
      ],
      "name": "transferPositionPassedRequest",
      "outputs": [],
      "stateMutability": "nonpayable",
      "type": "function"
    },
    {
      "inputs": [
        {
          "components": [
            {
              "internalType": "uint256",
              "name": "rawValue",
              "type": "uint256"
            }
          ],
          "internalType": "struct FixedPoint.Unsigned",
          "name": "price",
          "type": "tuple"
        }
      ],
      "name": "transformCollateralRequirement",
      "outputs": [
        {
          "components": [
            {
              "internalType": "uint256",
              "name": "rawValue",
              "type": "uint256"
            }
          ],
          "internalType": "struct FixedPoint.Unsigned",
          "name": "",
          "type": "tuple"
        }
      ],
      "stateMutability": "view",
      "type": "function"
    },
    {
      "inputs": [
        {
          "components": [
            {
              "internalType": "uint256",
              "name": "rawValue",
              "type": "uint256"
            }
          ],
          "internalType": "struct FixedPoint.Unsigned",
          "name": "price",
          "type": "tuple"
        },
        {
          "internalType": "uint256",
          "name": "requestTime",
          "type": "uint256"
        }
      ],
      "name": "transformPrice",
      "outputs": [
        {
          "components": [
            {
              "internalType": "uint256",
              "name": "rawValue",
              "type": "uint256"
            }
          ],
          "internalType": "struct FixedPoint.Unsigned",
          "name": "",
          "type": "tuple"
        }
      ],
      "stateMutability": "view",
      "type": "function"
    },
    {
      "inputs": [
        {
          "internalType": "uint256",
          "name": "requestTime",
          "type": "uint256"
        }
      ],
      "name": "transformPriceIdentifier",
      "outputs": [
        {
          "internalType": "bytes32",
          "name": "",
          "type": "bytes32"
        }
      ],
      "stateMutability": "view",
      "type": "function"
    },
    {
      "inputs": [],
      "name": "updateTimestamp",
      "outputs": [
        {
          "internalType": "uint256",
          "name": "",
          "type": "uint256"
        }
      ],
      "stateMutability": "view",
      "type": "function"
    },
    {
      "inputs": [
        {
          "internalType": "uint256",
          "name": "settlementPrice",
          "type": "uint256"
        }
      ],
      "name": "variableExpiration",
      "outputs": [],
      "stateMutability": "nonpayable",
      "type": "function"
    },
    {
      "inputs": [
        {
          "components": [
            {
              "internalType": "uint256",
              "name": "rawValue",
              "type": "uint256"
            }
          ],
          "internalType": "struct FixedPoint.Unsigned",
          "name": "collateralAmount",
          "type": "tuple"
        }
      ],
      "name": "withdraw",
      "outputs": [
        {
          "components": [
            {
              "internalType": "uint256",
              "name": "rawValue",
              "type": "uint256"
            }
          ],
          "internalType": "struct FixedPoint.Unsigned",
          "name": "amountWithdrawn",
          "type": "tuple"
        }
      ],
      "stateMutability": "nonpayable",
      "type": "function"
    },
    {
      "inputs": [
        {
          "internalType": "uint256",
          "name": "liquidationId",
          "type": "uint256"
        },
        {
          "internalType": "address",
          "name": "sponsor",
          "type": "address"
        }
      ],
      "name": "withdrawLiquidation",
      "outputs": [
        {
          "components": [
            {
              "components": [
                {
                  "internalType": "uint256",
                  "name": "rawValue",
                  "type": "uint256"
                }
              ],
              "internalType": "struct FixedPoint.Unsigned",
              "name": "payToSponsor",
              "type": "tuple"
            },
            {
              "components": [
                {
                  "internalType": "uint256",
                  "name": "rawValue",
                  "type": "uint256"
                }
              ],
              "internalType": "struct FixedPoint.Unsigned",
              "name": "payToLiquidator",
              "type": "tuple"
            },
            {
              "components": [
                {
                  "internalType": "uint256",
                  "name": "rawValue",
                  "type": "uint256"
                }
              ],
              "internalType": "struct FixedPoint.Unsigned",
              "name": "payToDisputer",
              "type": "tuple"
            },
            {
              "components": [
                {
                  "internalType": "uint256",
                  "name": "rawValue",
                  "type": "uint256"
                }
              ],
              "internalType": "struct FixedPoint.Unsigned",
              "name": "paidToSponsor",
              "type": "tuple"
            },
            {
              "components": [
                {
                  "internalType": "uint256",
                  "name": "rawValue",
                  "type": "uint256"
                }
              ],
              "internalType": "struct FixedPoint.Unsigned",
              "name": "paidToLiquidator",
              "type": "tuple"
            },
            {
              "components": [
                {
                  "internalType": "uint256",
                  "name": "rawValue",
                  "type": "uint256"
                }
              ],
              "internalType": "struct FixedPoint.Unsigned",
              "name": "paidToDisputer",
              "type": "tuple"
            }
          ],
          "internalType": "struct Liquidatable.RewardsData",
          "name": "",
          "type": "tuple"
        }
      ],
      "stateMutability": "nonpayable",
      "type": "function"
    },
    {
      "inputs": [],
      "name": "withdrawPassedRequest",
      "outputs": [
        {
          "components": [
            {
              "internalType": "uint256",
              "name": "rawValue",
              "type": "uint256"
            }
          ],
          "internalType": "struct FixedPoint.Unsigned",
          "name": "amountWithdrawn",
          "type": "tuple"
        }
      ],
      "stateMutability": "nonpayable",
      "type": "function"
    },
    {
      "inputs": [],
      "name": "withdrawalLiveness",
      "outputs": [
        {
          "internalType": "uint256",
          "name": "",
          "type": "uint256"
        }
      ],
      "stateMutability": "view",
      "type": "function"
    }
  ],
  "bytecode": "0x60806040523480156200001157600080fd5b5060405162009e7c38038062009e7c833981810160405281019062000037919062000b09565b80806000015181602001518260400151836060015184608001518561010001518661012001518760a001518860c001518960e0015187868480806000806101000a81548173ffffffffffffffffffffffffffffffffffffffff021916908373ffffffffffffffffffffffffffffffffffffffff160217905550506001600060146101000a81548160ff02191690831515021790555082600160006101000a81548173ffffffffffffffffffffffffffffffffffffffff021916908373ffffffffffffffffffffffffffffffffffffffff16021790555081600260006101000a81548173ffffffffffffffffffffffffffffffffffffffff021916908373ffffffffffffffffffffffffffffffffffffffff1602179055506200015e6200047d60201b60201c565b6003819055506200017b60016200058460201b62004aa61760201c565b6004600082015181600001559050505050506200019d620005c560201b60201c565b620001ad6200061960201b60201c565b620001bd6200047d60201b60201c565b8a11620001c957600080fd5b620001d96200063560201b60201c565b73ffffffffffffffffffffffffffffffffffffffff166390978d1b866040518263ffffffff1660e01b815260040162000213919062000c5f565b60206040518083038186803b1580156200022c57600080fd5b505afa15801562000241573d6000803e3d6000fd5b505050506040513d601f19601f8201168201806040525081019062000267919062000add565b6200027157600080fd5b89600b8190555088600d8190555086600960006101000a81548173ffffffffffffffffffffffffffffffffffffffff021916908373ffffffffffffffffffffffffffffffffffffffff16021790555083600e6000820151816000015590505084600a8190555080601160006101000a81548173ffffffffffffffffffffffffffffffffffffffff021916908373ffffffffffffffffffffffffffffffffffffffff16021790555081601060006101000a81548173ffffffffffffffffffffffffffffffffffffffff021916908373ffffffffffffffffffffffffffffffffffffffff160217905550620003696200070d60201b60201c565b5050505050505050505062000383620005c560201b60201c565b620003936200061960201b60201c565b620003b360018261016001516200072a60201b62004ade1790919060201c565b620003bd57600080fd5b620003fb6001620003e7836101c00151846101a001516200074f60201b62004afb1790919060201c565b6200079160201b62004b341790919060201c565b6200040557600080fd5b806101400151601481905550806101600151601560008201518160000155905050806101800151601660008201518160000155905050806101a00151601760008201518160000155905050806101c00151601860008201518160000155905050620004756200070d60201b60201c565b505062000ddd565b60008073ffffffffffffffffffffffffffffffffffffffff1660008054906101000a900473ffffffffffffffffffffffffffffffffffffffff1673ffffffffffffffffffffffffffffffffffffffff16146200057d5760008054906101000a900473ffffffffffffffffffffffffffffffffffffffff1673ffffffffffffffffffffffffffffffffffffffff166329cb924d6040518163ffffffff1660e01b815260040160206040518083038186803b1580156200053a57600080fd5b505afa1580156200054f573d6000803e3d6000fd5b505050506040513d601f19601f8201168201806040525081019062000575919062000b36565b905062000581565b4290505b90565b6200058e62000884565b6040518060200160405280620005bb670de0b6b3a764000085620007b660201b62004b511790919060201c565b8152509050919050565b600060149054906101000a900460ff1662000617576040517f08c379a00000000000000000000000000000000000000000000000000000000081526004016200060e9062000cc0565b60405180910390fd5b565b60008060146101000a81548160ff021916908315150217905550565b6000600260009054906101000a900473ffffffffffffffffffffffffffffffffffffffff1673ffffffffffffffffffffffffffffffffffffffff1663aafd5e407f4964656e74696669657257686974656c697374000000000000000000000000006040518263ffffffff1660e01b8152600401620006b4919062000c5f565b60206040518083038186803b158015620006cd57600080fd5b505afa158015620006e2573d6000803e3d6000fd5b505050506040513d601f19601f8201168201806040525081019062000708919062000ab1565b905090565b6001600060146101000a81548160ff021916908315150217905550565b60006200073d826200058460201b60201c565b60000151836000015111905092915050565b6200075962000884565b604051806020016040528062000786846000015186600001516200082c60201b62004bc11790919060201c565b815250905092915050565b6000620007a4826200058460201b60201c565b60000151836000015110905092915050565b600080831415620007cb576000905062000826565b6000828402905082848281620007dd57fe5b041462000821576040517f08c379a0000000000000000000000000000000000000000000000000000000008152600401620008189062000c9e565b60405180910390fd5b809150505b92915050565b6000808284019050838110156200087a576040517f08c379a0000000000000000000000000000000000000000000000000000000008152600401620008719062000c7c565b60405180910390fd5b8091505092915050565b6040518060200160405280600081525090565b600081519050620008a88162000d75565b92915050565b600081519050620008bf8162000d8f565b92915050565b600081519050620008d68162000da9565b92915050565b60006101e08284031215620008f057600080fd5b620008fd6101e062000ce2565b905060006200090f8482850162000a9a565b6000830152506020620009258482850162000a9a565b60208301525060406200093b8482850162000897565b6040830152506060620009518482850162000897565b6060830152506080620009678482850162000897565b60808301525060a06200097d8482850162000897565b60a08301525060c0620009938482850162000897565b60c08301525060e0620009a98482850162000897565b60e083015250610100620009c084828501620008c5565b61010083015250610120620009d88482850162000a5d565b61012083015250610140620009f08482850162000a9a565b6101408301525061016062000a088482850162000a5d565b6101608301525061018062000a208482850162000a5d565b610180830152506101a062000a388482850162000a5d565b6101a0830152506101c062000a508482850162000a5d565b6101c08301525092915050565b60006020828403121562000a7057600080fd5b62000a7c602062000ce2565b9050600062000a8e8482850162000a9a565b60008301525092915050565b60008151905062000aab8162000dc3565b92915050565b60006020828403121562000ac457600080fd5b600062000ad48482850162000897565b91505092915050565b60006020828403121562000af057600080fd5b600062000b0084828501620008ae565b91505092915050565b60006101e0828403121562000b1d57600080fd5b600062000b2d84828501620008dc565b91505092915050565b60006020828403121562000b4957600080fd5b600062000b598482850162000a9a565b91505092915050565b62000b6d8162000d41565b82525050565b600062000b82601b8362000d10565b91507f536166654d6174683a206164646974696f6e206f766572666c6f7700000000006000830152602082019050919050565b600062000bc460218362000d10565b91507f536166654d6174683a206d756c7469706c69636174696f6e206f766572666c6f60008301527f77000000000000000000000000000000000000000000000000000000000000006020830152604082019050919050565b600062000c2c601f8362000d10565b91507f5265656e7472616e637947756172643a207265656e7472616e742063616c6c006000830152602082019050919050565b600060208201905062000c76600083018462000b62565b92915050565b6000602082019050818103600083015262000c978162000b73565b9050919050565b6000602082019050818103600083015262000cb98162000bb5565b9050919050565b6000602082019050818103600083015262000cdb8162000c1d565b9050919050565b6000604051905081810181811067ffffffffffffffff8211171562000d0657600080fd5b8060405250919050565b600082825260208201905092915050565b600062000d2e8262000d4b565b9050919050565b60008115159050919050565b6000819050919050565b600073ffffffffffffffffffffffffffffffffffffffff82169050919050565b6000819050919050565b62000d808162000d21565b811462000d8c57600080fd5b50565b62000d9a8162000d35565b811462000da657600080fd5b50565b62000db48162000d41565b811462000dc057600080fd5b50565b62000dce8162000d6b565b811462000dda57600080fd5b50565b61908f8062000ded6000396000f3fe608060405234801561001057600080fd5b50600436106103835760003560e01c80635aa266c9116101de578063976d17c11161010f578063b795f0d4116100ad578063d1e92c111161007c578063d1e92c1114610a30578063dd0eef3d14610a4c578063edfa9a9b14610a6a578063fcccedc714610a8857610383565b8063b795f0d4146109e2578063b9a3c84c146109ec578063bc12163014610a0a578063bda02e7714610a2657610383565b80639f43ddd2116100e95780639f43ddd2146109465780639ff4dea814610964578063a1c4d1e714610982578063a765fbea146109b257610383565b8063976d17c1146108c85780639b56d6c9146108e45780639e4efaa01461091457610383565b806381a10ae11161017c57806392120aec1161015657806392120aec146108645780639375f0e91461088257806394909e62146108a057806397523661146108aa57610383565b806381a10ae11461080a57806385209ee0146108285780638c382eb21461084657610383565b80636ba2f992116101b85780636ba2f992146107a85780637048594b146107c457806379599f96146107e25780637e398c22146107ec57610383565b80635aa266c91461072c5780635f1af1ca1461074857806362b5f7f51461077857610383565b80632e154f2e116102b857806343e4771b116102565780634f8c4847116102305780634f8c48471461068457806350f49846146106be57806355f57510146106dc5780635617151c1461071057610383565b806343e4771b1461061857806348e30c3f146106365780634ead6e511461065457610383565b8063360598e111610292578063360598e11461059057806336980f58146105c05780633cb6ce83146105ca5780633ee7a5ce146105e857610383565b80632e154f2e1461054a57806333a46ca2146105685780633403c2fc1461058657610383565b80631c39c38d1161032557806322f8e566116102ff57806322f8e566146104c057806325ed4dd8146104dc57806329cb924d1461050e5780632d5436cf1461052c57610383565b80631c39c38d1461047a5780631c5be3d71461049857806322611280146104b657610383565b80630de15fd9116103615780630de15fd9146103e05780630ff49b90146103fe57806318928a0c1461042e578063197f78481461044a57610383565b80630734919e14610388578063081b314e146103a45780630c9229ca146103c2575b600080fd5b6103a2600480360381019061039d9190617657565b610aa6565b005b6103ac610c4e565b6040516103b99190618bdb565b60405180910390f35b6103ca610c5a565b6040516103d79190618bdb565b60405180910390f35b6103e8610c66565b6040516103f59190618791565b60405180910390f35b610418600480360381019061041391906178dd565b610c8c565b6040516104259190618ae4565b60405180910390f35b61044860048036038101906104439190617720565b610cae565b005b610464600480360381019061045f9190617813565b610db7565b6040516104719190618ae4565b60405180910390f35b610482610dd7565b60405161048f9190618403565b60405180910390f35b6104a0610dfb565b6040516104ad9190618bdb565b60405180910390f35b6104be610e01565b005b6104da60048036038101906104d59190617919565b610e8f565b005b6104f660048036038101906104f191906176a9565b610f77565b60405161050593929190618bf6565b60405180910390f35b61051661181c565b6040516105239190618bdb565b60405180910390f35b61053461191d565b6040516105419190618bdb565b60405180910390f35b610552611923565b60405161055f9190618bdb565b60405180910390f35b61057061192f565b60405161057d9190618ae4565b60405180910390f35b61058e611ae0565b005b6105aa60048036038101906105a5919061796b565b611be0565b6040516105b79190618ac9565b60405180910390f35b6105c86123f0565b005b6105d26124ac565b6040516105df9190618ae4565b60405180910390f35b61060260048036038101906105fd9190617813565b6126fc565b60405161060f9190618ae4565b60405180910390f35b61062061280d565b60405161062d9190618ae4565b60405180910390f35b61063e612849565b60405161064b9190618bdb565b60405180910390f35b61066e60048036038101906106699190617657565b612855565b60405161067b9190618cd2565b60405180910390f35b61069e6004803603810190610699919061775c565b6128e5565b6040516106b59b9a9998979695949392919061848b565b60405180910390f35b6106c6612a3e565b6040516106d39190618bdb565b60405180910390f35b6106f660048036038101906106f19190617657565b612a4a565b604051610707959493929190618b88565b60405180910390f35b61072a60048036038101906107259190617657565b612abc565b005b61074660048036038101906107419190617813565b612da0565b005b610762600480360381019061075d9190617813565b612ffc565b60405161076f9190618ae4565b60405180910390f35b610792600480360381019061078d9190617919565b6133a3565b60405161079f9190618664565b60405180910390f35b6107c260048036038101906107bd9190617865565b6133bd565b005b6107cc6137e3565b6040516107d99190618740565b60405180910390f35b6107ea613809565b005b6107f46138ae565b6040516108019190618bdb565b60405180910390f35b6108126138ba565b60405161081f9190618ae4565b60405180910390f35b6108306138d7565b60405161083d91906187ac565b60405180910390f35b61084e6138ea565b60405161085b9190618bdb565b60405180910390f35b61086c6138f6565b6040516108799190618bdb565b60405180910390f35b61088a613902565b604051610897919061875b565b60405180910390f35b6108a8613928565b005b6108b261394a565b6040516108bf9190618664565b60405180910390f35b6108e260048036038101906108dd9190617919565b613950565b005b6108fe60048036038101906108f99190617657565b613af2565b60405161090b9190618ae4565b60405180910390f35b61092e60048036038101906109299190617919565b613b70565b60405161093d93929190618aff565b60405180910390f35b61094e613d3e565b60405161095b9190618bdb565b60405180910390f35b61096c613d44565b6040516109799190618bdb565b60405180910390f35b61099c60048036038101906109979190617657565b613d4a565b6040516109a99190618642565b60405180910390f35b6109cc60048036038101906109c7919061796b565b613fde565b6040516109d99190618ae4565b60405180910390f35b6109ea614272565b005b6109f4614301565b604051610a019190618776565b60405180910390f35b610a246004803603810190610a1f9190617813565b614327565b005b610a2e61444d565b005b610a4a6004803603810190610a459190617813565b61446f565b005b610a5461447c565b604051610a619190618bdb565b60405180910390f35b610a72614488565b604051610a7f9190618bdb565b60405180910390f35b610a90614494565b604051610a9d9190618ae4565b60405180910390f35b610aae614c16565b73ffffffffffffffffffffffffffffffffffffffff163373ffffffffffffffffffffffffffffffffffffffff161480610b345750601160009054906101000a900473ffffffffffffffffffffffffffffffffffffffff1673ffffffffffffffffffffffffffffffffffffffff163373ffffffffffffffffffffffffffffffffffffffff16145b610b73576040517f08c379a0000000000000000000000000000000000000000000000000000000008152600401610b6a90618969565b60405180910390fd5b610b7b61181c565b600c819055508073ffffffffffffffffffffffffffffffffffffffff16601160009054906101000a900473ffffffffffffffffffffffffffffffffffffffff1673ffffffffffffffffffffffffffffffffffffffff167fc874c0bc8735c8712e7af84094d15197c273967eaf695d6916b74edd94b90d06600c54604051610c029190618bdb565b60405180910390a380601160006101000a81548173ffffffffffffffffffffffffffffffffffffffff021916908373ffffffffffffffffffffffffffffffffffffffff16021790555050565b60178060000154905081565b60078060000154905081565b600160009054906101000a900473ffffffffffffffffffffffffffffffffffffffff1681565b610c946174b7565b610c9c614ce8565b610ca68383614d39565b905092915050565b610cb6614e4b565b81610cc081614e98565b610cc86124ac565b50610cd1614ce8565b610cd9614eea565b610ced600083614ade90919063ffffffff16565b610cf657600080fd5b6000610d0184614f06565b9050610d0d8184614f59565b5082600001518473ffffffffffffffffffffffffffffffffffffffff167fe1fffcc4923d04b559f4d29a8bfc6cda04eb5b0d3c460751c2402c5c5cc9109c60405160405180910390a3610da933308560000151600160009054906101000a900473ffffffffffffffffffffffffffffffffffffffff1673ffffffffffffffffffffffffffffffffffffffff16614f82909392919063ffffffff16565b50610db261500b565b505050565b610dbf6174b7565b610dc7614ce8565b610dd082615028565b9050919050565b60008054906101000a900473ffffffffffffffffffffffffffffffffffffffff1681565b600c5481565b610e09614ce8565b610e11614eea565b6000610e1c33614f06565b9050600081600101541415610e3057600080fd5b80600201600001543373ffffffffffffffffffffffffffffffffffffffff167f74d8a3658feb89d1a5c335229bbbfc3bbcfaf492769feb7aa4cd2d92efeaf69160405160405180910390a3610e8481615166565b50610e8d61500b565b565b600073ffffffffffffffffffffffffffffffffffffffff1660008054906101000a900473ffffffffffffffffffffffffffffffffffffffff1673ffffffffffffffffffffffffffffffffffffffff161415610ee957600080fd5b60008054906101000a900473ffffffffffffffffffffffffffffffffffffffff1673ffffffffffffffffffffffffffffffffffffffff166322f8e566826040518263ffffffff1660e01b8152600401610f429190618bdb565b600060405180830381600087803b158015610f5c57600080fd5b505af1158015610f70573d6000803e3d6000fd5b5050505050565b6000610f816174b7565b610f896174b7565b610f916124ac565b50610f9a614e4b565b610fa2614ce8565b610faa614eea565b83610fb361181c565b1115610ff4576040517f08c379a0000000000000000000000000000000000000000000000000000000008152600401610feb90618829565b60405180910390fd5b6000610fff89614f06565b9050611033868036038101906110159190617813565b8260000160405180602001604052908160008201548152505061518e565b9250611049600084614ade90919063ffffffff16565b61105257600080fd5b61105a6174b7565b61107b826003016040518060200160405290816000820154815250506151b5565b90506110856174b7565b61108f6000614aa6565b90506110bc82846002016040518060200160405290816000820154815250506151ed90919063ffffffff16565b156110ef576110ec836002016040518060200160405290816000820154815250508361520390919063ffffffff16565b90505b6110f76174b7565b83600001604051806020016040529081600082015481525050905061114782611139838d80360381019061112b9190617813565b61523c90919063ffffffff16565b61528690919063ffffffff16565b611186576040517f08c379a000000000000000000000000000000000000000000000000000000000815260040161117d90618989565b60405180910390fd5b6111bb826111ad838e80360381019061119f9190617813565b61523c90919063ffffffff16565b6151ed90919063ffffffff16565b6111fa576040517f08c379a00000000000000000000000000000000000000000000000000000000081526004016111f190618a29565b60405180910390fd5b5061120361529c565b935061120d6174b7565b6112156174b7565b61121d6174b7565b611248866000016040518060200160405290816000820154815250508961536190919063ffffffff16565b905061125d818661523c90919063ffffffff16565b9250611272818561523c90919063ffffffff16565b915061127c6174b7565b6112a7828860020160405180602001604052908160008201548152505061523c90919063ffffffff16565b90506112b58f8a86846153b4565b50506112d460136112cf8885614afb90919063ffffffff16565b615573565b50601260008e73ffffffffffffffffffffffffffffffffffffffff1673ffffffffffffffffffffffffffffffffffffffff168152602001908152602001600020805490509750601260008e73ffffffffffffffffffffffffffffffffffffffff1673ffffffffffffffffffffffffffffffffffffffff1681526020019081526020016000206040518061016001604052808f73ffffffffffffffffffffffffffffffffffffffff1681526020013373ffffffffffffffffffffffffffffffffffffffff168152602001600160048111156113aa57fe5b81526020016113b761181c565b81526020018981526020018481526020018381526020016113e06113db6001614aa6565b615624565b8152602001600073ffffffffffffffffffffffffffffffffffffffff16815260200161140c6000614aa6565b81526020018881525090806001815401808255809150506001900390600052602060002090600a020160009091909190915060008201518160000160006101000a81548173ffffffffffffffffffffffffffffffffffffffff021916908373ffffffffffffffffffffffffffffffffffffffff16021790555060208201518160010160006101000a81548173ffffffffffffffffffffffffffffffffffffffff021916908373ffffffffffffffffffffffffffffffffffffffff16021790555060408201518160010160146101000a81548160ff021916908360048111156114f057fe5b02179055506060820151816002015560808201518160030160008201518160000155505060a08201518160040160008201518160000155505060c08201518160050160008201518160000155505060e0820151816006016000820151816000015550506101008201518160070160006101000a81548173ffffffffffffffffffffffffffffffffffffffff021916908373ffffffffffffffffffffffffffffffffffffffff160217905550610120820151816008016000820151816000015550506101408201518160090160008201518160000155505050506115d16174b7565b600e604051806020016040529081600082015481525050905060008660010154118015611608575061160161181c565b8660010154115b80156116235750611622818961528690919063ffffffff16565b5b1561164d57611644600d5461163661181c565b614bc190919063ffffffff16565b86600101819055505b883373ffffffffffffffffffffffffffffffffffffffff168f73ffffffffffffffffffffffffffffffffffffffff167f39b4371645b4132767fd76a1aad3108ff95c20d7b687b24d171555f5459a75978b60000151876000015187600001516116b461181c565b6040516116c49493929190618c8d565b60405180910390a461171f33308a60000151600960009054906101000a900473ffffffffffffffffffffffffffffffffffffffff1673ffffffffffffffffffffffffffffffffffffffff16614f82909392919063ffffffff16565b600960009054906101000a900473ffffffffffffffffffffffffffffffffffffffff1673ffffffffffffffffffffffffffffffffffffffff166342966c6889600001516040518263ffffffff1660e01b815260040161177e9190618bdb565b600060405180830381600087803b15801561179857600080fd5b505af11580156117ac573d6000803e3d6000fd5b5050505061180333308960000151600160009054906101000a900473ffffffffffffffffffffffffffffffffffffffff1673ffffffffffffffffffffffffffffffffffffffff16614f82909392919063ffffffff16565b50505050505061181161500b565b955095509592505050565b60008073ffffffffffffffffffffffffffffffffffffffff1660008054906101000a900473ffffffffffffffffffffffffffffffffffffffff1673ffffffffffffffffffffffffffffffffffffffff16146119165760008054906101000a900473ffffffffffffffffffffffffffffffffffffffff1673ffffffffffffffffffffffffffffffffffffffff166329cb924d6040518163ffffffff1660e01b815260040160206040518083038186803b1580156118d757600080fd5b505afa1580156118eb573d6000803e3d6000fd5b505050506040513d601f19601f8201168201806040525081019061190f9190617942565b905061191a565b4290505b90565b60145481565b60168060000154905081565b6119376174b7565b61193f614e4b565b6119476124ac565b50611950614ce8565b611958614eea565b600061196333614f06565b90506000816001015414158015611985575061197d61181c565b816001015411155b61198e57600080fd5b6119966174b7565b8160020160405180602001604052908160008201548152505090506119fc6119d5836003016040518060200160405290816000820154815250506151b5565b8360020160405180602001604052908160008201548152505061565c90919063ffffffff16565b15611a2557611a22826003016040518060200160405290816000820154815250506151b5565b90505b611a2f8282615671565b9250611a3a82615166565b611a8b338460000151600160009054906101000a900473ffffffffffffffffffffffffffffffffffffffff1673ffffffffffffffffffffffffffffffffffffffff1661569a9092919063ffffffff16565b82600001513373ffffffffffffffffffffffffffffffffffffffff167fc86c3298cb79f486674dca87d9247e88b76146160e7d412cc59b26b14c358a6860405160405180910390a35050611add61500b565b90565b611ae8614e4b565b611af0615720565b611af8614ce8565b611b00614eea565b611b08614c16565b73ffffffffffffffffffffffffffffffffffffffff163373ffffffffffffffffffffffffffffffffffffffff1614611b3f57600080fd5b6001600560006101000a81548160ff02191690836002811115611b5e57fe5b02179055506000600b549050611b7261181c565b600b81905550611b83600b5461578a565b3373ffffffffffffffffffffffffffffffffffffffff167fd39eeb7157d9c446579a0893ecf9ecd87d1f466cdb270c6a189cf38ca1e30f4882600b54604051611bcd929190618c2d565b60405180910390a250611bde61500b565b565b611be86174ca565b8282611bf482826158d8565b611bfc6124ac565b50611c05614ce8565b611c0d614eea565b6000611c198587615997565b9050611c258686615a91565b611c2d6174b7565b611c4e826006016040518060200160405290816000820154815250506151b5565b9050611c586174b7565b826008016040518060200160405290816000820154815250509050611c7b6174b7565b611cb883611caa848760030160405180602001604052908160008201548152505061523c90919063ffffffff16565b61523c90919063ffffffff16565b9050611cc26174b7565b611ced848660040160405180602001604052908160008201548152505061523c90919063ffffffff16565b9050611cf76174b7565b611d2083601860405180602001604052908160008201548152505061523c90919063ffffffff16565b9050611d2a6174b7565b611d5384601760405180602001604052908160008201548152505061523c90919063ffffffff16565b9050611d5d6174b7565b611d8660166040518060200160405290816000820154815250508561523c90919063ffffffff16565b9050611d906174b7565b611dbb888a60090160405180602001604052908160008201548152505061523c90919063ffffffff16565b9050611dc56174ca565b60036004811115611dd257fe5b8a60010160149054906101000a900460ff166004811115611def57fe5b141561203157611e1a82611e0c8588614afb90919063ffffffff16565b614afb90919063ffffffff16565b8160400181905250611e47611e38888861520390919063ffffffff16565b85614afb90919063ffffffff16565b8160000181905250611e7485611e66868a61520390919063ffffffff16565b61520390919063ffffffff16565b8160200181905250611e8b60138260200151615caf565b8160800181905250611ea260138260000151615caf565b8160600181905250611eb960138260400151615caf565b8160a00181905250611f3a8a60070160009054906101000a900473ffffffffffffffffffffffffffffffffffffffff168260a0015160000151600160009054906101000a900473ffffffffffffffffffffffffffffffffffffffff1673ffffffffffffffffffffffffffffffffffffffff1661569a9092919063ffffffff16565b611fb38a60010160009054906101000a900473ffffffffffffffffffffffffffffffffffffffff16826080015160000151600160009054906101000a900473ffffffffffffffffffffffffffffffffffffffff1673ffffffffffffffffffffffffffffffffffffffff1661569a9092919063ffffffff16565b61202c8a60000160009054906101000a900473ffffffffffffffffffffffffffffffffffffffff16826060015160000151600160009054906101000a900473ffffffffffffffffffffffffffffffffffffffff1673ffffffffffffffffffffffffffffffffffffffff1661569a9092919063ffffffff16565b612200565b60048081111561203d57fe5b8a60010160149054906101000a900460ff16600481111561205a57fe5b141561212257612085826120778589614afb90919063ffffffff16565b614afb90919063ffffffff16565b816020018190525061209c60138260200151615caf565b816080018190525061211d8a60010160009054906101000a900473ffffffffffffffffffffffffffffffffffffffff16826080015160000151600160009054906101000a900473ffffffffffffffffffffffffffffffffffffffff1673ffffffffffffffffffffffffffffffffffffffff1661569a9092919063ffffffff16565b6121ff565b6001600481111561212f57fe5b8a60010160149054906101000a900460ff16600481111561214c57fe5b14156121fe576121658287614afb90919063ffffffff16565b816020018190525061217c60138260200151615caf565b81608001819052506121fd8a60010160009054906101000a900473ffffffffffffffffffffffffffffffffffffffff16826080015160000151600160009054906101000a900473ffffffffffffffffffffffffffffffffffffffff1673ffffffffffffffffffffffffffffffffffffffff1661569a9092919063ffffffff16565b5b5b5b8960010160149054906101000a900460ff16600481111561221d57fe5b3373ffffffffffffffffffffffffffffffffffffffff167fb479588a37dc7f6bac1c91587fcfc539cac4949cf26bb536ad9c8d061f00f50d8360800151600001518460a00151600001518560600151600001518d600001516040516122859493929190618c8d565b60405180910390a3601260008f73ffffffffffffffffffffffffffffffffffffffff1673ffffffffffffffffffffffffffffffffffffffff1681526020019081526020016000208f815481106122d757fe5b90600052602060002090600a0201600080820160006101000a81549073ffffffffffffffffffffffffffffffffffffffff02191690556001820160006101000a81549073ffffffffffffffffffffffffffffffffffffffff02191690556001820160146101000a81549060ff021916905560028201600090556003820160008082016000905550506004820160008082016000905550506005820160008082016000905550506006820160008082016000905550506007820160006101000a81549073ffffffffffffffffffffffffffffffffffffffff02191690556008820160008082016000905550506009820160008082016000905550505050809c50505050505050505050506123e861500b565b505092915050565b6123f8614e4b565b612400614ce8565b612408614eea565b600061241333614f06565b9050600081600401541461242657600080fd5b6000612444600d5461243661181c565b614bc190919063ffffffff16565b9050600b54811061245457600080fd5b8082600401819055503373ffffffffffffffffffffffffffffffffffffffff167fbf457c80c8bf299d5c48272c4c1168bf87b33d83b13f0ab9aac332ce1161ed1e60405160405180910390a250506124aa61500b565b565b6124b46174b7565b6124bc614ce8565b6124c4614eea565b60006124ce61181c565b90506124d86174b7565b6124e0615d60565b90506124ea6174b7565b6124f26174b7565b6124fa6174b7565b61250385613b70565b92509250925084600381905550612524600082615da590919063ffffffff16565b156125365780955050505050506126f1565b816000015183600001517f19b92e73d08d517d71ec46136266e4f5d526a8cd4f8501d73713cebfe4f335ef60405160405180910390a36125768185615dc2565b61258a600084614ade90919063ffffffff16565b1561267d576000612599615e37565b90506125ec818560000151600160009054906101000a900473ffffffffffffffffffffffffffffffffffffffff1673ffffffffffffffffffffffffffffffffffffffff16615f099092919063ffffffff16565b8073ffffffffffffffffffffffffffffffffffffffff16638659d232600160009054906101000a900473ffffffffffffffffffffffffffffffffffffffff16866040518363ffffffff1660e01b81526004016126499291906185b9565b600060405180830381600087803b15801561266357600080fd5b505af1158015612677573d6000803e3d6000fd5b50505050505b612691600083614ade90919063ffffffff16565b156126e8576126e7338360000151600160009054906101000a900473ffffffffffffffffffffffffffffffffffffffff1673ffffffffffffffffffffffffffffffffffffffff1661569a9092919063ffffffff16565b5b80955050505050505b6126f961500b565b90565b6127046174b7565b61270c614e4b565b3361271681614e98565b61271e6124ac565b50612727614ce8565b61272f614eea565b612743600084614ade90919063ffffffff16565b61274c57600080fd5b600061275733614f06565b90506127638185616031565b925082600001513373ffffffffffffffffffffffffffffffffffffffff167f7fcf532c15f0a6db0bd6d0e038bea71d30d808c7d98cb3bf7268a95bf5081b6560405160405180910390a36127fe338460000151600160009054906101000a900473ffffffffffffffffffffffffffffffffffffffff1673ffffffffffffffffffffffffffffffffffffffff1661569a9092919063ffffffff16565b5061280761500b565b50919050565b6128156174b7565b61281d614ce8565b61284461283f60086040518060200160405290816000820154815250506151b5565b6160a2565b905090565b60158060000154905081565b60008173ffffffffffffffffffffffffffffffffffffffff1663313ce5676040518163ffffffff1660e01b815260040160206040518083038186803b15801561289d57600080fd5b505afa9250505080156128ce57506040513d601f19601f820116820180604052508101906128cb91906179a7565b60015b6128db57601290506128e0565b809150505b919050565b601260205281600052604060002081815481106128fe57fe5b90600052602060002090600a0201600091509150508060000160009054906101000a900473ffffffffffffffffffffffffffffffffffffffff16908060010160009054906101000a900473ffffffffffffffffffffffffffffffffffffffff16908060010160149054906101000a900460ff169080600201549080600301604051806020016040529081600082015481525050908060040160405180602001604052908160008201548152505090806005016040518060200160405290816000820154815250509080600601604051806020016040529081600082015481525050908060070160009054906101000a900473ffffffffffffffffffffffffffffffffffffffff169080600801604051806020016040529081600082015481525050908060090160405180602001604052908160008201548152505090508b565b60138060000154905081565b60066020528060005260406000206000915090508060000160405180602001604052908160008201548152505090806001015490806002016040518060200160405290816000820154815250509080600301604051806020016040529081600082015481525050908060040154905085565b612ac4614e4b565b33612ace81614e98565b612ad6614ce8565b612ade614eea565b612b58612aeb6000614aa6565b612b4a600660008673ffffffffffffffffffffffffffffffffffffffff1673ffffffffffffffffffffffffffffffffffffffff1681526020019081526020016000206003016040518060200160405290816000820154815250506151b5565b61614c90919063ffffffff16565b612b6157600080fd5b6000612b6c33614f06565b90506000816004015414158015612b8e5750612b8661181c565b816004015411155b612b9757600080fd5b6000816004018190555080600660008573ffffffffffffffffffffffffffffffffffffffff1673ffffffffffffffffffffffffffffffffffffffff1681526020019081526020016000206000820181600001600082015481600001555050600182015481600101556002820181600201600082015481600001555050600382018160030160008201548160000155505060048201548160040155905050600660003373ffffffffffffffffffffffffffffffffffffffff1673ffffffffffffffffffffffffffffffffffffffff168152602001908152602001600020600080820160008082016000905550506001820160009055600282016000808201600090555050600382016000808201600090555050600482016000905550508273ffffffffffffffffffffffffffffffffffffffff163373ffffffffffffffffffffffffffffffffffffffff167ff1a2dcf23621f1a96185c79d39a5776b5ba3dadbea70c5aa86d84c17c7e9418e60405160405180910390a38273ffffffffffffffffffffffffffffffffffffffff167ff60993fa76f94c9e0a803526ee6e1314814ed4d2b0d223febf1436b36897fb3760405160405180910390a23373ffffffffffffffffffffffffffffffffffffffff167fcad20625296d189a6fc6e5b39d0d544e5bd99dbda0c8f2f0ecffef3e0fbcc28260405160405180910390a250612d9c61500b565b5050565b612da8614e4b565b33612db281614e98565b612dba6124ac565b50612dc3614ce8565b612dcb614eea565b6000612dd633614f06565b9050612e0381600001604051806020016040529081600082015481525050846151ed90919063ffffffff16565b612e0c57600080fd5b612e146174b7565b612e3f848360000160405180602001604052908160008201548152505061520390919063ffffffff16565b9050612e6a600e6040518060200160405290816000820154815250508261528690919063ffffffff16565b612e7357600080fd5b808260000160008201518160000155905050612eae84600760405180602001604052908160008201548152505061520390919063ffffffff16565b600760008201518160000155905050806000015184600001513373ffffffffffffffffffffffffffffffffffffffff167f77c6871227e5d2dec8dadd5354f78453203e22e669cd0ec4c19d9a8c5edb31d060405160405180910390a4612f5d33308660000151600960009054906101000a900473ffffffffffffffffffffffffffffffffffffffff1673ffffffffffffffffffffffffffffffffffffffff16614f82909392919063ffffffff16565b600960009054906101000a900473ffffffffffffffffffffffffffffffffffffffff1673ffffffffffffffffffffffffffffffffffffffff166342966c6885600001516040518263ffffffff1660e01b8152600401612fbc9190618bdb565b600060405180830381600087803b158015612fd657600080fd5b505af1158015612fea573d6000803e3d6000fd5b505050505050612ff861500b565b5050565b6130046174b7565b3361300e81614e98565b6130166124ac565b5061301f614ce8565b613027614eea565b600061303233614f06565b905061305f816000016040518060200160405290816000820154815250508561565c90919063ffffffff16565b1561306957600080fd5b6130716174b7565b61309c826000016040518060200160405290816000820154815250508661536190919063ffffffff16565b90506130a66174b7565b6130d96130ca846003016040518060200160405290816000820154815250506151b5565b8361523c90919063ffffffff16565b9050613106868460000160405180602001604052908160008201548152505061614c90919063ffffffff16565b1561311b5761311433616161565b9450613210565b6131258382615671565b945061312f6174b7565b61315a878560000160405180602001604052908160008201548152505061520390919063ffffffff16565b9050613185600e6040518060200160405290816000820154815250508261528690919063ffffffff16565b6131c4576040517f08c379a00000000000000000000000000000000000000000000000000000000081526004016131bb906188a9565b60405180910390fd5b8084600001600082015181600001559050506131ff87600760405180602001604052908160008201548152505061520390919063ffffffff16565b600760008201518160000155905050505b856000015185600001513373ffffffffffffffffffffffffffffffffffffffff167fe5b754fb1abb7f01b499791d0b820ae3b6af3424ac1c59768edb53f4ec31a92960405160405180910390a46132ae338660000151600160009054906101000a900473ffffffffffffffffffffffffffffffffffffffff1673ffffffffffffffffffffffffffffffffffffffff1661569a9092919063ffffffff16565b61330133308860000151600960009054906101000a900473ffffffffffffffffffffffffffffffffffffffff1673ffffffffffffffffffffffffffffffffffffffff16614f82909392919063ffffffff16565b600960009054906101000a900473ffffffffffffffffffffffffffffffffffffffff1673ffffffffffffffffffffffffffffffffffffffff166342966c6887600001516040518263ffffffff1660e01b81526004016133609190618bdb565b600060405180830381600087803b15801561337a57600080fd5b505af115801561338e573d6000803e3d6000fd5b5050505050505061339d61500b565b50919050565b60006133ad614ce8565b6133b682616347565b9050919050565b6133c5614e4b565b6133cd6124ac565b506133d6614ce8565b6133de614eea565b6000600660003373ffffffffffffffffffffffffffffffffffffffff1673ffffffffffffffffffffffffffffffffffffffff168152602001908152602001600020905061348761345784613449846003016040518060200160405290816000820154815250506151b5565b614afb90919063ffffffff16565b6134828484600001604051806020016040529081600082015481525050614afb90919063ffffffff16565b616458565b8061349857506134978383616458565b5b6134d7576040517f08c379a00000000000000000000000000000000000000000000000000000000081526004016134ce906189c9565b60405180910390fd5b600081600101541461351e576040517f08c379a000000000000000000000000000000000000000000000000000000000815260040161351590618949565b60405180910390fd5b61354a600082600001604051806020016040529081600082015481525050615da590919063ffffffff16565b156135fb57613578600e6040518060200160405290816000820154815250508361528690919063ffffffff16565b6135b7576040517f08c379a00000000000000000000000000000000000000000000000000000000081526004016135ae906188a9565b60405180910390fd5b3373ffffffffffffffffffffffffffffffffffffffff167ff60993fa76f94c9e0a803526ee6e1314814ed4d2b0d223febf1436b36897fb3760405160405180910390a25b6136058184614f59565b506136318282600001604051806020016040529081600082015481525050614afb90919063ffffffff16565b816000016000820151816000015590505061366b826007604051806020016040529081600082015481525050614afb90919063ffffffff16565b600760008201518160000155905050816000015183600001513373ffffffffffffffffffffffffffffffffffffffff167f4b82aa16e071a61de1a6b9aeec9edab0356331f8122c78683b469ac8e685dabc60405160405180910390a461371a33308560000151600160009054906101000a900473ffffffffffffffffffffffffffffffffffffffff1673ffffffffffffffffffffffffffffffffffffffff16614f82909392919063ffffffff16565b600960009054906101000a900473ffffffffffffffffffffffffffffffffffffffff1673ffffffffffffffffffffffffffffffffffffffff166340c10f193384600001516040518363ffffffff1660e01b815260040161377b929190618439565b602060405180830381600087803b15801561379557600080fd5b505af11580156137a9573d6000803e3d6000fd5b505050506040513d601f19601f820116820180604052508101906137cd9190617798565b6137d657600080fd5b506137df61500b565b5050565b600960009054906101000a900473ffffffffffffffffffffffffffffffffffffffff1681565b6138116164d4565b613819615720565b6138216124ac565b5061382a614ce8565b613832614eea565b6001600560006101000a81548160ff0219169083600281111561385157fe5b0217905550613861600b5461578a565b3373ffffffffffffffffffffffffffffffffffffffff167f18600820405d6cf356e3556301762ca32395e72d8c81494fa344835c9da3633d60405160405180910390a26138ac61500b565b565b60188060000154905081565b6138c26174b7565b6138ca614ce8565b6138d2615d60565b905090565b600560009054906101000a900460ff1681565b60088060000154905081565b600e8060000154905081565b601060009054906101000a900473ffffffffffffffffffffffffffffffffffffffff1681565b613930614ce8565b613938614eea565b613940616522565b61394861500b565b565b600a5481565b613958614e4b565b613960615720565b613968614ce8565b613970614eea565b613978614c16565b73ffffffffffffffffffffffffffffffffffffffff163373ffffffffffffffffffffffffffffffffffffffff1614806139fe5750601160009054906101000a900473ffffffffffffffffffffffffffffffffffffffff1673ffffffffffffffffffffffffffffffffffffffff163373ffffffffffffffffffffffffffffffffffffffff16145b613a3d576040517f08c379a0000000000000000000000000000000000000000000000000000000008152600401613a3490618969565b60405180910390fd5b6002600560006101000a81548160ff02191690836002811115613a5c57fe5b02179055506000600b549050613a7061181c565b600b81905550604051806020016040528083815250600f600082015181600001559050503373ffffffffffffffffffffffffffffffffffffffff167f602537882443dac7573b942e70096be347ad6dedbb7b8bccf77fef35e89a350f82600b54604051613ade929190618c2d565b60405180910390a250613aef61500b565b50565b613afa6174b7565b613b02614ce8565b613b69613b64600660008573ffffffffffffffffffffffffffffffffffffffff1673ffffffffffffffffffffffffffffffffffffffff1681526020019081526020016000206003016040518060200160405290816000820154815250506151b5565b6160a2565b9050919050565b613b786174b7565b613b806174b7565b613b886174b7565b6000613b92615e37565b9050613b9c6174b7565b613ba4615d60565b9050613bba600082615da590919063ffffffff16565b80613bc6575085600354145b15613bd2575050613d37565b8173ffffffffffffffffffffffffffffffffffffffff166374201feb60035488846040518463ffffffff1660e01b8152600401613c1193929190618c56565b604080518083038186803b158015613c2857600080fd5b505afa158015613c3c573d6000803e3d6000fd5b505050506040513d601f19601f82011682018060405250810190613c6091906178a1565b8095508196505050613c7b8486614afb90919063ffffffff16565b9250613c91600084615da590919063ffffffff16565b15613c9d575050613d37565b613cb0818461565c90919063ffffffff16565b15613d3457613cbd6174b7565b613cd0828561520390919063ffffffff16565b9050613cda6174b7565b613ce4868361518e565b9050613cf9818761520390919063ffffffff16565b9550613d0e818361520390919063ffffffff16565b9150613d2c613d1d888461518e565b8861520390919063ffffffff16565b965082945050505b50505b9193909250565b600b5481565b600d5481565b6060613d54614ce8565b601260008373ffffffffffffffffffffffffffffffffffffffff1673ffffffffffffffffffffffffffffffffffffffff168152602001908152602001600020805480602002602001604051908101604052809291908181526020016000905b82821015613fd357838290600052602060002090600a0201604051806101600160405290816000820160009054906101000a900473ffffffffffffffffffffffffffffffffffffffff1673ffffffffffffffffffffffffffffffffffffffff1673ffffffffffffffffffffffffffffffffffffffff1681526020016001820160009054906101000a900473ffffffffffffffffffffffffffffffffffffffff1673ffffffffffffffffffffffffffffffffffffffff1673ffffffffffffffffffffffffffffffffffffffff1681526020016001820160149054906101000a900460ff166004811115613ea157fe5b6004811115613eac57fe5b8152602001600282015481526020016003820160405180602001604052908160008201548152505081526020016004820160405180602001604052908160008201548152505081526020016005820160405180602001604052908160008201548152505081526020016006820160405180602001604052908160008201548152505081526020016007820160009054906101000a900473ffffffffffffffffffffffffffffffffffffffff1673ffffffffffffffffffffffffffffffffffffffff1673ffffffffffffffffffffffffffffffffffffffff168152602001600882016040518060200160405290816000820154815250508152602001600982016040518060200160405290816000820154815250508152505081526020019060010190613db3565b505050509050919050565b613fe66174b7565b8282613ff2828261665e565b613ffa6124ac565b50614003614ce8565b61400b614eea565b60006140178587615997565b90506140216174b7565b614094614045836006016040518060200160405290816000820154815250506151b5565b61408660166040518060200160405290816000820154815250508560040160405180602001604052908160008201548152505061523c90919063ffffffff16565b61523c90919063ffffffff16565b90506140a1601382615573565b5060028260010160146101000a81548160ff021916908360048111156140c357fe5b0217905550338260070160006101000a81548173ffffffffffffffffffffffffffffffffffffffff021916908373ffffffffffffffffffffffffffffffffffffffff16021790555061411882600201546166f5565b3373ffffffffffffffffffffffffffffffffffffffff168260010160009054906101000a900473ffffffffffffffffffffffffffffffffffffffff1673ffffffffffffffffffffffffffffffffffffffff168773ffffffffffffffffffffffffffffffffffffffff167fcaca181ccad7979cf36ed4fc921e496001ab5264608f0fac7007ae1b43d361028a85600001516040516141b6929190618c2d565b60405180910390a46141e98260090160405180602001604052908160008201548152505082614afb90919063ffffffff16565b945061420d338360090160405180602001604052908160008201548152505061677a565b61426033308360000151600160009054906101000a900473ffffffffffffffffffffffffffffffffffffffff1673ffffffffffffffffffffffffffffffffffffffff16614f82909392919063ffffffff16565b505061426a61500b565b505092915050565b61427a614e4b565b614282614ce8565b61428a614eea565b600061429533614f06565b90506000816004015414156142a957600080fd5b3373ffffffffffffffffffffffffffffffffffffffff167f2e5702420c76e041698ad7ba57a9ff5cadccf647ea8d96e6007a40b5b2662f5660405160405180910390a260008160040181905550506142ff61500b565b565b600260009054906101000a900473ffffffffffffffffffffffffffffffffffffffff1681565b61432f614e4b565b3361433981614e98565b614341614ce8565b614349614eea565b600061435433614f06565b905061436a600084614ade90919063ffffffff16565b80156143a557506143a4614395826003016040518060200160405290816000820154815250506151b5565b846151ed90919063ffffffff16565b5b6143ae57600080fd5b60006143cc600d546143be61181c565b614bc190919063ffffffff16565b9050600b5481106143dc57600080fd5b80826001018190555083826002016000820151816000015590505083600001513373ffffffffffffffffffffffffffffffffffffffff167fd33b726e11d2c5d38e6702b16613df0160a07f7ba5185455ee3c45d0494fab1160405160405180910390a3505061444961500b565b5050565b614455614e4b565b61445d614ce8565b614465614eea565b61446d61500b565b565b6144793382610cae565b50565b60048060000154905081565b600f8060000154905081565b61449c6174b7565b6144a46164d4565b6144ac6124ac565b506144b5614ce8565b6144bd614eea565b600060028111156144ca57fe5b600560009054906101000a900460ff1660028111156144e557fe5b1415614526576040517f08c379a000000000000000000000000000000000000000000000000000000000815260040161451d90618a89565b60405180910390fd5b60028081111561453257fe5b600560009054906101000a900460ff16600281111561454d57fe5b146145915761455d600b54616980565b600f600082015181600001559050506002600560006101000a81548160ff0219169083600281111561458b57fe5b02179055505b6145996174b7565b6040518060200160405280600960009054906101000a900473ffffffffffffffffffffffffffffffffffffffff1673ffffffffffffffffffffffffffffffffffffffff166370a08231336040518263ffffffff1660e01b81526004016145ff919061841e565b60206040518083038186803b15801561461757600080fd5b505afa15801561462b573d6000803e3d6000fd5b505050506040513d601f19601f8201168201806040525081019061464f9190617942565b815250905061465c6174b7565b614685600f6040518060200160405290816000820154815250508361523c90919063ffffffff16565b90506000600660003373ffffffffffffffffffffffffffffffffffffffff1673ffffffffffffffffffffffffffffffffffffffff16815260200190815260200160002090506146fe60006146f0836003016040518060200160405290816000820154815250506151b5565b614ade90919063ffffffff16565b1561489e5761470b6174b7565b61474c600f6040518060200160405290816000820154815250508360000160405180602001604052908160008201548152505061523c90919063ffffffff16565b90506147566174b7565b614777836003016040518060200160405290816000820154815250506151b5565b90506147816174b7565b6147948284616b0c90919063ffffffff16565b6147ad57604051806020016040528060008152506147c1565b6147c0838361520390919063ffffffff16565b5b90506147d68186614afb90919063ffffffff16565b9450600660003373ffffffffffffffffffffffffffffffffffffffff1673ffffffffffffffffffffffffffffffffffffffff168152602001908152602001600020600080820160008082016000905550506001820160009055600282016000808201600090555050600382016000808201600090555050600482016000905550503373ffffffffffffffffffffffffffffffffffffffff167fcad20625296d189a6fc6e5b39d0d544e5bd99dbda0c8f2f0ecffef3e0fbcc28260405160405180910390a25050505b6148a66174b7565b6148ce6148c860086040518060200160405290816000820154815250506151b5565b8461518e565b90506148db600882615caf565b945061490684600760405180602001604052908160008201548152505061520390919063ffffffff16565b600760008201518160000155905050836000015185600001513373ffffffffffffffffffffffffffffffffffffffff167f9d349c102bec959fb7f20f9a3621e015819d3ae4ed6e9afd1f56a69d5845600660405160405180910390a46149b3338660000151600160009054906101000a900473ffffffffffffffffffffffffffffffffffffffff1673ffffffffffffffffffffffffffffffffffffffff1661569a9092919063ffffffff16565b614a0633308660000151600960009054906101000a900473ffffffffffffffffffffffffffffffffffffffff1673ffffffffffffffffffffffffffffffffffffffff16614f82909392919063ffffffff16565b600960009054906101000a900473ffffffffffffffffffffffffffffffffffffffff1673ffffffffffffffffffffffffffffffffffffffff166342966c6885600001516040518263ffffffff1660e01b8152600401614a659190618bdb565b600060405180830381600087803b158015614a7f57600080fd5b505af1158015614a93573d6000803e3d6000fd5b5050505050505050614aa361500b565b90565b614aae6174b7565b6040518060200160405280614ad4670de0b6b3a764000085614b5190919063ffffffff16565b8152509050919050565b6000614ae982614aa6565b60000151836000015111905092915050565b614b036174b7565b6040518060200160405280614b2984600001518660000151614bc190919063ffffffff16565b815250905092915050565b6000614b3f82614aa6565b60000151836000015110905092915050565b600080831415614b645760009050614bbb565b6000828402905082848281614b7557fe5b0414614bb6576040517f08c379a0000000000000000000000000000000000000000000000000000000008152600401614bad90618929565b60405180910390fd5b809150505b92915050565b600080828401905083811015614c0c576040517f08c379a0000000000000000000000000000000000000000000000000000000008152600401614c0390618809565b60405180910390fd5b8091505092915050565b6000600260009054906101000a900473ffffffffffffffffffffffffffffffffffffffff1673ffffffffffffffffffffffffffffffffffffffff1663aafd5e407f46696e616e6369616c436f6e74726163747341646d696e0000000000000000006040518263ffffffff1660e01b8152600401614c939190618664565b60206040518083038186803b158015614cab57600080fd5b505afa158015614cbf573d6000803e3d6000fd5b505050506040513d601f19601f82011682018060405250810190614ce39190617680565b905090565b600060149054906101000a900460ff16614d37576040517f08c379a0000000000000000000000000000000000000000000000000000000008152600401614d2e90618a69565b60405180910390fd5b565b614d416174b7565b614d82601060009054906101000a900473ffffffffffffffffffffffffffffffffffffffff1673ffffffffffffffffffffffffffffffffffffffff16616b21565b614d8e57829050614e45565b601060009054906101000a900473ffffffffffffffffffffffffffffffffffffffff1673ffffffffffffffffffffffffffffffffffffffff16630ff49b9084846040518363ffffffff1660e01b8152600401614deb929190618b5f565b60206040518083038186803b158015614e0357600080fd5b505afa925050508015614e3457506040513d601f19601f82011682018060405250810190614e31919061783c565b60015b614e4057829050614e45565b809150505b92915050565b600b54614e5661181c565b10614e96576040517f08c379a0000000000000000000000000000000000000000000000000000000008152600401614e8d906189e9565b60405180910390fd5b565b6000614ea382614f06565b6001015414614ee7576040517f08c379a0000000000000000000000000000000000000000000000000000000008152600401614ede90618949565b60405180910390fd5b50565b60008060146101000a81548160ff021916908315150217905550565b600081614f1281616b6c565b600660008473ffffffffffffffffffffffffffffffffffffffff1673ffffffffffffffffffffffffffffffffffffffff168152602001908152602001600020915050919050565b614f616174b7565b614f6e8360030183615573565b50614f7a600883615573565b905092915050565b615005846323b872dd60e01b858585604051602401614fa393929190618536565b604051602081830303815290604052907bffffffffffffffffffffffffffffffffffffffffffffffffffffffff19166020820180517bffffffffffffffffffffffffffffffffffffffffffffffffffffffff8381831617835250505050616c20565b50505050565b6001600060146101000a81548160ff021916908315150217905550565b6150306174b7565b615071601060009054906101000a900473ffffffffffffffffffffffffffffffffffffffff1673ffffffffffffffffffffffffffffffffffffffff16616b21565b6150935760156040518060200160405290816000820154815250509050615161565b601060009054906101000a900473ffffffffffffffffffffffffffffffffffffffff1673ffffffffffffffffffffffffffffffffffffffff16632a3126378360156040518363ffffffff1660e01b81526004016150f1929190618b36565b60206040518083038186803b15801561510957600080fd5b505afa92505050801561513a57506040513d601f19601f82011682018060405250810190615137919061783c565b60015b61515c5760156040518060200160405290816000820154815250509050615161565b809150505b919050565b6151706000614aa6565b81600201600082015181600001559050506000816001018190555050565b6151966174b7565b81600001518360000151106151ab57816151ad565b825b905092915050565b6151bd6174b7565b6151e660046040518060200160405290816000820154815250508361523c90919063ffffffff16565b9050919050565b6000816000015183600001511115905092915050565b61520b6174b7565b604051806020016040528061523184600001518660000151616d9290919063ffffffff16565b815250905092915050565b6152446174b7565b6040518060200160405280670de0b6b3a764000061527385600001518760000151614b5190919063ffffffff16565b8161527a57fe5b04815250905092915050565b6000816000015183600001511015905092915050565b6152a46174b7565b60006152ae615e37565b90508073ffffffffffffffffffffffffffffffffffffffff16635b97aadd600160009054906101000a900473ffffffffffffffffffffffffffffffffffffffff166040518263ffffffff1660e01b815260040161530b9190618403565b60206040518083038186803b15801561532357600080fd5b505afa158015615337573d6000803e3d6000fd5b505050506040513d601f19601f8201168201806040525081019061535b919061783c565b91505090565b6153696174b7565b60405180602001604052806153a9846000015161539b670de0b6b3a76400008860000151614b5190919063ffffffff16565b616ddc90919063ffffffff16565b815250905092915050565b60006153bf85614f06565b90506153ec816000016040518060200160405290816000820154815250508561614c90919063ffffffff16565b8015615427575061542683615418836003016040518060200160405290816000820154815250506151b5565b61614c90919063ffffffff16565b5b1561543c5761543585616161565b505061556d565b6154468184615671565b5061544f6174b7565b61547a858360000160405180602001604052908160008201548152505061520390919063ffffffff16565b90506154a5600e6040518060200160405290816000820154815250508261528690919063ffffffff16565b6154e4576040517f08c379a00000000000000000000000000000000000000000000000000000000081526004016154db906188a9565b60405180910390fd5b808260000160008201518160000155905050615521838360020160405180602001604052908160008201548152505061520390919063ffffffff16565b826002016000820151816000015590505061555b85600760405180602001604052908160008201548152505061520390919063ffffffff16565b60076000820151816000015590505050505b50505050565b61557b6174b7565b6155836174b7565b6155a1846040518060200160405290816000820154815250506151b5565b90506155ab6174b7565b6155b484615624565b90506155de8186604051806020016040529081600082015481525050614afb90919063ffffffff16565b60000151856000018190555061561a8261560c876040518060200160405290816000820154815250506151b5565b61520390919063ffffffff16565b9250505092915050565b61562c6174b7565b61565560046040518060200160405290816000820154815250508361536190919063ffffffff16565b9050919050565b60008160000151836000015111905092915050565b6156796174b7565b6156868360030183615caf565b50615692600883615caf565b905092915050565b61571b8363a9059cbb60e01b84846040516024016156b99291906185e2565b604051602081830303815290604052907bffffffffffffffffffffffffffffffffffffffffffffffffffffffff19166020820180517bffffffffffffffffffffffffffffffffffffffffffffffffffffffff8381831617835250505050616c20565b505050565b6000600281111561572d57fe5b600560009054906101000a900460ff16600281111561574857fe5b14615788576040517f08c379a000000000000000000000000000000000000000000000000000000000815260040161577f90618869565b60405180910390fd5b565b6000615794616e26565b905061579e6174b7565b6157a661529c565b90506157f9828260000151600160009054906101000a900473ffffffffffffffffffffffffffffffffffffffff1673ffffffffffffffffffffffffffffffffffffffff16615f099092919063ffffffff16565b8173ffffffffffffffffffffffffffffffffffffffff166311df92f161581e85616347565b85615827616ef8565b600160009054906101000a900473ffffffffffffffffffffffffffffffffffffffff1686600001516040518663ffffffff1660e01b815260040161586f9594939291906186e6565b602060405180830381600087803b15801561588957600080fd5b505af115801561589d573d6000803e3d6000fd5b505050506040513d601f19601f820116820180604052508101906158c19190617942565b506158d3816158ce615d60565b615dc2565b505050565b60006158e48284615997565b905060008160010160149054906101000a900460ff1690506001600481111561590957fe5b81600481111561591557fe5b1180615952575061592461181c565b61592d83616f41565b1115801561595157506001600481111561594357fe5b81600481111561594f57fe5b145b5b615991576040517f08c379a0000000000000000000000000000000000000000000000000000000008152600401615988906187e9565b60405180910390fd5b50505050565b600080601260008573ffffffffffffffffffffffffffffffffffffffff1673ffffffffffffffffffffffffffffffffffffffff1681526020019081526020016000209050808054905083108015615a2f5750600060048111156159f657fe5b818481548110615a0257fe5b90600052602060002090600a020160010160149054906101000a900460ff166004811115615a2c57fe5b14155b615a6e576040517f08c379a0000000000000000000000000000000000000000000000000000000008152600401615a65906188c9565b60405180910390fd5b808381548110615a7a57fe5b90600052602060002090600a020191505092915050565b6000615a9d8284615997565b905060026004811115615aac57fe5b8160010160149054906101000a900460ff166004811115615ac957fe5b14615ad45750615cab565b615ae18160020154616f63565b8160080160008201518160000155905050615afa6174b7565b615b3d826008016040518060200160405290816000820154815250508360030160405180602001604052908160008201548152505061523c90919063ffffffff16565b9050615b476174b7565b615b7a615b6b84600801604051806020016040529081600082015481525050615028565b8361523c90919063ffffffff16565b90506000615ba9828560050160405180602001604052908160008201548152505061528690919063ffffffff16565b905080615bb7576004615bba565b60035b8460010160146101000a81548160ff02191690836004811115615bd957fe5b02179055508360010160009054906101000a900473ffffffffffffffffffffffffffffffffffffffff1673ffffffffffffffffffffffffffffffffffffffff168573ffffffffffffffffffffffffffffffffffffffff163373ffffffffffffffffffffffffffffffffffffffff167f6c5582199868fabbe697f9ea10abe481bacf53ac78c02a965b34dff82fd20e3b8760070160009054906101000a900473ffffffffffffffffffffffffffffffffffffffff168a86604051615c9e9392919061860b565b60405180910390a4505050505b5050565b615cb76174b7565b615cbf6174b7565b615cdd846040518060200160405290816000820154815250506151b5565b9050615ce76174b7565b615cf084615624565b9050615d1a818660405180602001604052908160008201548152505061520390919063ffffffff16565b600001518560000181905550615d56615d47866040518060200160405290816000820154815250506151b5565b8361520390919063ffffffff16565b9250505092915050565b615d686174b7565b615da0615d8a60136040518060200160405290816000820154815250506151b5565b615d9261710f565b614afb90919063ffffffff16565b905090565b6000615db082614aa6565b60000151836000015114905092915050565b615dca6174b7565b615ddd828461713b90919063ffffffff16565b9050615e23615dfe82615df06001614aa6565b61520390919063ffffffff16565b600460405180602001604052908160008201548152505061523c90919063ffffffff16565b600460008201518160000155905050505050565b6000600260009054906101000a900473ffffffffffffffffffffffffffffffffffffffff1673ffffffffffffffffffffffffffffffffffffffff1663aafd5e407f53746f72650000000000000000000000000000000000000000000000000000006040518263ffffffff1660e01b8152600401615eb49190618664565b60206040518083038186803b158015615ecc57600080fd5b505afa158015615ee0573d6000803e3d6000fd5b505050506040513d601f19601f82011682018060405250810190615f049190617680565b905090565b6000615fa8828573ffffffffffffffffffffffffffffffffffffffff1663dd62ed3e30876040518363ffffffff1660e01b8152600401615f4a929190618462565b60206040518083038186803b158015615f6257600080fd5b505afa158015615f76573d6000803e3d6000fd5b505050506040513d601f19601f82011682018060405250810190615f9a9190617942565b614bc190919063ffffffff16565b905061602b8463095ea7b360e01b8584604051602401615fc99291906185e2565b604051602081830303815290604052907bffffffffffffffffffffffffffffffffffffffffffffffffffffffff19166020820180517bffffffffffffffffffffffffffffffffffffffffffffffffffffffff8381831617835250505050616c20565b50505050565b6160396174b7565b6160468360030183615caf565b50616050836171eb565b61608f576040517f08c379a0000000000000000000000000000000000000000000000000000000008152600401616086906189a9565b60405180910390fd5b61609a600883615caf565b905092915050565b6160aa6174b7565b6160b26174b7565b6160c26160bd61181c565b613b70565b925050506160e26160d36000614aa6565b8261614c90919063ffffffff16565b156160f05782915050616147565b6160f86174b7565b616112616103615d60565b8361713b90919063ffffffff16565b9050616142616133826161256001614aa6565b61520390919063ffffffff16565b8561523c90919063ffffffff16565b925050505b919050565b60008160000151836000015114905092915050565b6161696174b7565b600061617483614f06565b905061617e6174b7565b61619d60086040518060200160405290816000820154815250506151b5565b90506161a76174b7565b8260030160405180602001604052908160008201548152505090506161eb81600860405180602001604052908160008201548152505061520390919063ffffffff16565b60086000820151816000015590505061623b83600001604051806020016040529081600082015481525050600760405180602001604052908160008201548152505061520390919063ffffffff16565b600760008201518160000155905050600660008673ffffffffffffffffffffffffffffffffffffffff1673ffffffffffffffffffffffffffffffffffffffff168152602001908152602001600020600080820160008082016000905550506001820160009055600282016000808201600090555050600382016000808201600090555050600482016000905550508473ffffffffffffffffffffffffffffffffffffffff167fcad20625296d189a6fc6e5b39d0d544e5bd99dbda0c8f2f0ecffef3e0fbcc28260405160405180910390a261633d61632e60086040518060200160405290816000820154815250506151b5565b8361520390919063ffffffff16565b9350505050919050565b600061638a601060009054906101000a900473ffffffffffffffffffffffffffffffffffffffff1673ffffffffffffffffffffffffffffffffffffffff16616b21565b61639857600a549050616453565b601060009054906101000a900473ffffffffffffffffffffffffffffffffffffffff1673ffffffffffffffffffffffffffffffffffffffff1663f19371b7600a54846040518363ffffffff1660e01b81526004016163f792919061867f565b60206040518083038186803b15801561640f57600080fd5b505afa92505050801561644057506040513d601f19601f8201168201806040525081019061643d91906177c1565b60015b61644e57600a549050616453565b809150505b919050565b60006164626174b7565b6164a061648460086040518060200160405290816000820154815250506151b5565b6007604051806020016040529081600082015481525050617236565b90506164aa6174b7565b6164b48585617236565b90506164c9818361565c90919063ffffffff16565b159250505092915050565b600b546164df61181c565b1015616520576040517f08c379a000000000000000000000000000000000000000000000000000000000815260040161651790618a09565b60405180910390fd5b565b61652a6174b7565b616532615d60565b905061653c6174b7565b6040518060200160405280600160009054906101000a900473ffffffffffffffffffffffffffffffffffffffff1673ffffffffffffffffffffffffffffffffffffffff166370a08231306040518263ffffffff1660e01b81526004016165a29190618403565b60206040518083038186803b1580156165ba57600080fd5b505afa1580156165ce573d6000803e3d6000fd5b505050506040513d601f19601f820116820180604052508101906165f29190617942565b815250905061660a8183616b0c90919063ffffffff16565b1561665a5761664a616625838361536190919063ffffffff16565b600460405180602001604052908160008201548152505061523c90919063ffffffff16565b6004600082015181600001559050505b5050565b600061666a8284615997565b905061667581616f41565b61667d61181c565b1080156166b157506001600481111561669257fe5b8160010160149054906101000a900460ff1660048111156166af57fe5b145b6166f0576040517f08c379a00000000000000000000000000000000000000000000000000000000081526004016166e790618909565b60405180910390fd5b505050565b60006166ff617283565b90508073ffffffffffffffffffffffffffffffffffffffff166368ad8ae361672684616347565b846040518363ffffffff1660e01b815260040161674492919061867f565b600060405180830381600087803b15801561675e57600080fd5b505af1158015616772573d6000803e3d6000fd5b505050505050565b61678e600082615da590919063ffffffff16565b156167985761697c565b3073ffffffffffffffffffffffffffffffffffffffff168273ffffffffffffffffffffffffffffffffffffffff16146168235761681e82308360000151600160009054906101000a900473ffffffffffffffffffffffffffffffffffffffff1673ffffffffffffffffffffffffffffffffffffffff16614f82909392919063ffffffff16565b61685d565b61682b6174b7565b616833615d60565b9050616848828261565c90919063ffffffff16565b61685157600080fd5b61685b8282615dc2565b505b80600001517f4f9bf7e8cd0f2456f9c43d2597bedcf1446c9c64544053f1ece6423ae9a07e5260405160405180910390a26000616898615e37565b90506168eb818360000151600160009054906101000a900473ffffffffffffffffffffffffffffffffffffffff1673ffffffffffffffffffffffffffffffffffffffff16615f099092919063ffffffff16565b8073ffffffffffffffffffffffffffffffffffffffff16638659d232600160009054906101000a900473ffffffffffffffffffffffffffffffffffffffff16846040518363ffffffff1660e01b81526004016169489291906185b9565b600060405180830381600087803b15801561696257600080fd5b505af1158015616976573d6000803e3d6000fd5b50505050505b5050565b6169886174b7565b6000616992616e26565b90508073ffffffffffffffffffffffffffffffffffffffff1663bc58ccaa306169ba86616347565b866169c3616ef8565b6040518563ffffffff1660e01b81526004016169e2949392919061856d565b60206040518083038186803b1580156169fa57600080fd5b505afa158015616a0e573d6000803e3d6000fd5b505050506040513d601f19601f82011682018060405250810190616a329190617798565b616a3b57600080fd5b60008173ffffffffffffffffffffffffffffffffffffffff166353b59239616a6286616347565b86616a6b616ef8565b6040518463ffffffff1660e01b8152600401616a89939291906186a8565b602060405180830381600087803b158015616aa357600080fd5b505af1158015616ab7573d6000803e3d6000fd5b505050506040513d601f19601f82011682018060405250810190616adb91906177ea565b90506000811215616aeb57600090505b616b0360405180602001604052808381525085614d39565b92505050919050565b60008160000151836000015110905092915050565b60008060007fc5d2460186f7233c927e7db2dcc703c0e500b653ca82273b7bfad8045d85a47060001b9050833f9150808214158015616b6357506000801b8214155b92505050919050565b616bde6000616bd0600660008573ffffffffffffffffffffffffffffffffffffffff1673ffffffffffffffffffffffffffffffffffffffff1681526020019081526020016000206003016040518060200160405290816000820154815250506151b5565b614ade90919063ffffffff16565b616c1d576040517f08c379a0000000000000000000000000000000000000000000000000000000008152600401616c14906188e9565b60405180910390fd5b50565b616c3f8273ffffffffffffffffffffffffffffffffffffffff16616b21565b616c7e576040517f08c379a0000000000000000000000000000000000000000000000000000000008152600401616c7590618aa9565b60405180910390fd5b600060608373ffffffffffffffffffffffffffffffffffffffff1683604051616ca791906183ec565b6000604051808303816000865af19150503d8060008114616ce4576040519150601f19603f3d011682016040523d82523d6000602084013e616ce9565b606091505b509150915081616d2e576040517f08c379a0000000000000000000000000000000000000000000000000000000008152600401616d2590618849565b60405180910390fd5b600081511115616d8c5780806020019051810190616d4c9190617798565b616d8b576040517f08c379a0000000000000000000000000000000000000000000000000000000008152600401616d8290618a49565b60405180910390fd5b5b50505050565b6000616dd483836040518060400160405280601e81526020017f536166654d6174683a207375627472616374696f6e206f766572666c6f770000815250617355565b905092915050565b6000616e1e83836040518060400160405280601a81526020017f536166654d6174683a206469766973696f6e206279207a65726f0000000000008152506173b0565b905092915050565b6000600260009054906101000a900473ffffffffffffffffffffffffffffffffffffffff1673ffffffffffffffffffffffffffffffffffffffff1663aafd5e407f4f7074696d69737469634f7261636c65000000000000000000000000000000006040518263ffffffff1660e01b8152600401616ea39190618664565b60206040518083038186803b158015616ebb57600080fd5b505afa158015616ecf573d6000803e3d6000fd5b505050506040513d601f19601f82011682018060405250810190616ef39190617680565b905090565b6060600960009054906101000a900473ffffffffffffffffffffffffffffffffffffffff16604051602001616f2d91906183d1565b604051602081830303815290604052905090565b6000616f5c6014548360020154614bc190919063ffffffff16565b9050919050565b616f6b6174b7565b6000616f75617283565b90508073ffffffffffffffffffffffffffffffffffffffff1663a03e881a616f9c85616347565b856040518363ffffffff1660e01b8152600401616fba92919061867f565b60206040518083038186803b158015616fd257600080fd5b505afa158015616fe6573d6000803e3d6000fd5b505050506040513d601f19601f8201168201806040525081019061700a9190617798565b617049576040517f08c379a000000000000000000000000000000000000000000000000000000000815260040161704090618889565b60405180910390fd5b60008173ffffffffffffffffffffffffffffffffffffffff1663c9280f0661707086616347565b866040518363ffffffff1660e01b815260040161708e92919061867f565b60206040518083038186803b1580156170a657600080fd5b505afa1580156170ba573d6000803e3d6000fd5b505050506040513d601f19601f820116820180604052508101906170de91906177ea565b905060008112156170ee57600090505b61710660405180602001604052808381525085614d39565b92505050919050565b6171176174b7565b61713660086040518060200160405290816000820154815250506151b5565b905090565b6171436174b7565b6000617164670de0b6b3a76400008560000151614b5190919063ffffffff16565b9050600061717f846000015183616ddc90919063ffffffff16565b9050600061719a85600001518461741190919063ffffffff16565b9050600081146171d05760405180602001604052806171c3600185614bc190919063ffffffff16565b81525093505050506171e5565b60405180602001604052808381525093505050505b92915050565b600061722f617211836003016040518060200160405290816000820154815250506151b5565b83600001604051806020016040529081600082015481525050616458565b9050919050565b61723e6174b7565b617252600083614ade90919063ffffffff16565b617267576172606000614aa6565b905061727d565b61727a828461536190919063ffffffff16565b90505b92915050565b6000600260009054906101000a900473ffffffffffffffffffffffffffffffffffffffff1673ffffffffffffffffffffffffffffffffffffffff1663aafd5e407f4f7261636c6500000000000000000000000000000000000000000000000000006040518263ffffffff1660e01b81526004016173009190618664565b60206040518083038186803b15801561731857600080fd5b505afa15801561732c573d6000803e3d6000fd5b505050506040513d601f19601f820116820180604052508101906173509190617680565b905090565b600083831115829061739d576040517f08c379a000000000000000000000000000000000000000000000000000000000815260040161739491906187c7565b60405180910390fd5b5060008385039050809150509392505050565b600080831182906173f7576040517f08c379a00000000000000000000000000000000000000000000000000000000081526004016173ee91906187c7565b60405180910390fd5b50600083858161740357fe5b049050809150509392505050565b600061745383836040518060400160405280601881526020017f536166654d6174683a206d6f64756c6f206279207a65726f000000000000000081525061745b565b905092915050565b60008083141582906174a3576040517f08c379a000000000000000000000000000000000000000000000000000000000815260040161749a91906187c7565b60405180910390fd5b508284816174ad57fe5b0690509392505050565b6040518060200160405280600081525090565b6040518060c001604052806174dd6174b7565b81526020016174ea6174b7565b81526020016174f76174b7565b81526020016175046174b7565b81526020016175116174b7565b815260200161751e6174b7565b81525090565b60008135905061753381618fcf565b92915050565b60008151905061754881618fcf565b92915050565b60008151905061755d81618fe6565b92915050565b60008151905061757281618ffd565b92915050565b60008151905061758781619014565b92915050565b60006020828403121561759f57600080fd5b81905092915050565b6000602082840312156175ba57600080fd5b6175c46020618ced565b905060006175d484828501617618565b60008301525092915050565b6000602082840312156175f257600080fd5b6175fc6020618ced565b9050600061760c8482850161762d565b60008301525092915050565b6000813590506176278161902b565b92915050565b60008151905061763c8161902b565b92915050565b60008151905061765181619042565b92915050565b60006020828403121561766957600080fd5b600061767784828501617524565b91505092915050565b60006020828403121561769257600080fd5b60006176a084828501617539565b91505092915050565b600080600080600060a086880312156176c157600080fd5b60006176cf88828901617524565b95505060206176e08882890161758d565b94505060406176f18882890161758d565b93505060606177028882890161758d565b925050608061771388828901617618565b9150509295509295909350565b6000806040838503121561773357600080fd5b600061774185828601617524565b9250506020617752858286016175a8565b9150509250929050565b6000806040838503121561776f57600080fd5b600061777d85828601617524565b925050602061778e85828601617618565b9150509250929050565b6000602082840312156177aa57600080fd5b60006177b88482850161754e565b91505092915050565b6000602082840312156177d357600080fd5b60006177e184828501617563565b91505092915050565b6000602082840312156177fc57600080fd5b600061780a84828501617578565b91505092915050565b60006020828403121561782557600080fd5b6000617833848285016175a8565b91505092915050565b60006020828403121561784e57600080fd5b600061785c848285016175e0565b91505092915050565b6000806040838503121561787857600080fd5b6000617886858286016175a8565b9250506020617897858286016175a8565b9150509250929050565b600080604083850312156178b457600080fd5b60006178c2858286016175e0565b92505060206178d3858286016175e0565b9150509250929050565b600080604083850312156178f057600080fd5b60006178fe858286016175a8565b925050602061790f85828601617618565b9150509250929050565b60006020828403121561792b57600080fd5b600061793984828501617618565b91505092915050565b60006020828403121561795457600080fd5b60006179628482850161762d565b91505092915050565b6000806040838503121561797e57600080fd5b600061798c85828601617618565b925050602061799d85828601617524565b9150509250929050565b6000602082840312156179b957600080fd5b60006179c784828501617642565b91505092915050565b60006179dc83836181e7565b6101608301905092915050565b6179f281618e2f565b82525050565b617a0181618da0565b82525050565b617a1081618da0565b82525050565b617a27617a2282618da0565b618f66565b82525050565b6000617a3882618d2a565b617a428185618d58565b9350617a4d83618d1a565b8060005b83811015617a7e578151617a6588826179d0565b9750617a7083618d4b565b925050600181019050617a51565b5085935050505092915050565b617a9481618db2565b82525050565b617aa381618dbe565b82525050565b6000617ab482618d35565b617abe8185618d69565b9350617ace818560208601618f19565b617ad781618f8a565b840191505092915050565b6000617aed82618d35565b617af78185618d7a565b9350617b07818560208601618f19565b80840191505092915050565b617b1c81618e41565b82525050565b617b2b81618e65565b82525050565b617b3a81618e89565b82525050565b617b4981618ead565b82525050565b617b5881618ed1565b82525050565b617b6781618ee3565b82525050565b617b7681618ee3565b82525050565b6000617b8782618d40565b617b918185618d85565b9350617ba1818560208601618f19565b617baa81618f8a565b840191505092915050565b6000617bc2601c83618d85565b91507f4c69717569646174696f6e206e6f7420776974686472617761626c65000000006000830152602082019050919050565b6000617c02601b83618d85565b91507f536166654d6174683a206164646974696f6e206f766572666c6f7700000000006000830152602082019050919050565b6000617c42601483618d85565b91507f4d696e656420616674657220646561646c696e650000000000000000000000006000830152602082019050919050565b6000617c82602083618d85565b91507f5361666545524332303a206c6f772d6c6576656c2063616c6c206661696c65646000830152602082019050919050565b6000617cc2601a83618d85565b91507f436f6e7472616374207374617465206973206e6f74204f50454e0000000000006000830152602082019050919050565b6000617d02601783618d85565b91507f556e7265736f6c766564206f7261636c652070726963650000000000000000006000830152602082019050919050565b6000617d42601e83618d85565b91507f42656c6f77206d696e696d756d2073706f6e736f7220706f736974696f6e00006000830152602082019050919050565b6000617d82601683618d85565b91507f496e76616c6964206c69717569646174696f6e204944000000000000000000006000830152602082019050919050565b6000617dc2601a83618d85565b91507f506f736974696f6e20686173206e6f20636f6c6c61746572616c0000000000006000830152602082019050919050565b6000617e02601a83618d85565b91507f4c69717569646174696f6e206e6f742064697370757461626c650000000000006000830152602082019050919050565b6000617e42602183618d85565b91507f536166654d6174683a206d756c7469706c69636174696f6e206f766572666c6f60008301527f77000000000000000000000000000000000000000000000000000000000000006020830152604082019050919050565b6000617ea8601283618d85565b91507f50656e64696e67207769746864726177616c00000000000000000000000000006000830152602082019050919050565b6000617ee8603583618d85565b91507f43616c6c6572206d7573742062652074686520617574686f72697a656420444160008301527f4f206f722074686520554d4120676f7665726e6f7200000000000000000000006020830152604082019050919050565b6000617f4e601e83618d85565b91507f4352206973206d6f7265207468616e206d6178206c69712e20707269636500006000830152602082019050919050565b6000617f8e600c83618d85565b91507f43522062656c6f772047435200000000000000000000000000000000000000006000830152602082019050919050565b6000617fce601783618d85565b91507f496e73756666696369656e7420636f6c6c61746572616c0000000000000000006000830152602082019050919050565b600061800e601883618d85565b91507f4f6e6c792063616c6c61626c65207072652d65787069727900000000000000006000830152602082019050919050565b600061804e601983618d85565b91507f4f6e6c792063616c6c61626c6520706f73742d657870697279000000000000006000830152602082019050919050565b600061808e601e83618d85565b91507f4352206973206c657373207468616e206d696e206c69712e20707269636500006000830152602082019050919050565b60006180ce602a83618d85565b91507f5361666545524332303a204552433230206f7065726174696f6e20646964206e60008301527f6f742073756363656564000000000000000000000000000000000000000000006020830152604082019050919050565b6000618134601f83618d85565b91507f5265656e7472616e637947756172643a207265656e7472616e742063616c6c006000830152602082019050919050565b6000618174601283618d85565b91507f556e6578706972656420706f736974696f6e00000000000000000000000000006000830152602082019050919050565b60006181b4601f83618d85565b91507f5361666545524332303a2063616c6c20746f206e6f6e2d636f6e7472616374006000830152602082019050919050565b610160820160008201516181fe60008501826179f8565b50602082015161821160208501826179f8565b5060408201516182246040850182617b5e565b50606082015161823760608501826183a4565b50608082015161824a6080850182618343565b5060a082015161825d60a0850182618343565b5060c082015161827060c0850182618343565b5060e082015161828360e0850182618343565b506101008201516182986101008501826179f8565b506101208201516182ad610120850182618343565b506101408201516182c2610140850182618343565b50505050565b60c0820160008201516182de6000850182618343565b5060208201516182f16020850182618343565b5060408201516183046040850182618343565b5060608201516183176060850182618343565b50608082015161832a6080850182618343565b5060a082015161833d60a0850182618343565b50505050565b60208201600082015161835960008501826183a4565b50505050565b60208201600082015161837560008501826183a4565b50505050565b60208201600080830154905061839081618f4c565b61839d60008601826183a4565b5050505050565b6183ad81618e18565b82525050565b6183bc81618e18565b82525050565b6183cb81618e22565b82525050565b60006183dd8284617a16565b60148201915081905092915050565b60006183f88284617ae2565b915081905092915050565b60006020820190506184186000830184617a07565b92915050565b600060208201905061843360008301846179e9565b92915050565b600060408201905061844e60008301856179e9565b61845b60208301846183b3565b9392505050565b60006040820190506184776000830185617a07565b6184846020830184617a07565b9392505050565b6000610160820190506184a1600083018e617a07565b6184ae602083018d617a07565b6184bb604083018c617b6d565b6184c8606083018b6183b3565b6184d5608083018a61835f565b6184e260a083018961835f565b6184ef60c083018861835f565b6184fc60e083018761835f565b61850a610100830186617a07565b61851861012083018561835f565b61852661014083018461835f565b9c9b505050505050505050505050565b600060608201905061854b6000830186617a07565b6185586020830185617a07565b61856560408301846183b3565b949350505050565b60006080820190506185826000830187617a07565b61858f6020830186617a9a565b61859c60408301856183b3565b81810360608301526185ae8184617aa9565b905095945050505050565b60006040820190506185ce6000830185617a07565b6185db602083018461835f565b9392505050565b60006040820190506185f76000830185617a07565b61860460208301846183b3565b9392505050565b60006060820190506186206000830186617a07565b61862d60208301856183b3565b61863a6040830184617a8b565b949350505050565b6000602082019050818103600083015261865c8184617a2d565b905092915050565b60006020820190506186796000830184617a9a565b92915050565b60006040820190506186946000830185617a9a565b6186a160208301846183b3565b9392505050565b60006060820190506186bd6000830186617a9a565b6186ca60208301856183b3565b81810360408301526186dc8184617aa9565b9050949350505050565b600060a0820190506186fb6000830188617a9a565b61870860208301876183b3565b818103604083015261871a8186617aa9565b90506187296060830185617b40565b61873660808301846183b3565b9695505050505050565b60006020820190506187556000830184617b13565b92915050565b60006020820190506187706000830184617b22565b92915050565b600060208201905061878b6000830184617b31565b92915050565b60006020820190506187a66000830184617b40565b92915050565b60006020820190506187c16000830184617b4f565b92915050565b600060208201905081810360008301526187e18184617b7c565b905092915050565b6000602082019050818103600083015261880281617bb5565b9050919050565b6000602082019050818103600083015261882281617bf5565b9050919050565b6000602082019050818103600083015261884281617c35565b9050919050565b6000602082019050818103600083015261886281617c75565b9050919050565b6000602082019050818103600083015261888281617cb5565b9050919050565b600060208201905081810360008301526188a281617cf5565b9050919050565b600060208201905081810360008301526188c281617d35565b9050919050565b600060208201905081810360008301526188e281617d75565b9050919050565b6000602082019050818103600083015261890281617db5565b9050919050565b6000602082019050818103600083015261892281617df5565b9050919050565b6000602082019050818103600083015261894281617e35565b9050919050565b6000602082019050818103600083015261896281617e9b565b9050919050565b6000602082019050818103600083015261898281617edb565b9050919050565b600060208201905081810360008301526189a281617f41565b9050919050565b600060208201905081810360008301526189c281617f81565b9050919050565b600060208201905081810360008301526189e281617fc1565b9050919050565b60006020820190508181036000830152618a0281618001565b9050919050565b60006020820190508181036000830152618a2281618041565b9050919050565b60006020820190508181036000830152618a4281618081565b9050919050565b60006020820190508181036000830152618a62816180c1565b9050919050565b60006020820190508181036000830152618a8281618127565b9050919050565b60006020820190508181036000830152618aa281618167565b9050919050565b60006020820190508181036000830152618ac2816181a7565b9050919050565b600060c082019050618ade60008301846182c8565b92915050565b6000602082019050618af9600083018461835f565b92915050565b6000606082019050618b14600083018661835f565b618b21602083018561835f565b618b2e604083018461835f565b949350505050565b6000604082019050618b4b600083018561835f565b618b58602083018461837b565b9392505050565b6000604082019050618b74600083018561835f565b618b8160208301846183b3565b9392505050565b600060a082019050618b9d600083018861835f565b618baa60208301876183b3565b618bb7604083018661835f565b618bc4606083018561835f565b618bd160808301846183b3565b9695505050505050565b6000602082019050618bf060008301846183b3565b92915050565b6000606082019050618c0b60008301866183b3565b618c18602083018561835f565b618c25604083018461835f565b949350505050565b6000604082019050618c4260008301856183b3565b618c4f60208301846183b3565b9392505050565b6000606082019050618c6b60008301866183b3565b618c7860208301856183b3565b618c85604083018461835f565b949350505050565b6000608082019050618ca260008301876183b3565b618caf60208301866183b3565b618cbc60408301856183b3565b618cc960608301846183b3565b95945050505050565b6000602082019050618ce760008301846183c2565b92915050565b6000604051905081810181811067ffffffffffffffff82111715618d1057600080fd5b8060405250919050565b6000819050602082019050919050565b600081519050919050565b600081519050919050565b600081519050919050565b6000602082019050919050565b600082825260208201905092915050565b600082825260208201905092915050565b600081905092915050565b600082825260208201905092915050565b6000819050919050565b6000618dab82618df8565b9050919050565b60008115159050919050565b6000819050919050565b6000819050618dd682618fb5565b919050565b6000819050618de982618fc2565b919050565b6000819050919050565b600073ffffffffffffffffffffffffffffffffffffffff82169050919050565b6000819050919050565b600060ff82169050919050565b6000618e3a82618ef5565b9050919050565b6000618e4c82618e53565b9050919050565b6000618e5e82618df8565b9050919050565b6000618e7082618e77565b9050919050565b6000618e8282618df8565b9050919050565b6000618e9482618e9b565b9050919050565b6000618ea682618df8565b9050919050565b6000618eb882618ebf565b9050919050565b6000618eca82618df8565b9050919050565b6000618edc82618dc8565b9050919050565b6000618eee82618ddb565b9050919050565b6000618f0082618f07565b9050919050565b6000618f1282618df8565b9050919050565b60005b83811015618f37578082015181840152602081019050618f1c565b83811115618f46576000848401525b50505050565b6000618f5f618f5a83618fa8565b618d96565b9050919050565b6000618f7182618f78565b9050919050565b6000618f8382618f9b565b9050919050565b6000601f19601f8301169050919050565b60008160601b9050919050565b60008160001c9050919050565b60038110618fbf57fe5b50565b60058110618fcc57fe5b50565b618fd881618da0565b8114618fe357600080fd5b50565b618fef81618db2565b8114618ffa57600080fd5b50565b61900681618dbe565b811461901157600080fd5b50565b61901d81618dee565b811461902857600080fd5b50565b61903481618e18565b811461903f57600080fd5b50565b61904b81618e22565b811461905657600080fd5b5056fea2646970667358221220f2c358c50bacd8c0a99890af84138f2d01924f4018757b90d2ea60fc028a211f64736f6c634300060c0033",
  "immutableReferences": {},
  "source": "// SPDX-License-Identifier: AGPL-3.0-only\npragma solidity ^0.6.0;\npragma experimental ABIEncoderV2;\n\nimport \"./Liquidatable.sol\";\n\n/**\n * @title Expiring Multi Party.\n * @notice Convenient wrapper for Liquidatable.\n */\ncontract ExpiringMultiParty is Liquidatable {\n    /**\n     * @notice Constructs the ExpiringMultiParty contract.\n     * @param params struct to define input parameters for construction of Liquidatable. Some params\n     * are fed directly into the PricelessPositionManager's constructor within the inheritance tree.\n     */\n    constructor(ConstructorParams memory params)\n        public\n        Liquidatable(params)\n    // Note: since there is no logic here, there is no need to add a re-entrancy guard.\n    {\n\n    }\n}\n",
  "sourcePath": "/Users/meir/Desktop/prelaunch/variable-expiring-multiparty/contracts/ExpiringMultiParty.sol",
  "compiler": {
    "name": "solc",
    "version": "0.6.12+commit.27d51765.Emscripten.clang"
  },
  "schemaVersion": "3.4.0",
  "updatedAt": "2021-04-26T04:04:51.346Z",
  "devdoc": {
    "kind": "dev",
    "methods": {
      "constructor": {
        "params": {
          "params": "struct to define input parameters for construction of Liquidatable. Some params are fed directly into the PricelessPositionManager's constructor within the inheritance tree."
        }
      },
      "create((uint256),(uint256))": {
        "details": "Reverts if minting these tokens would put the position's collateralization ratio below the global collateralization ratio. This contract must be approved to spend at least `collateralAmount` of `collateralCurrency`.This contract must have the Minter role for the `tokenCurrency`.",
        "params": {
          "collateralAmount": "is the number of collateral tokens to collateralize the position with",
          "numTokens": "is the number of tokens to mint from the position."
        }
      },
      "createLiquidation(address,(uint256),(uint256),(uint256),uint256)": {
        "details": "This method generates an ID that will uniquely identify liquidation for the sponsor. This contract must be approved to spend at least `tokensLiquidated` of `tokenCurrency` and at least `finalFeeBond` of `collateralCurrency`.This contract must have the Burner role for the `tokenCurrency`.",
        "params": {
          "deadline": "abort the liquidation if the transaction is mined after this timestamp.",
          "maxCollateralPerToken": "abort the liquidation if the position's collateral per token exceeds this value.",
          "maxTokensToLiquidate": "max number of tokens to liquidate.",
          "minCollateralPerToken": "abort the liquidation if the position's collateral per token is below this value.",
          "sponsor": "address of the sponsor to liquidate."
        },
        "returns": {
          "finalFeeBond": "amount of collateral to be posted by liquidator and returned if not disputed successfully.",
          "liquidationId": "ID of the newly created liquidation.",
          "tokensLiquidated": "amount of synthetic tokens removed and liquidated from the `sponsor`'s position."
        }
      },
      "deposit((uint256))": {
        "details": "Increases the collateralization level of a position after creation. This contract must be approved to spend at least `collateralAmount` of `collateralCurrency`.",
        "params": {
          "collateralAmount": "total amount of collateral tokens to be sent to the sponsor's position."
        }
      },
      "depositTo(address,(uint256))": {
        "details": "Increases the collateralization level of a position after creation. This contract must be approved to spend at least `collateralAmount` of `collateralCurrency`.",
        "params": {
          "collateralAmount": "total amount of collateral tokens to be sent to the sponsor's position.",
          "sponsor": "the sponsor to credit the deposit to."
        }
      },
      "dispute(uint256,address)": {
        "details": "Can only dispute a liquidation before the liquidation expires and if there are no other pending disputes. This contract must be approved to spend at least the dispute bond amount of `collateralCurrency`. This dispute bond amount is calculated from `disputeBondPercentage` times the collateral in the liquidation.",
        "params": {
          "liquidationId": "of the disputed liquidation.",
          "sponsor": "the address of the sponsor whose liquidation is being disputed."
        },
        "returns": {
          "totalPaid": "amount of collateral charged to disputer (i.e. final fee bond + dispute bond)."
        }
      },
      "emergencyShutdown()": {
        "details": "Only the governor can call this function as they are permissioned within the `FinancialContractAdmin`. Upon emergency shutdown, the contract settlement time is set to the shutdown time. This enables withdrawal to occur via the standard `settleExpired` function. Contract state is set to `ExpiredPriceRequested` which prevents re-entry into this function or the `expire` function. No fees are paid when calling `emergencyShutdown` as the governor who would call the function would also receive the fees."
      },
      "emergencyUpdateDAOAddress(address)": {
        "details": "Only the governor or authorized DAO can call this function. The new DAOAddress will be authorized to expire the contract, and the old address will be deauthorized."
      },
      "expire()": {
        "details": "this function can only be called once the contract is expired and can't be re-called."
      },
      "getCollateral(address)": {
        "details": "This is necessary because the struct returned by the positions() method shows rawCollateral, which isn't a user-readable value.This method accounts for pending regular fees that have not yet been withdrawn from this contract, for example if the `lastPaymentTime != currentTime`.",
        "params": {
          "sponsor": "address whose collateral amount is retrieved."
        },
        "returns": {
          "_0": "collateralAmount amount of collateral within a sponsors position."
        }
      },
      "getCurrentTime()": {
        "returns": {
          "_0": "uint for the current Testable timestamp."
        }
      },
      "getLiquidations(address)": {
        "params": {
          "sponsor": "address of the position sponsor."
        },
        "returns": {
          "liquidationData": "array of all liquidation information for the given sponsor address."
        }
      },
      "getOutstandingRegularFees(uint256)": {
        "details": "This returns 0 and exit early if there is no pfc, fees were already paid during the current block, or the fee rate is 0.",
        "returns": {
          "latePenalty": "outstanding unpaid late fee for being late in previous fee payments.",
          "regularFee": "outstanding unpaid regular fee.",
          "totalPaid": "Amount of collateral that the contract paid (sum of the amount paid to the Store and caller)."
        }
      },
      "gulp()": {
        "details": "Multiplying the `cumulativeFeeMultiplier` by the ratio of non-PfC-collateral :: PfC-collateral effectively pays all sponsors a pro-rata portion of the excess collateral.This will revert if PfC is 0 and this contract's collateral balance > 0."
      },
      "payRegularFees()": {
        "details": "These must be paid periodically for the life of the contract. If the contract has not paid its regular fee in a week or more then a late penalty is applied which is sent to the caller. If the amount of fees owed are greater than the pfc, then this will pay as much as possible from the available collateral. An event is only fired if the fees charged are greater than 0.",
        "returns": {
          "_0": "totalPaid Amount of collateral that the contract paid (sum of the amount paid to the Store and caller). This returns 0 and exit early if there is no pfc, fees were already paid during the current block, or the fee rate is 0."
        }
      },
      "pfc()": {
        "details": "This is equivalent to the collateral pool available from which to pay fees. Therefore, derived contracts are expected to implement this so that pay-fee methods can correctly compute the owed fees as a % of PfC.",
        "returns": {
          "_0": "pfc value for equal to the current profit from corruption denominated in collateral currency."
        }
      },
      "redeem((uint256))": {
        "details": "Can only be called by a token sponsor. Might not redeem the full proportional amount of collateral in order to account for precision loss. This contract must be approved to spend at least `numTokens` of `tokenCurrency`.This contract must have the Burner role for the `tokenCurrency`.",
        "params": {
          "numTokens": "is the number of tokens to be burnt for a commensurate amount of collateral."
        },
        "returns": {
          "amountWithdrawn": "The actual amount of collateral withdrawn."
        }
      },
      "remargin()": {
        "details": "This is supposed to be implemented by any contract that inherits `AdministrateeInterface` and callable only by the Governor contract. This method is therefore minimally implemented in this contract and does nothing."
      },
      "repay((uint256))": {
        "details": "Can only be called by token sponsor. This contract must be approved to spend `numTokens` of `tokenCurrency`.This contract must have the Burner role for the `tokenCurrency`.",
        "params": {
          "numTokens": "is the number of tokens to be burnt from the sponsor's debt position."
        }
      },
      "requestTransferPosition()": {
        "details": "The liveness length is the same as the withdrawal liveness."
      },
      "requestWithdrawal((uint256))": {
        "details": "The request will be pending for `withdrawalLiveness`, during which the position can be liquidated.",
        "params": {
          "collateralAmount": "the amount of collateral requested to withdraw"
        }
      },
      "setCurrentTime(uint256)": {
        "details": "Will revert if not running in test mode.",
        "params": {
          "time": "timestamp to set current Testable time to."
        }
      },
      "settleExpired()": {
        "details": "This burns all tokens from the caller of `tokenCurrency` and sends back the proportional amount of `collateralCurrency`. Might not redeem the full proportional amount of collateral in order to account for precision loss. This contract must be approved to spend `tokenCurrency` at least up to the caller's full balance.This contract must have the Burner role for the `tokenCurrency`.",
        "returns": {
          "amountWithdrawn": "The actual amount of collateral withdrawn."
        }
      },
      "totalPositionCollateral()": {
        "details": "This method accounts for pending regular fees that have not yet been withdrawn from this contract, for example if the `lastPaymentTime != currentTime`.",
        "returns": {
          "_0": "totalCollateral amount of all collateral within the Expiring Multi Party Contract."
        }
      },
      "transferPositionPassedRequest(address)": {
        "details": "Transferring positions can only occur if the recipient does not already have a position.",
        "params": {
          "newSponsorAddress": "is the address to which the position will be transferred."
        }
      },
      "transformCollateralRequirement((uint256))": {
        "details": "This method should never revert.",
        "params": {
          "price": "input price used as an input to transform the collateral requirement."
        },
        "returns": {
          "_0": "transformedCollateralRequirement collateral requirement with transformation applied to it."
        }
      },
      "transformPrice((uint256),uint256)": {
        "details": "This method should never revert.",
        "params": {
          "price": "input price to be transformed.",
          "requestTime": "timestamp the oraclePrice was requested at."
        },
        "returns": {
          "_0": "transformedPrice price with the transformation function applied to it."
        }
      },
      "transformPriceIdentifier(uint256)": {
        "details": "This method should never revert.",
        "params": {
          "requestTime": "timestamp the identifier is to be used at."
        },
        "returns": {
          "_0": "transformedPrice price with the transformation function applied to it."
        }
      },
      "variableExpiration(uint256)": {
        "details": "Only the governor or authorized DAO can call this function. Upon variable shutdown, the contract settlement time is set to the shutdown time. This enables withdrawal to occur via the standard `settleExpired` function."
      },
      "withdraw((uint256))": {
        "details": "Reverts if the withdrawal puts this position's collateralization ratio below the global collateralization ratio. In that case, use `requestWithdrawal`. Might not withdraw the full requested amount to account for precision loss.",
        "params": {
          "collateralAmount": "is the amount of collateral to withdraw."
        },
        "returns": {
          "amountWithdrawn": "The actual amount of collateral withdrawn."
        }
      },
      "withdrawLiquidation(uint256,address)": {
        "details": "If the dispute SUCCEEDED: the sponsor, liquidator, and disputer are eligible for payment. If the dispute FAILED: only the liquidator can receive payment. This method will revert if rewards have already been dispersed.",
        "params": {
          "liquidationId": "uniquely identifies the sponsor's liquidation.",
          "sponsor": "address of the sponsor associated with the liquidation."
        },
        "returns": {
          "_0": "data about rewards paid out."
        }
      },
      "withdrawPassedRequest()": {
        "details": "Might not withdraw the full requested amount in order to account for precision loss or if the full requested amount exceeds the collateral in the position (due to paying fees).",
        "returns": {
          "amountWithdrawn": "The actual amount of collateral withdrawn."
        }
      }
    },
    "title": "Expiring Multi Party.",
    "version": 1
  },
  "userdoc": {
    "kind": "user",
    "methods": {
      "cancelTransferPosition()": {
        "notice": "Cancels a pending transfer position request."
      },
      "cancelWithdrawal()": {
        "notice": "Cancels a pending withdrawal request."
      },
      "constructor": "Constructs the ExpiringMultiParty contract.",
      "create((uint256),(uint256))": {
        "notice": "Creates tokens by creating a new position or by augmenting an existing position. Pulls `collateralAmount` into the sponsor's position and mints `numTokens` of `tokenCurrency`."
      },
      "createLiquidation(address,(uint256),(uint256),(uint256),uint256)": {
        "notice": "Liquidates the sponsor's position if the caller has enough synthetic tokens to retire the position's outstanding tokens. Liquidations above a minimum size also reset an ongoing \"slow withdrawal\"'s liveness."
      },
      "deposit((uint256))": {
        "notice": "Transfers `collateralAmount` of `collateralCurrency` into the caller's position."
      },
      "depositTo(address,(uint256))": {
        "notice": "Transfers `collateralAmount` of `collateralCurrency` into the specified sponsor's position."
      },
      "dispute(uint256,address)": {
        "notice": "Disputes a liquidation, if the caller has enough collateral to post a dispute bond and pay a fixed final fee charged on each price request."
      },
      "emergencyShutdown()": {
        "notice": "Premature contract settlement under emergency circumstances."
      },
      "emergencyUpdateDAOAddress(address)": {
        "notice": "Update DAO address under emergency circumstances"
      },
      "expire()": {
        "notice": "Locks contract state in expired and requests oracle price."
      },
      "getCollateral(address)": {
        "notice": "Accessor method for a sponsor's collateral."
      },
      "getCurrentTime()": {
        "notice": "Gets the current time. Will return the last time set in `setCurrentTime` if running in test mode. Otherwise, it will return the block timestamp."
      },
      "getLiquidations(address)": {
        "notice": "Gets all liquidation information for a given sponsor address."
      },
      "getOutstandingRegularFees(uint256)": {
        "notice": "Fetch any regular fees that the contract has pending but has not yet paid. If the fees to be paid are more than the total collateral within the contract then the totalPaid returned is full contract collateral amount."
      },
      "gulp()": {
        "notice": "Removes excess collateral balance not counted in the PfC by distributing it out pro-rata to all sponsors."
      },
      "payRegularFees()": {
        "notice": "Pays UMA DVM regular fees (as a % of the collateral pool) to the Store contract."
      },
      "pfc()": {
        "notice": "Gets the current profit from corruption for this contract in terms of the collateral currency."
      },
      "redeem((uint256))": {
        "notice": "Burns `numTokens` of `tokenCurrency` and sends back the proportional amount of `collateralCurrency`."
      },
      "remargin()": {
        "notice": "Theoretically supposed to pay fees and move money between margin accounts to make sure they reflect the NAV of the contract. However, this functionality doesn't apply to this contract."
      },
      "repay((uint256))": {
        "notice": "Burns `numTokens` of `tokenCurrency` to decrease sponsors position size, without sending back `collateralCurrency`. This is done by a sponsor to increase position CR. Resulting size is bounded by minSponsorTokens."
      },
      "requestTransferPosition()": {
        "notice": "Requests to transfer ownership of the caller's current position to a new sponsor address. Once the request liveness is passed, the sponsor can execute the transfer and specify the new sponsor."
      },
      "requestWithdrawal((uint256))": {
        "notice": "Starts a withdrawal request that, if passed, allows the sponsor to withdraw` from their position."
      },
      "setCurrentTime(uint256)": {
        "notice": "Sets the current time."
      },
      "settleExpired()": {
        "notice": "After a contract has passed expiry all token holders can redeem their tokens for underlying at the prevailing price defined by the DVM from the `expire` function."
      },
      "totalPositionCollateral()": {
        "notice": "Accessor method for the total collateral stored within the PricelessPositionManager."
      },
      "transferPositionPassedRequest(address)": {
        "notice": "After a passed transfer position request (i.e., by a call to `requestTransferPosition` and waiting `withdrawalLiveness`), transfers ownership of the caller's current position to `newSponsorAddress`."
      },
      "transformCollateralRequirement((uint256))": {
        "notice": "Accessor method to calculate a transformed collateral requirement using the finanical product library specified during contract deployment. If no library was provided then no modification to the collateral requirement is done."
      },
      "transformPrice((uint256),uint256)": {
        "notice": "Accessor method to compute a transformed price using the finanicalProductLibrary specified at contract deployment. If no library was provided then no modification to the price is done."
      },
      "transformPriceIdentifier(uint256)": {
        "notice": "Accessor method to compute a transformed price identifier using the finanicalProductLibrary specified at contract deployment. If no library was provided then no modification to the identifier is done."
      },
      "variableExpiration(uint256)": {
        "notice": "Variable contract expiration under pre-defined circumstances."
      },
      "withdraw((uint256))": {
        "notice": "Transfers `collateralAmount` of `collateralCurrency` from the sponsor's position to the sponsor."
      },
      "withdrawLiquidation(uint256,address)": {
        "notice": "After a dispute has settled or after a non-disputed liquidation has expired, anyone can call this method to disperse payments to the sponsor, liquidator, and disdputer."
      },
      "withdrawPassedRequest()": {
        "notice": "After a passed withdrawal request (i.e., by a call to `requestWithdrawal` and waiting `withdrawalLiveness`), withdraws `positionData.withdrawalRequestAmount` of collateral currency."
      }
    },
    "notice": "Convenient wrapper for Liquidatable.",
    "version": 1
  }
}