{
  "contractName": "OracleInterfaces",
  "abi": [
    {
      "inputs": [],
      "name": "CollateralWhitelist",
      "outputs": [
        {
          "internalType": "bytes32",
          "name": "",
          "type": "bytes32"
        }
      ],
      "stateMutability": "view",
      "type": "function"
    },
    {
      "inputs": [],
      "name": "FinancialContractsAdmin",
      "outputs": [
        {
          "internalType": "bytes32",
          "name": "",
          "type": "bytes32"
        }
      ],
      "stateMutability": "view",
      "type": "function"
    },
    {
      "inputs": [],
      "name": "IdentifierWhitelist",
      "outputs": [
        {
          "internalType": "bytes32",
          "name": "",
          "type": "bytes32"
        }
      ],
      "stateMutability": "view",
      "type": "function"
    },
    {
      "inputs": [],
      "name": "OptimisticOracle",
      "outputs": [
        {
          "internalType": "bytes32",
          "name": "",
          "type": "bytes32"
        }
      ],
      "stateMutability": "view",
      "type": "function"
    },
    {
      "inputs": [],
      "name": "Oracle",
      "outputs": [
        {
          "internalType": "bytes32",
          "name": "",
          "type": "bytes32"
        }
      ],
      "stateMutability": "view",
      "type": "function"
    },
    {
      "inputs": [],
      "name": "Registry",
      "outputs": [
        {
          "internalType": "bytes32",
          "name": "",
          "type": "bytes32"
        }
      ],
      "stateMutability": "view",
      "type": "function"
    },
    {
      "inputs": [],
      "name": "Store",
      "outputs": [
        {
          "internalType": "bytes32",
          "name": "",
          "type": "bytes32"
        }
      ],
      "stateMutability": "view",
      "type": "function"
    }
  ],
  "bytecode": "0x610290610026600b82828239805160001a60731461001957fe5b30600052607381538281f3fe73000000000000000000000000000000000000000030146080604052600436106100875760003560e01c80634f4a180b116100655780634f4a180b146100e6578063598dd097146101045780637db9743b14610122578063f24a534e1461014057610087565b80631a4dbd1c1461008c5780632a71e5b3146100aa57806342e90c33146100c8575b600080fd5b61009461015e565b6040518082815260200191505060405180910390f35b6100b2610182565b6040518082815260200191505060405180910390f35b6100d06101a6565b6040518082815260200191505060405180910390f35b6100ee6101ca565b6040518082815260200191505060405180910390f35b61010c6101ee565b6040518082815260200191505060405180910390f35b61012a610212565b6040518082815260200191505060405180910390f35b610148610236565b6040518082815260200191505060405180910390f35b7f4f7074696d69737469634f7261636c650000000000000000000000000000000081565b7f46696e616e6369616c436f6e74726163747341646d696e00000000000000000081565b7f53746f726500000000000000000000000000000000000000000000000000000081565b7f4964656e74696669657257686974656c6973740000000000000000000000000081565b7f436f6c6c61746572616c57686974656c6973740000000000000000000000000081565b7f526567697374727900000000000000000000000000000000000000000000000081565b7f4f7261636c6500000000000000000000000000000000000000000000000000008156fea26469706673582212204ae57b7164f1de13e8f981fc213e46a9f28c66b6fb6f07f0e7cfc2ed71a33e8964736f6c634300060c0033",
  "immutableReferences": {},
  "source": "// SPDX-License-Identifier: AGPL-3.0-only\npragma solidity ^0.6.0;\n\n/**\n * @title Stores common interface names used throughout the DVM by registration in the Finder.\n */\nlibrary OracleInterfaces {\n    bytes32 public constant Oracle = \"Oracle\";\n    bytes32 public constant IdentifierWhitelist = \"IdentifierWhitelist\";\n    bytes32 public constant Store = \"Store\";\n    bytes32 public constant FinancialContractsAdmin = \"FinancialContractsAdmin\";\n    bytes32 public constant Registry = \"Registry\";\n    bytes32 public constant CollateralWhitelist = \"CollateralWhitelist\";\n    bytes32 public constant OptimisticOracle = \"OptimisticOracle\";\n}\n",
  "sourcePath": "@uma/core/contracts/oracle/implementation/Constants.sol",
  "compiler": {
    "name": "solc",
    "version": "0.6.12+commit.27d51765.Emscripten.clang"
  },
  "schemaVersion": "3.4.0",
  "updatedAt": "2021-04-26T02:01:05.169Z",
  "devdoc": {
    "kind": "dev",
    "methods": {},
    "title": "Stores common interface names used throughout the DVM by registration in the Finder.",
    "version": 1
  },
  "userdoc": {
    "kind": "user",
    "methods": {},
    "version": 1
  }
}