{
  "contractName": "PricelessPositionManager",
  "abi": [
    {
      "inputs": [
        {
          "internalType": "uint256",
          "name": "_expirationTimestamp",
          "type": "uint256"
        },
        {
          "internalType": "uint256",
          "name": "_withdrawalLiveness",
          "type": "uint256"
        },
        {
          "internalType": "address",
          "name": "_collateralAddress",
          "type": "address"
        },
        {
          "internalType": "address",
          "name": "_tokenAddress",
          "type": "address"
        },
        {
          "internalType": "address",
          "name": "_finderAddress",
          "type": "address"
        },
        {
          "internalType": "bytes32",
          "name": "_priceIdentifier",
          "type": "bytes32"
        },
        {
          "components": [
            {
              "internalType": "uint256",
              "name": "rawValue",
              "type": "uint256"
            }
          ],
          "internalType": "struct FixedPoint.Unsigned",
          "name": "_minSponsorTokens",
          "type": "tuple"
        },
        {
          "internalType": "address",
          "name": "_timerAddress",
          "type": "address"
        },
        {
          "internalType": "address",
          "name": "_financialProductLibraryAddress",
          "type": "address"
        },
        {
          "internalType": "address",
          "name": "_externalVariableExpirationDAOAddress",
          "type": "address"
        }
      ],
      "stateMutability": "nonpayable",
      "type": "constructor"
    },
    {
      "anonymous": false,
      "inputs": [
        {
          "indexed": true,
          "internalType": "address",
          "name": "caller",
          "type": "address"
        }
      ],
      "name": "ContractExpired",
      "type": "event"
    },
    {
      "anonymous": false,
      "inputs": [
        {
          "indexed": true,
          "internalType": "address",
          "name": "sponsor",
          "type": "address"
        },
        {
          "indexed": true,
          "internalType": "uint256",
          "name": "collateralAmount",
          "type": "uint256"
        }
      ],
      "name": "Deposit",
      "type": "event"
    },
    {
      "anonymous": false,
      "inputs": [
        {
          "indexed": true,
          "internalType": "address",
          "name": "caller",
          "type": "address"
        },
        {
          "indexed": false,
          "internalType": "uint256",
          "name": "originalExpirationTimestamp",
          "type": "uint256"
        },
        {
          "indexed": false,
          "internalType": "uint256",
          "name": "shutdownTimestamp",
          "type": "uint256"
        }
      ],
      "name": "EmergencyShutdown",
      "type": "event"
    },
    {
      "anonymous": false,
      "inputs": [
        {
          "indexed": true,
          "internalType": "address",
          "name": "previousAddress",
          "type": "address"
        },
        {
          "indexed": true,
          "internalType": "address",
          "name": "newAddress",
          "type": "address"
        },
        {
          "indexed": false,
          "internalType": "uint256",
          "name": "updateTimestamp",
          "type": "uint256"
        }
      ],
      "name": "EmergencyUpdateDAOAddress",
      "type": "event"
    },
    {
      "anonymous": false,
      "inputs": [
        {
          "indexed": true,
          "internalType": "address",
          "name": "sponsor",
          "type": "address"
        }
      ],
      "name": "EndedSponsorPosition",
      "type": "event"
    },
    {
      "anonymous": false,
      "inputs": [
        {
          "indexed": true,
          "internalType": "uint256",
          "name": "amount",
          "type": "uint256"
        }
      ],
      "name": "FinalFeesPaid",
      "type": "event"
    },
    {
      "anonymous": false,
      "inputs": [
        {
          "indexed": true,
          "internalType": "address",
          "name": "sponsor",
          "type": "address"
        }
      ],
      "name": "NewSponsor",
      "type": "event"
    },
    {
      "anonymous": false,
      "inputs": [
        {
          "indexed": true,
          "internalType": "address",
          "name": "sponsor",
          "type": "address"
        },
        {
          "indexed": true,
          "internalType": "uint256",
          "name": "collateralAmount",
          "type": "uint256"
        },
        {
          "indexed": true,
          "internalType": "uint256",
          "name": "tokenAmount",
          "type": "uint256"
        }
      ],
      "name": "PositionCreated",
      "type": "event"
    },
    {
      "anonymous": false,
      "inputs": [
        {
          "indexed": true,
          "internalType": "address",
          "name": "sponsor",
          "type": "address"
        },
        {
          "indexed": true,
          "internalType": "uint256",
          "name": "collateralAmount",
          "type": "uint256"
        },
        {
          "indexed": true,
          "internalType": "uint256",
          "name": "tokenAmount",
          "type": "uint256"
        }
      ],
      "name": "Redeem",
      "type": "event"
    },
    {
      "anonymous": false,
      "inputs": [
        {
          "indexed": true,
          "internalType": "uint256",
          "name": "regularFee",
          "type": "uint256"
        },
        {
          "indexed": true,
          "internalType": "uint256",
          "name": "lateFee",
          "type": "uint256"
        }
      ],
      "name": "RegularFeesPaid",
      "type": "event"
    },
    {
      "anonymous": false,
      "inputs": [
        {
          "indexed": true,
          "internalType": "address",
          "name": "sponsor",
          "type": "address"
        },
        {
          "indexed": true,
          "internalType": "uint256",
          "name": "numTokensRepaid",
          "type": "uint256"
        },
        {
          "indexed": true,
          "internalType": "uint256",
          "name": "newTokenCount",
          "type": "uint256"
        }
      ],
      "name": "Repay",
      "type": "event"
    },
    {
      "anonymous": false,
      "inputs": [
        {
          "indexed": true,
          "internalType": "address",
          "name": "oldSponsor",
          "type": "address"
        }
      ],
      "name": "RequestTransferPosition",
      "type": "event"
    },
    {
      "anonymous": false,
      "inputs": [
        {
          "indexed": true,
          "internalType": "address",
          "name": "oldSponsor",
          "type": "address"
        }
      ],
      "name": "RequestTransferPositionCanceled",
      "type": "event"
    },
    {
      "anonymous": false,
      "inputs": [
        {
          "indexed": true,
          "internalType": "address",
          "name": "oldSponsor",
          "type": "address"
        },
        {
          "indexed": true,
          "internalType": "address",
          "name": "newSponsor",
          "type": "address"
        }
      ],
      "name": "RequestTransferPositionExecuted",
      "type": "event"
    },
    {
      "anonymous": false,
      "inputs": [
        {
          "indexed": true,
          "internalType": "address",
          "name": "sponsor",
          "type": "address"
        },
        {
          "indexed": true,
          "internalType": "uint256",
          "name": "collateralAmount",
          "type": "uint256"
        }
      ],
      "name": "RequestWithdrawal",
      "type": "event"
    },
    {
      "anonymous": false,
      "inputs": [
        {
          "indexed": true,
          "internalType": "address",
          "name": "sponsor",
          "type": "address"
        },
        {
          "indexed": true,
          "internalType": "uint256",
          "name": "collateralAmount",
          "type": "uint256"
        }
      ],
      "name": "RequestWithdrawalCanceled",
      "type": "event"
    },
    {
      "anonymous": false,
      "inputs": [
        {
          "indexed": true,
          "internalType": "address",
          "name": "sponsor",
          "type": "address"
        },
        {
          "indexed": true,
          "internalType": "uint256",
          "name": "collateralAmount",
          "type": "uint256"
        }
      ],
      "name": "RequestWithdrawalExecuted",
      "type": "event"
    },
    {
      "anonymous": false,
      "inputs": [
        {
          "indexed": true,
          "internalType": "address",
          "name": "caller",
          "type": "address"
        },
        {
          "indexed": true,
          "internalType": "uint256",
          "name": "collateralReturned",
          "type": "uint256"
        },
        {
          "indexed": true,
          "internalType": "uint256",
          "name": "tokensBurned",
          "type": "uint256"
        }
      ],
      "name": "SettleExpiredPosition",
      "type": "event"
    },
    {
      "anonymous": false,
      "inputs": [
        {
          "indexed": true,
          "internalType": "address",
          "name": "caller",
          "type": "address"
        },
        {
          "indexed": false,
          "internalType": "uint256",
          "name": "originalExpirationTimestamp",
          "type": "uint256"
        },
        {
          "indexed": false,
          "internalType": "uint256",
          "name": "shutdownTimestamp",
          "type": "uint256"
        }
      ],
      "name": "VariableExpiration",
      "type": "event"
    },
    {
      "anonymous": false,
      "inputs": [
        {
          "indexed": true,
          "internalType": "address",
          "name": "sponsor",
          "type": "address"
        },
        {
          "indexed": true,
          "internalType": "uint256",
          "name": "collateralAmount",
          "type": "uint256"
        }
      ],
      "name": "Withdrawal",
      "type": "event"
    },
    {
      "inputs": [],
      "name": "collateralCurrency",
      "outputs": [
        {
          "internalType": "contract IERC20",
          "name": "",
          "type": "address"
        }
      ],
      "stateMutability": "view",
      "type": "function"
    },
    {
      "inputs": [],
      "name": "contractState",
      "outputs": [
        {
          "internalType": "enum PricelessPositionManager.ContractState",
          "name": "",
          "type": "uint8"
        }
      ],
      "stateMutability": "view",
      "type": "function"
    },
    {
      "inputs": [],
      "name": "cumulativeFeeMultiplier",
      "outputs": [
        {
          "internalType": "uint256",
          "name": "rawValue",
          "type": "uint256"
        }
      ],
      "stateMutability": "view",
      "type": "function"
    },
    {
      "inputs": [],
      "name": "expirationTimestamp",
      "outputs": [
        {
          "internalType": "uint256",
          "name": "",
          "type": "uint256"
        }
      ],
      "stateMutability": "view",
      "type": "function"
    },
    {
      "inputs": [],
      "name": "expiryPrice",
      "outputs": [
        {
          "internalType": "uint256",
          "name": "rawValue",
          "type": "uint256"
        }
      ],
      "stateMutability": "view",
      "type": "function"
    },
    {
      "inputs": [],
      "name": "financialProductLibrary",
      "outputs": [
        {
          "internalType": "contract FinancialProductLibrary",
          "name": "",
          "type": "address"
        }
      ],
      "stateMutability": "view",
      "type": "function"
    },
    {
      "inputs": [],
      "name": "finder",
      "outputs": [
        {
          "internalType": "contract FinderInterface",
          "name": "",
          "type": "address"
        }
      ],
      "stateMutability": "view",
      "type": "function"
    },
    {
      "inputs": [],
      "name": "getCurrentTime",
      "outputs": [
        {
          "internalType": "uint256",
          "name": "",
          "type": "uint256"
        }
      ],
      "stateMutability": "view",
      "type": "function"
    },
    {
      "inputs": [
        {
          "internalType": "uint256",
          "name": "time",
          "type": "uint256"
        }
      ],
      "name": "getOutstandingRegularFees",
      "outputs": [
        {
          "components": [
            {
              "internalType": "uint256",
              "name": "rawValue",
              "type": "uint256"
            }
          ],
          "internalType": "struct FixedPoint.Unsigned",
          "name": "regularFee",
          "type": "tuple"
        },
        {
          "components": [
            {
              "internalType": "uint256",
              "name": "rawValue",
              "type": "uint256"
            }
          ],
          "internalType": "struct FixedPoint.Unsigned",
          "name": "latePenalty",
          "type": "tuple"
        },
        {
          "components": [
            {
              "internalType": "uint256",
              "name": "rawValue",
              "type": "uint256"
            }
          ],
          "internalType": "struct FixedPoint.Unsigned",
          "name": "totalPaid",
          "type": "tuple"
        }
      ],
      "stateMutability": "view",
      "type": "function"
    },
    {
      "inputs": [],
      "name": "gulp",
      "outputs": [],
      "stateMutability": "nonpayable",
      "type": "function"
    },
    {
      "inputs": [],
      "name": "minSponsorTokens",
      "outputs": [
        {
          "internalType": "uint256",
          "name": "rawValue",
          "type": "uint256"
        }
      ],
      "stateMutability": "view",
      "type": "function"
    },
    {
      "inputs": [],
      "name": "payRegularFees",
      "outputs": [
        {
          "components": [
            {
              "internalType": "uint256",
              "name": "rawValue",
              "type": "uint256"
            }
          ],
          "internalType": "struct FixedPoint.Unsigned",
          "name": "",
          "type": "tuple"
        }
      ],
      "stateMutability": "nonpayable",
      "type": "function"
    },
    {
      "inputs": [],
      "name": "pfc",
      "outputs": [
        {
          "components": [
            {
              "internalType": "uint256",
              "name": "rawValue",
              "type": "uint256"
            }
          ],
          "internalType": "struct FixedPoint.Unsigned",
          "name": "",
          "type": "tuple"
        }
      ],
      "stateMutability": "view",
      "type": "function"
    },
    {
      "inputs": [
        {
          "internalType": "address",
          "name": "",
          "type": "address"
        }
      ],
      "name": "positions",
      "outputs": [
        {
          "components": [
            {
              "internalType": "uint256",
              "name": "rawValue",
              "type": "uint256"
            }
          ],
          "internalType": "struct FixedPoint.Unsigned",
          "name": "tokensOutstanding",
          "type": "tuple"
        },
        {
          "internalType": "uint256",
          "name": "withdrawalRequestPassTimestamp",
          "type": "uint256"
        },
        {
          "components": [
            {
              "internalType": "uint256",
              "name": "rawValue",
              "type": "uint256"
            }
          ],
          "internalType": "struct FixedPoint.Unsigned",
          "name": "withdrawalRequestAmount",
          "type": "tuple"
        },
        {
          "components": [
            {
              "internalType": "uint256",
              "name": "rawValue",
              "type": "uint256"
            }
          ],
          "internalType": "struct FixedPoint.Unsigned",
          "name": "rawCollateral",
          "type": "tuple"
        },
        {
          "internalType": "uint256",
          "name": "transferPositionRequestPassTimestamp",
          "type": "uint256"
        }
      ],
      "stateMutability": "view",
      "type": "function"
    },
    {
      "inputs": [],
      "name": "priceIdentifier",
      "outputs": [
        {
          "internalType": "bytes32",
          "name": "",
          "type": "bytes32"
        }
      ],
      "stateMutability": "view",
      "type": "function"
    },
    {
      "inputs": [],
      "name": "rawTotalPositionCollateral",
      "outputs": [
        {
          "internalType": "uint256",
          "name": "rawValue",
          "type": "uint256"
        }
      ],
      "stateMutability": "view",
      "type": "function"
    },
    {
      "inputs": [
        {
          "internalType": "uint256",
          "name": "time",
          "type": "uint256"
        }
      ],
      "name": "setCurrentTime",
      "outputs": [],
      "stateMutability": "nonpayable",
      "type": "function"
    },
    {
      "inputs": [],
      "name": "timerAddress",
      "outputs": [
        {
          "internalType": "address",
          "name": "",
          "type": "address"
        }
      ],
      "stateMutability": "view",
      "type": "function"
    },
    {
      "inputs": [],
      "name": "tokenCurrency",
      "outputs": [
        {
          "internalType": "contract ExpandedIERC20",
          "name": "",
          "type": "address"
        }
      ],
      "stateMutability": "view",
      "type": "function"
    },
    {
      "inputs": [],
      "name": "totalTokensOutstanding",
      "outputs": [
        {
          "internalType": "uint256",
          "name": "rawValue",
          "type": "uint256"
        }
      ],
      "stateMutability": "view",
      "type": "function"
    },
    {
      "inputs": [],
      "name": "updateTimestamp",
      "outputs": [
        {
          "internalType": "uint256",
          "name": "",
          "type": "uint256"
        }
      ],
      "stateMutability": "view",
      "type": "function"
    },
    {
      "inputs": [],
      "name": "withdrawalLiveness",
      "outputs": [
        {
          "internalType": "uint256",
          "name": "",
          "type": "uint256"
        }
      ],
      "stateMutability": "view",
      "type": "function"
    },
    {
      "inputs": [],
      "name": "requestTransferPosition",
      "outputs": [],
      "stateMutability": "nonpayable",
      "type": "function"
    },
    {
      "inputs": [
        {
          "internalType": "address",
          "name": "newSponsorAddress",
          "type": "address"
        }
      ],
      "name": "transferPositionPassedRequest",
      "outputs": [],
      "stateMutability": "nonpayable",
      "type": "function"
    },
    {
      "inputs": [],
      "name": "cancelTransferPosition",
      "outputs": [],
      "stateMutability": "nonpayable",
      "type": "function"
    },
    {
      "inputs": [
        {
          "internalType": "address",
          "name": "sponsor",
          "type": "address"
        },
        {
          "components": [
            {
              "internalType": "uint256",
              "name": "rawValue",
              "type": "uint256"
            }
          ],
          "internalType": "struct FixedPoint.Unsigned",
          "name": "collateralAmount",
          "type": "tuple"
        }
      ],
      "name": "depositTo",
      "outputs": [],
      "stateMutability": "nonpayable",
      "type": "function"
    },
    {
      "inputs": [
        {
          "components": [
            {
              "internalType": "uint256",
              "name": "rawValue",
              "type": "uint256"
            }
          ],
          "internalType": "struct FixedPoint.Unsigned",
          "name": "collateralAmount",
          "type": "tuple"
        }
      ],
      "name": "deposit",
      "outputs": [],
      "stateMutability": "nonpayable",
      "type": "function"
    },
    {
      "inputs": [
        {
          "components": [
            {
              "internalType": "uint256",
              "name": "rawValue",
              "type": "uint256"
            }
          ],
          "internalType": "struct FixedPoint.Unsigned",
          "name": "collateralAmount",
          "type": "tuple"
        }
      ],
      "name": "withdraw",
      "outputs": [
        {
          "components": [
            {
              "internalType": "uint256",
              "name": "rawValue",
              "type": "uint256"
            }
          ],
          "internalType": "struct FixedPoint.Unsigned",
          "name": "amountWithdrawn",
          "type": "tuple"
        }
      ],
      "stateMutability": "nonpayable",
      "type": "function"
    },
    {
      "inputs": [
        {
          "components": [
            {
              "internalType": "uint256",
              "name": "rawValue",
              "type": "uint256"
            }
          ],
          "internalType": "struct FixedPoint.Unsigned",
          "name": "collateralAmount",
          "type": "tuple"
        }
      ],
      "name": "requestWithdrawal",
      "outputs": [],
      "stateMutability": "nonpayable",
      "type": "function"
    },
    {
      "inputs": [],
      "name": "withdrawPassedRequest",
      "outputs": [
        {
          "components": [
            {
              "internalType": "uint256",
              "name": "rawValue",
              "type": "uint256"
            }
          ],
          "internalType": "struct FixedPoint.Unsigned",
          "name": "amountWithdrawn",
          "type": "tuple"
        }
      ],
      "stateMutability": "nonpayable",
      "type": "function"
    },
    {
      "inputs": [],
      "name": "cancelWithdrawal",
      "outputs": [],
      "stateMutability": "nonpayable",
      "type": "function"
    },
    {
      "inputs": [
        {
          "components": [
            {
              "internalType": "uint256",
              "name": "rawValue",
              "type": "uint256"
            }
          ],
          "internalType": "struct FixedPoint.Unsigned",
          "name": "collateralAmount",
          "type": "tuple"
        },
        {
          "components": [
            {
              "internalType": "uint256",
              "name": "rawValue",
              "type": "uint256"
            }
          ],
          "internalType": "struct FixedPoint.Unsigned",
          "name": "numTokens",
          "type": "tuple"
        }
      ],
      "name": "create",
      "outputs": [],
      "stateMutability": "nonpayable",
      "type": "function"
    },
    {
      "inputs": [
        {
          "components": [
            {
              "internalType": "uint256",
              "name": "rawValue",
              "type": "uint256"
            }
          ],
          "internalType": "struct FixedPoint.Unsigned",
          "name": "numTokens",
          "type": "tuple"
        }
      ],
      "name": "repay",
      "outputs": [],
      "stateMutability": "nonpayable",
      "type": "function"
    },
    {
      "inputs": [
        {
          "components": [
            {
              "internalType": "uint256",
              "name": "rawValue",
              "type": "uint256"
            }
          ],
          "internalType": "struct FixedPoint.Unsigned",
          "name": "numTokens",
          "type": "tuple"
        }
      ],
      "name": "redeem",
      "outputs": [
        {
          "components": [
            {
              "internalType": "uint256",
              "name": "rawValue",
              "type": "uint256"
            }
          ],
          "internalType": "struct FixedPoint.Unsigned",
          "name": "amountWithdrawn",
          "type": "tuple"
        }
      ],
      "stateMutability": "nonpayable",
      "type": "function"
    },
    {
      "inputs": [],
      "name": "settleExpired",
      "outputs": [
        {
          "components": [
            {
              "internalType": "uint256",
              "name": "rawValue",
              "type": "uint256"
            }
          ],
          "internalType": "struct FixedPoint.Unsigned",
          "name": "amountWithdrawn",
          "type": "tuple"
        }
      ],
      "stateMutability": "nonpayable",
      "type": "function"
    },
    {
      "inputs": [],
      "name": "expire",
      "outputs": [],
      "stateMutability": "nonpayable",
      "type": "function"
    },
    {
      "inputs": [
        {
          "internalType": "address",
          "name": "DAOAddress",
          "type": "address"
        }
      ],
      "name": "emergencyUpdateDAOAddress",
      "outputs": [],
      "stateMutability": "nonpayable",
      "type": "function"
    },
    {
      "inputs": [
        {
          "internalType": "uint256",
          "name": "settlementPrice",
          "type": "uint256"
        }
      ],
      "name": "variableExpiration",
      "outputs": [],
      "stateMutability": "nonpayable",
      "type": "function"
    },
    {
      "inputs": [],
      "name": "emergencyShutdown",
      "outputs": [],
      "stateMutability": "nonpayable",
      "type": "function"
    },
    {
      "inputs": [],
      "name": "remargin",
      "outputs": [],
      "stateMutability": "nonpayable",
      "type": "function"
    },
    {
      "inputs": [
        {
          "internalType": "address",
          "name": "sponsor",
          "type": "address"
        }
      ],
      "name": "getCollateral",
      "outputs": [
        {
          "components": [
            {
              "internalType": "uint256",
              "name": "rawValue",
              "type": "uint256"
            }
          ],
          "internalType": "struct FixedPoint.Unsigned",
          "name": "",
          "type": "tuple"
        }
      ],
      "stateMutability": "view",
      "type": "function"
    },
    {
      "inputs": [],
      "name": "totalPositionCollateral",
      "outputs": [
        {
          "components": [
            {
              "internalType": "uint256",
              "name": "rawValue",
              "type": "uint256"
            }
          ],
          "internalType": "struct FixedPoint.Unsigned",
          "name": "",
          "type": "tuple"
        }
      ],
      "stateMutability": "view",
      "type": "function"
    },
    {
      "inputs": [
        {
          "components": [
            {
              "internalType": "uint256",
              "name": "rawValue",
              "type": "uint256"
            }
          ],
          "internalType": "struct FixedPoint.Unsigned",
          "name": "price",
          "type": "tuple"
        },
        {
          "internalType": "uint256",
          "name": "requestTime",
          "type": "uint256"
        }
      ],
      "name": "transformPrice",
      "outputs": [
        {
          "components": [
            {
              "internalType": "uint256",
              "name": "rawValue",
              "type": "uint256"
            }
          ],
          "internalType": "struct FixedPoint.Unsigned",
          "name": "",
          "type": "tuple"
        }
      ],
      "stateMutability": "view",
      "type": "function"
    },
    {
      "inputs": [
        {
          "internalType": "uint256",
          "name": "requestTime",
          "type": "uint256"
        }
      ],
      "name": "transformPriceIdentifier",
      "outputs": [
        {
          "internalType": "bytes32",
          "name": "",
          "type": "bytes32"
        }
      ],
      "stateMutability": "view",
      "type": "function"
    },
    {
      "inputs": [
        {
          "internalType": "address",
          "name": "_collateralAddress",
          "type": "address"
        }
      ],
      "name": "_getSyntheticDecimals",
      "outputs": [
        {
          "internalType": "uint8",
          "name": "decimals",
          "type": "uint8"
        }
      ],
      "stateMutability": "view",
      "type": "function"
    }
  ],
  "bytecode": "0x60806040523480156200001157600080fd5b5060405162006b1138038062006b11833981810160405281019062000037919062000797565b87868480806000806101000a81548173ffffffffffffffffffffffffffffffffffffffff021916908373ffffffffffffffffffffffffffffffffffffffff160217905550506001600060146101000a81548160ff02191690831515021790555082600160006101000a81548173ffffffffffffffffffffffffffffffffffffffff021916908373ffffffffffffffffffffffffffffffffffffffff16021790555081600260006101000a81548173ffffffffffffffffffffffffffffffffffffffff021916908373ffffffffffffffffffffffffffffffffffffffff160217905550620001296200034460201b60201c565b6003819055506200014660016200044b60201b6200302a1760201c565b600460008201518160000155905050505050620001686200048c60201b60201c565b62000178620004e060201b60201c565b620001886200034460201b60201c565b8a116200019457600080fd5b620001a4620004fc60201b60201c565b73ffffffffffffffffffffffffffffffffffffffff166390978d1b866040518263ffffffff1660e01b8152600401620001de919062000942565b60206040518083038186803b158015620001f757600080fd5b505afa1580156200020c573d6000803e3d6000fd5b505050506040513d601f19601f820116820180604052508101906200023291906200073f565b6200023c57600080fd5b89600b8190555088600d8190555086600960006101000a81548173ffffffffffffffffffffffffffffffffffffffff021916908373ffffffffffffffffffffffffffffffffffffffff16021790555083600e6000820151816000015590505084600a8190555080601160006101000a81548173ffffffffffffffffffffffffffffffffffffffff021916908373ffffffffffffffffffffffffffffffffffffffff16021790555081601060006101000a81548173ffffffffffffffffffffffffffffffffffffffff021916908373ffffffffffffffffffffffffffffffffffffffff16021790555062000334620005d460201b60201c565b5050505050505050505062000a9e565b60008073ffffffffffffffffffffffffffffffffffffffff1660008054906101000a900473ffffffffffffffffffffffffffffffffffffffff1673ffffffffffffffffffffffffffffffffffffffff1614620004445760008054906101000a900473ffffffffffffffffffffffffffffffffffffffff1673ffffffffffffffffffffffffffffffffffffffff166329cb924d6040518163ffffffff1660e01b815260040160206040518083038186803b1580156200040157600080fd5b505afa15801562000416573d6000803e3d6000fd5b505050506040513d601f19601f820116820180604052508101906200043c91906200076b565b905062000448565b4290505b90565b6200045562000667565b604051806020016040528062000482670de0b6b3a764000085620005f160201b620030621790919060201c565b8152509050919050565b600060149054906101000a900460ff16620004de576040517f08c379a0000000000000000000000000000000000000000000000000000000008152600401620004d59062000981565b60405180910390fd5b565b60008060146101000a81548160ff021916908315150217905550565b6000600260009054906101000a900473ffffffffffffffffffffffffffffffffffffffff1673ffffffffffffffffffffffffffffffffffffffff1663aafd5e407f4964656e74696669657257686974656c697374000000000000000000000000006040518263ffffffff1660e01b81526004016200057b919062000942565b60206040518083038186803b1580156200059457600080fd5b505afa158015620005a9573d6000803e3d6000fd5b505050506040513d601f19601f82011682018060405250810190620005cf919062000713565b905090565b6001600060146101000a81548160ff021916908315150217905550565b60008083141562000606576000905062000661565b60008284029050828482816200061857fe5b04146200065c576040517f08c379a000000000000000000000000000000000000000000000000000000000815260040162000653906200095f565b60405180910390fd5b809150505b92915050565b6040518060200160405280600081525090565b6000815190506200068b8162000a36565b92915050565b600081519050620006a28162000a50565b92915050565b600081519050620006b98162000a6a565b92915050565b600060208284031215620006d257600080fd5b620006de6020620009a3565b90506000620006f084828501620006fc565b60008301525092915050565b6000815190506200070d8162000a84565b92915050565b6000602082840312156200072657600080fd5b600062000736848285016200067a565b91505092915050565b6000602082840312156200075257600080fd5b6000620007628482850162000691565b91505092915050565b6000602082840312156200077e57600080fd5b60006200078e84828501620006fc565b91505092915050565b6000806000806000806000806000806101408b8d031215620007b857600080fd5b6000620007c88d828e01620006fc565b9a50506020620007db8d828e01620006fc565b9950506040620007ee8d828e016200067a565b9850506060620008018d828e016200067a565b9750506080620008148d828e016200067a565b96505060a0620008278d828e01620006a8565b95505060c06200083a8d828e01620006bf565b94505060e06200084d8d828e016200067a565b935050610100620008618d828e016200067a565b925050610120620008758d828e016200067a565b9150509295989b9194979a5092959850565b620008928162000a02565b82525050565b6000620008a7602183620009d1565b91507f536166654d6174683a206d756c7469706c69636174696f6e206f766572666c6f60008301527f77000000000000000000000000000000000000000000000000000000000000006020830152604082019050919050565b60006200090f601f83620009d1565b91507f5265656e7472616e637947756172643a207265656e7472616e742063616c6c006000830152602082019050919050565b600060208201905062000959600083018462000887565b92915050565b600060208201905081810360008301526200097a8162000898565b9050919050565b600060208201905081810360008301526200099c8162000900565b9050919050565b6000604051905081810181811067ffffffffffffffff82111715620009c757600080fd5b8060405250919050565b600082825260208201905092915050565b6000620009ef8262000a0c565b9050919050565b60008115159050919050565b6000819050919050565b600073ffffffffffffffffffffffffffffffffffffffff82169050919050565b6000819050919050565b62000a4181620009e2565b811462000a4d57600080fd5b50565b62000a5b81620009f6565b811462000a6757600080fd5b50565b62000a758162000a02565b811462000a8157600080fd5b50565b62000a8f8162000a2c565b811462000a9b57600080fd5b50565b6160638062000aae6000396000f3fe608060405234801561001057600080fd5b506004361061027f5760003560e01c80636ba2f9921161015c5780639b56d6c9116100ce578063bc12163011610087578063bc12163014610726578063bda02e7714610742578063d1e92c111461074c578063dd0eef3d14610768578063edfa9a9b14610786578063fcccedc7146107a45761027f565b80639b56d6c9146106605780639e4efaa0146106905780639f43ddd2146106c25780639ff4dea8146106e0578063b795f0d4146106fe578063b9a3c84c146107085761027f565b80638c382eb2116101205780638c382eb2146105c257806392120aec146105e05780639375f0e9146105fe57806394909e621461061c5780639752366114610626578063976d17c1146106445761027f565b80636ba2f992146105425780637048594b1461055e57806379599f961461057c57806381a10ae11461058657806385209ee0146105a45761027f565b80633403c2fc116101f55780634ead6e51116101b95780634ead6e511461044657806355f57510146104765780635617151c146104aa5780635aa266c9146104c65780635f1af1ca146104e257806362b5f7f5146105125761027f565b80633403c2fc146103c657806336980f58146103d05780633cb6ce83146103da5780633ee7a5ce146103f857806343e4771b146104285761027f565b80631c39c38d116102475780631c39c38d146103285780631c5be3d714610346578063226112801461036457806322f8e5661461036e57806329cb924d1461038a57806333a46ca2146103a85761027f565b80630734919e146102845780630c9229ca146102a05780630de15fd9146102be5780630ff49b90146102dc57806318928a0c1461030c575b600080fd5b61029e60048036038101906102999190614e6e565b6107c2565b005b6102a861096a565b6040516102b59190615cc7565b60405180910390f35b6102c6610976565b6040516102d391906159a1565b60405180910390f35b6102f660048036038101906102f19190615041565b61099c565b6040516103039190615bf9565b60405180910390f35b61032660048036038101906103219190614ec0565b6109be565b005b610330610ac7565b60405161033d9190615717565b60405180910390f35b61034e610aeb565b60405161035b9190615cc7565b60405180910390f35b61036c610af1565b005b6103886004803603810190610383919061507d565b610b7f565b005b610392610c67565b60405161039f9190615cc7565b60405180910390f35b6103b0610d68565b6040516103bd9190615bf9565b60405180910390f35b6103ce610f19565b005b6103d8611019565b005b6103e26110d5565b6040516103ef9190615bf9565b60405180910390f35b610412600480360381019061040d9190614f77565b611325565b60405161041f9190615bf9565b60405180910390f35b610430611436565b60405161043d9190615bf9565b60405180910390f35b610460600480360381019061045b9190614e6e565b611472565b60405161046d9190615d42565b60405180910390f35b610490600480360381019061048b9190614e6e565b611502565b6040516104a1959493929190615c74565b60405180910390f35b6104c460048036038101906104bf9190614e6e565b611574565b005b6104e060048036038101906104db9190614f77565b611858565b005b6104fc60048036038101906104f79190614f77565b611ab4565b6040516105099190615bf9565b60405180910390f35b61052c6004803603810190610527919061507d565b611e5b565b6040516105399190615874565b60405180910390f35b61055c60048036038101906105579190614fc9565b611e75565b005b61056661229b565b6040516105739190615950565b60405180910390f35b6105846122c1565b005b61058e612366565b60405161059b9190615bf9565b60405180910390f35b6105ac612383565b6040516105b991906159bc565b60405180910390f35b6105ca612396565b6040516105d79190615cc7565b60405180910390f35b6105e86123a2565b6040516105f59190615cc7565b60405180910390f35b6106066123ae565b604051610613919061596b565b60405180910390f35b6106246123d4565b005b61062e6123f6565b60405161063b9190615874565b60405180910390f35b61065e6004803603810190610659919061507d565b6123fc565b005b61067a60048036038101906106759190614e6e565b61259e565b6040516106879190615bf9565b60405180910390f35b6106aa60048036038101906106a5919061507d565b61261c565b6040516106b993929190615c14565b60405180910390f35b6106ca6127ea565b6040516106d79190615cc7565b60405180910390f35b6106e86127f0565b6040516106f59190615cc7565b60405180910390f35b6107066127f6565b005b610710612885565b60405161071d9190615986565b60405180910390f35b610740600480360381019061073b9190614f77565b6128ab565b005b61074a6129d1565b005b61076660048036038101906107619190614f77565b6129f3565b005b610770612a00565b60405161077d9190615cc7565b60405180910390f35b61078e612a0c565b60405161079b9190615cc7565b60405180910390f35b6107ac612a18565b6040516107b99190615bf9565b60405180910390f35b6107ca6130d2565b73ffffffffffffffffffffffffffffffffffffffff163373ffffffffffffffffffffffffffffffffffffffff1614806108505750601160009054906101000a900473ffffffffffffffffffffffffffffffffffffffff1673ffffffffffffffffffffffffffffffffffffffff163373ffffffffffffffffffffffffffffffffffffffff16145b61088f576040517f08c379a000000000000000000000000000000000000000000000000000000000815260040161088690615ad9565b60405180910390fd5b610897610c67565b600c819055508073ffffffffffffffffffffffffffffffffffffffff16601160009054906101000a900473ffffffffffffffffffffffffffffffffffffffff1673ffffffffffffffffffffffffffffffffffffffff167fc874c0bc8735c8712e7af84094d15197c273967eaf695d6916b74edd94b90d06600c5460405161091e9190615cc7565b60405180910390a380601160006101000a81548173ffffffffffffffffffffffffffffffffffffffff021916908373ffffffffffffffffffffffffffffffffffffffff16021790555050565b60078060000154905081565b600160009054906101000a900473ffffffffffffffffffffffffffffffffffffffff1681565b6109a4614d43565b6109ac6131a4565b6109b683836131f5565b905092915050565b6109c6613307565b816109d081613354565b6109d86110d5565b506109e16131a4565b6109e96133a6565b6109fd6000836133c290919063ffffffff16565b610a0657600080fd5b6000610a11846133df565b9050610a1d8184613432565b5082600001518473ffffffffffffffffffffffffffffffffffffffff167fe1fffcc4923d04b559f4d29a8bfc6cda04eb5b0d3c460751c2402c5c5cc9109c60405160405180910390a3610ab933308560000151600160009054906101000a900473ffffffffffffffffffffffffffffffffffffffff1673ffffffffffffffffffffffffffffffffffffffff1661345b909392919063ffffffff16565b50610ac26134e4565b505050565b60008054906101000a900473ffffffffffffffffffffffffffffffffffffffff1681565b600c5481565b610af96131a4565b610b016133a6565b6000610b0c336133df565b9050600081600101541415610b2057600080fd5b80600201600001543373ffffffffffffffffffffffffffffffffffffffff167f74d8a3658feb89d1a5c335229bbbfc3bbcfaf492769feb7aa4cd2d92efeaf69160405160405180910390a3610b7481613501565b50610b7d6134e4565b565b600073ffffffffffffffffffffffffffffffffffffffff1660008054906101000a900473ffffffffffffffffffffffffffffffffffffffff1673ffffffffffffffffffffffffffffffffffffffff161415610bd957600080fd5b60008054906101000a900473ffffffffffffffffffffffffffffffffffffffff1673ffffffffffffffffffffffffffffffffffffffff166322f8e566826040518263ffffffff1660e01b8152600401610c329190615cc7565b600060405180830381600087803b158015610c4c57600080fd5b505af1158015610c60573d6000803e3d6000fd5b5050505050565b60008073ffffffffffffffffffffffffffffffffffffffff1660008054906101000a900473ffffffffffffffffffffffffffffffffffffffff1673ffffffffffffffffffffffffffffffffffffffff1614610d615760008054906101000a900473ffffffffffffffffffffffffffffffffffffffff1673ffffffffffffffffffffffffffffffffffffffff166329cb924d6040518163ffffffff1660e01b815260040160206040518083038186803b158015610d2257600080fd5b505afa158015610d36573d6000803e3d6000fd5b505050506040513d601f19601f82011682018060405250810190610d5a91906150a6565b9050610d65565b4290505b90565b610d70614d43565b610d78613307565b610d806110d5565b50610d896131a4565b610d916133a6565b6000610d9c336133df565b90506000816001015414158015610dbe5750610db6610c67565b816001015411155b610dc757600080fd5b610dcf614d43565b816002016040518060200160405290816000820154815250509050610e35610e0e83600301604051806020016040529081600082015481525050613529565b8360020160405180602001604052908160008201548152505061356190919063ffffffff16565b15610e5e57610e5b82600301604051806020016040529081600082015481525050613529565b90505b610e688282613576565b9250610e7382613501565b610ec4338460000151600160009054906101000a900473ffffffffffffffffffffffffffffffffffffffff1673ffffffffffffffffffffffffffffffffffffffff1661359f9092919063ffffffff16565b82600001513373ffffffffffffffffffffffffffffffffffffffff167fc86c3298cb79f486674dca87d9247e88b76146160e7d412cc59b26b14c358a6860405160405180910390a35050610f166134e4565b90565b610f21613307565b610f29613625565b610f316131a4565b610f396133a6565b610f416130d2565b73ffffffffffffffffffffffffffffffffffffffff163373ffffffffffffffffffffffffffffffffffffffff1614610f7857600080fd5b6001600560006101000a81548160ff02191690836002811115610f9757fe5b02179055506000600b549050610fab610c67565b600b81905550610fbc600b5461368f565b3373ffffffffffffffffffffffffffffffffffffffff167fd39eeb7157d9c446579a0893ecf9ecd87d1f466cdb270c6a189cf38ca1e30f4882600b54604051611006929190615ce2565b60405180910390a2506110176134e4565b565b611021613307565b6110296131a4565b6110316133a6565b600061103c336133df565b9050600081600401541461104f57600080fd5b600061106d600d5461105f610c67565b6137dd90919063ffffffff16565b9050600b54811061107d57600080fd5b8082600401819055503373ffffffffffffffffffffffffffffffffffffffff167fbf457c80c8bf299d5c48272c4c1168bf87b33d83b13f0ab9aac332ce1161ed1e60405160405180910390a250506110d36134e4565b565b6110dd614d43565b6110e56131a4565b6110ed6133a6565b60006110f7610c67565b9050611101614d43565b611109613832565b9050611113614d43565b61111b614d43565b611123614d43565b61112c8561261c565b9250925092508460038190555061114d60008261385e90919063ffffffff16565b1561115f57809550505050505061131a565b816000015183600001517f19b92e73d08d517d71ec46136266e4f5d526a8cd4f8501d73713cebfe4f335ef60405160405180910390a361119f818561387b565b6111b36000846133c290919063ffffffff16565b156112a65760006111c26138f0565b9050611215818560000151600160009054906101000a900473ffffffffffffffffffffffffffffffffffffffff1673ffffffffffffffffffffffffffffffffffffffff166139c29092919063ffffffff16565b8073ffffffffffffffffffffffffffffffffffffffff16638659d232600160009054906101000a900473ffffffffffffffffffffffffffffffffffffffff16866040518363ffffffff1660e01b8152600401611272929190615822565b600060405180830381600087803b15801561128c57600080fd5b505af11580156112a0573d6000803e3d6000fd5b50505050505b6112ba6000836133c290919063ffffffff16565b1561131157611310338360000151600160009054906101000a900473ffffffffffffffffffffffffffffffffffffffff1673ffffffffffffffffffffffffffffffffffffffff1661359f9092919063ffffffff16565b5b80955050505050505b6113226134e4565b90565b61132d614d43565b611335613307565b3361133f81613354565b6113476110d5565b506113506131a4565b6113586133a6565b61136c6000846133c290919063ffffffff16565b61137557600080fd5b6000611380336133df565b905061138c8185613aea565b925082600001513373ffffffffffffffffffffffffffffffffffffffff167f7fcf532c15f0a6db0bd6d0e038bea71d30d808c7d98cb3bf7268a95bf5081b6560405160405180910390a3611427338460000151600160009054906101000a900473ffffffffffffffffffffffffffffffffffffffff1673ffffffffffffffffffffffffffffffffffffffff1661359f9092919063ffffffff16565b506114306134e4565b50919050565b61143e614d43565b6114466131a4565b61146d6114686008604051806020016040529081600082015481525050613529565b613b5b565b905090565b60008173ffffffffffffffffffffffffffffffffffffffff1663313ce5676040518163ffffffff1660e01b815260040160206040518083038186803b1580156114ba57600080fd5b505afa9250505080156114eb57506040513d601f19601f820116820180604052508101906114e891906150cf565b60015b6114f857601290506114fd565b809150505b919050565b60066020528060005260406000206000915090508060000160405180602001604052908160008201548152505090806001015490806002016040518060200160405290816000820154815250509080600301604051806020016040529081600082015481525050908060040154905085565b61157c613307565b3361158681613354565b61158e6131a4565b6115966133a6565b6116106115a3600061302a565b611602600660008673ffffffffffffffffffffffffffffffffffffffff1673ffffffffffffffffffffffffffffffffffffffff168152602001908152602001600020600301604051806020016040529081600082015481525050613529565b613c0590919063ffffffff16565b61161957600080fd5b6000611624336133df565b90506000816004015414158015611646575061163e610c67565b816004015411155b61164f57600080fd5b6000816004018190555080600660008573ffffffffffffffffffffffffffffffffffffffff1673ffffffffffffffffffffffffffffffffffffffff1681526020019081526020016000206000820181600001600082015481600001555050600182015481600101556002820181600201600082015481600001555050600382018160030160008201548160000155505060048201548160040155905050600660003373ffffffffffffffffffffffffffffffffffffffff1673ffffffffffffffffffffffffffffffffffffffff168152602001908152602001600020600080820160008082016000905550506001820160009055600282016000808201600090555050600382016000808201600090555050600482016000905550508273ffffffffffffffffffffffffffffffffffffffff163373ffffffffffffffffffffffffffffffffffffffff167ff1a2dcf23621f1a96185c79d39a5776b5ba3dadbea70c5aa86d84c17c7e9418e60405160405180910390a38273ffffffffffffffffffffffffffffffffffffffff167ff60993fa76f94c9e0a803526ee6e1314814ed4d2b0d223febf1436b36897fb3760405160405180910390a23373ffffffffffffffffffffffffffffffffffffffff167fcad20625296d189a6fc6e5b39d0d544e5bd99dbda0c8f2f0ecffef3e0fbcc28260405160405180910390a2506118546134e4565b5050565b611860613307565b3361186a81613354565b6118726110d5565b5061187b6131a4565b6118836133a6565b600061188e336133df565b90506118bb8160000160405180602001604052908160008201548152505084613c1a90919063ffffffff16565b6118c457600080fd5b6118cc614d43565b6118f78483600001604051806020016040529081600082015481525050613c3090919063ffffffff16565b9050611922600e60405180602001604052908160008201548152505082613c6990919063ffffffff16565b61192b57600080fd5b808260000160008201518160000155905050611966846007604051806020016040529081600082015481525050613c3090919063ffffffff16565b600760008201518160000155905050806000015184600001513373ffffffffffffffffffffffffffffffffffffffff167f77c6871227e5d2dec8dadd5354f78453203e22e669cd0ec4c19d9a8c5edb31d060405160405180910390a4611a1533308660000151600960009054906101000a900473ffffffffffffffffffffffffffffffffffffffff1673ffffffffffffffffffffffffffffffffffffffff1661345b909392919063ffffffff16565b600960009054906101000a900473ffffffffffffffffffffffffffffffffffffffff1673ffffffffffffffffffffffffffffffffffffffff166342966c6885600001516040518263ffffffff1660e01b8152600401611a749190615cc7565b600060405180830381600087803b158015611a8e57600080fd5b505af1158015611aa2573d6000803e3d6000fd5b505050505050611ab06134e4565b5050565b611abc614d43565b33611ac681613354565b611ace6110d5565b50611ad76131a4565b611adf6133a6565b6000611aea336133df565b9050611b17816000016040518060200160405290816000820154815250508561356190919063ffffffff16565b15611b2157600080fd5b611b29614d43565b611b548260000160405180602001604052908160008201548152505086613c7f90919063ffffffff16565b9050611b5e614d43565b611b91611b8284600301604051806020016040529081600082015481525050613529565b83613cd290919063ffffffff16565b9050611bbe8684600001604051806020016040529081600082015481525050613c0590919063ffffffff16565b15611bd357611bcc33613d1c565b9450611cc8565b611bdd8382613576565b9450611be7614d43565b611c128785600001604051806020016040529081600082015481525050613c3090919063ffffffff16565b9050611c3d600e60405180602001604052908160008201548152505082613c6990919063ffffffff16565b611c7c576040517f08c379a0000000000000000000000000000000000000000000000000000000008152600401611c7390615a59565b60405180910390fd5b808460000160008201518160000155905050611cb7876007604051806020016040529081600082015481525050613c3090919063ffffffff16565b600760008201518160000155905050505b856000015185600001513373ffffffffffffffffffffffffffffffffffffffff167fe5b754fb1abb7f01b499791d0b820ae3b6af3424ac1c59768edb53f4ec31a92960405160405180910390a4611d66338660000151600160009054906101000a900473ffffffffffffffffffffffffffffffffffffffff1673ffffffffffffffffffffffffffffffffffffffff1661359f9092919063ffffffff16565b611db933308860000151600960009054906101000a900473ffffffffffffffffffffffffffffffffffffffff1673ffffffffffffffffffffffffffffffffffffffff1661345b909392919063ffffffff16565b600960009054906101000a900473ffffffffffffffffffffffffffffffffffffffff1673ffffffffffffffffffffffffffffffffffffffff166342966c6887600001516040518263ffffffff1660e01b8152600401611e189190615cc7565b600060405180830381600087803b158015611e3257600080fd5b505af1158015611e46573d6000803e3d6000fd5b50505050505050611e556134e4565b50919050565b6000611e656131a4565b611e6e82613f02565b9050919050565b611e7d613307565b611e856110d5565b50611e8e6131a4565b611e966133a6565b6000600660003373ffffffffffffffffffffffffffffffffffffffff1673ffffffffffffffffffffffffffffffffffffffff1681526020019081526020016000209050611f3f611f0f84611f0184600301604051806020016040529081600082015481525050613529565b61401390919063ffffffff16565b611f3a848460000160405180602001604052908160008201548152505061401390919063ffffffff16565b61404c565b80611f505750611f4f838361404c565b5b611f8f576040517f08c379a0000000000000000000000000000000000000000000000000000000008152600401611f8690615b19565b60405180910390fd5b6000816001015414611fd6576040517f08c379a0000000000000000000000000000000000000000000000000000000008152600401611fcd90615ab9565b60405180910390fd5b61200260008260000160405180602001604052908160008201548152505061385e90919063ffffffff16565b156120b357612030600e60405180602001604052908160008201548152505083613c6990919063ffffffff16565b61206f576040517f08c379a000000000000000000000000000000000000000000000000000000000815260040161206690615a59565b60405180910390fd5b3373ffffffffffffffffffffffffffffffffffffffff167ff60993fa76f94c9e0a803526ee6e1314814ed4d2b0d223febf1436b36897fb3760405160405180910390a25b6120bd8184613432565b506120e9828260000160405180602001604052908160008201548152505061401390919063ffffffff16565b816000016000820151816000015590505061212382600760405180602001604052908160008201548152505061401390919063ffffffff16565b600760008201518160000155905050816000015183600001513373ffffffffffffffffffffffffffffffffffffffff167f4b82aa16e071a61de1a6b9aeec9edab0356331f8122c78683b469ac8e685dabc60405160405180910390a46121d233308560000151600160009054906101000a900473ffffffffffffffffffffffffffffffffffffffff1673ffffffffffffffffffffffffffffffffffffffff1661345b909392919063ffffffff16565b600960009054906101000a900473ffffffffffffffffffffffffffffffffffffffff1673ffffffffffffffffffffffffffffffffffffffff166340c10f193384600001516040518363ffffffff1660e01b815260040161223392919061574d565b602060405180830381600087803b15801561224d57600080fd5b505af1158015612261573d6000803e3d6000fd5b505050506040513d601f19601f820116820180604052508101906122859190614efc565b61228e57600080fd5b506122976134e4565b5050565b600960009054906101000a900473ffffffffffffffffffffffffffffffffffffffff1681565b6122c96140c8565b6122d1613625565b6122d96110d5565b506122e26131a4565b6122ea6133a6565b6001600560006101000a81548160ff0219169083600281111561230957fe5b0217905550612319600b5461368f565b3373ffffffffffffffffffffffffffffffffffffffff167f18600820405d6cf356e3556301762ca32395e72d8c81494fa344835c9da3633d60405160405180910390a26123646134e4565b565b61236e614d43565b6123766131a4565b61237e613832565b905090565b600560009054906101000a900460ff1681565b60088060000154905081565b600e8060000154905081565b601060009054906101000a900473ffffffffffffffffffffffffffffffffffffffff1681565b6123dc6131a4565b6123e46133a6565b6123ec614116565b6123f46134e4565b565b600a5481565b612404613307565b61240c613625565b6124146131a4565b61241c6133a6565b6124246130d2565b73ffffffffffffffffffffffffffffffffffffffff163373ffffffffffffffffffffffffffffffffffffffff1614806124aa5750601160009054906101000a900473ffffffffffffffffffffffffffffffffffffffff1673ffffffffffffffffffffffffffffffffffffffff163373ffffffffffffffffffffffffffffffffffffffff16145b6124e9576040517f08c379a00000000000000000000000000000000000000000000000000000000081526004016124e090615ad9565b60405180910390fd5b6002600560006101000a81548160ff0219169083600281111561250857fe5b02179055506000600b54905061251c610c67565b600b81905550604051806020016040528083815250600f600082015181600001559050503373ffffffffffffffffffffffffffffffffffffffff167f602537882443dac7573b942e70096be347ad6dedbb7b8bccf77fef35e89a350f82600b5460405161258a929190615ce2565b60405180910390a25061259b6134e4565b50565b6125a6614d43565b6125ae6131a4565b612615612610600660008573ffffffffffffffffffffffffffffffffffffffff1673ffffffffffffffffffffffffffffffffffffffff168152602001908152602001600020600301604051806020016040529081600082015481525050613529565b613b5b565b9050919050565b612624614d43565b61262c614d43565b612634614d43565b600061263e6138f0565b9050612648614d43565b612650613832565b905061266660008261385e90919063ffffffff16565b80612672575085600354145b1561267e5750506127e3565b8173ffffffffffffffffffffffffffffffffffffffff166374201feb60035488846040518463ffffffff1660e01b81526004016126bd93929190615d0b565b604080518083038186803b1580156126d457600080fd5b505afa1580156126e8573d6000803e3d6000fd5b505050506040513d601f19601f8201168201806040525081019061270c9190615005565b8095508196505050612727848661401390919063ffffffff16565b925061273d60008461385e90919063ffffffff16565b156127495750506127e3565b61275c818461356190919063ffffffff16565b156127e057612769614d43565b61277c8285613c3090919063ffffffff16565b9050612786614d43565b6127908683614252565b90506127a58187613c3090919063ffffffff16565b95506127ba8183613c3090919063ffffffff16565b91506127d86127c98884614252565b88613c3090919063ffffffff16565b965082945050505b50505b9193909250565b600b5481565b600d5481565b6127fe613307565b6128066131a4565b61280e6133a6565b6000612819336133df565b905060008160040154141561282d57600080fd5b3373ffffffffffffffffffffffffffffffffffffffff167f2e5702420c76e041698ad7ba57a9ff5cadccf647ea8d96e6007a40b5b2662f5660405160405180910390a260008160040181905550506128836134e4565b565b600260009054906101000a900473ffffffffffffffffffffffffffffffffffffffff1681565b6128b3613307565b336128bd81613354565b6128c56131a4565b6128cd6133a6565b60006128d8336133df565b90506128ee6000846133c290919063ffffffff16565b8015612929575061292861291982600301604051806020016040529081600082015481525050613529565b84613c1a90919063ffffffff16565b5b61293257600080fd5b6000612950600d54612942610c67565b6137dd90919063ffffffff16565b9050600b54811061296057600080fd5b80826001018190555083826002016000820151816000015590505083600001513373ffffffffffffffffffffffffffffffffffffffff167fd33b726e11d2c5d38e6702b16613df0160a07f7ba5185455ee3c45d0494fab1160405160405180910390a350506129cd6134e4565b5050565b6129d9613307565b6129e16131a4565b6129e96133a6565b6129f16134e4565b565b6129fd33826109be565b50565b60048060000154905081565b600f8060000154905081565b612a20614d43565b612a286140c8565b612a306110d5565b50612a396131a4565b612a416133a6565b60006002811115612a4e57fe5b600560009054906101000a900460ff166002811115612a6957fe5b1415612aaa576040517f08c379a0000000000000000000000000000000000000000000000000000000008152600401612aa190615bb9565b60405180910390fd5b600280811115612ab657fe5b600560009054906101000a900460ff166002811115612ad157fe5b14612b1557612ae1600b54614279565b600f600082015181600001559050506002600560006101000a81548160ff02191690836002811115612b0f57fe5b02179055505b612b1d614d43565b6040518060200160405280600960009054906101000a900473ffffffffffffffffffffffffffffffffffffffff1673ffffffffffffffffffffffffffffffffffffffff166370a08231336040518263ffffffff1660e01b8152600401612b839190615732565b60206040518083038186803b158015612b9b57600080fd5b505afa158015612baf573d6000803e3d6000fd5b505050506040513d601f19601f82011682018060405250810190612bd391906150a6565b8152509050612be0614d43565b612c09600f60405180602001604052908160008201548152505083613cd290919063ffffffff16565b90506000600660003373ffffffffffffffffffffffffffffffffffffffff1673ffffffffffffffffffffffffffffffffffffffff1681526020019081526020016000209050612c826000612c7483600301604051806020016040529081600082015481525050613529565b6133c290919063ffffffff16565b15612e2257612c8f614d43565b612cd0600f60405180602001604052908160008201548152505083600001604051806020016040529081600082015481525050613cd290919063ffffffff16565b9050612cda614d43565b612cfb83600301604051806020016040529081600082015481525050613529565b9050612d05614d43565b612d18828461440590919063ffffffff16565b612d315760405180602001604052806000815250612d45565b612d448383613c3090919063ffffffff16565b5b9050612d5a818661401390919063ffffffff16565b9450600660003373ffffffffffffffffffffffffffffffffffffffff1673ffffffffffffffffffffffffffffffffffffffff168152602001908152602001600020600080820160008082016000905550506001820160009055600282016000808201600090555050600382016000808201600090555050600482016000905550503373ffffffffffffffffffffffffffffffffffffffff167fcad20625296d189a6fc6e5b39d0d544e5bd99dbda0c8f2f0ecffef3e0fbcc28260405160405180910390a25050505b612e2a614d43565b612e52612e4c6008604051806020016040529081600082015481525050613529565b84614252565b9050612e5f60088261441a565b9450612e8a846007604051806020016040529081600082015481525050613c3090919063ffffffff16565b600760008201518160000155905050836000015185600001513373ffffffffffffffffffffffffffffffffffffffff167f9d349c102bec959fb7f20f9a3621e015819d3ae4ed6e9afd1f56a69d5845600660405160405180910390a4612f37338660000151600160009054906101000a900473ffffffffffffffffffffffffffffffffffffffff1673ffffffffffffffffffffffffffffffffffffffff1661359f9092919063ffffffff16565b612f8a33308660000151600960009054906101000a900473ffffffffffffffffffffffffffffffffffffffff1673ffffffffffffffffffffffffffffffffffffffff1661345b909392919063ffffffff16565b600960009054906101000a900473ffffffffffffffffffffffffffffffffffffffff1673ffffffffffffffffffffffffffffffffffffffff166342966c6885600001516040518263ffffffff1660e01b8152600401612fe99190615cc7565b600060405180830381600087803b15801561300357600080fd5b505af1158015613017573d6000803e3d6000fd5b50505050505050506130276134e4565b90565b613032614d43565b6040518060200160405280613058670de0b6b3a76400008561306290919063ffffffff16565b8152509050919050565b60008083141561307557600090506130cc565b600082840290508284828161308657fe5b04146130c7576040517f08c379a00000000000000000000000000000000000000000000000000000000081526004016130be90615a99565b60405180910390fd5b809150505b92915050565b6000600260009054906101000a900473ffffffffffffffffffffffffffffffffffffffff1673ffffffffffffffffffffffffffffffffffffffff1663aafd5e407f46696e616e6369616c436f6e74726163747341646d696e0000000000000000006040518263ffffffff1660e01b815260040161314f9190615874565b60206040518083038186803b15801561316757600080fd5b505afa15801561317b573d6000803e3d6000fd5b505050506040513d601f19601f8201168201806040525081019061319f9190614e97565b905090565b600060149054906101000a900460ff166131f3576040517f08c379a00000000000000000000000000000000000000000000000000000000081526004016131ea90615b99565b60405180910390fd5b565b6131fd614d43565b61323e601060009054906101000a900473ffffffffffffffffffffffffffffffffffffffff1673ffffffffffffffffffffffffffffffffffffffff166144cb565b61324a57829050613301565b601060009054906101000a900473ffffffffffffffffffffffffffffffffffffffff1673ffffffffffffffffffffffffffffffffffffffff16630ff49b9084846040518363ffffffff1660e01b81526004016132a7929190615c4b565b60206040518083038186803b1580156132bf57600080fd5b505afa9250505080156132f057506040513d601f19601f820116820180604052508101906132ed9190614fa0565b60015b6132fc57829050613301565b809150505b92915050565b600b54613312610c67565b10613352576040517f08c379a000000000000000000000000000000000000000000000000000000000815260040161334990615b39565b60405180910390fd5b565b600061335f826133df565b60010154146133a3576040517f08c379a000000000000000000000000000000000000000000000000000000000815260040161339a90615ab9565b60405180910390fd5b50565b60008060146101000a81548160ff021916908315150217905550565b60006133cd8261302a565b60000151836000015111905092915050565b6000816133eb81614516565b600660008473ffffffffffffffffffffffffffffffffffffffff1673ffffffffffffffffffffffffffffffffffffffff168152602001908152602001600020915050919050565b61343a614d43565b61344783600301836145ca565b506134536008836145ca565b905092915050565b6134de846323b872dd60e01b85858560405160240161347c9392919061579f565b604051602081830303815290604052907bffffffffffffffffffffffffffffffffffffffffffffffffffffffff19166020820180517bffffffffffffffffffffffffffffffffffffffffffffffffffffffff838183161783525050505061467b565b50505050565b6001600060146101000a81548160ff021916908315150217905550565b61350b600061302a565b81600201600082015181600001559050506000816001018190555050565b613531614d43565b61355a600460405180602001604052908160008201548152505083613cd290919063ffffffff16565b9050919050565b60008160000151836000015111905092915050565b61357e614d43565b61358b836003018361441a565b5061359760088361441a565b905092915050565b6136208363a9059cbb60e01b84846040516024016135be92919061584b565b604051602081830303815290604052907bffffffffffffffffffffffffffffffffffffffffffffffffffffffff19166020820180517bffffffffffffffffffffffffffffffffffffffffffffffffffffffff838183161783525050505061467b565b505050565b6000600281111561363257fe5b600560009054906101000a900460ff16600281111561364d57fe5b1461368d576040517f08c379a000000000000000000000000000000000000000000000000000000000815260040161368490615a39565b60405180910390fd5b565b60006136996147ed565b90506136a3614d43565b6136ab6148bf565b90506136fe828260000151600160009054906101000a900473ffffffffffffffffffffffffffffffffffffffff1673ffffffffffffffffffffffffffffffffffffffff166139c29092919063ffffffff16565b8173ffffffffffffffffffffffffffffffffffffffff166311df92f161372385613f02565b8561372c614984565b600160009054906101000a900473ffffffffffffffffffffffffffffffffffffffff1686600001516040518663ffffffff1660e01b81526004016137749594939291906158f6565b602060405180830381600087803b15801561378e57600080fd5b505af11580156137a2573d6000803e3d6000fd5b505050506040513d601f19601f820116820180604052508101906137c691906150a6565b506137d8816137d3613832565b61387b565b505050565b600080828401905083811015613828576040517f08c379a000000000000000000000000000000000000000000000000000000000815260040161381f906159f9565b60405180910390fd5b8091505092915050565b61383a614d43565b6138596008604051806020016040529081600082015481525050613529565b905090565b60006138698261302a565b60000151836000015114905092915050565b613883614d43565b61389682846149cd90919063ffffffff16565b90506138dc6138b7826138a9600161302a565b613c3090919063ffffffff16565b6004604051806020016040529081600082015481525050613cd290919063ffffffff16565b600460008201518160000155905050505050565b6000600260009054906101000a900473ffffffffffffffffffffffffffffffffffffffff1673ffffffffffffffffffffffffffffffffffffffff1663aafd5e407f53746f72650000000000000000000000000000000000000000000000000000006040518263ffffffff1660e01b815260040161396d9190615874565b60206040518083038186803b15801561398557600080fd5b505afa158015613999573d6000803e3d6000fd5b505050506040513d601f19601f820116820180604052508101906139bd9190614e97565b905090565b6000613a61828573ffffffffffffffffffffffffffffffffffffffff1663dd62ed3e30876040518363ffffffff1660e01b8152600401613a03929190615776565b60206040518083038186803b158015613a1b57600080fd5b505afa158015613a2f573d6000803e3d6000fd5b505050506040513d601f19601f82011682018060405250810190613a5391906150a6565b6137dd90919063ffffffff16565b9050613ae48463095ea7b360e01b8584604051602401613a8292919061584b565b604051602081830303815290604052907bffffffffffffffffffffffffffffffffffffffffffffffffffffffff19166020820180517bffffffffffffffffffffffffffffffffffffffffffffffffffffffff838183161783525050505061467b565b50505050565b613af2614d43565b613aff836003018361441a565b50613b0983614a7d565b613b48576040517f08c379a0000000000000000000000000000000000000000000000000000000008152600401613b3f90615af9565b60405180910390fd5b613b5360088361441a565b905092915050565b613b63614d43565b613b6b614d43565b613b7b613b76610c67565b61261c565b92505050613b9b613b8c600061302a565b82613c0590919063ffffffff16565b15613ba95782915050613c00565b613bb1614d43565b613bcb613bbc613832565b836149cd90919063ffffffff16565b9050613bfb613bec82613bde600161302a565b613c3090919063ffffffff16565b85613cd290919063ffffffff16565b925050505b919050565b60008160000151836000015114905092915050565b6000816000015183600001511115905092915050565b613c38614d43565b6040518060200160405280613c5e84600001518660000151614ac890919063ffffffff16565b815250905092915050565b6000816000015183600001511015905092915050565b613c87614d43565b6040518060200160405280613cc78460000151613cb9670de0b6b3a7640000886000015161306290919063ffffffff16565b614b1290919063ffffffff16565b815250905092915050565b613cda614d43565b6040518060200160405280670de0b6b3a7640000613d098560000151876000015161306290919063ffffffff16565b81613d1057fe5b04815250905092915050565b613d24614d43565b6000613d2f836133df565b9050613d39614d43565b613d586008604051806020016040529081600082015481525050613529565b9050613d62614d43565b826003016040518060200160405290816000820154815250509050613da6816008604051806020016040529081600082015481525050613c3090919063ffffffff16565b600860008201518160000155905050613df6836000016040518060200160405290816000820154815250506007604051806020016040529081600082015481525050613c3090919063ffffffff16565b600760008201518160000155905050600660008673ffffffffffffffffffffffffffffffffffffffff1673ffffffffffffffffffffffffffffffffffffffff168152602001908152602001600020600080820160008082016000905550506001820160009055600282016000808201600090555050600382016000808201600090555050600482016000905550508473ffffffffffffffffffffffffffffffffffffffff167fcad20625296d189a6fc6e5b39d0d544e5bd99dbda0c8f2f0ecffef3e0fbcc28260405160405180910390a2613ef8613ee96008604051806020016040529081600082015481525050613529565b83613c3090919063ffffffff16565b9350505050919050565b6000613f45601060009054906101000a900473ffffffffffffffffffffffffffffffffffffffff1673ffffffffffffffffffffffffffffffffffffffff166144cb565b613f5357600a54905061400e565b601060009054906101000a900473ffffffffffffffffffffffffffffffffffffffff1673ffffffffffffffffffffffffffffffffffffffff1663f19371b7600a54846040518363ffffffff1660e01b8152600401613fb292919061588f565b60206040518083038186803b158015613fca57600080fd5b505afa925050508015613ffb57506040513d601f19601f82011682018060405250810190613ff89190614f25565b60015b61400957600a54905061400e565b809150505b919050565b61401b614d43565b6040518060200160405280614041846000015186600001516137dd90919063ffffffff16565b815250905092915050565b6000614056614d43565b6140946140786008604051806020016040529081600082015481525050613529565b6007604051806020016040529081600082015481525050614b5c565b905061409e614d43565b6140a88585614b5c565b90506140bd818361356190919063ffffffff16565b159250505092915050565b600b546140d3610c67565b1015614114576040517f08c379a000000000000000000000000000000000000000000000000000000000815260040161410b90615b59565b60405180910390fd5b565b61411e614d43565b614126613832565b9050614130614d43565b6040518060200160405280600160009054906101000a900473ffffffffffffffffffffffffffffffffffffffff1673ffffffffffffffffffffffffffffffffffffffff166370a08231306040518263ffffffff1660e01b81526004016141969190615717565b60206040518083038186803b1580156141ae57600080fd5b505afa1580156141c2573d6000803e3d6000fd5b505050506040513d601f19601f820116820180604052508101906141e691906150a6565b81525090506141fe818361440590919063ffffffff16565b1561424e5761423e6142198383613c7f90919063ffffffff16565b6004604051806020016040529081600082015481525050613cd290919063ffffffff16565b6004600082015181600001559050505b5050565b61425a614d43565b816000015183600001511061426f5781614271565b825b905092915050565b614281614d43565b600061428b6147ed565b90508073ffffffffffffffffffffffffffffffffffffffff1663bc58ccaa306142b386613f02565b866142bc614984565b6040518563ffffffff1660e01b81526004016142db94939291906157d6565b60206040518083038186803b1580156142f357600080fd5b505afa158015614307573d6000803e3d6000fd5b505050506040513d601f19601f8201168201806040525081019061432b9190614efc565b61433457600080fd5b60008173ffffffffffffffffffffffffffffffffffffffff166353b5923961435b86613f02565b86614364614984565b6040518463ffffffff1660e01b8152600401614382939291906158b8565b602060405180830381600087803b15801561439c57600080fd5b505af11580156143b0573d6000803e3d6000fd5b505050506040513d601f19601f820116820180604052508101906143d49190614f4e565b905060008112156143e457600090505b6143fc604051806020016040528083815250856131f5565b92505050919050565b60008160000151836000015110905092915050565b614422614d43565b61442a614d43565b61444884604051806020016040529081600082015481525050613529565b9050614452614d43565b61445b84614ba9565b90506144858186604051806020016040529081600082015481525050613c3090919063ffffffff16565b6000015185600001819055506144c16144b286604051806020016040529081600082015481525050613529565b83613c3090919063ffffffff16565b9250505092915050565b60008060007fc5d2460186f7233c927e7db2dcc703c0e500b653ca82273b7bfad8045d85a47060001b9050833f915080821415801561450d57506000801b8214155b92505050919050565b614588600061457a600660008573ffffffffffffffffffffffffffffffffffffffff1673ffffffffffffffffffffffffffffffffffffffff168152602001908152602001600020600301604051806020016040529081600082015481525050613529565b6133c290919063ffffffff16565b6145c7576040517f08c379a00000000000000000000000000000000000000000000000000000000081526004016145be90615a79565b60405180910390fd5b50565b6145d2614d43565b6145da614d43565b6145f884604051806020016040529081600082015481525050613529565b9050614602614d43565b61460b84614ba9565b9050614635818660405180602001604052908160008201548152505061401390919063ffffffff16565b6000015185600001819055506146718261466387604051806020016040529081600082015481525050613529565b613c3090919063ffffffff16565b9250505092915050565b61469a8273ffffffffffffffffffffffffffffffffffffffff166144cb565b6146d9576040517f08c379a00000000000000000000000000000000000000000000000000000000081526004016146d090615bd9565b60405180910390fd5b600060608373ffffffffffffffffffffffffffffffffffffffff16836040516147029190615700565b6000604051808303816000865af19150503d806000811461473f576040519150601f19603f3d011682016040523d82523d6000602084013e614744565b606091505b509150915081614789576040517f08c379a000000000000000000000000000000000000000000000000000000000815260040161478090615a19565b60405180910390fd5b6000815111156147e757808060200190518101906147a79190614efc565b6147e6576040517f08c379a00000000000000000000000000000000000000000000000000000000081526004016147dd90615b79565b60405180910390fd5b5b50505050565b6000600260009054906101000a900473ffffffffffffffffffffffffffffffffffffffff1673ffffffffffffffffffffffffffffffffffffffff1663aafd5e407f4f7074696d69737469634f7261636c65000000000000000000000000000000006040518263ffffffff1660e01b815260040161486a9190615874565b60206040518083038186803b15801561488257600080fd5b505afa158015614896573d6000803e3d6000fd5b505050506040513d601f19601f820116820180604052508101906148ba9190614e97565b905090565b6148c7614d43565b60006148d16138f0565b90508073ffffffffffffffffffffffffffffffffffffffff16635b97aadd600160009054906101000a900473ffffffffffffffffffffffffffffffffffffffff166040518263ffffffff1660e01b815260040161492e9190615717565b60206040518083038186803b15801561494657600080fd5b505afa15801561495a573d6000803e3d6000fd5b505050506040513d601f19601f8201168201806040525081019061497e9190614fa0565b91505090565b6060600960009054906101000a900473ffffffffffffffffffffffffffffffffffffffff166040516020016149b991906156e5565b604051602081830303815290604052905090565b6149d5614d43565b60006149f6670de0b6b3a7640000856000015161306290919063ffffffff16565b90506000614a11846000015183614b1290919063ffffffff16565b90506000614a2c856000015184614be190919063ffffffff16565b905060008114614a62576040518060200160405280614a556001856137dd90919063ffffffff16565b8152509350505050614a77565b60405180602001604052808381525093505050505b92915050565b6000614ac1614aa383600301604051806020016040529081600082015481525050613529565b8360000160405180602001604052908160008201548152505061404c565b9050919050565b6000614b0a83836040518060400160405280601e81526020017f536166654d6174683a207375627472616374696f6e206f766572666c6f770000815250614c2b565b905092915050565b6000614b5483836040518060400160405280601a81526020017f536166654d6174683a206469766973696f6e206279207a65726f000000000000815250614c86565b905092915050565b614b64614d43565b614b786000836133c290919063ffffffff16565b614b8d57614b86600061302a565b9050614ba3565b614ba08284613c7f90919063ffffffff16565b90505b92915050565b614bb1614d43565b614bda600460405180602001604052908160008201548152505083613c7f90919063ffffffff16565b9050919050565b6000614c2383836040518060400160405280601881526020017f536166654d6174683a206d6f64756c6f206279207a65726f0000000000000000815250614ce7565b905092915050565b6000838311158290614c73576040517f08c379a0000000000000000000000000000000000000000000000000000000008152600401614c6a91906159d7565b60405180910390fd5b5060008385039050809150509392505050565b60008083118290614ccd576040517f08c379a0000000000000000000000000000000000000000000000000000000008152600401614cc491906159d7565b60405180910390fd5b506000838581614cd957fe5b049050809150509392505050565b6000808314158290614d2f576040517f08c379a0000000000000000000000000000000000000000000000000000000008152600401614d2691906159d7565b60405180910390fd5b50828481614d3957fe5b0690509392505050565b6040518060200160405280600081525090565b600081359050614d6581615fa3565b92915050565b600081519050614d7a81615fa3565b92915050565b600081519050614d8f81615fba565b92915050565b600081519050614da481615fd1565b92915050565b600081519050614db981615fe8565b92915050565b600060208284031215614dd157600080fd5b614ddb6020615d5d565b90506000614deb84828501614e2f565b60008301525092915050565b600060208284031215614e0957600080fd5b614e136020615d5d565b90506000614e2384828501614e44565b60008301525092915050565b600081359050614e3e81615fff565b92915050565b600081519050614e5381615fff565b92915050565b600081519050614e6881616016565b92915050565b600060208284031215614e8057600080fd5b6000614e8e84828501614d56565b91505092915050565b600060208284031215614ea957600080fd5b6000614eb784828501614d6b565b91505092915050565b60008060408385031215614ed357600080fd5b6000614ee185828601614d56565b9250506020614ef285828601614dbf565b9150509250929050565b600060208284031215614f0e57600080fd5b6000614f1c84828501614d80565b91505092915050565b600060208284031215614f3757600080fd5b6000614f4584828501614d95565b91505092915050565b600060208284031215614f6057600080fd5b6000614f6e84828501614daa565b91505092915050565b600060208284031215614f8957600080fd5b6000614f9784828501614dbf565b91505092915050565b600060208284031215614fb257600080fd5b6000614fc084828501614df7565b91505092915050565b60008060408385031215614fdc57600080fd5b6000614fea85828601614dbf565b9250506020614ffb85828601614dbf565b9150509250929050565b6000806040838503121561501857600080fd5b600061502685828601614df7565b925050602061503785828601614df7565b9150509250929050565b6000806040838503121561505457600080fd5b600061506285828601614dbf565b925050602061507385828601614e2f565b9150509250929050565b60006020828403121561508f57600080fd5b600061509d84828501614e2f565b91505092915050565b6000602082840312156150b857600080fd5b60006150c684828501614e44565b91505092915050565b6000602082840312156150e157600080fd5b60006150ef84828501614e59565b91505092915050565b61510181615e49565b82525050565b61511081615dcd565b82525050565b61512761512282615dcd565b615f54565b82525050565b61513681615deb565b82525050565b600061514782615d8a565b6151518185615da0565b9350615161818560208601615f21565b61516a81615f78565b840191505092915050565b600061518082615d8a565b61518a8185615db1565b935061519a818560208601615f21565b80840191505092915050565b6151af81615e5b565b82525050565b6151be81615e7f565b82525050565b6151cd81615ea3565b82525050565b6151dc81615ec7565b82525050565b6151eb81615eeb565b82525050565b60006151fc82615d95565b6152068185615dbc565b9350615216818560208601615f21565b61521f81615f78565b840191505092915050565b6000615237601b83615dbc565b91507f536166654d6174683a206164646974696f6e206f766572666c6f7700000000006000830152602082019050919050565b6000615277602083615dbc565b91507f5361666545524332303a206c6f772d6c6576656c2063616c6c206661696c65646000830152602082019050919050565b60006152b7601a83615dbc565b91507f436f6e7472616374207374617465206973206e6f74204f50454e0000000000006000830152602082019050919050565b60006152f7601e83615dbc565b91507f42656c6f77206d696e696d756d2073706f6e736f7220706f736974696f6e00006000830152602082019050919050565b6000615337601a83615dbc565b91507f506f736974696f6e20686173206e6f20636f6c6c61746572616c0000000000006000830152602082019050919050565b6000615377602183615dbc565b91507f536166654d6174683a206d756c7469706c69636174696f6e206f766572666c6f60008301527f77000000000000000000000000000000000000000000000000000000000000006020830152604082019050919050565b60006153dd601283615dbc565b91507f50656e64696e67207769746864726177616c00000000000000000000000000006000830152602082019050919050565b600061541d603583615dbc565b91507f43616c6c6572206d7573742062652074686520617574686f72697a656420444160008301527f4f206f722074686520554d4120676f7665726e6f7200000000000000000000006020830152604082019050919050565b6000615483600c83615dbc565b91507f43522062656c6f772047435200000000000000000000000000000000000000006000830152602082019050919050565b60006154c3601783615dbc565b91507f496e73756666696369656e7420636f6c6c61746572616c0000000000000000006000830152602082019050919050565b6000615503601883615dbc565b91507f4f6e6c792063616c6c61626c65207072652d65787069727900000000000000006000830152602082019050919050565b6000615543601983615dbc565b91507f4f6e6c792063616c6c61626c6520706f73742d657870697279000000000000006000830152602082019050919050565b6000615583602a83615dbc565b91507f5361666545524332303a204552433230206f7065726174696f6e20646964206e60008301527f6f742073756363656564000000000000000000000000000000000000000000006020830152604082019050919050565b60006155e9601f83615dbc565b91507f5265656e7472616e637947756172643a207265656e7472616e742063616c6c006000830152602082019050919050565b6000615629601283615dbc565b91507f556e6578706972656420706f736974696f6e00000000000000000000000000006000830152602082019050919050565b6000615669601f83615dbc565b91507f5361666545524332303a2063616c6c20746f206e6f6e2d636f6e7472616374006000830152602082019050919050565b6020820160008201516156b260008501826156b8565b50505050565b6156c181615e32565b82525050565b6156d081615e32565b82525050565b6156df81615e3c565b82525050565b60006156f18284615116565b60148201915081905092915050565b600061570c8284615175565b915081905092915050565b600060208201905061572c6000830184615107565b92915050565b600060208201905061574760008301846150f8565b92915050565b600060408201905061576260008301856150f8565b61576f60208301846156c7565b9392505050565b600060408201905061578b6000830185615107565b6157986020830184615107565b9392505050565b60006060820190506157b46000830186615107565b6157c16020830185615107565b6157ce60408301846156c7565b949350505050565b60006080820190506157eb6000830187615107565b6157f8602083018661512d565b61580560408301856156c7565b8181036060830152615817818461513c565b905095945050505050565b60006040820190506158376000830185615107565b615844602083018461569c565b9392505050565b60006040820190506158606000830185615107565b61586d60208301846156c7565b9392505050565b6000602082019050615889600083018461512d565b92915050565b60006040820190506158a4600083018561512d565b6158b160208301846156c7565b9392505050565b60006060820190506158cd600083018661512d565b6158da60208301856156c7565b81810360408301526158ec818461513c565b9050949350505050565b600060a08201905061590b600083018861512d565b61591860208301876156c7565b818103604083015261592a818661513c565b905061593960608301856151d3565b61594660808301846156c7565b9695505050505050565b600060208201905061596560008301846151a6565b92915050565b600060208201905061598060008301846151b5565b92915050565b600060208201905061599b60008301846151c4565b92915050565b60006020820190506159b660008301846151d3565b92915050565b60006020820190506159d160008301846151e2565b92915050565b600060208201905081810360008301526159f181846151f1565b905092915050565b60006020820190508181036000830152615a128161522a565b9050919050565b60006020820190508181036000830152615a328161526a565b9050919050565b60006020820190508181036000830152615a52816152aa565b9050919050565b60006020820190508181036000830152615a72816152ea565b9050919050565b60006020820190508181036000830152615a928161532a565b9050919050565b60006020820190508181036000830152615ab28161536a565b9050919050565b60006020820190508181036000830152615ad2816153d0565b9050919050565b60006020820190508181036000830152615af281615410565b9050919050565b60006020820190508181036000830152615b1281615476565b9050919050565b60006020820190508181036000830152615b32816154b6565b9050919050565b60006020820190508181036000830152615b52816154f6565b9050919050565b60006020820190508181036000830152615b7281615536565b9050919050565b60006020820190508181036000830152615b9281615576565b9050919050565b60006020820190508181036000830152615bb2816155dc565b9050919050565b60006020820190508181036000830152615bd28161561c565b9050919050565b60006020820190508181036000830152615bf28161565c565b9050919050565b6000602082019050615c0e600083018461569c565b92915050565b6000606082019050615c29600083018661569c565b615c36602083018561569c565b615c43604083018461569c565b949350505050565b6000604082019050615c60600083018561569c565b615c6d60208301846156c7565b9392505050565b600060a082019050615c89600083018861569c565b615c9660208301876156c7565b615ca3604083018661569c565b615cb0606083018561569c565b615cbd60808301846156c7565b9695505050505050565b6000602082019050615cdc60008301846156c7565b92915050565b6000604082019050615cf760008301856156c7565b615d0460208301846156c7565b9392505050565b6000606082019050615d2060008301866156c7565b615d2d60208301856156c7565b615d3a604083018461569c565b949350505050565b6000602082019050615d5760008301846156d6565b92915050565b6000604051905081810181811067ffffffffffffffff82111715615d8057600080fd5b8060405250919050565b600081519050919050565b600081519050919050565b600082825260208201905092915050565b600081905092915050565b600082825260208201905092915050565b6000615dd882615e12565b9050919050565b60008115159050919050565b6000819050919050565b6000819050615e0382615f96565b919050565b6000819050919050565b600073ffffffffffffffffffffffffffffffffffffffff82169050919050565b6000819050919050565b600060ff82169050919050565b6000615e5482615efd565b9050919050565b6000615e6682615e6d565b9050919050565b6000615e7882615e12565b9050919050565b6000615e8a82615e91565b9050919050565b6000615e9c82615e12565b9050919050565b6000615eae82615eb5565b9050919050565b6000615ec082615e12565b9050919050565b6000615ed282615ed9565b9050919050565b6000615ee482615e12565b9050919050565b6000615ef682615df5565b9050919050565b6000615f0882615f0f565b9050919050565b6000615f1a82615e12565b9050919050565b60005b83811015615f3f578082015181840152602081019050615f24565b83811115615f4e576000848401525b50505050565b6000615f5f82615f66565b9050919050565b6000615f7182615f89565b9050919050565b6000601f19601f8301169050919050565b60008160601b9050919050565b60038110615fa057fe5b50565b615fac81615dcd565b8114615fb757600080fd5b50565b615fc381615ddf565b8114615fce57600080fd5b50565b615fda81615deb565b8114615fe557600080fd5b50565b615ff181615e08565b8114615ffc57600080fd5b50565b61600881615e32565b811461601357600080fd5b50565b61601f81615e3c565b811461602a57600080fd5b5056fea26469706673582212206df94f2de639be7e7789c1cc8eec34b49ebbd6b82d67ff15300265ef7ea4ae7c64736f6c634300060c0033",
  "immutableReferences": {},
  "source": "// SPDX-License-Identifier: AGPL-3.0-only\npragma solidity ^0.6.0;\npragma experimental ABIEncoderV2;\n\nimport \"@openzeppelin/contracts/math/SafeMath.sol\";\nimport \"@openzeppelin/contracts/token/ERC20/IERC20.sol\";\nimport \"@openzeppelin/contracts/token/ERC20/SafeERC20.sol\";\nimport \"@openzeppelin/contracts/utils/Address.sol\";\n\nimport \"@uma/core/contracts/common/implementation/FixedPoint.sol\";\nimport \"@uma/core/contracts/common/interfaces/ExpandedIERC20.sol\";\nimport \"@uma/core/contracts/common/interfaces/IERC20Standard.sol\";\n\nimport \"@uma/core/contracts/oracle/interfaces/OracleInterface.sol\";\nimport \"@uma/core/contracts/oracle/interfaces/OptimisticOracleInterface.sol\";\nimport \"@uma/core/contracts/oracle/interfaces/IdentifierWhitelistInterface.sol\";\nimport \"@uma/core/contracts/oracle/implementation/Constants.sol\";\n\nimport \"@uma/core/contracts/financial-templates/common/FeePayer.sol\";\nimport \"@uma/core/contracts/financial-templates/common/financial-product-libraries/FinancialProductLibrary.sol\";\n\n/**\n * @title Financial contract with priceless position management.\n * @notice Handles positions for multiple sponsors in an optimistic (i.e., priceless) way without relying\n * on a price feed. On construction, deploys a new ERC20, managed by this contract, that is the synthetic token.\n */\n\ncontract PricelessPositionManager is FeePayer {\n    using SafeMath for uint256;\n    using FixedPoint for FixedPoint.Unsigned;\n    using SafeERC20 for IERC20;\n    using SafeERC20 for ExpandedIERC20;\n    using Address for address;\n\n    /****************************************\n     *  PRICELESS POSITION DATA STRUCTURES  *\n     ****************************************/\n\n    // Stores the state of the PricelessPositionManager. Set on expiration, emergency shutdown, or settlement.\n    enum ContractState { Open, ExpiredPriceRequested, ExpiredPriceReceived }\n    ContractState public contractState;\n\n    // Represents a single sponsor's position. All collateral is held by this contract.\n    // This struct acts as bookkeeping for how much of that collateral is allocated to each sponsor.\n    struct PositionData {\n        FixedPoint.Unsigned tokensOutstanding;\n        // Tracks pending withdrawal requests. A withdrawal request is pending if `withdrawalRequestPassTimestamp != 0`.\n        uint256 withdrawalRequestPassTimestamp;\n        FixedPoint.Unsigned withdrawalRequestAmount;\n        // Raw collateral value. This value should never be accessed directly -- always use _getFeeAdjustedCollateral().\n        // To add or remove collateral, use _addCollateral() and _removeCollateral().\n        FixedPoint.Unsigned rawCollateral;\n        // Tracks pending transfer position requests. A transfer position request is pending if `transferPositionRequestPassTimestamp != 0`.\n        uint256 transferPositionRequestPassTimestamp;\n    }\n\n    // Maps sponsor addresses to their positions. Each sponsor can have only one position.\n    mapping(address => PositionData) public positions;\n\n    // Keep track of the total collateral and tokens across all positions to enable calculating the\n    // global collateralization ratio without iterating over all positions.\n    FixedPoint.Unsigned public totalTokensOutstanding;\n\n    // Similar to the rawCollateral in PositionData, this value should not be used directly.\n    // _getFeeAdjustedCollateral(), _addCollateral() and _removeCollateral() must be used to access and adjust.\n    FixedPoint.Unsigned public rawTotalPositionCollateral;\n\n    // Synthetic token created by this contract.\n    ExpandedIERC20 public tokenCurrency;\n\n    // Unique identifier for DVM price feed ticker.\n    bytes32 public priceIdentifier;\n    // Time that this contract expires. Should not change post-construction unless an emergency shutdown occurs.\n    uint256 public expirationTimestamp;\n    // Time that the expiration DAO last changed\n    uint256 public updateTimestamp;\n    // Time that has to elapse for a withdrawal request to be considered passed, if no liquidations occur.\n    // !!Note: The lower the withdrawal liveness value, the more risk incurred by the contract.\n    //       Extremely low liveness values increase the chance that opportunistic invalid withdrawal requests\n    //       expire without liquidation, thereby increasing the insolvency risk for the contract as a whole. An insolvent\n    //       contract is extremely risky for any sponsor or synthetic token holder for the contract.\n    uint256 public withdrawalLiveness;\n\n    // Minimum number of tokens in a sponsor's position.\n    FixedPoint.Unsigned public minSponsorTokens;\n\n    // The expiry price pulled from the DVM.\n    FixedPoint.Unsigned public expiryPrice;\n\n    // Instance of FinancialProductLibrary to provide custom price and collateral requirement transformations to extend\n    // the functionality of the EMP to support a wider range of financial products.\n    FinancialProductLibrary public financialProductLibrary;\n\n    // address for the DAO which will have authority to expire the contract\n    address externalVariableExpirationDAOAddress;\n\n    /****************************************\n     *                EVENTS                *\n     ****************************************/\n\n    event RequestTransferPosition(address indexed oldSponsor);\n    event RequestTransferPositionExecuted(address indexed oldSponsor, address indexed newSponsor);\n    event RequestTransferPositionCanceled(address indexed oldSponsor);\n    event Deposit(address indexed sponsor, uint256 indexed collateralAmount);\n    event Withdrawal(address indexed sponsor, uint256 indexed collateralAmount);\n    event RequestWithdrawal(address indexed sponsor, uint256 indexed collateralAmount);\n    event RequestWithdrawalExecuted(address indexed sponsor, uint256 indexed collateralAmount);\n    event RequestWithdrawalCanceled(address indexed sponsor, uint256 indexed collateralAmount);\n    event PositionCreated(address indexed sponsor, uint256 indexed collateralAmount, uint256 indexed tokenAmount);\n    event NewSponsor(address indexed sponsor);\n    event EndedSponsorPosition(address indexed sponsor);\n    event Repay(address indexed sponsor, uint256 indexed numTokensRepaid, uint256 indexed newTokenCount);\n    event Redeem(address indexed sponsor, uint256 indexed collateralAmount, uint256 indexed tokenAmount);\n    event ContractExpired(address indexed caller);\n    event SettleExpiredPosition(\n        address indexed caller,\n        uint256 indexed collateralReturned,\n        uint256 indexed tokensBurned\n    );\n    event EmergencyShutdown(address indexed caller, uint256 originalExpirationTimestamp, uint256 shutdownTimestamp);\n    event VariableExpiration(address indexed caller, uint256 originalExpirationTimestamp, uint256 shutdownTimestamp);\n    event EmergencyUpdateDAOAddress(address indexed previousAddress, address indexed newAddress, uint256 updateTimestamp);\n\n    /****************************************\n     *               MODIFIERS              *\n     ****************************************/\n\n    modifier onlyPreExpiration() {\n        _onlyPreExpiration();\n        _;\n    }\n\n    modifier onlyPostExpiration() {\n        _onlyPostExpiration();\n        _;\n    }\n\n    modifier onlyCollateralizedPosition(address sponsor) {\n        _onlyCollateralizedPosition(sponsor);\n        _;\n    }\n\n    // Check that the current state of the pricelessPositionManager is Open.\n    // This prevents multiple calls to `expire` and `EmergencyShutdown` post expiration.\n    modifier onlyOpenState() {\n        _onlyOpenState();\n        _;\n    }\n\n    modifier noPendingWithdrawal(address sponsor) {\n        _positionHasNoPendingWithdrawal(sponsor);\n        _;\n    }\n\n    /**\n     * @notice Construct the PricelessPositionManager\n     * @dev Deployer of this contract should consider carefully which parties have ability to mint and burn\n     * the synthetic tokens referenced by `_tokenAddress`. This contract's security assumes that no external accounts\n     * can mint new tokens, which could be used to steal all of this contract's locked collateral.\n     * We recommend to only use synthetic token contracts whose sole Owner role (the role capable of adding & removing roles)\n     * is assigned to this contract, whose sole Minter role is assigned to this contract, and whose\n     * total supply is 0 prior to construction of this contract.\n     * @param _expirationTimestamp unix timestamp of when the contract will expire.\n     * @param _withdrawalLiveness liveness delay, in seconds, for pending withdrawals.\n     * @param _collateralAddress ERC20 token used as collateral for all positions.\n     * @param _tokenAddress ERC20 token used as synthetic token.\n     * @param _finderAddress UMA protocol Finder used to discover other protocol contracts.\n     * @param _priceIdentifier registered in the DVM for the synthetic.\n     * @param _minSponsorTokens minimum amount of collateral that must exist at any time in a position.\n     * @param _timerAddress Contract that stores the current time in a testing environment.\n     * Must be set to 0x0 for production environments that use live time.\n     * @param _financialProductLibraryAddress Contract providing contract state transformations.\n     */\n    constructor(\n        uint256 _expirationTimestamp,\n        uint256 _withdrawalLiveness,\n        address _collateralAddress,\n        address _tokenAddress,\n        address _finderAddress,\n        bytes32 _priceIdentifier,\n        FixedPoint.Unsigned memory _minSponsorTokens,\n        address _timerAddress,\n        address _financialProductLibraryAddress,\n        address _externalVariableExpirationDAOAddress\n    ) public FeePayer(_collateralAddress, _finderAddress, _timerAddress) nonReentrant() {\n        require(_expirationTimestamp > getCurrentTime());\n        require(_getIdentifierWhitelist().isIdentifierSupported(_priceIdentifier));\n\n        expirationTimestamp = _expirationTimestamp;\n        withdrawalLiveness = _withdrawalLiveness;\n        tokenCurrency = ExpandedIERC20(_tokenAddress);\n        minSponsorTokens = _minSponsorTokens;\n        priceIdentifier = _priceIdentifier;\n        externalVariableExpirationDAOAddress = _externalVariableExpirationDAOAddress;\n\n        // Initialize the financialProductLibrary at the provided address.\n        financialProductLibrary = FinancialProductLibrary(_financialProductLibraryAddress);\n    }\n\n    /****************************************\n     *          POSITION FUNCTIONS          *\n     ****************************************/\n\n    /**\n     * @notice Requests to transfer ownership of the caller's current position to a new sponsor address.\n     * Once the request liveness is passed, the sponsor can execute the transfer and specify the new sponsor.\n     * @dev The liveness length is the same as the withdrawal liveness.\n     */\n    function requestTransferPosition() public onlyPreExpiration() nonReentrant() {\n        PositionData storage positionData = _getPositionData(msg.sender);\n        require(positionData.transferPositionRequestPassTimestamp == 0);\n\n        // Make sure the proposed expiration of this request is not post-expiry.\n        uint256 requestPassTime = getCurrentTime().add(withdrawalLiveness);\n        require(requestPassTime < expirationTimestamp);\n\n        // Update the position object for the user.\n        positionData.transferPositionRequestPassTimestamp = requestPassTime;\n\n        emit RequestTransferPosition(msg.sender);\n    }\n\n    /**\n     * @notice After a passed transfer position request (i.e., by a call to `requestTransferPosition` and waiting\n     * `withdrawalLiveness`), transfers ownership of the caller's current position to `newSponsorAddress`.\n     * @dev Transferring positions can only occur if the recipient does not already have a position.\n     * @param newSponsorAddress is the address to which the position will be transferred.\n     */\n    function transferPositionPassedRequest(address newSponsorAddress)\n        public\n        onlyPreExpiration()\n        noPendingWithdrawal(msg.sender)\n        nonReentrant()\n    {\n        require(\n            _getFeeAdjustedCollateral(positions[newSponsorAddress].rawCollateral).isEqual(\n                FixedPoint.fromUnscaledUint(0)\n            )\n        );\n        PositionData storage positionData = _getPositionData(msg.sender);\n        require(\n            positionData.transferPositionRequestPassTimestamp != 0 &&\n                positionData.transferPositionRequestPassTimestamp <= getCurrentTime()\n        );\n\n        // Reset transfer request.\n        positionData.transferPositionRequestPassTimestamp = 0;\n\n        positions[newSponsorAddress] = positionData;\n        delete positions[msg.sender];\n\n        emit RequestTransferPositionExecuted(msg.sender, newSponsorAddress);\n        emit NewSponsor(newSponsorAddress);\n        emit EndedSponsorPosition(msg.sender);\n    }\n\n    /**\n     * @notice Cancels a pending transfer position request.\n     */\n    function cancelTransferPosition() external onlyPreExpiration() nonReentrant() {\n        PositionData storage positionData = _getPositionData(msg.sender);\n        require(positionData.transferPositionRequestPassTimestamp != 0);\n\n        emit RequestTransferPositionCanceled(msg.sender);\n\n        // Reset withdrawal request.\n        positionData.transferPositionRequestPassTimestamp = 0;\n    }\n\n    /**\n     * @notice Transfers `collateralAmount` of `collateralCurrency` into the specified sponsor's position.\n     * @dev Increases the collateralization level of a position after creation. This contract must be approved to spend\n     * at least `collateralAmount` of `collateralCurrency`.\n     * @param sponsor the sponsor to credit the deposit to.\n     * @param collateralAmount total amount of collateral tokens to be sent to the sponsor's position.\n     */\n    function depositTo(address sponsor, FixedPoint.Unsigned memory collateralAmount)\n        public\n        onlyPreExpiration()\n        noPendingWithdrawal(sponsor)\n        fees()\n        nonReentrant()\n    {\n        require(collateralAmount.isGreaterThan(0));\n        PositionData storage positionData = _getPositionData(sponsor);\n\n        // Increase the position and global collateral balance by collateral amount.\n        _incrementCollateralBalances(positionData, collateralAmount);\n\n        emit Deposit(sponsor, collateralAmount.rawValue);\n\n        // Move collateral currency from sender to contract.\n        collateralCurrency.safeTransferFrom(msg.sender, address(this), collateralAmount.rawValue);\n    }\n\n    /**\n     * @notice Transfers `collateralAmount` of `collateralCurrency` into the caller's position.\n     * @dev Increases the collateralization level of a position after creation. This contract must be approved to spend\n     * at least `collateralAmount` of `collateralCurrency`.\n     * @param collateralAmount total amount of collateral tokens to be sent to the sponsor's position.\n     */\n    function deposit(FixedPoint.Unsigned memory collateralAmount) public {\n        // This is just a thin wrapper over depositTo that specified the sender as the sponsor.\n        depositTo(msg.sender, collateralAmount);\n    }\n\n    /**\n     * @notice Transfers `collateralAmount` of `collateralCurrency` from the sponsor's position to the sponsor.\n     * @dev Reverts if the withdrawal puts this position's collateralization ratio below the global collateralization\n     * ratio. In that case, use `requestWithdrawal`. Might not withdraw the full requested amount to account for precision loss.\n     * @param collateralAmount is the amount of collateral to withdraw.\n     * @return amountWithdrawn The actual amount of collateral withdrawn.\n     */\n    function withdraw(FixedPoint.Unsigned memory collateralAmount)\n        public\n        onlyPreExpiration()\n        noPendingWithdrawal(msg.sender)\n        fees()\n        nonReentrant()\n        returns (FixedPoint.Unsigned memory amountWithdrawn)\n    {\n        require(collateralAmount.isGreaterThan(0));\n        PositionData storage positionData = _getPositionData(msg.sender);\n\n        // Decrement the sponsor's collateral and global collateral amounts. Check the GCR between decrement to ensure\n        // position remains above the GCR within the withdrawal. If this is not the case the caller must submit a request.\n        amountWithdrawn = _decrementCollateralBalancesCheckGCR(positionData, collateralAmount);\n\n        emit Withdrawal(msg.sender, amountWithdrawn.rawValue);\n\n        // Move collateral currency from contract to sender.\n        // Note: that we move the amount of collateral that is decreased from rawCollateral (inclusive of fees)\n        // instead of the user requested amount. This eliminates precision loss that could occur\n        // where the user withdraws more collateral than rawCollateral is decremented by.\n        collateralCurrency.safeTransfer(msg.sender, amountWithdrawn.rawValue);\n    }\n\n    /**\n     * @notice Starts a withdrawal request that, if passed, allows the sponsor to withdraw` from their position.\n     * @dev The request will be pending for `withdrawalLiveness`, during which the position can be liquidated.\n     * @param collateralAmount the amount of collateral requested to withdraw\n     */\n    function requestWithdrawal(FixedPoint.Unsigned memory collateralAmount)\n        public\n        onlyPreExpiration()\n        noPendingWithdrawal(msg.sender)\n        nonReentrant()\n    {\n        PositionData storage positionData = _getPositionData(msg.sender);\n        require(\n            collateralAmount.isGreaterThan(0) &&\n                collateralAmount.isLessThanOrEqual(_getFeeAdjustedCollateral(positionData.rawCollateral))\n        );\n\n        // Make sure the proposed expiration of this request is not post-expiry.\n        uint256 requestPassTime = getCurrentTime().add(withdrawalLiveness);\n        require(requestPassTime < expirationTimestamp);\n\n        // Update the position object for the user.\n        positionData.withdrawalRequestPassTimestamp = requestPassTime;\n        positionData.withdrawalRequestAmount = collateralAmount;\n\n        emit RequestWithdrawal(msg.sender, collateralAmount.rawValue);\n    }\n\n    /**\n     * @notice After a passed withdrawal request (i.e., by a call to `requestWithdrawal` and waiting\n     * `withdrawalLiveness`), withdraws `positionData.withdrawalRequestAmount` of collateral currency.\n     * @dev Might not withdraw the full requested amount in order to account for precision loss or if the full requested\n     * amount exceeds the collateral in the position (due to paying fees).\n     * @return amountWithdrawn The actual amount of collateral withdrawn.\n     */\n    function withdrawPassedRequest()\n        external\n        onlyPreExpiration()\n        fees()\n        nonReentrant()\n        returns (FixedPoint.Unsigned memory amountWithdrawn)\n    {\n        PositionData storage positionData = _getPositionData(msg.sender);\n        require(\n            positionData.withdrawalRequestPassTimestamp != 0 &&\n                positionData.withdrawalRequestPassTimestamp <= getCurrentTime()\n        );\n\n        // If withdrawal request amount is > position collateral, then withdraw the full collateral amount.\n        // This situation is possible due to fees charged since the withdrawal was originally requested.\n        FixedPoint.Unsigned memory amountToWithdraw = positionData.withdrawalRequestAmount;\n        if (positionData.withdrawalRequestAmount.isGreaterThan(_getFeeAdjustedCollateral(positionData.rawCollateral))) {\n            amountToWithdraw = _getFeeAdjustedCollateral(positionData.rawCollateral);\n        }\n\n        // Decrement the sponsor's collateral and global collateral amounts.\n        amountWithdrawn = _decrementCollateralBalances(positionData, amountToWithdraw);\n\n        // Reset withdrawal request by setting withdrawal amount and withdrawal timestamp to 0.\n        _resetWithdrawalRequest(positionData);\n\n        // Transfer approved withdrawal amount from the contract to the caller.\n        collateralCurrency.safeTransfer(msg.sender, amountWithdrawn.rawValue);\n\n        emit RequestWithdrawalExecuted(msg.sender, amountWithdrawn.rawValue);\n    }\n\n    /**\n     * @notice Cancels a pending withdrawal request.\n     */\n    function cancelWithdrawal() external nonReentrant() {\n        PositionData storage positionData = _getPositionData(msg.sender);\n        require(positionData.withdrawalRequestPassTimestamp != 0);\n\n        emit RequestWithdrawalCanceled(msg.sender, positionData.withdrawalRequestAmount.rawValue);\n\n        // Reset withdrawal request by setting withdrawal amount and withdrawal timestamp to 0.\n        _resetWithdrawalRequest(positionData);\n    }\n\n    /**\n     * @notice Creates tokens by creating a new position or by augmenting an existing position. Pulls `collateralAmount` into the sponsor's position and mints `numTokens` of `tokenCurrency`.\n     * @dev Reverts if minting these tokens would put the position's collateralization ratio below the\n     * global collateralization ratio. This contract must be approved to spend at least `collateralAmount` of\n     * `collateralCurrency`.\n     * @dev This contract must have the Minter role for the `tokenCurrency`.\n     * @param collateralAmount is the number of collateral tokens to collateralize the position with\n     * @param numTokens is the number of tokens to mint from the position.\n     */\n    function create(FixedPoint.Unsigned memory collateralAmount, FixedPoint.Unsigned memory numTokens)\n        public\n        onlyPreExpiration()\n        fees()\n        nonReentrant()\n    {\n        PositionData storage positionData = positions[msg.sender];\n\n        // Either the new create ratio or the resultant position CR must be above the current GCR.\n        require(\n            (_checkCollateralization(\n                _getFeeAdjustedCollateral(positionData.rawCollateral).add(collateralAmount),\n                positionData.tokensOutstanding.add(numTokens)\n            ) || _checkCollateralization(collateralAmount, numTokens)),\n            \"Insufficient collateral\"\n        );\n\n        require(positionData.withdrawalRequestPassTimestamp == 0, \"Pending withdrawal\");\n        if (positionData.tokensOutstanding.isEqual(0)) {\n            require(numTokens.isGreaterThanOrEqual(minSponsorTokens), \"Below minimum sponsor position\");\n            emit NewSponsor(msg.sender);\n        }\n\n        // Increase the position and global collateral balance by collateral amount.\n        _incrementCollateralBalances(positionData, collateralAmount);\n\n        // Add the number of tokens created to the position's outstanding tokens.\n        positionData.tokensOutstanding = positionData.tokensOutstanding.add(numTokens);\n\n        totalTokensOutstanding = totalTokensOutstanding.add(numTokens);\n\n        emit PositionCreated(msg.sender, collateralAmount.rawValue, numTokens.rawValue);\n\n        // Transfer tokens into the contract from caller and mint corresponding synthetic tokens to the caller's address.\n        collateralCurrency.safeTransferFrom(msg.sender, address(this), collateralAmount.rawValue);\n        require(tokenCurrency.mint(msg.sender, numTokens.rawValue));\n    }\n\n    /**\n     * @notice Burns `numTokens` of `tokenCurrency` to decrease sponsors position size, without sending back `collateralCurrency`.\n     * This is done by a sponsor to increase position CR. Resulting size is bounded by minSponsorTokens.\n     * @dev Can only be called by token sponsor. This contract must be approved to spend `numTokens` of `tokenCurrency`.\n     * @dev This contract must have the Burner role for the `tokenCurrency`.\n     * @param numTokens is the number of tokens to be burnt from the sponsor's debt position.\n     */\n    function repay(FixedPoint.Unsigned memory numTokens)\n        public\n        onlyPreExpiration()\n        noPendingWithdrawal(msg.sender)\n        fees()\n        nonReentrant()\n    {\n        PositionData storage positionData = _getPositionData(msg.sender);\n        require(numTokens.isLessThanOrEqual(positionData.tokensOutstanding));\n\n        // Decrease the sponsors position tokens size. Ensure it is above the min sponsor size.\n        FixedPoint.Unsigned memory newTokenCount = positionData.tokensOutstanding.sub(numTokens);\n        require(newTokenCount.isGreaterThanOrEqual(minSponsorTokens));\n        positionData.tokensOutstanding = newTokenCount;\n\n        // Update the totalTokensOutstanding after redemption.\n        totalTokensOutstanding = totalTokensOutstanding.sub(numTokens);\n\n        emit Repay(msg.sender, numTokens.rawValue, newTokenCount.rawValue);\n\n        // Transfer the tokens back from the sponsor and burn them.\n        tokenCurrency.safeTransferFrom(msg.sender, address(this), numTokens.rawValue);\n        tokenCurrency.burn(numTokens.rawValue);\n    }\n\n    /**\n     * @notice Burns `numTokens` of `tokenCurrency` and sends back the proportional amount of `collateralCurrency`.\n     * @dev Can only be called by a token sponsor. Might not redeem the full proportional amount of collateral\n     * in order to account for precision loss. This contract must be approved to spend at least `numTokens` of\n     * `tokenCurrency`.\n     * @dev This contract must have the Burner role for the `tokenCurrency`.\n     * @param numTokens is the number of tokens to be burnt for a commensurate amount of collateral.\n     * @return amountWithdrawn The actual amount of collateral withdrawn.\n     */\n    function redeem(FixedPoint.Unsigned memory numTokens)\n        public\n        noPendingWithdrawal(msg.sender)\n        fees()\n        nonReentrant()\n        returns (FixedPoint.Unsigned memory amountWithdrawn)\n    {\n        PositionData storage positionData = _getPositionData(msg.sender);\n        require(!numTokens.isGreaterThan(positionData.tokensOutstanding));\n\n        FixedPoint.Unsigned memory fractionRedeemed = numTokens.div(positionData.tokensOutstanding);\n        FixedPoint.Unsigned memory collateralRedeemed =\n            fractionRedeemed.mul(_getFeeAdjustedCollateral(positionData.rawCollateral));\n\n        // If redemption returns all tokens the sponsor has then we can delete their position. Else, downsize.\n        if (positionData.tokensOutstanding.isEqual(numTokens)) {\n            amountWithdrawn = _deleteSponsorPosition(msg.sender);\n        } else {\n            // Decrement the sponsor's collateral and global collateral amounts.\n            amountWithdrawn = _decrementCollateralBalances(positionData, collateralRedeemed);\n\n            // Decrease the sponsors position tokens size. Ensure it is above the min sponsor size.\n            FixedPoint.Unsigned memory newTokenCount = positionData.tokensOutstanding.sub(numTokens);\n            require(newTokenCount.isGreaterThanOrEqual(minSponsorTokens), \"Below minimum sponsor position\");\n            positionData.tokensOutstanding = newTokenCount;\n\n            // Update the totalTokensOutstanding after redemption.\n            totalTokensOutstanding = totalTokensOutstanding.sub(numTokens);\n        }\n\n        emit Redeem(msg.sender, amountWithdrawn.rawValue, numTokens.rawValue);\n\n        // Transfer collateral from contract to caller and burn callers synthetic tokens.\n        collateralCurrency.safeTransfer(msg.sender, amountWithdrawn.rawValue);\n        tokenCurrency.safeTransferFrom(msg.sender, address(this), numTokens.rawValue);\n        tokenCurrency.burn(numTokens.rawValue);\n    }\n\n    /**\n     * @notice After a contract has passed expiry all token holders can redeem their tokens for underlying at the\n     * prevailing price defined by the DVM from the `expire` function.\n     * @dev This burns all tokens from the caller of `tokenCurrency` and sends back the proportional amount of\n     * `collateralCurrency`. Might not redeem the full proportional amount of collateral in order to account for\n     * precision loss. This contract must be approved to spend `tokenCurrency` at least up to the caller's full balance.\n     * @dev This contract must have the Burner role for the `tokenCurrency`.\n     * @return amountWithdrawn The actual amount of collateral withdrawn.\n     */\n    function settleExpired()\n        external\n        onlyPostExpiration()\n        fees()\n        nonReentrant()\n        returns (FixedPoint.Unsigned memory amountWithdrawn)\n    {\n        // If the contract state is open and onlyPostExpiration passed then `expire()` has not yet been called.\n        require(contractState != ContractState.Open, \"Unexpired position\");\n\n        // Get the current settlement price and store it. If it is not resolved will revert.\n        if (contractState != ContractState.ExpiredPriceReceived) {\n            expiryPrice = _getOraclePriceExpiration(expirationTimestamp);\n            contractState = ContractState.ExpiredPriceReceived;\n        }\n\n        // Get caller's tokens balance and calculate amount of underlying entitled to them.\n        FixedPoint.Unsigned memory tokensToRedeem = FixedPoint.Unsigned(tokenCurrency.balanceOf(msg.sender));\n        FixedPoint.Unsigned memory totalRedeemableCollateral = tokensToRedeem.mul(expiryPrice);\n\n        // If the caller is a sponsor with outstanding collateral they are also entitled to their excess collateral after their debt.\n        PositionData storage positionData = positions[msg.sender];\n        if (_getFeeAdjustedCollateral(positionData.rawCollateral).isGreaterThan(0)) {\n            // Calculate the underlying entitled to a token sponsor. This is collateral - debt in underlying.\n            FixedPoint.Unsigned memory tokenDebtValueInCollateral = positionData.tokensOutstanding.mul(expiryPrice);\n            FixedPoint.Unsigned memory positionCollateral = _getFeeAdjustedCollateral(positionData.rawCollateral);\n\n            // If the debt is greater than the remaining collateral, they cannot redeem anything.\n            FixedPoint.Unsigned memory positionRedeemableCollateral =\n                tokenDebtValueInCollateral.isLessThan(positionCollateral)\n                    ? positionCollateral.sub(tokenDebtValueInCollateral)\n                    : FixedPoint.Unsigned(0);\n\n            // Add the number of redeemable tokens for the sponsor to their total redeemable collateral.\n            totalRedeemableCollateral = totalRedeemableCollateral.add(positionRedeemableCollateral);\n\n            // Reset the position state as all the value has been removed after settlement.\n            delete positions[msg.sender];\n            emit EndedSponsorPosition(msg.sender);\n        }\n\n        // Take the min of the remaining collateral and the collateral \"owed\". If the contract is undercapitalized,\n        // the caller will get as much collateral as the contract can pay out.\n        FixedPoint.Unsigned memory payout =\n            FixedPoint.min(_getFeeAdjustedCollateral(rawTotalPositionCollateral), totalRedeemableCollateral);\n\n        // Decrement total contract collateral and outstanding debt.\n        amountWithdrawn = _removeCollateral(rawTotalPositionCollateral, payout);\n        totalTokensOutstanding = totalTokensOutstanding.sub(tokensToRedeem);\n\n        emit SettleExpiredPosition(msg.sender, amountWithdrawn.rawValue, tokensToRedeem.rawValue);\n\n        // Transfer tokens & collateral and burn the redeemed tokens.\n        collateralCurrency.safeTransfer(msg.sender, amountWithdrawn.rawValue);\n        tokenCurrency.safeTransferFrom(msg.sender, address(this), tokensToRedeem.rawValue);\n        tokenCurrency.burn(tokensToRedeem.rawValue);\n    }\n\n    /****************************************\n     *        GLOBAL STATE FUNCTIONS        *\n     ****************************************/\n\n    /**\n     * @notice Locks contract state in expired and requests oracle price.\n     * @dev this function can only be called once the contract is expired and can't be re-called.\n     */\n    function expire() external onlyPostExpiration() onlyOpenState() fees() nonReentrant() {\n        contractState = ContractState.ExpiredPriceRequested;\n\n        // Final fees do not need to be paid when sending a request to the optimistic oracle.\n        _requestOraclePriceExpiration(expirationTimestamp);\n\n        emit ContractExpired(msg.sender);\n    }\n\n    /**\n     * @notice Update DAO address under emergency circumstances\n     * @dev Only the governor or authorized DAO can call this function.\n     * The new DAOAddress will be authorized to expire the contract, and the old address will be deauthorized.\n     */\n    function emergencyUpdateDAOAddress(address DAOAddress) public {\n        require(msg.sender == _getFinancialContractsAdminAddress() || msg.sender == externalVariableExpirationDAOAddress, 'Caller must be the authorized DAO or the UMA governor');\n        updateTimestamp = getCurrentTime();\n        EmergencyUpdateDAOAddress(externalVariableExpirationDAOAddress, DAOAddress, updateTimestamp);\n        externalVariableExpirationDAOAddress = DAOAddress;\n    }\n\n    /**\n     * @notice Variable contract expiration under pre-defined circumstances.\n     * @dev Only the governor or authorized DAO can call this function.\n     * Upon variable shutdown, the contract settlement time is set to the shutdown time. This enables withdrawal\n     * to occur via the standard `settleExpired` function.\n     */\n    function variableExpiration(uint256 settlementPrice) external onlyPreExpiration() onlyOpenState() nonReentrant() {\n        require(msg.sender == _getFinancialContractsAdminAddress() || msg.sender == externalVariableExpirationDAOAddress, 'Caller must be the authorized DAO or the UMA governor');\n\n        contractState = ContractState.ExpiredPriceReceived;\n        // Expiratory time now becomes the current time (variable shutdown time).\n        // Price received at this time stamp. `settleExpired` can now withdraw at this timestamp.\n        uint256 oldExpirationTimestamp = expirationTimestamp;\n        expirationTimestamp = getCurrentTime();\n        //instead of requesting the oracle price, we set the price as provided by the DAO vote.\n        expiryPrice = FixedPoint.Unsigned(settlementPrice);\n\n        emit VariableExpiration(msg.sender, oldExpirationTimestamp, expirationTimestamp);\n    }\n\n    /**\n     * @notice Premature contract settlement under emergency circumstances.\n     * @dev Only the governor can call this function as they are permissioned within the `FinancialContractAdmin`.\n     * Upon emergency shutdown, the contract settlement time is set to the shutdown time. This enables withdrawal\n     * to occur via the standard `settleExpired` function. Contract state is set to `ExpiredPriceRequested`\n     * which prevents re-entry into this function or the `expire` function. No fees are paid when calling\n     * `emergencyShutdown` as the governor who would call the function would also receive the fees.\n     */\n    function emergencyShutdown() external override onlyPreExpiration() onlyOpenState() nonReentrant() {\n        require(msg.sender == _getFinancialContractsAdminAddress());\n\n        contractState = ContractState.ExpiredPriceRequested;\n        // Expiratory time now becomes the current time (emergency shutdown time).\n        // Price requested at this time stamp. `settleExpired` can now withdraw at this timestamp.\n        uint256 oldExpirationTimestamp = expirationTimestamp;\n        expirationTimestamp = getCurrentTime();\n        _requestOraclePriceExpiration(expirationTimestamp);\n\n        emit EmergencyShutdown(msg.sender, oldExpirationTimestamp, expirationTimestamp);\n    }\n\n    /**\n     * @notice Theoretically supposed to pay fees and move money between margin accounts to make sure they\n     * reflect the NAV of the contract. However, this functionality doesn't apply to this contract.\n     * @dev This is supposed to be implemented by any contract that inherits `AdministrateeInterface` and callable\n     * only by the Governor contract. This method is therefore minimally implemented in this contract and does nothing.\n     */\n    function remargin() external override onlyPreExpiration() nonReentrant() {\n        return;\n    }\n\n    /**\n     * @notice Accessor method for a sponsor's collateral.\n     * @dev This is necessary because the struct returned by the positions() method shows\n     * rawCollateral, which isn't a user-readable value.\n     * @dev This method accounts for pending regular fees that have not yet been withdrawn from this contract, for\n     * example if the `lastPaymentTime != currentTime`.\n     * @param sponsor address whose collateral amount is retrieved.\n     * @return collateralAmount amount of collateral within a sponsors position.\n     */\n    function getCollateral(address sponsor) external view nonReentrantView() returns (FixedPoint.Unsigned memory) {\n        // Note: do a direct access to avoid the validity check.\n        return _getPendingRegularFeeAdjustedCollateral(_getFeeAdjustedCollateral(positions[sponsor].rawCollateral));\n    }\n\n    /**\n     * @notice Accessor method for the total collateral stored within the PricelessPositionManager.\n     * @return totalCollateral amount of all collateral within the Expiring Multi Party Contract.\n     * @dev This method accounts for pending regular fees that have not yet been withdrawn from this contract, for\n     * example if the `lastPaymentTime != currentTime`.\n     */\n    function totalPositionCollateral() external view nonReentrantView() returns (FixedPoint.Unsigned memory) {\n        return _getPendingRegularFeeAdjustedCollateral(_getFeeAdjustedCollateral(rawTotalPositionCollateral));\n    }\n\n    /**\n     * @notice Accessor method to compute a transformed price using the finanicalProductLibrary specified at contract\n     * deployment. If no library was provided then no modification to the price is done.\n     * @param price input price to be transformed.\n     * @param requestTime timestamp the oraclePrice was requested at.\n     * @return transformedPrice price with the transformation function applied to it.\n     * @dev This method should never revert.\n     */\n\n    function transformPrice(FixedPoint.Unsigned memory price, uint256 requestTime)\n        public\n        view\n        nonReentrantView()\n        returns (FixedPoint.Unsigned memory)\n    {\n        return _transformPrice(price, requestTime);\n    }\n\n    /**\n     * @notice Accessor method to compute a transformed price identifier using the finanicalProductLibrary specified\n     * at contract deployment. If no library was provided then no modification to the identifier is done.\n     * @param requestTime timestamp the identifier is to be used at.\n     * @return transformedPrice price with the transformation function applied to it.\n     * @dev This method should never revert.\n     */\n    function transformPriceIdentifier(uint256 requestTime) public view nonReentrantView() returns (bytes32) {\n        return _transformPriceIdentifier(requestTime);\n    }\n\n    /****************************************\n     *          INTERNAL FUNCTIONS          *\n     ****************************************/\n\n    // Reduces a sponsor's position and global counters by the specified parameters. Handles deleting the entire\n    // position if the entire position is being removed. Does not make any external transfers.\n    function _reduceSponsorPosition(\n        address sponsor,\n        FixedPoint.Unsigned memory tokensToRemove,\n        FixedPoint.Unsigned memory collateralToRemove,\n        FixedPoint.Unsigned memory withdrawalAmountToRemove\n    ) internal {\n        PositionData storage positionData = _getPositionData(sponsor);\n\n        // If the entire position is being removed, delete it instead.\n        if (\n            tokensToRemove.isEqual(positionData.tokensOutstanding) &&\n            _getFeeAdjustedCollateral(positionData.rawCollateral).isEqual(collateralToRemove)\n        ) {\n            _deleteSponsorPosition(sponsor);\n            return;\n        }\n\n        // Decrement the sponsor's collateral and global collateral amounts.\n        _decrementCollateralBalances(positionData, collateralToRemove);\n\n        // Ensure that the sponsor will meet the min position size after the reduction.\n        FixedPoint.Unsigned memory newTokenCount = positionData.tokensOutstanding.sub(tokensToRemove);\n        require(newTokenCount.isGreaterThanOrEqual(minSponsorTokens), \"Below minimum sponsor position\");\n        positionData.tokensOutstanding = newTokenCount;\n\n        // Decrement the position's withdrawal amount.\n        positionData.withdrawalRequestAmount = positionData.withdrawalRequestAmount.sub(withdrawalAmountToRemove);\n\n        // Decrement the total outstanding tokens in the overall contract.\n        totalTokensOutstanding = totalTokensOutstanding.sub(tokensToRemove);\n    }\n\n    // Deletes a sponsor's position and updates global counters. Does not make any external transfers.\n    function _deleteSponsorPosition(address sponsor) internal returns (FixedPoint.Unsigned memory) {\n        PositionData storage positionToLiquidate = _getPositionData(sponsor);\n\n        FixedPoint.Unsigned memory startingGlobalCollateral = _getFeeAdjustedCollateral(rawTotalPositionCollateral);\n\n        // Remove the collateral and outstanding from the overall total position.\n        FixedPoint.Unsigned memory remainingRawCollateral = positionToLiquidate.rawCollateral;\n        rawTotalPositionCollateral = rawTotalPositionCollateral.sub(remainingRawCollateral);\n        totalTokensOutstanding = totalTokensOutstanding.sub(positionToLiquidate.tokensOutstanding);\n\n        // Reset the sponsors position to have zero outstanding and collateral.\n        delete positions[sponsor];\n\n        emit EndedSponsorPosition(sponsor);\n\n        // Return fee-adjusted amount of collateral deleted from position.\n        return startingGlobalCollateral.sub(_getFeeAdjustedCollateral(rawTotalPositionCollateral));\n    }\n\n    function _pfc() internal view virtual override returns (FixedPoint.Unsigned memory) {\n        return _getFeeAdjustedCollateral(rawTotalPositionCollateral);\n    }\n\n    function _getPositionData(address sponsor)\n        internal\n        view\n        onlyCollateralizedPosition(sponsor)\n        returns (PositionData storage)\n    {\n        return positions[sponsor];\n    }\n\n    function _getIdentifierWhitelist() internal view returns (IdentifierWhitelistInterface) {\n        return IdentifierWhitelistInterface(finder.getImplementationAddress(OracleInterfaces.IdentifierWhitelist));\n    }\n\n    function _getOracle() internal view returns (OracleInterface) {\n        return OracleInterface(finder.getImplementationAddress(OracleInterfaces.Oracle));\n    }\n\n    function _getOptimisticOracle() internal view returns (OptimisticOracleInterface) {\n        return OptimisticOracleInterface(finder.getImplementationAddress(OracleInterfaces.OptimisticOracle));\n    }\n\n    function _getFinancialContractsAdminAddress() internal view returns (address) {\n        return finder.getImplementationAddress(OracleInterfaces.FinancialContractsAdmin);\n    }\n\n    // Requests a price for transformed `priceIdentifier` at `requestedTime` from the Oracle.\n    function _requestOraclePriceExpiration(uint256 requestedTime) internal {\n        OptimisticOracleInterface optimisticOracle = _getOptimisticOracle();\n\n        // Increase token allowance to enable the optimistic oracle reward transfer.\n        FixedPoint.Unsigned memory reward = _computeFinalFees();\n        collateralCurrency.safeIncreaseAllowance(address(optimisticOracle), reward.rawValue);\n        optimisticOracle.requestPrice(\n            _transformPriceIdentifier(requestedTime),\n            requestedTime,\n            _getAncillaryData(),\n            collateralCurrency,\n            reward.rawValue // Reward is equal to the final fee\n        );\n\n        // Apply haircut to all sponsors by decrementing the cumlativeFeeMultiplier by the amount lost from the final fee.\n        _adjustCumulativeFeeMultiplier(reward, _pfc());\n    }\n\n    // Fetches a resolved Oracle price from the Oracle. Reverts if the Oracle hasn't resolved for this request.\n    function _getOraclePriceExpiration(uint256 requestedTime) internal returns (FixedPoint.Unsigned memory) {\n        // Create an instance of the oracle and get the price. If the price is not resolved revert.\n        OptimisticOracleInterface optimisticOracle = _getOptimisticOracle();\n        require(\n            optimisticOracle.hasPrice(\n                address(this),\n                _transformPriceIdentifier(requestedTime),\n                requestedTime,\n                _getAncillaryData()\n            )\n        );\n        int256 optimisticOraclePrice =\n            optimisticOracle.settleAndGetPrice(\n                _transformPriceIdentifier(requestedTime),\n                requestedTime,\n                _getAncillaryData()\n            );\n\n        // For now we don't want to deal with negative prices in positions.\n        if (optimisticOraclePrice < 0) {\n            optimisticOraclePrice = 0;\n        }\n        return _transformPrice(FixedPoint.Unsigned(uint256(optimisticOraclePrice)), requestedTime);\n    }\n\n    // Requests a price for transformed `priceIdentifier` at `requestedTime` from the Oracle.\n    function _requestOraclePriceLiquidation(uint256 requestedTime) internal {\n        OracleInterface oracle = _getOracle();\n        oracle.requestPrice(_transformPriceIdentifier(requestedTime), requestedTime);\n    }\n\n    // Fetches a resolved Oracle price from the Oracle. Reverts if the Oracle hasn't resolved for this request.\n    function _getOraclePriceLiquidation(uint256 requestedTime) internal view returns (FixedPoint.Unsigned memory) {\n        // Create an instance of the oracle and get the price. If the price is not resolved revert.\n        OracleInterface oracle = _getOracle();\n        require(oracle.hasPrice(_transformPriceIdentifier(requestedTime), requestedTime), \"Unresolved oracle price\");\n        int256 oraclePrice = oracle.getPrice(_transformPriceIdentifier(requestedTime), requestedTime);\n\n        // For now we don't want to deal with negative prices in positions.\n        if (oraclePrice < 0) {\n            oraclePrice = 0;\n        }\n        return _transformPrice(FixedPoint.Unsigned(uint256(oraclePrice)), requestedTime);\n    }\n\n    // Reset withdrawal request by setting the withdrawal request and withdrawal timestamp to 0.\n    function _resetWithdrawalRequest(PositionData storage positionData) internal {\n        positionData.withdrawalRequestAmount = FixedPoint.fromUnscaledUint(0);\n        positionData.withdrawalRequestPassTimestamp = 0;\n    }\n\n    // Ensure individual and global consistency when increasing collateral balances. Returns the change to the position.\n    function _incrementCollateralBalances(\n        PositionData storage positionData,\n        FixedPoint.Unsigned memory collateralAmount\n    ) internal returns (FixedPoint.Unsigned memory) {\n        _addCollateral(positionData.rawCollateral, collateralAmount);\n        return _addCollateral(rawTotalPositionCollateral, collateralAmount);\n    }\n\n    // Ensure individual and global consistency when decrementing collateral balances. Returns the change to the\n    // position. We elect to return the amount that the global collateral is decreased by, rather than the individual\n    // position's collateral, because we need to maintain the invariant that the global collateral is always\n    // <= the collateral owned by the contract to avoid reverts on withdrawals. The amount returned = amount withdrawn.\n    function _decrementCollateralBalances(\n        PositionData storage positionData,\n        FixedPoint.Unsigned memory collateralAmount\n    ) internal returns (FixedPoint.Unsigned memory) {\n        _removeCollateral(positionData.rawCollateral, collateralAmount);\n        return _removeCollateral(rawTotalPositionCollateral, collateralAmount);\n    }\n\n    // Ensure individual and global consistency when decrementing collateral balances. Returns the change to the position.\n    // This function is similar to the _decrementCollateralBalances function except this function checks position GCR\n    // between the decrements. This ensures that collateral removal will not leave the position undercollateralized.\n    function _decrementCollateralBalancesCheckGCR(\n        PositionData storage positionData,\n        FixedPoint.Unsigned memory collateralAmount\n    ) internal returns (FixedPoint.Unsigned memory) {\n        _removeCollateral(positionData.rawCollateral, collateralAmount);\n        require(_checkPositionCollateralization(positionData), \"CR below GCR\");\n        return _removeCollateral(rawTotalPositionCollateral, collateralAmount);\n    }\n\n    // These internal functions are supposed to act identically to modifiers, but re-used modifiers\n    // unnecessarily increase contract bytecode size.\n    // source: https://blog.polymath.network/solidity-tips-and-tricks-to-save-gas-and-reduce-bytecode-size-c44580b218e6\n    function _onlyOpenState() internal view {\n        require(contractState == ContractState.Open, \"Contract state is not OPEN\");\n    }\n\n    function _onlyPreExpiration() internal view {\n        require(getCurrentTime() < expirationTimestamp, \"Only callable pre-expiry\");\n    }\n\n    function _onlyPostExpiration() internal view {\n        require(getCurrentTime() >= expirationTimestamp, \"Only callable post-expiry\");\n    }\n\n    function _onlyCollateralizedPosition(address sponsor) internal view {\n        require(\n            _getFeeAdjustedCollateral(positions[sponsor].rawCollateral).isGreaterThan(0),\n            \"Position has no collateral\"\n        );\n    }\n\n    // Note: This checks whether an already existing position has a pending withdrawal. This cannot be used on the\n    // `create` method because it is possible that `create` is called on a new position (i.e. one without any collateral\n    // or tokens outstanding) which would fail the `onlyCollateralizedPosition` modifier on `_getPositionData`.\n    function _positionHasNoPendingWithdrawal(address sponsor) internal view {\n        require(_getPositionData(sponsor).withdrawalRequestPassTimestamp == 0, \"Pending withdrawal\");\n    }\n\n    /****************************************\n     *          PRIVATE FUNCTIONS          *\n     ****************************************/\n\n    function _checkPositionCollateralization(PositionData storage positionData) private view returns (bool) {\n        return\n            _checkCollateralization(\n                _getFeeAdjustedCollateral(positionData.rawCollateral),\n                positionData.tokensOutstanding\n            );\n    }\n\n    // Checks whether the provided `collateral` and `numTokens` have a collateralization ratio above the global\n    // collateralization ratio.\n    function _checkCollateralization(FixedPoint.Unsigned memory collateral, FixedPoint.Unsigned memory numTokens)\n        private\n        view\n        returns (bool)\n    {\n        FixedPoint.Unsigned memory global =\n            _getCollateralizationRatio(_getFeeAdjustedCollateral(rawTotalPositionCollateral), totalTokensOutstanding);\n        FixedPoint.Unsigned memory thisChange = _getCollateralizationRatio(collateral, numTokens);\n        return !global.isGreaterThan(thisChange);\n    }\n\n    function _getCollateralizationRatio(FixedPoint.Unsigned memory collateral, FixedPoint.Unsigned memory numTokens)\n        private\n        pure\n        returns (FixedPoint.Unsigned memory ratio)\n    {\n        if (!numTokens.isGreaterThan(0)) {\n            return FixedPoint.fromUnscaledUint(0);\n        } else {\n            return collateral.div(numTokens);\n        }\n    }\n\n    // IERC20Standard.decimals() will revert if the collateral contract has not implemented the decimals() method,\n    // which is possible since the method is only an OPTIONAL method in the ERC20 standard:\n    // https://eips.ethereum.org/EIPS/eip-20#methods.\n    function _getSyntheticDecimals(address _collateralAddress) public view returns (uint8 decimals) {\n        try IERC20Standard(_collateralAddress).decimals() returns (uint8 _decimals) {\n            return _decimals;\n        } catch {\n            return 18;\n        }\n    }\n\n    function _transformPrice(FixedPoint.Unsigned memory price, uint256 requestTime)\n        internal\n        view\n        returns (FixedPoint.Unsigned memory)\n    {\n        if (!address(financialProductLibrary).isContract()) return price;\n        try financialProductLibrary.transformPrice(price, requestTime) returns (\n            FixedPoint.Unsigned memory transformedPrice\n        ) {\n            return transformedPrice;\n        } catch {\n            return price;\n        }\n    }\n\n    function _transformPriceIdentifier(uint256 requestTime) internal view returns (bytes32) {\n        if (!address(financialProductLibrary).isContract()) return priceIdentifier;\n        try financialProductLibrary.transformPriceIdentifier(priceIdentifier, requestTime) returns (\n            bytes32 transformedIdentifier\n        ) {\n            return transformedIdentifier;\n        } catch {\n            return priceIdentifier;\n        }\n    }\n\n    function _getAncillaryData() internal view returns (bytes memory) {\n        // Note: when ancillary data is passed to the optimistic oracle, it should be tagged with the token address\n        // whose funding rate it's trying to get.\n        return abi.encodePacked(address(tokenCurrency));\n    }\n}\n",
  "sourcePath": "/Users/meir/Desktop/prelaunch/variable-expiring-multiparty/contracts/PricelessPositionManager.sol",
  "compiler": {
    "name": "solc",
    "version": "0.6.12+commit.27d51765.Emscripten.clang"
  },
  "schemaVersion": "3.4.0",
  "updatedAt": "2021-04-26T04:04:51.401Z",
  "devdoc": {
    "kind": "dev",
    "methods": {
      "constructor": {
        "details": "Deployer of this contract should consider carefully which parties have ability to mint and burn the synthetic tokens referenced by `_tokenAddress`. This contract's security assumes that no external accounts can mint new tokens, which could be used to steal all of this contract's locked collateral. We recommend to only use synthetic token contracts whose sole Owner role (the role capable of adding & removing roles) is assigned to this contract, whose sole Minter role is assigned to this contract, and whose total supply is 0 prior to construction of this contract.",
        "params": {
          "_collateralAddress": "ERC20 token used as collateral for all positions.",
          "_expirationTimestamp": "unix timestamp of when the contract will expire.",
          "_financialProductLibraryAddress": "Contract providing contract state transformations.",
          "_finderAddress": "UMA protocol Finder used to discover other protocol contracts.",
          "_minSponsorTokens": "minimum amount of collateral that must exist at any time in a position.",
          "_priceIdentifier": "registered in the DVM for the synthetic.",
          "_timerAddress": "Contract that stores the current time in a testing environment. Must be set to 0x0 for production environments that use live time.",
          "_tokenAddress": "ERC20 token used as synthetic token.",
          "_withdrawalLiveness": "liveness delay, in seconds, for pending withdrawals."
        }
      },
      "create((uint256),(uint256))": {
        "details": "Reverts if minting these tokens would put the position's collateralization ratio below the global collateralization ratio. This contract must be approved to spend at least `collateralAmount` of `collateralCurrency`.This contract must have the Minter role for the `tokenCurrency`.",
        "params": {
          "collateralAmount": "is the number of collateral tokens to collateralize the position with",
          "numTokens": "is the number of tokens to mint from the position."
        }
      },
      "deposit((uint256))": {
        "details": "Increases the collateralization level of a position after creation. This contract must be approved to spend at least `collateralAmount` of `collateralCurrency`.",
        "params": {
          "collateralAmount": "total amount of collateral tokens to be sent to the sponsor's position."
        }
      },
      "depositTo(address,(uint256))": {
        "details": "Increases the collateralization level of a position after creation. This contract must be approved to spend at least `collateralAmount` of `collateralCurrency`.",
        "params": {
          "collateralAmount": "total amount of collateral tokens to be sent to the sponsor's position.",
          "sponsor": "the sponsor to credit the deposit to."
        }
      },
      "emergencyShutdown()": {
        "details": "Only the governor can call this function as they are permissioned within the `FinancialContractAdmin`. Upon emergency shutdown, the contract settlement time is set to the shutdown time. This enables withdrawal to occur via the standard `settleExpired` function. Contract state is set to `ExpiredPriceRequested` which prevents re-entry into this function or the `expire` function. No fees are paid when calling `emergencyShutdown` as the governor who would call the function would also receive the fees."
      },
      "emergencyUpdateDAOAddress(address)": {
        "details": "Only the governor or authorized DAO can call this function. The new DAOAddress will be authorized to expire the contract, and the old address will be deauthorized."
      },
      "expire()": {
        "details": "this function can only be called once the contract is expired and can't be re-called."
      },
      "getCollateral(address)": {
        "details": "This is necessary because the struct returned by the positions() method shows rawCollateral, which isn't a user-readable value.This method accounts for pending regular fees that have not yet been withdrawn from this contract, for example if the `lastPaymentTime != currentTime`.",
        "params": {
          "sponsor": "address whose collateral amount is retrieved."
        },
        "returns": {
          "_0": "collateralAmount amount of collateral within a sponsors position."
        }
      },
      "getCurrentTime()": {
        "returns": {
          "_0": "uint for the current Testable timestamp."
        }
      },
      "getOutstandingRegularFees(uint256)": {
        "details": "This returns 0 and exit early if there is no pfc, fees were already paid during the current block, or the fee rate is 0.",
        "returns": {
          "latePenalty": "outstanding unpaid late fee for being late in previous fee payments.",
          "regularFee": "outstanding unpaid regular fee.",
          "totalPaid": "Amount of collateral that the contract paid (sum of the amount paid to the Store and caller)."
        }
      },
      "gulp()": {
        "details": "Multiplying the `cumulativeFeeMultiplier` by the ratio of non-PfC-collateral :: PfC-collateral effectively pays all sponsors a pro-rata portion of the excess collateral.This will revert if PfC is 0 and this contract's collateral balance > 0."
      },
      "payRegularFees()": {
        "details": "These must be paid periodically for the life of the contract. If the contract has not paid its regular fee in a week or more then a late penalty is applied which is sent to the caller. If the amount of fees owed are greater than the pfc, then this will pay as much as possible from the available collateral. An event is only fired if the fees charged are greater than 0.",
        "returns": {
          "_0": "totalPaid Amount of collateral that the contract paid (sum of the amount paid to the Store and caller). This returns 0 and exit early if there is no pfc, fees were already paid during the current block, or the fee rate is 0."
        }
      },
      "pfc()": {
        "details": "This is equivalent to the collateral pool available from which to pay fees. Therefore, derived contracts are expected to implement this so that pay-fee methods can correctly compute the owed fees as a % of PfC.",
        "returns": {
          "_0": "pfc value for equal to the current profit from corruption denominated in collateral currency."
        }
      },
      "redeem((uint256))": {
        "details": "Can only be called by a token sponsor. Might not redeem the full proportional amount of collateral in order to account for precision loss. This contract must be approved to spend at least `numTokens` of `tokenCurrency`.This contract must have the Burner role for the `tokenCurrency`.",
        "params": {
          "numTokens": "is the number of tokens to be burnt for a commensurate amount of collateral."
        },
        "returns": {
          "amountWithdrawn": "The actual amount of collateral withdrawn."
        }
      },
      "remargin()": {
        "details": "This is supposed to be implemented by any contract that inherits `AdministrateeInterface` and callable only by the Governor contract. This method is therefore minimally implemented in this contract and does nothing."
      },
      "repay((uint256))": {
        "details": "Can only be called by token sponsor. This contract must be approved to spend `numTokens` of `tokenCurrency`.This contract must have the Burner role for the `tokenCurrency`.",
        "params": {
          "numTokens": "is the number of tokens to be burnt from the sponsor's debt position."
        }
      },
      "requestTransferPosition()": {
        "details": "The liveness length is the same as the withdrawal liveness."
      },
      "requestWithdrawal((uint256))": {
        "details": "The request will be pending for `withdrawalLiveness`, during which the position can be liquidated.",
        "params": {
          "collateralAmount": "the amount of collateral requested to withdraw"
        }
      },
      "setCurrentTime(uint256)": {
        "details": "Will revert if not running in test mode.",
        "params": {
          "time": "timestamp to set current Testable time to."
        }
      },
      "settleExpired()": {
        "details": "This burns all tokens from the caller of `tokenCurrency` and sends back the proportional amount of `collateralCurrency`. Might not redeem the full proportional amount of collateral in order to account for precision loss. This contract must be approved to spend `tokenCurrency` at least up to the caller's full balance.This contract must have the Burner role for the `tokenCurrency`.",
        "returns": {
          "amountWithdrawn": "The actual amount of collateral withdrawn."
        }
      },
      "totalPositionCollateral()": {
        "details": "This method accounts for pending regular fees that have not yet been withdrawn from this contract, for example if the `lastPaymentTime != currentTime`.",
        "returns": {
          "_0": "totalCollateral amount of all collateral within the Expiring Multi Party Contract."
        }
      },
      "transferPositionPassedRequest(address)": {
        "details": "Transferring positions can only occur if the recipient does not already have a position.",
        "params": {
          "newSponsorAddress": "is the address to which the position will be transferred."
        }
      },
      "transformPrice((uint256),uint256)": {
        "details": "This method should never revert.",
        "params": {
          "price": "input price to be transformed.",
          "requestTime": "timestamp the oraclePrice was requested at."
        },
        "returns": {
          "_0": "transformedPrice price with the transformation function applied to it."
        }
      },
      "transformPriceIdentifier(uint256)": {
        "details": "This method should never revert.",
        "params": {
          "requestTime": "timestamp the identifier is to be used at."
        },
        "returns": {
          "_0": "transformedPrice price with the transformation function applied to it."
        }
      },
      "variableExpiration(uint256)": {
        "details": "Only the governor or authorized DAO can call this function. Upon variable shutdown, the contract settlement time is set to the shutdown time. This enables withdrawal to occur via the standard `settleExpired` function."
      },
      "withdraw((uint256))": {
        "details": "Reverts if the withdrawal puts this position's collateralization ratio below the global collateralization ratio. In that case, use `requestWithdrawal`. Might not withdraw the full requested amount to account for precision loss.",
        "params": {
          "collateralAmount": "is the amount of collateral to withdraw."
        },
        "returns": {
          "amountWithdrawn": "The actual amount of collateral withdrawn."
        }
      },
      "withdrawPassedRequest()": {
        "details": "Might not withdraw the full requested amount in order to account for precision loss or if the full requested amount exceeds the collateral in the position (due to paying fees).",
        "returns": {
          "amountWithdrawn": "The actual amount of collateral withdrawn."
        }
      }
    },
    "title": "Financial contract with priceless position management.",
    "version": 1
  },
  "userdoc": {
    "kind": "user",
    "methods": {
      "cancelTransferPosition()": {
        "notice": "Cancels a pending transfer position request."
      },
      "cancelWithdrawal()": {
        "notice": "Cancels a pending withdrawal request."
      },
      "constructor": "Construct the PricelessPositionManager",
      "create((uint256),(uint256))": {
        "notice": "Creates tokens by creating a new position or by augmenting an existing position. Pulls `collateralAmount` into the sponsor's position and mints `numTokens` of `tokenCurrency`."
      },
      "deposit((uint256))": {
        "notice": "Transfers `collateralAmount` of `collateralCurrency` into the caller's position."
      },
      "depositTo(address,(uint256))": {
        "notice": "Transfers `collateralAmount` of `collateralCurrency` into the specified sponsor's position."
      },
      "emergencyShutdown()": {
        "notice": "Premature contract settlement under emergency circumstances."
      },
      "emergencyUpdateDAOAddress(address)": {
        "notice": "Update DAO address under emergency circumstances"
      },
      "expire()": {
        "notice": "Locks contract state in expired and requests oracle price."
      },
      "getCollateral(address)": {
        "notice": "Accessor method for a sponsor's collateral."
      },
      "getCurrentTime()": {
        "notice": "Gets the current time. Will return the last time set in `setCurrentTime` if running in test mode. Otherwise, it will return the block timestamp."
      },
      "getOutstandingRegularFees(uint256)": {
        "notice": "Fetch any regular fees that the contract has pending but has not yet paid. If the fees to be paid are more than the total collateral within the contract then the totalPaid returned is full contract collateral amount."
      },
      "gulp()": {
        "notice": "Removes excess collateral balance not counted in the PfC by distributing it out pro-rata to all sponsors."
      },
      "payRegularFees()": {
        "notice": "Pays UMA DVM regular fees (as a % of the collateral pool) to the Store contract."
      },
      "pfc()": {
        "notice": "Gets the current profit from corruption for this contract in terms of the collateral currency."
      },
      "redeem((uint256))": {
        "notice": "Burns `numTokens` of `tokenCurrency` and sends back the proportional amount of `collateralCurrency`."
      },
      "remargin()": {
        "notice": "Theoretically supposed to pay fees and move money between margin accounts to make sure they reflect the NAV of the contract. However, this functionality doesn't apply to this contract."
      },
      "repay((uint256))": {
        "notice": "Burns `numTokens` of `tokenCurrency` to decrease sponsors position size, without sending back `collateralCurrency`. This is done by a sponsor to increase position CR. Resulting size is bounded by minSponsorTokens."
      },
      "requestTransferPosition()": {
        "notice": "Requests to transfer ownership of the caller's current position to a new sponsor address. Once the request liveness is passed, the sponsor can execute the transfer and specify the new sponsor."
      },
      "requestWithdrawal((uint256))": {
        "notice": "Starts a withdrawal request that, if passed, allows the sponsor to withdraw` from their position."
      },
      "setCurrentTime(uint256)": {
        "notice": "Sets the current time."
      },
      "settleExpired()": {
        "notice": "After a contract has passed expiry all token holders can redeem their tokens for underlying at the prevailing price defined by the DVM from the `expire` function."
      },
      "totalPositionCollateral()": {
        "notice": "Accessor method for the total collateral stored within the PricelessPositionManager."
      },
      "transferPositionPassedRequest(address)": {
        "notice": "After a passed transfer position request (i.e., by a call to `requestTransferPosition` and waiting `withdrawalLiveness`), transfers ownership of the caller's current position to `newSponsorAddress`."
      },
      "transformPrice((uint256),uint256)": {
        "notice": "Accessor method to compute a transformed price using the finanicalProductLibrary specified at contract deployment. If no library was provided then no modification to the price is done."
      },
      "transformPriceIdentifier(uint256)": {
        "notice": "Accessor method to compute a transformed price identifier using the finanicalProductLibrary specified at contract deployment. If no library was provided then no modification to the identifier is done."
      },
      "variableExpiration(uint256)": {
        "notice": "Variable contract expiration under pre-defined circumstances."
      },
      "withdraw((uint256))": {
        "notice": "Transfers `collateralAmount` of `collateralCurrency` from the sponsor's position to the sponsor."
      },
      "withdrawPassedRequest()": {
        "notice": "After a passed withdrawal request (i.e., by a call to `requestWithdrawal` and waiting `withdrawalLiveness`), withdraws `positionData.withdrawalRequestAmount` of collateral currency."
      }
    },
    "notice": "Handles positions for multiple sponsors in an optimistic (i.e., priceless) way without relying on a price feed. On construction, deploys a new ERC20, managed by this contract, that is the synthetic token.",
    "version": 1
  }
}