{
  "contractName": "Registry",
  "abi": [
    {
      "inputs": [],
      "stateMutability": "nonpayable",
      "type": "constructor"
    },
    {
      "anonymous": false,
      "inputs": [
        {
          "indexed": true,
          "internalType": "uint256",
          "name": "roleId",
          "type": "uint256"
        },
        {
          "indexed": true,
          "internalType": "address",
          "name": "newMember",
          "type": "address"
        },
        {
          "indexed": true,
          "internalType": "address",
          "name": "manager",
          "type": "address"
        }
      ],
      "name": "AddedSharedMember",
      "type": "event"
    },
    {
      "anonymous": false,
      "inputs": [
        {
          "indexed": true,
          "internalType": "address",
          "name": "contractAddress",
          "type": "address"
        },
        {
          "indexed": true,
          "internalType": "address",
          "name": "creator",
          "type": "address"
        },
        {
          "indexed": false,
          "internalType": "address[]",
          "name": "parties",
          "type": "address[]"
        }
      ],
      "name": "NewContractRegistered",
      "type": "event"
    },
    {
      "anonymous": false,
      "inputs": [
        {
          "indexed": true,
          "internalType": "address",
          "name": "contractAddress",
          "type": "address"
        },
        {
          "indexed": true,
          "internalType": "address",
          "name": "party",
          "type": "address"
        }
      ],
      "name": "PartyAdded",
      "type": "event"
    },
    {
      "anonymous": false,
      "inputs": [
        {
          "indexed": true,
          "internalType": "address",
          "name": "contractAddress",
          "type": "address"
        },
        {
          "indexed": true,
          "internalType": "address",
          "name": "party",
          "type": "address"
        }
      ],
      "name": "PartyRemoved",
      "type": "event"
    },
    {
      "anonymous": false,
      "inputs": [
        {
          "indexed": true,
          "internalType": "uint256",
          "name": "roleId",
          "type": "uint256"
        },
        {
          "indexed": true,
          "internalType": "address",
          "name": "oldMember",
          "type": "address"
        },
        {
          "indexed": true,
          "internalType": "address",
          "name": "manager",
          "type": "address"
        }
      ],
      "name": "RemovedSharedMember",
      "type": "event"
    },
    {
      "anonymous": false,
      "inputs": [
        {
          "indexed": true,
          "internalType": "uint256",
          "name": "roleId",
          "type": "uint256"
        },
        {
          "indexed": true,
          "internalType": "address",
          "name": "newMember",
          "type": "address"
        },
        {
          "indexed": true,
          "internalType": "address",
          "name": "manager",
          "type": "address"
        }
      ],
      "name": "ResetExclusiveMember",
      "type": "event"
    },
    {
      "inputs": [
        {
          "internalType": "uint256",
          "name": "roleId",
          "type": "uint256"
        },
        {
          "internalType": "address",
          "name": "newMember",
          "type": "address"
        }
      ],
      "name": "addMember",
      "outputs": [],
      "stateMutability": "nonpayable",
      "type": "function"
    },
    {
      "inputs": [
        {
          "internalType": "address",
          "name": "",
          "type": "address"
        }
      ],
      "name": "contractMap",
      "outputs": [
        {
          "internalType": "enum Registry.Validity",
          "name": "valid",
          "type": "uint8"
        },
        {
          "internalType": "uint128",
          "name": "index",
          "type": "uint128"
        }
      ],
      "stateMutability": "view",
      "type": "function"
    },
    {
      "inputs": [
        {
          "internalType": "uint256",
          "name": "roleId",
          "type": "uint256"
        }
      ],
      "name": "getMember",
      "outputs": [
        {
          "internalType": "address",
          "name": "",
          "type": "address"
        }
      ],
      "stateMutability": "view",
      "type": "function"
    },
    {
      "inputs": [
        {
          "internalType": "uint256",
          "name": "roleId",
          "type": "uint256"
        },
        {
          "internalType": "address",
          "name": "memberToCheck",
          "type": "address"
        }
      ],
      "name": "holdsRole",
      "outputs": [
        {
          "internalType": "bool",
          "name": "",
          "type": "bool"
        }
      ],
      "stateMutability": "view",
      "type": "function"
    },
    {
      "inputs": [
        {
          "internalType": "uint256",
          "name": "",
          "type": "uint256"
        }
      ],
      "name": "registeredContracts",
      "outputs": [
        {
          "internalType": "address",
          "name": "",
          "type": "address"
        }
      ],
      "stateMutability": "view",
      "type": "function"
    },
    {
      "inputs": [
        {
          "internalType": "uint256",
          "name": "roleId",
          "type": "uint256"
        },
        {
          "internalType": "address",
          "name": "memberToRemove",
          "type": "address"
        }
      ],
      "name": "removeMember",
      "outputs": [],
      "stateMutability": "nonpayable",
      "type": "function"
    },
    {
      "inputs": [
        {
          "internalType": "uint256",
          "name": "roleId",
          "type": "uint256"
        }
      ],
      "name": "renounceMembership",
      "outputs": [],
      "stateMutability": "nonpayable",
      "type": "function"
    },
    {
      "inputs": [
        {
          "internalType": "uint256",
          "name": "roleId",
          "type": "uint256"
        },
        {
          "internalType": "address",
          "name": "newMember",
          "type": "address"
        }
      ],
      "name": "resetMember",
      "outputs": [],
      "stateMutability": "nonpayable",
      "type": "function"
    },
    {
      "inputs": [
        {
          "internalType": "address[]",
          "name": "parties",
          "type": "address[]"
        },
        {
          "internalType": "address",
          "name": "contractAddress",
          "type": "address"
        }
      ],
      "name": "registerContract",
      "outputs": [],
      "stateMutability": "nonpayable",
      "type": "function"
    },
    {
      "inputs": [
        {
          "internalType": "address",
          "name": "party",
          "type": "address"
        }
      ],
      "name": "addPartyToContract",
      "outputs": [],
      "stateMutability": "nonpayable",
      "type": "function"
    },
    {
      "inputs": [
        {
          "internalType": "address",
          "name": "partyAddress",
          "type": "address"
        }
      ],
      "name": "removePartyFromContract",
      "outputs": [],
      "stateMutability": "nonpayable",
      "type": "function"
    },
    {
      "inputs": [
        {
          "internalType": "address",
          "name": "contractAddress",
          "type": "address"
        }
      ],
      "name": "isContractRegistered",
      "outputs": [
        {
          "internalType": "bool",
          "name": "",
          "type": "bool"
        }
      ],
      "stateMutability": "view",
      "type": "function"
    },
    {
      "inputs": [
        {
          "internalType": "address",
          "name": "party",
          "type": "address"
        }
      ],
      "name": "getRegisteredContracts",
      "outputs": [
        {
          "internalType": "address[]",
          "name": "",
          "type": "address[]"
        }
      ],
      "stateMutability": "view",
      "type": "function"
    },
    {
      "inputs": [],
      "name": "getAllRegisteredContracts",
      "outputs": [
        {
          "internalType": "address[]",
          "name": "",
          "type": "address[]"
        }
      ],
      "stateMutability": "view",
      "type": "function"
    },
    {
      "inputs": [
        {
          "internalType": "address",
          "name": "party",
          "type": "address"
        },
        {
          "internalType": "address",
          "name": "contractAddress",
          "type": "address"
        }
      ],
      "name": "isPartyMemberOfContract",
      "outputs": [
        {
          "internalType": "bool",
          "name": "",
          "type": "bool"
        }
      ],
      "stateMutability": "view",
      "type": "function"
    }
  ],
  "bytecode": "0x60806040523480156200001157600080fd5b506200003f600060018111156200002457fe5b600060018111156200003257fe5b33620000ba60201b60201c565b620000b46001808111156200005057fe5b600060018111156200005e57fe5b600067ffffffffffffffff811180156200007757600080fd5b50604051908082528060200260200182016040528015620000a75781602001602082028036833780820191505090505b506200022660201b60201c565b620007f0565b8260006002811115620000c957fe5b60008083815260200190815260200160002060010160009054906101000a900460ff166002811115620000f857fe5b146200013b576040517f08c379a0000000000000000000000000000000000000000000000000000000008152600401620001329062000779565b60405180910390fd5b6000806000868152602001908152602001600020905060018160010160006101000a81548160ff021916908360028111156200017357fe5b02179055508381600001819055506200019e83826002016200039260201b6200153f1790919060201c565b60006002811115620001ac57fe5b60008086815260200190815260200160002060010160009054906101000a900460ff166002811115620001db57fe5b14156200021f576040517f08c379a0000000000000000000000000000000000000000000000000000000008152600401620002169062000757565b60405180910390fd5b5050505050565b82600060028111156200023557fe5b60008083815260200190815260200160002060010160009054906101000a900460ff1660028111156200026457fe5b14620002a7576040517f08c379a00000000000000000000000000000000000000000000000000000000081526004016200029e9062000779565b60405180910390fd5b6000806000868152602001908152602001600020905060028160010160006101000a81548160ff02191690836002811115620002df57fe5b02179055508381600001819055506200030a8382600301620003a860201b6200154d1790919060201c565b600060028111156200031857fe5b60008086815260200190815260200160002060010160009054906101000a900460ff1660028111156200034757fe5b14156200038b576040517f08c379a00000000000000000000000000000000000000000000000000000000081526004016200038290620007bd565b60405180910390fd5b5050505050565b620003a48282620003ee60201b60201c565b5050565b60005b8151811015620003e957620003db83838381518110620003c757fe5b6020026020010151620004a860201b60201c565b8080600101915050620003ab565b505050565b600073ffffffffffffffffffffffffffffffffffffffff168173ffffffffffffffffffffffffffffffffffffffff16141562000461576040517f08c379a000000000000000000000000000000000000000000000000000000000815260040162000458906200079b565b60405180910390fd5b808260000160006101000a81548173ffffffffffffffffffffffffffffffffffffffff021916908373ffffffffffffffffffffffffffffffffffffffff1602179055505050565b600073ffffffffffffffffffffffffffffffffffffffff168173ffffffffffffffffffffffffffffffffffffffff1614156200051b576040517f08c379a0000000000000000000000000000000000000000000000000000000008152600401620005129062000735565b60405180910390fd5b60018260000160008373ffffffffffffffffffffffffffffffffffffffff1673ffffffffffffffffffffffffffffffffffffffff16815260200190815260200160002060006101000a81548160ff0219169083151502179055505050565b600062000588601f83620007df565b91507f43616e6e6f74206164642030783020746f20612073686172656420726f6c65006000830152602082019050919050565b6000620005ca603c83620007df565b91507f417474656d7074656420746f2075736520616e20696e76616c696420726f6c6560008301527f20746f206d616e61676520616e206578636c757369766520726f6c65000000006020830152604082019050919050565b600062000632601e83620007df565b91507f43616e6e6f74207573652061207072652d6578697374696e6720726f6c6500006000830152602082019050919050565b600062000674602383620007df565b91507f43616e6e6f742073657420616e206578636c757369766520726f6c6520746f2060008301527f30783000000000000000000000000000000000000000000000000000000000006020830152604082019050919050565b6000620006dc603883620007df565b91507f417474656d7074656420746f2075736520616e20696e76616c696420726f6c6560008301527f20746f206d616e61676520612073686172656420726f6c6500000000000000006020830152604082019050919050565b60006020820190508181036000830152620007508162000579565b9050919050565b600060208201905081810360008301526200077281620005bb565b9050919050565b60006020820190508181036000830152620007948162000623565b9050919050565b60006020820190508181036000830152620007b68162000665565b9050919050565b60006020820190508181036000830152620007d881620006cd565b9050919050565b600082825260208201905092915050565b6126d680620008006000396000f3fe608060405234801561001057600080fd5b50600436106100f55760003560e01c806374d0a67611610097578063ab3545e511610066578063ab3545e514610281578063d97c05be146102b1578063e33c4cd2146102cd578063f9f6b49b146102fd576100f5565b806374d0a676146101e95780637a3edab0146102055780637cdc1cb914610235578063aaa14ca314610265576100f5565b8063303118d0116100d3578063303118d0146101645780633c0af3441461018057806366c8c250146101b15780636be7658b146101cd576100f5565b80631676ddc3146100fa578063167cdde714610118578063188c6ff814610134575b600080fd5b61010261032d565b60405161010f91906122cd565b60405180910390f35b610132600480360381019061012d9190611bd7565b6103bb565b005b61014e60048036038101906101499190611bd7565b610475565b60405161015b91906122cd565b60405180910390f35b61017e60048036038101906101799190611bd7565b610545565b005b61019a60048036038101906101959190611bd7565b6108db565b6040516101a892919061230a565b60405180910390f35b6101cb60048036038101906101c69190611c3c565b610928565b005b6101e760048036038101906101e29190611cbd565b610c05565b005b61020360048036038101906101fe9190611cbd565b610d67565b005b61021f600480360381019061021a9190611c00565b610ec9565b60405161022c91906122ef565b60405180910390f35b61024f600480360381019061024a9190611cbd565b61104d565b60405161025c91906122ef565b60405180910390f35b61027f600480360381019061027a9190611c94565b611140565b005b61029b60048036038101906102969190611c94565b61128c565b6040516102a8919061228e565b60405180910390f35b6102cb60048036038101906102c69190611cbd565b61132f565b005b6102e760048036038101906102e29190611c94565b611492565b6040516102f4919061228e565b60405180910390f35b61031760048036038101906103129190611bd7565b6114ce565b60405161032491906122ef565b60405180910390f35b606060018054806020026020016040519081016040528092919081815260200182805480156103b157602002820191906000526020600020905b8160009054906101000a900473ffffffffffffffffffffffffffffffffffffffff1673ffffffffffffffffffffffffffffffffffffffff1681526020019060010190808311610367575b5050505050905090565b60003390506001808111156103cc57fe5b600260008373ffffffffffffffffffffffffffffffffffffffff1673ffffffffffffffffffffffffffffffffffffffff16815260200190815260200160002060000160009054906101000a900460ff16600181111561042757fe5b14610467576040517f08c379a000000000000000000000000000000000000000000000000000000000815260040161045e906123f5565b60405180910390fd5b6104718282611588565b5050565b6060600360008373ffffffffffffffffffffffffffffffffffffffff1673ffffffffffffffffffffffffffffffffffffffff16815260200190815260200160002060000180548060200260200160405190810160405280929190818152602001828054801561053957602002820191906000526020600020905b8160009054906101000a900473ffffffffffffffffffffffffffffffffffffffff1673ffffffffffffffffffffffffffffffffffffffff16815260200190600101908083116104ef575b50505050509050919050565b60003390506000600360008473ffffffffffffffffffffffffffffffffffffffff1673ffffffffffffffffffffffffffffffffffffffff168152602001908152602001600020905060008160000180549050905060008114156105dd576040517f08c379a00000000000000000000000000000000000000000000000000000000081526004016105d4906123d5565b60405180910390fd5b6001808111156105e957fe5b600260008573ffffffffffffffffffffffffffffffffffffffff1673ffffffffffffffffffffffffffffffffffffffff16815260200190815260200160002060000160009054906101000a900460ff16600181111561064457fe5b14610684576040517f08c379a000000000000000000000000000000000000000000000000000000000815260040161067b90612375565b60405180910390fd5b61068e8484610ec9565b6106cd576040517f08c379a00000000000000000000000000000000000000000000000000000000081526004016106c4906124f5565b60405180910390fd5b60008260010160008573ffffffffffffffffffffffffffffffffffffffff1673ffffffffffffffffffffffffffffffffffffffff168152602001908152602001600020549050600083600001600184038154811061072757fe5b9060005260206000200160009054906101000a900473ffffffffffffffffffffffffffffffffffffffff1690508084600001838154811061076457fe5b9060005260206000200160006101000a81548173ffffffffffffffffffffffffffffffffffffffff021916908373ffffffffffffffffffffffffffffffffffffffff160217905550818460010160008373ffffffffffffffffffffffffffffffffffffffff1673ffffffffffffffffffffffffffffffffffffffff16815260200190815260200160002081905550836000018054806107ff57fe5b6001900381819060005260206000200160006101000a81549073ffffffffffffffffffffffffffffffffffffffff021916905590558360010160008673ffffffffffffffffffffffffffffffffffffffff1673ffffffffffffffffffffffffffffffffffffffff168152602001908152602001600020600090558573ffffffffffffffffffffffffffffffffffffffff168573ffffffffffffffffffffffffffffffffffffffff167f8e0a870c3ff65bd1f2852048eb92d693833891a8c0ab0827347177544464c57060405160405180910390a3505050505050565b60026020528060005260406000206000915090508060000160009054906101000a900460ff16908060000160019054906101000a90046fffffffffffffffffffffffffffffffff16905082565b60018081111561093457fe5b61093e813361104d565b61097d576040517f08c379a000000000000000000000000000000000000000000000000000000000815260040161097490612435565b60405180910390fd5b6000600260008473ffffffffffffffffffffffffffffffffffffffff1673ffffffffffffffffffffffffffffffffffffffff1681526020019081526020016000209050600060018111156109cd57fe5b600260008573ffffffffffffffffffffffffffffffffffffffff1673ffffffffffffffffffffffffffffffffffffffff16815260200190815260200160002060000160009054906101000a900460ff166001811115610a2857fe5b14610a68576040517f08c379a0000000000000000000000000000000000000000000000000000000008152600401610a5f906124b5565b60405180910390fd5b6001839080600181540180825580915050600190039060005260206000200160009091909190916101000a81548173ffffffffffffffffffffffffffffffffffffffff021916908373ffffffffffffffffffffffffffffffffffffffff160217905550610ae3600180805490506117a290919063ffffffff16565b8160000160016101000a8154816fffffffffffffffffffffffffffffffff02191690836fffffffffffffffffffffffffffffffff16021790555060018160000160006101000a81548160ff02191690836001811115610b3e57fe5b021790555060005b85859050811015610b9657610b7b868683818110610b6057fe5b9050602002016020810190610b759190611bd7565b85611588565b610b8f6001826117ec90919063ffffffff16565b9050610b46565b503373ffffffffffffffffffffffffffffffffffffffff168373ffffffffffffffffffffffffffffffffffffffff167f1b0bc775e5162f873356bcc1733155bd2eb9509f1774770f54b4f938287bcf038787604051610bf69291906122a9565b60405180910390a35050505050565b81600280811115610c1257fe5b60008083815260200190815260200160002060010160009054906101000a900460ff166002811115610c4057fe5b14610c80576040517f08c379a0000000000000000000000000000000000000000000000000000000008152600401610c7790612415565b60405180910390fd5b82610ca0600080838152602001908152602001600020600001543361104d565b610cdf576040517f08c379a0000000000000000000000000000000000000000000000000000000008152600401610cd690612495565b60405180910390fd5b610d068360008087815260200190815260200160002060030161184190919063ffffffff16565b3373ffffffffffffffffffffffffffffffffffffffff168373ffffffffffffffffffffffffffffffffffffffff16857feb3e33034c392e69263b04ec0fa376dc12784a41b6676c7f31b936cbc0fbb5af60405160405180910390a450505050565b81600280811115610d7457fe5b60008083815260200190815260200160002060010160009054906101000a900460ff166002811115610da257fe5b14610de2576040517f08c379a0000000000000000000000000000000000000000000000000000000008152600401610dd990612415565b60405180910390fd5b82610e02600080838152602001908152602001600020600001543361104d565b610e41576040517f08c379a0000000000000000000000000000000000000000000000000000000008152600401610e3890612495565b60405180910390fd5b610e688360008087815260200190815260200160002060030161189f90919063ffffffff16565b3373ffffffffffffffffffffffffffffffffffffffff168373ffffffffffffffffffffffffffffffffffffffff16857f63502af7324ff6db91ab38f8236a648727d9385ea6c782073dd4882d8a61a48f60405160405180910390a450505050565b600080600360008573ffffffffffffffffffffffffffffffffffffffff1673ffffffffffffffffffffffffffffffffffffffff16815260200190815260200160002060010160008473ffffffffffffffffffffffffffffffffffffffff1673ffffffffffffffffffffffffffffffffffffffff16815260200190815260200160002054905080600360008673ffffffffffffffffffffffffffffffffffffffff1673ffffffffffffffffffffffffffffffffffffffff1681526020019081526020016000206000018054905011801561104457508273ffffffffffffffffffffffffffffffffffffffff16600360008673ffffffffffffffffffffffffffffffffffffffff1673ffffffffffffffffffffffffffffffffffffffff168152602001908152602001600020600001828154811061100157fe5b9060005260206000200160009054906101000a900473ffffffffffffffffffffffffffffffffffffffff1673ffffffffffffffffffffffffffffffffffffffff16145b91505092915050565b60008060008085815260200190815260200160002090506001600281111561107157fe5b8160010160009054906101000a900460ff16600281111561108e57fe5b14156110b2576110aa838260020161196d90919063ffffffff16565b91505061113a565b6002808111156110be57fe5b8160010160009054906101000a900460ff1660028111156110db57fe5b14156110ff576110f783826003016119ca90919063ffffffff16565b91505061113a565b6040517f08c379a0000000000000000000000000000000000000000000000000000000008152600401611131906124d5565b60405180910390fd5b92915050565b8060028081111561114d57fe5b60008083815260200190815260200160002060010160009054906101000a900460ff16600281111561117b57fe5b146111bb576040517f08c379a00000000000000000000000000000000000000000000000000000000081526004016111b290612415565b60405180910390fd5b816111c6813361104d565b611205576040517f08c379a00000000000000000000000000000000000000000000000000000000081526004016111fc90612435565b60405180910390fd5b61122c3360008086815260200190815260200160002060030161184190919063ffffffff16565b3373ffffffffffffffffffffffffffffffffffffffff163373ffffffffffffffffffffffffffffffffffffffff16847feb3e33034c392e69263b04ec0fa376dc12784a41b6676c7f31b936cbc0fbb5af60405160405180910390a4505050565b6000816001600281111561129c57fe5b60008083815260200190815260200160002060010160009054906101000a900460ff1660028111156112ca57fe5b1461130a576040517f08c379a0000000000000000000000000000000000000000000000000000000008152600401611301906123b5565b60405180910390fd5b611327600080858152602001908152602001600020600201611a23565b915050919050565b816001600281111561133d57fe5b60008083815260200190815260200160002060010160009054906101000a900460ff16600281111561136b57fe5b146113ab576040517f08c379a00000000000000000000000000000000000000000000000000000000081526004016113a2906123b5565b60405180910390fd5b826113cb600080838152602001908152602001600020600001543361104d565b61140a576040517f08c379a000000000000000000000000000000000000000000000000000000000815260040161140190612495565b60405180910390fd5b61143183600080878152602001908152602001600020600201611a5190919063ffffffff16565b3373ffffffffffffffffffffffffffffffffffffffff168373ffffffffffffffffffffffffffffffffffffffff16857f3b855c56b409b671c7112789d022675eb639d0bcb8896f1b6197c132f799e74660405160405180910390a450505050565b6001818154811061149f57fe5b906000526020600020016000915054906101000a900473ffffffffffffffffffffffffffffffffffffffff1681565b60006001808111156114dc57fe5b600260008473ffffffffffffffffffffffffffffffffffffffff1673ffffffffffffffffffffffffffffffffffffffff16815260200190815260200160002060000160009054906101000a900460ff16600181111561153757fe5b149050919050565b6115498282611a51565b5050565b60005b8151811015611583576115768383838151811061156957fe5b602002602001015161189f565b8080600101915050611550565b505050565b6115928282610ec9565b156115d2576040517f08c379a00000000000000000000000000000000000000000000000000000000081526004016115c990612455565b60405180910390fd5b6000600360008473ffffffffffffffffffffffffffffffffffffffff1673ffffffffffffffffffffffffffffffffffffffff168152602001908152602001600020600001805490509050600360008473ffffffffffffffffffffffffffffffffffffffff1673ffffffffffffffffffffffffffffffffffffffff168152602001908152602001600020600001829080600181540180825580915050600190039060005260206000200160009091909190916101000a81548173ffffffffffffffffffffffffffffffffffffffff021916908373ffffffffffffffffffffffffffffffffffffffff16021790555080600360008573ffffffffffffffffffffffffffffffffffffffff1673ffffffffffffffffffffffffffffffffffffffff16815260200190815260200160002060010160008473ffffffffffffffffffffffffffffffffffffffff1673ffffffffffffffffffffffffffffffffffffffff168152602001908152602001600020819055508273ffffffffffffffffffffffffffffffffffffffff168273ffffffffffffffffffffffffffffffffffffffff167f4b920dd33e12e37712086438f2afcecb921cefe83b717ca990222f53d7e2845460405160405180910390a3505050565b60006117e483836040518060400160405280601e81526020017f536166654d6174683a207375627472616374696f6e206f766572666c6f770000815250611b08565b905092915050565b600080828401905083811015611837576040517f08c379a000000000000000000000000000000000000000000000000000000000815260040161182e90612395565b60405180910390fd5b8091505092915050565b60008260000160008373ffffffffffffffffffffffffffffffffffffffff1673ffffffffffffffffffffffffffffffffffffffff16815260200190815260200160002060006101000a81548160ff0219169083151502179055505050565b600073ffffffffffffffffffffffffffffffffffffffff168173ffffffffffffffffffffffffffffffffffffffff16141561190f576040517f08c379a000000000000000000000000000000000000000000000000000000000815260040161190690612355565b60405180910390fd5b60018260000160008373ffffffffffffffffffffffffffffffffffffffff1673ffffffffffffffffffffffffffffffffffffffff16815260200190815260200160002060006101000a81548160ff0219169083151502179055505050565b60008173ffffffffffffffffffffffffffffffffffffffff168360000160009054906101000a900473ffffffffffffffffffffffffffffffffffffffff1673ffffffffffffffffffffffffffffffffffffffff1614905092915050565b60008260000160008373ffffffffffffffffffffffffffffffffffffffff1673ffffffffffffffffffffffffffffffffffffffff16815260200190815260200160002060009054906101000a900460ff16905092915050565b60008160000160009054906101000a900473ffffffffffffffffffffffffffffffffffffffff169050919050565b600073ffffffffffffffffffffffffffffffffffffffff168173ffffffffffffffffffffffffffffffffffffffff161415611ac1576040517f08c379a0000000000000000000000000000000000000000000000000000000008152600401611ab890612475565b60405180910390fd5b808260000160006101000a81548173ffffffffffffffffffffffffffffffffffffffff021916908373ffffffffffffffffffffffffffffffffffffffff1602179055505050565b6000838311158290611b50576040517f08c379a0000000000000000000000000000000000000000000000000000000008152600401611b479190612333565b60405180910390fd5b5060008385039050809150509392505050565b600081359050611b7281612672565b92915050565b60008083601f840112611b8a57600080fd5b8235905067ffffffffffffffff811115611ba357600080fd5b602083019150836020820283011115611bbb57600080fd5b9250929050565b600081359050611bd181612689565b92915050565b600060208284031215611be957600080fd5b6000611bf784828501611b63565b91505092915050565b60008060408385031215611c1357600080fd5b6000611c2185828601611b63565b9250506020611c3285828601611b63565b9150509250929050565b600080600060408486031215611c5157600080fd5b600084013567ffffffffffffffff811115611c6b57600080fd5b611c7786828701611b78565b93509350506020611c8a86828701611b63565b9150509250925092565b600060208284031215611ca657600080fd5b6000611cb484828501611bc2565b91505092915050565b60008060408385031215611cd057600080fd5b6000611cde85828601611bc2565b9250506020611cef85828601611b63565b9150509250929050565b6000611d058383611d11565b60208301905092915050565b611d1a81612598565b82525050565b611d2981612598565b82525050565b6000611d3b838561255f565b9350611d4682612515565b8060005b85811015611d7f57611d5c8284612581565b611d668882611cf9565b9750611d7183612545565b925050600181019050611d4a565b5085925050509392505050565b6000611d978261252f565b611da1818561255f565b9350611dac8361251f565b8060005b83811015611ddd578151611dc48882611cf9565b9750611dcf83612552565b925050600181019050611db0565b5085935050505092915050565b611df3816125aa565b82525050565b611e028161260f565b82525050565b6000611e138261253a565b611e1d8185612570565b9350611e2d818560208601612621565b611e3681612654565b840191505092915050565b6000611e4e601f83612570565b91507f43616e6e6f74206164642030783020746f20612073686172656420726f6c65006000830152602082019050919050565b6000611e8e601f83612570565b91507f52656d6f7665206f6e6c792066726f6d2076616c696420636f6e7472616374006000830152602082019050919050565b6000611ece601b83612570565b91507f536166654d6174683a206164646974696f6e206f766572666c6f7700000000006000830152602082019050919050565b6000611f0e602f83612570565b91507f4d7573742062652063616c6c6564206f6e20616e20696e697469616c697a656460008301527f204578636c757369766520726f6c6500000000000000000000000000000000006020830152604082019050919050565b6000611f74601683612570565b91507f506172747920686173206e6f20636f6e747261637473000000000000000000006000830152602082019050919050565b6000611fb4601e83612570565b91507f43616e206f6e6c792061646420746f2076616c696420636f6e747261637400006000830152602082019050919050565b6000611ff4602c83612570565b91507f4d7573742062652063616c6c6564206f6e20616e20696e697469616c697a656460008301527f2053686172656420726f6c6500000000000000000000000000000000000000006020830152604082019050919050565b600061205a602283612570565b91507f53656e64657220646f6573206e6f7420686f6c6420726571756972656420726f60008301527f6c650000000000000000000000000000000000000000000000000000000000006020830152604082019050919050565b60006120c0601e83612570565b91507f43616e206f6e6c792072656769737465722061207061727479206f6e636500006000830152602082019050919050565b6000612100602383612570565b91507f43616e6e6f742073657420616e206578636c757369766520726f6c6520746f2060008301527f30783000000000000000000000000000000000000000000000000000000000006020830152604082019050919050565b6000612166602483612570565b91507f43616e206f6e6c792062652063616c6c6564206279206120726f6c65206d616e60008301527f61676572000000000000000000000000000000000000000000000000000000006020830152604082019050919050565b60006121cc601683612570565b91507f43616e206f6e6c79207265676973746572206f6e6365000000000000000000006000830152602082019050919050565b600061220c600e83612570565b91507f496e76616c696420726f6c6549640000000000000000000000000000000000006000830152602082019050919050565b600061224c601e83612570565b91507f43616e206f6e6c792072656d6f7665206578697374696e6720706172747900006000830152602082019050919050565b612288816125c9565b82525050565b60006020820190506122a36000830184611d20565b92915050565b600060208201905081810360008301526122c4818486611d2f565b90509392505050565b600060208201905081810360008301526122e78184611d8c565b905092915050565b60006020820190506123046000830184611dea565b92915050565b600060408201905061231f6000830185611df9565b61232c602083018461227f565b9392505050565b6000602082019050818103600083015261234d8184611e08565b905092915050565b6000602082019050818103600083015261236e81611e41565b9050919050565b6000602082019050818103600083015261238e81611e81565b9050919050565b600060208201905081810360008301526123ae81611ec1565b9050919050565b600060208201905081810360008301526123ce81611f01565b9050919050565b600060208201905081810360008301526123ee81611f67565b9050919050565b6000602082019050818103600083015261240e81611fa7565b9050919050565b6000602082019050818103600083015261242e81611fe7565b9050919050565b6000602082019050818103600083015261244e8161204d565b9050919050565b6000602082019050818103600083015261246e816120b3565b9050919050565b6000602082019050818103600083015261248e816120f3565b9050919050565b600060208201905081810360008301526124ae81612159565b9050919050565b600060208201905081810360008301526124ce816121bf565b9050919050565b600060208201905081810360008301526124ee816121ff565b9050919050565b6000602082019050818103600083015261250e8161223f565b9050919050565b6000819050919050565b6000819050602082019050919050565b600081519050919050565b600081519050919050565b6000602082019050919050565b6000602082019050919050565b600082825260208201905092915050565b600082825260208201905092915050565b60006125906020840184611b63565b905092915050565b60006125a3826125e5565b9050919050565b60008115159050919050565b60008190506125c482612665565b919050565b60006fffffffffffffffffffffffffffffffff82169050919050565b600073ffffffffffffffffffffffffffffffffffffffff82169050919050565b6000819050919050565b600061261a826125b6565b9050919050565b60005b8381101561263f578082015181840152602081019050612624565b8381111561264e576000848401525b50505050565b6000601f19601f8301169050919050565b6002811061266f57fe5b50565b61267b81612598565b811461268657600080fd5b50565b61269281612605565b811461269d57600080fd5b5056fea2646970667358221220a08380058f83d7ebe21e2794fbb37ff2b6ade4230be5e764cf23f022ea20a4aa64736f6c634300060c0033",
  "immutableReferences": {},
  "source": "// SPDX-License-Identifier: AGPL-3.0-only\npragma solidity ^0.6.0;\npragma experimental ABIEncoderV2;\n\nimport \"../../common/implementation/MultiRole.sol\";\nimport \"../interfaces/RegistryInterface.sol\";\n\nimport \"@openzeppelin/contracts/math/SafeMath.sol\";\n\n/**\n * @title Registry for financial contracts and approved financial contract creators.\n * @dev Maintains a whitelist of financial contract creators that are allowed\n * to register new financial contracts and stores party members of a financial contract.\n */\ncontract Registry is RegistryInterface, MultiRole {\n    using SafeMath for uint256;\n\n    /****************************************\n     *    INTERNAL VARIABLES AND STORAGE    *\n     ****************************************/\n\n    enum Roles {\n        Owner, // The owner manages the set of ContractCreators.\n        ContractCreator // Can register financial contracts.\n    }\n\n    // This enum is required because a `WasValid` state is required\n    // to ensure that financial contracts cannot be re-registered.\n    enum Validity { Invalid, Valid }\n\n    // Local information about a contract.\n    struct FinancialContract {\n        Validity valid;\n        uint128 index;\n    }\n\n    struct Party {\n        address[] contracts; // Each financial contract address is stored in this array.\n        // The address of each financial contract is mapped to its index for constant time look up and deletion.\n        mapping(address => uint256) contractIndex;\n    }\n\n    // Array of all contracts that are approved to use the UMA Oracle.\n    address[] public registeredContracts;\n\n    // Map of financial contract contracts to the associated FinancialContract struct.\n    mapping(address => FinancialContract) public contractMap;\n\n    // Map each party member to their their associated Party struct.\n    mapping(address => Party) private partyMap;\n\n    /****************************************\n     *                EVENTS                *\n     ****************************************/\n\n    event NewContractRegistered(address indexed contractAddress, address indexed creator, address[] parties);\n    event PartyAdded(address indexed contractAddress, address indexed party);\n    event PartyRemoved(address indexed contractAddress, address indexed party);\n\n    /**\n     * @notice Construct the Registry contract.\n     */\n    constructor() public {\n        _createExclusiveRole(uint256(Roles.Owner), uint256(Roles.Owner), msg.sender);\n        // Start with no contract creators registered.\n        _createSharedRole(uint256(Roles.ContractCreator), uint256(Roles.Owner), new address[](0));\n    }\n\n    /****************************************\n     *        REGISTRATION FUNCTIONS        *\n     ****************************************/\n\n    /**\n     * @notice Registers a new financial contract.\n     * @dev Only authorized contract creators can call this method.\n     * @param parties array of addresses who become parties in the contract.\n     * @param contractAddress address of the contract against which the parties are registered.\n     */\n    function registerContract(address[] calldata parties, address contractAddress)\n        external\n        override\n        onlyRoleHolder(uint256(Roles.ContractCreator))\n    {\n        FinancialContract storage financialContract = contractMap[contractAddress];\n        require(contractMap[contractAddress].valid == Validity.Invalid, \"Can only register once\");\n\n        // Store contract address as a registered contract.\n        registeredContracts.push(contractAddress);\n\n        // No length check necessary because we should never hit (2^127 - 1) contracts.\n        financialContract.index = uint128(registeredContracts.length.sub(1));\n\n        // For all parties in the array add them to the contract's parties.\n        financialContract.valid = Validity.Valid;\n        for (uint256 i = 0; i < parties.length; i = i.add(1)) {\n            _addPartyToContract(parties[i], contractAddress);\n        }\n\n        emit NewContractRegistered(contractAddress, msg.sender, parties);\n    }\n\n    /**\n     * @notice Adds a party member to the calling contract.\n     * @dev msg.sender will be used to determine the contract that this party is added to.\n     * @param party new party for the calling contract.\n     */\n    function addPartyToContract(address party) external override {\n        address contractAddress = msg.sender;\n        require(contractMap[contractAddress].valid == Validity.Valid, \"Can only add to valid contract\");\n\n        _addPartyToContract(party, contractAddress);\n    }\n\n    /**\n     * @notice Removes a party member from the calling contract.\n     * @dev msg.sender will be used to determine the contract that this party is removed from.\n     * @param partyAddress address to be removed from the calling contract.\n     */\n    function removePartyFromContract(address partyAddress) external override {\n        address contractAddress = msg.sender;\n        Party storage party = partyMap[partyAddress];\n        uint256 numberOfContracts = party.contracts.length;\n\n        require(numberOfContracts != 0, \"Party has no contracts\");\n        require(contractMap[contractAddress].valid == Validity.Valid, \"Remove only from valid contract\");\n        require(isPartyMemberOfContract(partyAddress, contractAddress), \"Can only remove existing party\");\n\n        // Index of the current location of the contract to remove.\n        uint256 deleteIndex = party.contractIndex[contractAddress];\n\n        // Store the last contract's address to update the lookup map.\n        address lastContractAddress = party.contracts[numberOfContracts - 1];\n\n        // Swap the contract to be removed with the last contract.\n        party.contracts[deleteIndex] = lastContractAddress;\n\n        // Update the lookup index with the new location.\n        party.contractIndex[lastContractAddress] = deleteIndex;\n\n        // Pop the last contract from the array and update the lookup map.\n        party.contracts.pop();\n        delete party.contractIndex[contractAddress];\n\n        emit PartyRemoved(contractAddress, partyAddress);\n    }\n\n    /****************************************\n     *         REGISTRY STATE GETTERS       *\n     ****************************************/\n\n    /**\n     * @notice Returns whether the contract has been registered with the registry.\n     * @dev If it is registered, it is an authorized participant in the UMA system.\n     * @param contractAddress address of the financial contract.\n     * @return bool indicates whether the contract is registered.\n     */\n    function isContractRegistered(address contractAddress) external view override returns (bool) {\n        return contractMap[contractAddress].valid == Validity.Valid;\n    }\n\n    /**\n     * @notice Returns a list of all contracts that are associated with a particular party.\n     * @param party address of the party.\n     * @return an array of the contracts the party is registered to.\n     */\n    function getRegisteredContracts(address party) external view override returns (address[] memory) {\n        return partyMap[party].contracts;\n    }\n\n    /**\n     * @notice Returns all registered contracts.\n     * @return all registered contract addresses within the system.\n     */\n    function getAllRegisteredContracts() external view override returns (address[] memory) {\n        return registeredContracts;\n    }\n\n    /**\n     * @notice checks if an address is a party of a contract.\n     * @param party party to check.\n     * @param contractAddress address to check against the party.\n     * @return bool indicating if the address is a party of the contract.\n     */\n    function isPartyMemberOfContract(address party, address contractAddress) public view override returns (bool) {\n        uint256 index = partyMap[party].contractIndex[contractAddress];\n        return partyMap[party].contracts.length > index && partyMap[party].contracts[index] == contractAddress;\n    }\n\n    /****************************************\n     *           INTERNAL FUNCTIONS         *\n     ****************************************/\n\n    function _addPartyToContract(address party, address contractAddress) internal {\n        require(!isPartyMemberOfContract(party, contractAddress), \"Can only register a party once\");\n        uint256 contractIndex = partyMap[party].contracts.length;\n        partyMap[party].contracts.push(contractAddress);\n        partyMap[party].contractIndex[contractAddress] = contractIndex;\n\n        emit PartyAdded(contractAddress, party);\n    }\n}\n",
  "sourcePath": "@uma/core/contracts/oracle/implementation/Registry.sol",
  "compiler": {
    "name": "solc",
    "version": "0.6.12+commit.27d51765.Emscripten.clang"
  },
  "schemaVersion": "3.4.0",
  "updatedAt": "2021-04-26T02:01:05.171Z",
  "devdoc": {
    "details": "Maintains a whitelist of financial contract creators that are allowed to register new financial contracts and stores party members of a financial contract.",
    "kind": "dev",
    "methods": {
      "addMember(uint256,address)": {
        "details": "Reverts if `roleId` does not represent an initialized, SharedRole or if the caller is not a member of the managing role for `roleId`.",
        "params": {
          "newMember": "the new SharedRole member.",
          "roleId": "the SharedRole membership to modify."
        }
      },
      "addPartyToContract(address)": {
        "details": "msg.sender will be used to determine the contract that this party is added to.",
        "params": {
          "party": "new party for the calling contract."
        }
      },
      "getAllRegisteredContracts()": {
        "returns": {
          "_0": "all registered contract addresses within the system."
        }
      },
      "getMember(uint256)": {
        "details": "Reverts if `roleId` does not represent an initialized, exclusive role.",
        "params": {
          "roleId": "the ExclusiveRole membership to check."
        },
        "returns": {
          "_0": "the address of the current ExclusiveRole member."
        }
      },
      "getRegisteredContracts(address)": {
        "params": {
          "party": "address of the party."
        },
        "returns": {
          "_0": "an array of the contracts the party is registered to."
        }
      },
      "holdsRole(uint256,address)": {
        "details": "Reverts if roleId does not correspond to an initialized role.",
        "params": {
          "memberToCheck": "the address to check.",
          "roleId": "the Role to check."
        },
        "returns": {
          "_0": "True if `memberToCheck` is a member of `roleId`."
        }
      },
      "isContractRegistered(address)": {
        "details": "If it is registered, it is an authorized participant in the UMA system.",
        "params": {
          "contractAddress": "address of the financial contract."
        },
        "returns": {
          "_0": "bool indicates whether the contract is registered."
        }
      },
      "isPartyMemberOfContract(address,address)": {
        "params": {
          "contractAddress": "address to check against the party.",
          "party": "party to check."
        },
        "returns": {
          "_0": "bool indicating if the address is a party of the contract."
        }
      },
      "registerContract(address[],address)": {
        "details": "Only authorized contract creators can call this method.",
        "params": {
          "contractAddress": "address of the contract against which the parties are registered.",
          "parties": "array of addresses who become parties in the contract."
        }
      },
      "removeMember(uint256,address)": {
        "details": "Reverts if `roleId` does not represent an initialized, SharedRole or if the caller is not a member of the managing role for `roleId`.",
        "params": {
          "memberToRemove": "the current SharedRole member to remove.",
          "roleId": "the SharedRole membership to modify."
        }
      },
      "removePartyFromContract(address)": {
        "details": "msg.sender will be used to determine the contract that this party is removed from.",
        "params": {
          "partyAddress": "address to be removed from the calling contract."
        }
      },
      "renounceMembership(uint256)": {
        "details": "Reverts if the caller is not a member of the role for `roleId` or if `roleId` is not an initialized, SharedRole.",
        "params": {
          "roleId": "the SharedRole membership to modify."
        }
      },
      "resetMember(uint256,address)": {
        "details": "Reverts if the caller is not a member of the managing role for `roleId` or if `roleId` is not an initialized, ExclusiveRole.",
        "params": {
          "newMember": "the new ExclusiveRole member.",
          "roleId": "the ExclusiveRole membership to modify."
        }
      }
    },
    "title": "Registry for financial contracts and approved financial contract creators.",
    "version": 1
  },
  "userdoc": {
    "kind": "user",
    "methods": {
      "addMember(uint256,address)": {
        "notice": "Adds `newMember` to the shared role, `roleId`."
      },
      "addPartyToContract(address)": {
        "notice": "Adds a party member to the calling contract."
      },
      "constructor": "Construct the Registry contract.",
      "getAllRegisteredContracts()": {
        "notice": "Returns all registered contracts."
      },
      "getMember(uint256)": {
        "notice": "Gets the current holder of the exclusive role, `roleId`."
      },
      "getRegisteredContracts(address)": {
        "notice": "Returns a list of all contracts that are associated with a particular party."
      },
      "holdsRole(uint256,address)": {
        "notice": "Whether `memberToCheck` is a member of roleId."
      },
      "isContractRegistered(address)": {
        "notice": "Returns whether the contract has been registered with the registry."
      },
      "isPartyMemberOfContract(address,address)": {
        "notice": "checks if an address is a party of a contract."
      },
      "registerContract(address[],address)": {
        "notice": "Registers a new financial contract."
      },
      "removeMember(uint256,address)": {
        "notice": "Removes `memberToRemove` from the shared role, `roleId`."
      },
      "removePartyFromContract(address)": {
        "notice": "Removes a party member from the calling contract."
      },
      "renounceMembership(uint256)": {
        "notice": "Removes caller from the role, `roleId`."
      },
      "resetMember(uint256,address)": {
        "notice": "Changes the exclusive role holder of `roleId` to `newMember`."
      }
    },
    "version": 1
  }
}