{
  "contractName": "TokenFactory",
  "abi": [
    {
      "inputs": [
        {
          "internalType": "string",
          "name": "tokenName",
          "type": "string"
        },
        {
          "internalType": "string",
          "name": "tokenSymbol",
          "type": "string"
        },
        {
          "internalType": "uint8",
          "name": "tokenDecimals",
          "type": "uint8"
        }
      ],
      "name": "createToken",
      "outputs": [
        {
          "internalType": "contract ExpandedIERC20",
          "name": "newToken",
          "type": "address"
        }
      ],
      "stateMutability": "nonpayable",
      "type": "function"
    }
  ],
  "bytecode": "0x608060405234801561001057600080fd5b5060016000806101000a81548160ff02191690831515021790555061396a8061003a6000396000f3fe60806040523480156200001157600080fd5b50600436106200002e5760003560e01c8063e8a0aed31462000033575b600080fd5b62000115600480360360608110156200004b57600080fd5b81019080803590602001906401000000008111156200006957600080fd5b8201836020820111156200007c57600080fd5b803590602001918460018302840111640100000000831117156200009f57600080fd5b909192939192939080359060200190640100000000811115620000c157600080fd5b820183602082011115620000d457600080fd5b80359060200191846001830284011164010000000083111715620000f757600080fd5b9091929391929390803560ff16906020019092919050505062000141565b604051808273ffffffffffffffffffffffffffffffffffffffff16815260200191505060405180910390f35b60006200014d6200039d565b6200015762000420565b600086868686866040516200016c9062000458565b8080602001806020018460ff1681526020018381038352888882818152602001925080828437600081840152601f19601f8201169050808301925050508381038252868682818152602001925080828437600081840152601f19601f820116905080830192505050975050505050505050604051809103906000f080158015620001fa573d6000803e3d6000fd5b5090508073ffffffffffffffffffffffffffffffffffffffff1663983b2d56336040518263ffffffff1660e01b8152600401808273ffffffffffffffffffffffffffffffffffffffff168152602001915050600060405180830381600087803b1580156200026757600080fd5b505af11580156200027c573d6000803e3d6000fd5b505050508073ffffffffffffffffffffffffffffffffffffffff1663f44637ba336040518263ffffffff1660e01b8152600401808273ffffffffffffffffffffffffffffffffffffffff168152602001915050600060405180830381600087803b158015620002ea57600080fd5b505af1158015620002ff573d6000803e3d6000fd5b505050508073ffffffffffffffffffffffffffffffffffffffff166373cc802a336040518263ffffffff1660e01b8152600401808273ffffffffffffffffffffffffffffffffffffffff168152602001915050600060405180830381600087803b1580156200036d57600080fd5b505af115801562000382573d6000803e3d6000fd5b5050505080915050620003946200043c565b95945050505050565b60008054906101000a900460ff166200041e576040517f08c379a000000000000000000000000000000000000000000000000000000000815260040180806020018281038252601f8152602001807f5265656e7472616e637947756172643a207265656e7472616e742063616c6c0081525060200191505060405180910390fd5b565b60008060006101000a81548160ff021916908315150217905550565b60016000806101000a81548160ff021916908315150217905550565b6134ce80620004678339019056fe60806040523480156200001157600080fd5b50604051620034ce380380620034ce833981810160405260608110156200003757600080fd5b81019080805160405193929190846401000000008211156200005857600080fd5b838201915060208201858111156200006f57600080fd5b82518660018202830111640100000000821117156200008d57600080fd5b8083526020830192505050908051906020019080838360005b83811015620000c3578082015181840152602081019050620000a6565b50505050905090810190601f168015620000f15780820380516001836020036101000a031916815260200191505b50604052602001805160405193929190846401000000008211156200011557600080fd5b838201915060208201858111156200012c57600080fd5b82518660018202830111640100000000821117156200014a57600080fd5b8083526020830192505050908051906020019080838360005b838110156200018057808201518184015260208101905062000163565b50505050905090810190601f168015620001ae5780820380516001836020036101000a031916815260200191505b506040526020018051906020019092919050505082828282828160039080519060200190620001df92919062000a0b565b508060049080519060200190620001f892919062000a0b565b506012600560006101000a81548160ff021916908360ff160217905550505062000228816200039760201b60201c565b62000255600060028111156200023a57fe5b600060028111156200024857fe5b33620003b560201b60201c565b620002cb600160028111156200026757fe5b600060028111156200027557fe5b600067ffffffffffffffff811180156200028e57600080fd5b50604051908082528060200260200182016040528015620002be5781602001602082028036833780820191505090505b506200056a60201b60201c565b62000340600280811115620002dc57fe5b60006002811115620002ea57fe5b600067ffffffffffffffff811180156200030357600080fd5b50604051908082528060200260200182016040528015620003335781602001602082028036833780820191505090505b506200056a60201b60201c565b5050506001600760006101000a81548160ff0219169083151502179055506200036e6200071f60201b60201c565b6200037e620007a460201b60201c565b6200038e620007c160201b60201c565b50505062000ab1565b80600560006101000a81548160ff021916908360ff16021790555050565b8260006002811115620003c457fe5b6006600083815260200190815260200160002060010160009054906101000a900460ff166002811115620003f457fe5b1462000468576040517f08c379a000000000000000000000000000000000000000000000000000000000815260040180806020018281038252601e8152602001807f43616e6e6f74207573652061207072652d6578697374696e6720726f6c65000081525060200191505060405180910390fd5b600060066000868152602001908152602001600020905060018160010160006101000a81548160ff02191690836002811115620004a157fe5b0217905550838160000181905550620004cc8382600201620007de60201b6200193f1790919060201c565b60006002811115620004da57fe5b6006600086815260200190815260200160002060010160009054906101000a900460ff1660028111156200050a57fe5b141562000563576040517f08c379a000000000000000000000000000000000000000000000000000000000815260040180806020018281038252603c81526020018062003437603c913960400191505060405180910390fd5b5050505050565b82600060028111156200057957fe5b6006600083815260200190815260200160002060010160009054906101000a900460ff166002811115620005a957fe5b146200061d576040517f08c379a000000000000000000000000000000000000000000000000000000000815260040180806020018281038252601e8152602001807f43616e6e6f74207573652061207072652d6578697374696e6720726f6c65000081525060200191505060405180910390fd5b600060066000868152602001908152602001600020905060028160010160006101000a81548160ff021916908360028111156200065657fe5b0217905550838160000181905550620006818382600301620007f460201b6200194d1790919060201c565b600060028111156200068f57fe5b6006600086815260200190815260200160002060010160009054906101000a900460ff166002811115620006bf57fe5b141562000718576040517f08c379a0000000000000000000000000000000000000000000000000000000008152600401808060200182810382526038815260200180620034966038913960400191505060405180910390fd5b5050505050565b600760009054906101000a900460ff16620007a2576040517f08c379a000000000000000000000000000000000000000000000000000000000815260040180806020018281038252601f8152602001807f5265656e7472616e637947756172643a207265656e7472616e742063616c6c0081525060200191505060405180910390fd5b565b6000600760006101000a81548160ff021916908315150217905550565b6001600760006101000a81548160ff021916908315150217905550565b620007f082826200083a60201b60201c565b5050565b60005b8151811015620008355762000827838383815181106200081357fe5b60200260200101516200090960201b60201c565b8080600101915050620007f7565b505050565b600073ffffffffffffffffffffffffffffffffffffffff168173ffffffffffffffffffffffffffffffffffffffff161415620008c2576040517f08c379a0000000000000000000000000000000000000000000000000000000008152600401808060200182810382526023815260200180620034736023913960400191505060405180910390fd5b808260000160006101000a81548173ffffffffffffffffffffffffffffffffffffffff021916908373ffffffffffffffffffffffffffffffffffffffff1602179055505050565b600073ffffffffffffffffffffffffffffffffffffffff168173ffffffffffffffffffffffffffffffffffffffff161415620009ad576040517f08c379a000000000000000000000000000000000000000000000000000000000815260040180806020018281038252601f8152602001807f43616e6e6f74206164642030783020746f20612073686172656420726f6c650081525060200191505060405180910390fd5b60018260000160008373ffffffffffffffffffffffffffffffffffffffff1673ffffffffffffffffffffffffffffffffffffffff16815260200190815260200160002060006101000a81548160ff0219169083151502179055505050565b828054600181600116156101000203166002900490600052602060002090601f016020900481019282601f1062000a4e57805160ff191683800117855562000a7f565b8280016001018555821562000a7f579182015b8281111562000a7e57825182559160200191906001019062000a61565b5b50905062000a8e919062000a92565b5090565b5b8082111562000aad57600081600090555060010162000a93565b5090565b6129768062000ac16000396000f3fe608060405234801561001057600080fd5b506004361061018e5760003560e01c806373cc802a116100de578063a9059cbb11610097578063ab3545e511610071578063ab3545e5146108c8578063d97c05be14610920578063dd62ed3e1461096e578063f44637ba146109e65761018e565b8063a9059cbb146107dc578063aa271e1a14610840578063aaa14ca31461089a5761018e565b806373cc802a146105bb57806374d0a676146105ff5780637cdc1cb91461064d57806395d89b41146106b1578063983b2d5614610734578063a457c2d7146107785761018e565b8063313ce5671161014b57806342966c681161012557806342966c681461048d5780634334614a146104bb5780636be7658b1461051557806370a08231146105635761018e565b8063313ce567146103a457806339509351146103c557806340c10f19146104295761018e565b8063028468581461019357806306fdde03146101d7578063095ea7b31461025a57806318160ddd146102be57806323b872dd146102dc5780633092afd514610360575b600080fd5b6101d5600480360360208110156101a957600080fd5b81019080803573ffffffffffffffffffffffffffffffffffffffff169060200190929190505050610a2a565b005b6101df610a5a565b6040518080602001828103825283818151815260200191508051906020019080838360005b8381101561021f578082015181840152602081019050610204565b50505050905090810190601f16801561024c5780820380516001836020036101000a031916815260200191505b509250505060405180910390f35b6102a66004803603604081101561027057600080fd5b81019080803573ffffffffffffffffffffffffffffffffffffffff16906020019092919080359060200190929190505050610afc565b60405180821515815260200191505060405180910390f35b6102c6610b1a565b6040518082815260200191505060405180910390f35b610348600480360360608110156102f257600080fd5b81019080803573ffffffffffffffffffffffffffffffffffffffff169060200190929190803573ffffffffffffffffffffffffffffffffffffffff16906020019092919080359060200190929190505050610b24565b60405180821515815260200191505060405180910390f35b6103a26004803603602081101561037657600080fd5b81019080803573ffffffffffffffffffffffffffffffffffffffff169060200190929190505050610bfd565b005b6103ac610c2e565b604051808260ff16815260200191505060405180910390f35b610411600480360360408110156103db57600080fd5b81019080803573ffffffffffffffffffffffffffffffffffffffff16906020019092919080359060200190929190505050610c45565b60405180821515815260200191505060405180910390f35b6104756004803603604081101561043f57600080fd5b81019080803573ffffffffffffffffffffffffffffffffffffffff16906020019092919080359060200190929190505050610cf8565b60405180821515815260200191505060405180910390f35b6104b9600480360360208110156104a357600080fd5b8101908080359060200190929190505050610d7b565b005b6104fd600480360360208110156104d157600080fd5b81019080803573ffffffffffffffffffffffffffffffffffffffff169060200190929190505050610df4565b60405180821515815260200191505060405180910390f35b6105616004803603604081101561052b57600080fd5b8101908080359060200190929190803573ffffffffffffffffffffffffffffffffffffffff169060200190929190505050610e1a565b005b6105a56004803603602081101561057957600080fd5b81019080803573ffffffffffffffffffffffffffffffffffffffff169060200190929190505050610fab565b6040518082815260200191505060405180910390f35b6105fd600480360360208110156105d157600080fd5b81019080803573ffffffffffffffffffffffffffffffffffffffff169060200190929190505050610ff3565b005b61064b6004803603604081101561061557600080fd5b8101908080359060200190929190803573ffffffffffffffffffffffffffffffffffffffff169060200190929190505050611024565b005b6106996004803603604081101561066357600080fd5b8101908080359060200190929190803573ffffffffffffffffffffffffffffffffffffffff1690602001909291905050506111b5565b60405180821515815260200191505060405180910390f35b6106b96112dc565b6040518080602001828103825283818151815260200191508051906020019080838360005b838110156106f95780820151818401526020810190506106de565b50505050905090810190601f1680156107265780820380516001836020036101000a031916815260200191505b509250505060405180910390f35b6107766004803603602081101561074a57600080fd5b81019080803573ffffffffffffffffffffffffffffffffffffffff16906020019092919050505061137e565b005b6107c46004803603604081101561078e57600080fd5b81019080803573ffffffffffffffffffffffffffffffffffffffff169060200190929190803590602001909291905050506113af565b60405180821515815260200191505060405180910390f35b610828600480360360408110156107f257600080fd5b81019080803573ffffffffffffffffffffffffffffffffffffffff1690602001909291908035906020019092919050505061147c565b60405180821515815260200191505060405180910390f35b6108826004803603602081101561085657600080fd5b81019080803573ffffffffffffffffffffffffffffffffffffffff16906020019092919050505061149a565b60405180821515815260200191505060405180910390f35b6108c6600480360360208110156108b057600080fd5b81019080803590602001909291905050506114c1565b005b6108f4600480360360208110156108de57600080fd5b810190808035906020019092919050505061163b565b604051808273ffffffffffffffffffffffffffffffffffffffff16815260200191505060405180910390f35b61096c6004803603604081101561093657600080fd5b8101908080359060200190929190803573ffffffffffffffffffffffffffffffffffffffff1690602001909291905050506116f6565b005b6109d06004803603604081101561098457600080fd5b81019080803573ffffffffffffffffffffffffffffffffffffffff169060200190929190803573ffffffffffffffffffffffffffffffffffffffff169060200190929190505050611888565b6040518082815260200191505060405180910390f35b610a28600480360360208110156109fc57600080fd5b81019080803573ffffffffffffffffffffffffffffffffffffffff16906020019092919050505061190f565b005b610a32611988565b610a3a611a0c565b610a4f600280811115610a4957fe5b82610e1a565b610a57611a29565b50565b606060038054600181600116156101000203166002900480601f016020809104026020016040519081016040528092919081815260200182805460018160011615610100020316600290048015610af25780601f10610ac757610100808354040283529160200191610af2565b820191906000526020600020905b815481529060010190602001808311610ad557829003601f168201915b5050505050905090565b6000610b10610b09611a46565b8484611a4e565b6001905092915050565b6000600254905090565b6000610b31848484611c45565b610bf284610b3d611a46565b610bed8560405180606001604052806028815260200161284360289139600160008b73ffffffffffffffffffffffffffffffffffffffff1673ffffffffffffffffffffffffffffffffffffffff1681526020019081526020016000206000610ba3611a46565b73ffffffffffffffffffffffffffffffffffffffff1673ffffffffffffffffffffffffffffffffffffffff16815260200190815260200160002054611f069092919063ffffffff16565b611a4e565b600190509392505050565b610c05611988565b610c0d611a0c565b610c2360016002811115610c1d57fe5b82610e1a565b610c2b611a29565b50565b6000600560009054906101000a900460ff16905090565b6000610cee610c52611a46565b84610ce98560016000610c63611a46565b73ffffffffffffffffffffffffffffffffffffffff1673ffffffffffffffffffffffffffffffffffffffff16815260200190815260200160002060008973ffffffffffffffffffffffffffffffffffffffff1673ffffffffffffffffffffffffffffffffffffffff16815260200190815260200160002054611fc690919063ffffffff16565b611a4e565b6001905092915050565b600060016002811115610d0757fe5b610d1181336111b5565b610d66576040517f08c379a00000000000000000000000000000000000000000000000000000000081526004018080602001828103825260228152602001806128216022913960400191505060405180910390fd5b610d70848461204e565b600191505092915050565b600280811115610d8757fe5b610d9181336111b5565b610de6576040517f08c379a00000000000000000000000000000000000000000000000000000000081526004018080602001828103825260228152602001806128216022913960400191505060405180910390fd5b610df03383612215565b5050565b6000610dfe611988565b610e13600280811115610e0d57fe5b836111b5565b9050919050565b81600280811115610e2757fe5b6006600083815260200190815260200160002060010160009054906101000a900460ff166002811115610e5657fe5b14610eac576040517f08c379a000000000000000000000000000000000000000000000000000000000815260040180806020018281038252602c8152602001806127f5602c913960400191505060405180910390fd5b82610ecd6006600083815260200190815260200160002060000154336111b5565b610f22576040517f08c379a00000000000000000000000000000000000000000000000000000000081526004018080602001828103825260248152602001806128f86024913960400191505060405180910390fd5b610f4a83600660008781526020019081526020016000206003016123d990919063ffffffff16565b3373ffffffffffffffffffffffffffffffffffffffff168373ffffffffffffffffffffffffffffffffffffffff16857feb3e33034c392e69263b04ec0fa376dc12784a41b6676c7f31b936cbc0fbb5af60405160405180910390a450505050565b60008060008373ffffffffffffffffffffffffffffffffffffffff1673ffffffffffffffffffffffffffffffffffffffff168152602001908152602001600020549050919050565b610ffb611988565b611003611a0c565b6110196000600281111561101357fe5b826116f6565b611021611a29565b50565b8160028081111561103157fe5b6006600083815260200190815260200160002060010160009054906101000a900460ff16600281111561106057fe5b146110b6576040517f08c379a000000000000000000000000000000000000000000000000000000000815260040180806020018281038252602c8152602001806127f5602c913960400191505060405180910390fd5b826110d76006600083815260200190815260200160002060000154336111b5565b61112c576040517f08c379a00000000000000000000000000000000000000000000000000000000081526004018080602001828103825260248152602001806128f86024913960400191505060405180910390fd5b611154836006600087815260200190815260200160002060030161243790919063ffffffff16565b3373ffffffffffffffffffffffffffffffffffffffff168373ffffffffffffffffffffffffffffffffffffffff16857f63502af7324ff6db91ab38f8236a648727d9385ea6c782073dd4882d8a61a48f60405160405180910390a450505050565b600080600660008581526020019081526020016000209050600160028111156111da57fe5b8160010160009054906101000a900460ff1660028111156111f757fe5b141561121b57611213838260020161253890919063ffffffff16565b9150506112d6565b60028081111561122757fe5b8160010160009054906101000a900460ff16600281111561124457fe5b141561126857611260838260030161259590919063ffffffff16565b9150506112d6565b6040517f08c379a000000000000000000000000000000000000000000000000000000000815260040180806020018281038252600e8152602001807f496e76616c696420726f6c65496400000000000000000000000000000000000081525060200191505060405180910390fd5b92915050565b606060048054600181600116156101000203166002900480601f0160208091040260200160405190810160405280929190818152602001828054600181600116156101000203166002900480156113745780601f1061134957610100808354040283529160200191611374565b820191906000526020600020905b81548152906001019060200180831161135757829003601f168201915b5050505050905090565b611386611988565b61138e611a0c565b6113a46001600281111561139e57fe5b82611024565b6113ac611a29565b50565b60006114726113bc611a46565b8461146d8560405180606001604052806025815260200161291c60259139600160006113e6611a46565b73ffffffffffffffffffffffffffffffffffffffff1673ffffffffffffffffffffffffffffffffffffffff16815260200190815260200160002060008a73ffffffffffffffffffffffffffffffffffffffff1673ffffffffffffffffffffffffffffffffffffffff16815260200190815260200160002054611f069092919063ffffffff16565b611a4e565b6001905092915050565b6000611490611489611a46565b8484611c45565b6001905092915050565b60006114a4611988565b6114ba600160028111156114b457fe5b836111b5565b9050919050565b806002808111156114ce57fe5b6006600083815260200190815260200160002060010160009054906101000a900460ff1660028111156114fd57fe5b14611553576040517f08c379a000000000000000000000000000000000000000000000000000000000815260040180806020018281038252602c8152602001806127f5602c913960400191505060405180910390fd5b8161155e81336111b5565b6115b3576040517f08c379a00000000000000000000000000000000000000000000000000000000081526004018080602001828103825260228152602001806128216022913960400191505060405180910390fd5b6115db33600660008681526020019081526020016000206003016123d990919063ffffffff16565b3373ffffffffffffffffffffffffffffffffffffffff163373ffffffffffffffffffffffffffffffffffffffff16847feb3e33034c392e69263b04ec0fa376dc12784a41b6676c7f31b936cbc0fbb5af60405160405180910390a4505050565b6000816001600281111561164b57fe5b6006600083815260200190815260200160002060010160009054906101000a900460ff16600281111561167a57fe5b146116d0576040517f08c379a000000000000000000000000000000000000000000000000000000000815260040180806020018281038252602f8152602001806127c6602f913960400191505060405180910390fd5b6116ee600660008581526020019081526020016000206002016125ee565b915050919050565b816001600281111561170457fe5b6006600083815260200190815260200160002060010160009054906101000a900460ff16600281111561173357fe5b14611789576040517f08c379a000000000000000000000000000000000000000000000000000000000815260040180806020018281038252602f8152602001806127c6602f913960400191505060405180910390fd5b826117aa6006600083815260200190815260200160002060000154336111b5565b6117ff576040517f08c379a00000000000000000000000000000000000000000000000000000000081526004018080602001828103825260248152602001806128f86024913960400191505060405180910390fd5b611827836006600087815260200190815260200160002060020161261c90919063ffffffff16565b3373ffffffffffffffffffffffffffffffffffffffff168373ffffffffffffffffffffffffffffffffffffffff16857f3b855c56b409b671c7112789d022675eb639d0bcb8896f1b6197c132f799e74660405160405180910390a450505050565b6000600160008473ffffffffffffffffffffffffffffffffffffffff1673ffffffffffffffffffffffffffffffffffffffff16815260200190815260200160002060008373ffffffffffffffffffffffffffffffffffffffff1673ffffffffffffffffffffffffffffffffffffffff16815260200190815260200160002054905092915050565b611917611988565b61191f611a0c565b61193460028081111561192e57fe5b82611024565b61193c611a29565b50565b611949828261261c565b5050565b60005b8151811015611983576119768383838151811061196957fe5b6020026020010151612437565b8080600101915050611950565b505050565b600760009054906101000a900460ff16611a0a576040517f08c379a000000000000000000000000000000000000000000000000000000000815260040180806020018281038252601f8152602001807f5265656e7472616e637947756172643a207265656e7472616e742063616c6c0081525060200191505060405180910390fd5b565b6000600760006101000a81548160ff021916908315150217905550565b6001600760006101000a81548160ff021916908315150217905550565b600033905090565b600073ffffffffffffffffffffffffffffffffffffffff168373ffffffffffffffffffffffffffffffffffffffff161415611ad4576040517f08c379a00000000000000000000000000000000000000000000000000000000081526004018080602001828103825260248152602001806128d46024913960400191505060405180910390fd5b600073ffffffffffffffffffffffffffffffffffffffff168273ffffffffffffffffffffffffffffffffffffffff161415611b5a576040517f08c379a000000000000000000000000000000000000000000000000000000000815260040180806020018281038252602281526020018061277e6022913960400191505060405180910390fd5b80600160008573ffffffffffffffffffffffffffffffffffffffff1673ffffffffffffffffffffffffffffffffffffffff16815260200190815260200160002060008473ffffffffffffffffffffffffffffffffffffffff1673ffffffffffffffffffffffffffffffffffffffff168152602001908152602001600020819055508173ffffffffffffffffffffffffffffffffffffffff168373ffffffffffffffffffffffffffffffffffffffff167f8c5be1e5ebec7d5bd14f71427d1e84f3dd0314c0f7b2291e5b200ac8c7c3b925836040518082815260200191505060405180910390a3505050565b600073ffffffffffffffffffffffffffffffffffffffff168373ffffffffffffffffffffffffffffffffffffffff161415611ccb576040517f08c379a00000000000000000000000000000000000000000000000000000000081526004018080602001828103825260258152602001806128af6025913960400191505060405180910390fd5b600073ffffffffffffffffffffffffffffffffffffffff168273ffffffffffffffffffffffffffffffffffffffff161415611d51576040517f08c379a00000000000000000000000000000000000000000000000000000000081526004018080602001828103825260238152602001806127396023913960400191505060405180910390fd5b611d5c8383836126e9565b611dc7816040518060600160405280602681526020016127a0602691396000808773ffffffffffffffffffffffffffffffffffffffff1673ffffffffffffffffffffffffffffffffffffffff16815260200190815260200160002054611f069092919063ffffffff16565b6000808573ffffffffffffffffffffffffffffffffffffffff1673ffffffffffffffffffffffffffffffffffffffff16815260200190815260200160002081905550611e5a816000808573ffffffffffffffffffffffffffffffffffffffff1673ffffffffffffffffffffffffffffffffffffffff16815260200190815260200160002054611fc690919063ffffffff16565b6000808473ffffffffffffffffffffffffffffffffffffffff1673ffffffffffffffffffffffffffffffffffffffff168152602001908152602001600020819055508173ffffffffffffffffffffffffffffffffffffffff168373ffffffffffffffffffffffffffffffffffffffff167fddf252ad1be2c89b69c2b068fc378daa952ba7f163c4a11628f55a4df523b3ef836040518082815260200191505060405180910390a3505050565b6000838311158290611fb3576040517f08c379a00000000000000000000000000000000000000000000000000000000081526004018080602001828103825283818151815260200191508051906020019080838360005b83811015611f78578082015181840152602081019050611f5d565b50505050905090810190601f168015611fa55780820380516001836020036101000a031916815260200191505b509250505060405180910390fd5b5060008385039050809150509392505050565b600080828401905083811015612044576040517f08c379a000000000000000000000000000000000000000000000000000000000815260040180806020018281038252601b8152602001807f536166654d6174683a206164646974696f6e206f766572666c6f77000000000081525060200191505060405180910390fd5b8091505092915050565b600073ffffffffffffffffffffffffffffffffffffffff168273ffffffffffffffffffffffffffffffffffffffff1614156120f1576040517f08c379a000000000000000000000000000000000000000000000000000000000815260040180806020018281038252601f8152602001807f45524332303a206d696e7420746f20746865207a65726f20616464726573730081525060200191505060405180910390fd5b6120fd600083836126e9565b61211281600254611fc690919063ffffffff16565b600281905550612169816000808573ffffffffffffffffffffffffffffffffffffffff1673ffffffffffffffffffffffffffffffffffffffff16815260200190815260200160002054611fc690919063ffffffff16565b6000808473ffffffffffffffffffffffffffffffffffffffff1673ffffffffffffffffffffffffffffffffffffffff168152602001908152602001600020819055508173ffffffffffffffffffffffffffffffffffffffff16600073ffffffffffffffffffffffffffffffffffffffff167fddf252ad1be2c89b69c2b068fc378daa952ba7f163c4a11628f55a4df523b3ef836040518082815260200191505060405180910390a35050565b600073ffffffffffffffffffffffffffffffffffffffff168273ffffffffffffffffffffffffffffffffffffffff16141561229b576040517f08c379a000000000000000000000000000000000000000000000000000000000815260040180806020018281038252602181526020018061286b6021913960400191505060405180910390fd5b6122a7826000836126e9565b6123128160405180606001604052806022815260200161275c602291396000808673ffffffffffffffffffffffffffffffffffffffff1673ffffffffffffffffffffffffffffffffffffffff16815260200190815260200160002054611f069092919063ffffffff16565b6000808473ffffffffffffffffffffffffffffffffffffffff1673ffffffffffffffffffffffffffffffffffffffff16815260200190815260200160002081905550612369816002546126ee90919063ffffffff16565b600281905550600073ffffffffffffffffffffffffffffffffffffffff168273ffffffffffffffffffffffffffffffffffffffff167fddf252ad1be2c89b69c2b068fc378daa952ba7f163c4a11628f55a4df523b3ef836040518082815260200191505060405180910390a35050565b60008260000160008373ffffffffffffffffffffffffffffffffffffffff1673ffffffffffffffffffffffffffffffffffffffff16815260200190815260200160002060006101000a81548160ff0219169083151502179055505050565b600073ffffffffffffffffffffffffffffffffffffffff168173ffffffffffffffffffffffffffffffffffffffff1614156124da576040517f08c379a000000000000000000000000000000000000000000000000000000000815260040180806020018281038252601f8152602001807f43616e6e6f74206164642030783020746f20612073686172656420726f6c650081525060200191505060405180910390fd5b60018260000160008373ffffffffffffffffffffffffffffffffffffffff1673ffffffffffffffffffffffffffffffffffffffff16815260200190815260200160002060006101000a81548160ff0219169083151502179055505050565b60008173ffffffffffffffffffffffffffffffffffffffff168360000160009054906101000a900473ffffffffffffffffffffffffffffffffffffffff1673ffffffffffffffffffffffffffffffffffffffff1614905092915050565b60008260000160008373ffffffffffffffffffffffffffffffffffffffff1673ffffffffffffffffffffffffffffffffffffffff16815260200190815260200160002060009054906101000a900460ff16905092915050565b60008160000160009054906101000a900473ffffffffffffffffffffffffffffffffffffffff169050919050565b600073ffffffffffffffffffffffffffffffffffffffff168173ffffffffffffffffffffffffffffffffffffffff1614156126a2576040517f08c379a000000000000000000000000000000000000000000000000000000000815260040180806020018281038252602381526020018061288c6023913960400191505060405180910390fd5b808260000160006101000a81548173ffffffffffffffffffffffffffffffffffffffff021916908373ffffffffffffffffffffffffffffffffffffffff1602179055505050565b505050565b600061273083836040518060400160405280601e81526020017f536166654d6174683a207375627472616374696f6e206f766572666c6f770000815250611f06565b90509291505056fe45524332303a207472616e7366657220746f20746865207a65726f206164647265737345524332303a206275726e20616d6f756e7420657863656564732062616c616e636545524332303a20617070726f766520746f20746865207a65726f206164647265737345524332303a207472616e7366657220616d6f756e7420657863656564732062616c616e63654d7573742062652063616c6c6564206f6e20616e20696e697469616c697a6564204578636c757369766520726f6c654d7573742062652063616c6c6564206f6e20616e20696e697469616c697a65642053686172656420726f6c6553656e64657220646f6573206e6f7420686f6c6420726571756972656420726f6c6545524332303a207472616e7366657220616d6f756e74206578636565647320616c6c6f77616e636545524332303a206275726e2066726f6d20746865207a65726f206164647265737343616e6e6f742073657420616e206578636c757369766520726f6c6520746f2030783045524332303a207472616e736665722066726f6d20746865207a65726f206164647265737345524332303a20617070726f76652066726f6d20746865207a65726f206164647265737343616e206f6e6c792062652063616c6c6564206279206120726f6c65206d616e6167657245524332303a2064656372656173656420616c6c6f77616e63652062656c6f77207a65726fa26469706673582212202d0907c0797560e85829e7c2ebe2cadc133fa3f1df590e2b387a4deaedfa0bb564736f6c634300060c0033417474656d7074656420746f2075736520616e20696e76616c696420726f6c6520746f206d616e61676520616e206578636c757369766520726f6c6543616e6e6f742073657420616e206578636c757369766520726f6c6520746f20307830417474656d7074656420746f2075736520616e20696e76616c696420726f6c6520746f206d616e61676520612073686172656420726f6c65a26469706673582212208318b583a44514cc7cab43f8955f461bf73f406db3b579f9470441f42ef0a4b264736f6c634300060c0033",
  "immutableReferences": {},
  "source": "// SPDX-License-Identifier: AGPL-3.0-only\npragma solidity ^0.6.0;\n\nimport \"./SyntheticToken.sol\";\nimport \"../../common/interfaces/ExpandedIERC20.sol\";\nimport \"../../common/implementation/Lockable.sol\";\n\n/**\n * @title Factory for creating new mintable and burnable tokens.\n */\n\ncontract TokenFactory is Lockable {\n    /**\n     * @notice Create a new token and return it to the caller.\n     * @dev The caller will become the only minter and burner and the new owner capable of assigning the roles.\n     * @param tokenName used to describe the new token.\n     * @param tokenSymbol short ticker abbreviation of the name. Ideally < 5 chars.\n     * @param tokenDecimals used to define the precision used in the token's numerical representation.\n     * @return newToken an instance of the newly created token interface.\n     */\n    function createToken(\n        string calldata tokenName,\n        string calldata tokenSymbol,\n        uint8 tokenDecimals\n    ) external nonReentrant() returns (ExpandedIERC20 newToken) {\n        SyntheticToken mintableToken = new SyntheticToken(tokenName, tokenSymbol, tokenDecimals);\n        mintableToken.addMinter(msg.sender);\n        mintableToken.addBurner(msg.sender);\n        mintableToken.resetOwner(msg.sender);\n        newToken = ExpandedIERC20(address(mintableToken));\n    }\n}\n",
  "sourcePath": "@uma/core/contracts/financial-templates/common/TokenFactory.sol",
  "compiler": {
    "name": "solc",
    "version": "0.6.12+commit.27d51765.Emscripten.clang"
  },
  "schemaVersion": "3.4.0",
  "updatedAt": "2021-04-26T02:01:05.165Z",
  "devdoc": {
    "kind": "dev",
    "methods": {
      "createToken(string,string,uint8)": {
        "details": "The caller will become the only minter and burner and the new owner capable of assigning the roles.",
        "params": {
          "tokenDecimals": "used to define the precision used in the token's numerical representation.",
          "tokenName": "used to describe the new token.",
          "tokenSymbol": "short ticker abbreviation of the name. Ideally < 5 chars."
        },
        "returns": {
          "newToken": "an instance of the newly created token interface."
        }
      }
    },
    "title": "Factory for creating new mintable and burnable tokens.",
    "version": 1
  },
  "userdoc": {
    "kind": "user",
    "methods": {
      "createToken(string,string,uint8)": {
        "notice": "Create a new token and return it to the caller."
      }
    },
    "version": 1
  }
}